:020000040800F2
:10000000E00400208103000865030008670300087E
:100010006B0300086F030008730300080000000072
:10002000000000000000000000000000770300084E
:1000300079030008000000007B0300087D0300082E
:100040009B0300089B0300089B0300089B03000818
:100050009B0300089B0300089B0300089B03000808
:100060009B0300089B0300089B0300089B030008F8
:100070009B0300089B0300089B0300089B030008E8
:100080009B0300089B0300089B0300089B030008D8
:100090009B0300089B0300089B0300089B030008C8
:1000A0009B0300089B0300089B0300089B030008B8
:1000B0009B0300089B0300089B0300089B030008A8
:1000C0009B0300089B0300089B0300089B03000898
:1000D0009B030008231700089B0300089B030008EC
:1000E0009B0300089B0300089B0300089B03000878
:1000F0009B0300089B0300089B0300089B03000868
:100100009B0300089B0300089B0300089B03000857
:100110009B0300089B0300089B0300089B03000847
:100120009B0300089B0300089B0300089B03000837
:100130009B0300089B0300089B0300089B03000827
:100140009B0300089B0300089B0300089B03000817
:100150009B0300089B0300089B0300089B03000807
:100160009B0300089B0300089B0300089B030008F7
:100170009B0300089B0300089B0300089B030008E7
:100180009B0300089B030008DFF80CD003F024FF5A
:100190000048004737020008E004002038B5044654
:1001A00000200090A5208DF800008DF8014003216B
:1001B000684601F092FA38BD2DE9F04188B0074653
:1001C0000D469046002400266800411D684603F055
:1001D000E6FC5A222146641C0DF801202146641CCD
:1001E0000DF801202146641C0DF801806806020EFE
:1001F0002146641C0DF8012000BF11E037F81600FD
:10020000C0F307222046611CCCB20DF8002017F87D
:1002100016202046611CCCB20DF80020701CC6B21E
:10022000AE42EBDB6800401DC1B2684601F055FAF2
:1002300008B0BDE8F0812DED028B82B09FED410A40
:1002400010EE107A00BF00250024002001904FF42A
:10025000E13001F0D3F903F01EFC01F09BF800F04F
:10026000F9FC01F0CFF84FF478403749088053216A
:1002700040F2F31001F04AF901F0A0F94FF4A06048
:1002800001F0B0FA4FF47A7003F062FC002603E04C
:100290004520FFF783FF761C642EF9DB51E02B48E5
:1002A000006808B9012000E00020284908604FF4E8
:1002B000FA7003F04DFC26480078002841D0002554
:1002C000002405E02348005D2844C5B2601CC4B288
:1002D0002048C078001DA042F4DC1E48005DA84202
:1002E0002CD11C4840791B49097940EA012000EED5
:1002F000100AB8EEC00ADFED180A80EE201A11EEDF
:10030000107A384603F056FC41EC180B53EC182BCE
:1003100012A003F001FF0F4840790E49097940EA25
:10032000012000B2ADF8040000BF0A48C0790949B5
:10033000897940EA012000B2ADF8060000200449A6
:100340000870ACE700000000140000208C0242425C
:1003500034000020B40000200000C84225660D0AC9
:1003600000000000704700BFFEE700BFFEE700BFCF
:10037000FEE700BFFEE77047704770477047000018
:100380000648804706480047FEE7FEE7FEE7FEE72F
:10039000FEE7FEE7FEE7FEE7FEE7FEE78104000872
:1003A000890100080CB50020019000907648006893
:1003B00040F480307449086000BF7348006800F45E
:1003C000003000900198401C0190009818B90198E5
:1003D000B0F5A04FF1D16C48006800F4003010B1C6
:1003E0000120009001E0002000900098012846D1F3
:1003F00065484030006840F08050634940310860F3
:100400006248006840F44040604908605E48083037
:1004100000685D49083108600846006840F4004003
:1004200008600846006840F4A05008605848091F5A
:100430000860081F006840F08070091F086000BF56
:100440005148006800F000700028F9D040F20570B3
:10045000504908604C480830006820F003004A49C1
:10046000083108600846006840F00200086000BFDC
:1004700045480830006800F00C000828F8D10CBD91
:1004800010B54548006840F47000434908603E4894
:10049000006840F001003C49086000203A490831FA
:1004A0000860394800683D490840374908603C48C1
:1004B000091D0860081F006820F48020091F0860DB
:1004C000002031490C310860FFF76CFF4FF00060ED
:1004D00031498039086010BD70B500200022022328
:1004E00000240221284D08352D6805F00C0020B1AC
:1004F000042806D0082834D107E02A4D2A4E35605A
:1005000033E02A4D284E35602FE01F4D2D1D2D68FC
:10051000C5F380541C4D2D1D2D6805F03F0154B1CD
:10052000224DB5FBF1F5184E361D3668C6F3881618
:1005300005FB06F209E01B4DB5FBF1F5124E361D29
:100540003668C6F3881605FB06F20F4D2D1D2D6883
:10055000C5F301456D1C6B00B2FBF3F5124E35601F
:1005600003E0104D104E356000BF00BF064D08354A
:100570002D68C5F303150E4E705D0B4D2D68C540FB
:10058000094E356070BD0000003802400070004028
:1005900008544007003C024088ED00E0FFFFF6FEF3
:1005A000103000240024F4000000002000127A0023
:1005B00004000020F64A1080921C1180704710B58C
:1005C0000446F3480480042003F07AFAF048801CC3
:1005D000008810BD00BF011EA0F10102D0B2FAD107
:1005E0007047EC480088EA49088070472920E849AC
:1005F000088070472820E6490880704730B5841885
:10060000641EA2B2CC18641EA3B2E34C24786CBB67
:10061000E24C248841F66315AC4227D1E04C248893
:10062000A41A241AA0B2CC18641EA3B2DD4C2488EC
:10063000D74D2C800412AD1C2C80C4B22C808418A1
:10064000641EC4F30F242C808418641EE4B22C8032
:10065000D54C2488AD1E2C800C12AD1C2C80CCB245
:100660002C801C122C80DCB22C8019E0CD4C24880C
:10067000C74D2C800412AD1C2C80C4B22C801412E7
:100680002C80D4B22C80C84C2488AD1E2C800C1237
:10069000AD1C2C80CCB22C801C122C80DCB22C80A7
:1006A00030BD70B5054600240026BB4800780128FF
:1006B00005D1BA48008849F24131884208D0B6488D
:1006C0000078F0B9B548008841F66311884218D126
:1006D000082D15D2DFE805F00406080A0C0E1012EA
:1006E00006250DE007250BE0042509E0052507E0B8
:1006F000012505E0002503E0032501E0022500BFF8
:1007000000BF082D1CD2DFE805F00406090C0F120B
:10071000151800BF14E044F0800411E044F04004D8
:100720000EE044F0C0040BE044F0200408E044F084
:10073000600405E044F0A00402E044F0E00400BFDF
:1007400000BF36269548008849F24131884201D1E0
:1007500044F0080421463046FFF72CFF93480388F5
:100760008F48028800210846FFF748FF70BD10B58A
:1007700004468CBB0020884908708848008849F2EC
:100780004131884210D12C20824908802A20854995
:1007900008802B2084490880F020814908804FF48C
:1007A000A0708249088049E07C48008841F66311C6
:1007B000884243D12C20774908802B207949088032
:1007C0002A20794908804FF4F070754908804FF469
:1007D00048707649088031E0FFE701206E490870D3
:1007E0006E48008849F24131884210D12C20694975
:1007F00008802A206B4908802B206B4908804FF421
:10080000A07067490880F0206849088016E06348B6
:10081000008841F66311884210D12C205D49088080
:100820002A20604908802B205F4908804FF44870D7
:100830005B4908804FF4F0705C4908800020FFF7A6
:1008400030FF10BD554A128849F241339A4212D105
:10085000544A12884E4B1A8002129B1C1A80C2B254
:100860001A80514A12889B1E1A800A129B1C1A80F9
:10087000CAB21A8042E0494A128841F663139A428A
:100880003CD1454A12788AB9454A1288521E121A3A
:1008900090B2444A12883E4B1A8000229B1C1A8058
:1008A0001A8002121A80C2B21A8013E03D4A1288DE
:1008B000374B1A8002129B1C1A80C2B21A80384A27
:1008C0001288521EC2F30F221A80354A1278521E25
:1008D000D2B21A80344A12882D4B1A800A129B1CFD
:1008E0001A80CAB21A80314A1288521EC2F30F22ED
:1008F0001A802E4A1278521ED2B21A8070473EB524
:1009000004460D46002002900190009029462046A2
:10091000FFF798FF2E201E490880881C008802904F
:100920001E48008841F66311884202D1BDF80800D4
:100930003EBD0220FFF74EFE1548801C0088009047
:10094000BDF80800C0B20190BDF804004FF6FF7179
:1009500001EA00200190BDF80800C012C002BDF8F5
:100960000410891240EA4110BDF8001040EAE1206D
:10097000DEE730B504460D4629462046FFF762FF04
:10098000FFF72FFE0A4800880149891C088030BD06
:10099000FE1F006C200000201A000020180000201C
:1009A0001C00002022000020240000201E00002047
:1009B0001400002070B505460E4614463146284600
:1009C000FFF7D7FFFE480088FE490880881C048096
:1009D00070BDBE21FB4A11800521921C1180114679
:1009E000088001211180FF211180002111801180D8
:1009F000704770B5044600250026F3480088F34987
:100A0000098800FB01F600210846FFF71BFFFFF7EE
:100A1000E8FD00BF03E0EB48801C04806D1CB5427C
:100A2000F9D370BD00B59FB00121782001F052FDCF
:100A30000121084601F086FD4FF480601D900120E1
:100A40008DF8780000208DF87A0002208DF879006A
:100A500001208DF87B001DA9DD4800F0B9FF4CF2A4
:100A600033701D9002208DF8780000208DF87A00F8
:100A700003208DF8790001208DF87B001DA9D54851
:100A800000F0A6FF4FF680701D9002208DF87800D0
:100A900000208DF87A0003208DF8790001208DF870
:100AA0007B001DA9CC4800F093FF04201D9002207C
:100AB0008DF8780000208DF87A0003208DF87900F9
:100AC00001208DF87B001DA9C44800F081FF4FF480
:100AD00080501D9002208DF8780000208DF87A005B
:100AE00003208DF8790001208DF87B001DA9BB48FB
:100AF00000F06EFF0C220021B64800F0F4FF0C223B
:100B00000121B44800F0EFFF0C220421B14800F0AD
:100B1000EAFF0C220521AF4800F0E5FF0C22082176
:100B2000AC4800F0E0FF0C220921AA4800F0DBFFEE
:100B30000C220A21A74800F0D6FF0C220E21A5485E
:100B400000F0D1FF0C220F21A24800F0CCFF0C22B4
:100B50000721A14800F0C7FF0C2208219E4800F0A1
:100B6000C2FF0C2209219C4800F0BDFF0C220A2183
:100B7000994800F0B8FF0C220B21974800F0B3FF12
:100B80000C221146944800F0AEFF0C220D21924831
:100B900000F0A9FF0C220E218F4800F0A4FF0C22C8
:100BA0000F218D4800F09FFF0C2202218B4800F09E
:100BB0009AFF0C221146894800F095FF0F200790FC
:100BC000002008903C20099000200A900B900C9087
:100BD0000D90082000900020019007200290002036
:100BE000039004900590069006200E9000200F9030
:100BF00010901020119000201290149013901590D6
:100C000016904FF480501790002018904FF48040B9
:100C1000199000201A9007A81B90CDF870D00EA84C
:100C200000F0B5FF0121062001F03CF8322002F06F
:100C30008FFF1FB000BDD321624A1180911C08882C
:100C4000088808884FF6FF7101EA0020911C098886
:100C50000843704710B5FFF7E5FEFFF7ECFF60496A
:100C600008800846008849F24131884223D0A120FB
:100C700054490880881C0088594908805148801CC4
:100C800000880880084600884FF6FF7101EA0020BE
:100C9000534908804B48801C008809880843504904
:100CA00008800846008845F26171884203D141F608
:100CB00063104B4908804A48008849F24131884214
:100CC0001CD14848006820F00F004FF02041C1F8C7
:100CD0001C010846D0F81C0120F47060C1F81C010A
:100CE0000846D0F81C0140F00300C1F81C0108467A
:100CF000D0F81C0140F40070C1F81C01384800888D
:100D000049F2413188426FD1CF202E49088000201E
:100D1000891C0880C120088030200880ED20891EB1
:100D200008806420891C0880032008801220088025
:100D300081200880E820891E08808520891C088081
:100D4000102008807A200880CB20891E0880392056
:100D5000891C08802C20088000200880342008800E
:100D600002200880F720891E08802020891C088026
:100D7000EA20891E08800020891C08800880C02085
:100D8000891E08801B20891C0880C120891E0880BC
:100D90000120891C0880C520891E08803020891CFC
:100DA00008800880C720891E0880B720891C088019
:100DB0003620891E08804820891C08803A2014E0CB
:100DC00020000020FE1F006C1C0000201E000020E0
:100DD00000140240000C02400010024000180240C3
:100DE000180000201C0100A082E0891E0880552008
:100DF000891C0880B120891E08800020891C088079
:100E00001A200880B620891E08800A20891C0880C4
:100E1000A2200880F220891E08800020891C0880FA
:100E20002620891E08800120891C0880E020891E58
:100E300008800F20891C08802A200880282008802C
:100E4000082008800E200880082008805420088090
:100E5000A9200880432008800A2008800F200880ED
:100E600000200880088008800880E120891E088012
:100E70000020891C08801520088017200880072082
:100E8000088011200880062008802B20088056202A
:100E900008803C20088005200880102008800F2052
:100EA00008803F20088008800F2008802B20891EA2
:100EB00008800020891C08800880012008803F20CD
:100EC00008802A20891E08800020891C088008804C
:100ED0000880EF2008801120891E0880782002F009
:100EE00037FE2920FA4908800120FA49086098E075
:100EF000F948008841F663118842F8D1E220F449AC
:100F000008801D20891C0880022008800420088099
:100F1000642002F0D5FDE020ED4908800120891C05
:100F200008800A2002F014FEE020E949088003202E
:100F3000891C08800C2002F00BFE0120E449088087
:100F40000A2002F005FEE620E14908802F20891CD6
:100F50000880FF2008800880B020891E088020209B
:100F6000891C0880002008800320088040F21F3080
:100F700008800120088040F2DF10088000200880EF
:100F8000B420891E08800420891C088040F21F407C
:100F90000880002008802E2008800020088008801B
:100FA00008800880B620891E08800220891C0880DD
:100FB0004FF4037008800020088017200880152057
:100FC0000880002008800880F020891E0880032007
:100FD000891C08802920891E0880D02008800020D4
:100FE000891C0880BE20891E08800520891C088075
:100FF000FE200880012008800020088008800880EA
:10100000B820891E08800320891C088001200880E0
:10101000BA20891E08800120891C0880FF20FFF764
:10102000D8FC0020FFF7A3FB4FF6FF70FFF7E1FCB1
:1010300010BD2DE9F04F05460E4617469846DDF8DF
:1010400024A04FF0000B781B401C1FFA80FB344695
:1010500014E021462846FFF7F5FBFFF7C2FA4FF0F0
:10106000000907E09A48801CA0F800A009F10100DF
:101070001FFA80F9D945F5DB601C84B24445E8DDF0
:10108000BDE8F08F2DE9F84F07460D46904699468A
:10109000DDF828B0A8EB0700401C80B20090A9EB57
:1010A0000500401C1FFA80FA002416E0281981B2BE
:1010B0003846FFF7C7FBFFF794FA002608E004FB69
:1010C0000A603BF810008249891C0880701C86B2B7
:1010D00000988642F3DB601C84B25445E6DBBDE831
:1010E000F88F2DE9FF4F074616461C46BB460C2CD1
:1010F00001D198460AE0102C01D1A04606E0182C38
:1011000002D14FF0300801E0BDE8FF8FA6F12000CA
:10111000C6B2002548E00C2C07D106EB46006F490B
:1011200001EB800010F8059010E0102C05D16C4800
:1011300000EB061010F8059008E0182C06D106EB1D
:101140004600684901EB001010F805904FF0000AC6
:1011500024E009F0010030B1634802883846019963
:10116000FFF728FC05E06148028838460199FFF73F
:1011700021FC4FEA6909781C87B2A7EB0B0104EB4D
:10118000D472B1EB620F05D15F460198401C80B26A
:10119000019006E00AF1010000F0FF0ABAF1080F21
:1011A000D7DB00BF681CC5B24545B4DB00BFABE769
:1011B000F0B506460F4615461C4611E022782B4630
:1011C00039463046FFF78DFF284605EBD07106EB18
:1011D00061018EB246480088864200DB06E0641C4E
:1011E0002078202802DB20787E28E7DD00BFF0BDD4
:1011F0002DE9F04F04460D4616461F46DDE90989E4
:101200003948B0F800A03948B0F800B03648A0F826
:1012100000803648A0F800903B46324629462046DA
:10122000FFF7C6FF3048A0F800A03048A0F800B093
:10123000BDE8F08F10B50246012000E050430B1EC0
:10124000A1F10104E1B2F9D110BD2DE9FF4F81B048
:10125000074690461E460E9CC3464FF0000906E026
:101260000A20BBFBF0FB09F1010000F0FF09BBF114
:10127000000FF5D1B14508DD1EA32246384602997C
:10128000FFF796FF05B0BDE8F08F002553E0A6EB11
:101290000900A84232DD0F9860B104EBD471491007
:1012A00001FB057188B22346302200940299FFF7B2
:1012B00018FF3EE004EBD471491001FB057188B2C0
:1012C0002346202200940299FFF70BFF31E0000033
:1012D000FE1F006CA8824242180000200A4A000843
:1012E0007E4E00086E5400081400002016000020F6
:1012F0001C0000204552524F52000000701B401E3F
:10130000C1B20A20FFF796FFB8FBF0F00A21B0FB4C
:10131000F1F201FB120A04EBD471491001FB0571D3
:1013200088B20AF13001CAB2234600940299FFF74D
:10133000D8FE681CC5B2B542A9DB00BFA2E72DE903
:10134000FF4F82B004460D461646DDE91189109F15
:101350000E48B0F800A00E48B0F800B00B48A0F856
:1013600000800B48A0F800900F98CDE900073246A6
:1013700029462046059BFFF768FF0448A0F800A017
:101380000348A0F800B006B0BDE8F08F14000020BC
:10139000160000201CB50121512001F09BF81820F7
:1013A000009001208DF8040000208DF80600032035
:1013B0008DF8050001208DF8070069460E4800F001
:1013C00007FB18210C4800F07FFB4FF400700090E1
:1013D00069460A4800F0FCFA4FF40071074800F033
:1013E00073FB022000906946054800F0F1FA0221E3
:1013F000034800F069FB1CBD0010024000180240C9
:10140000000002401CB50121202001F063F84FF4D8
:101410007070009000208DF8040003208DF8050006
:1014200001208DF807006946314800F0D1FA1CBD53
:101430000021304A11703049096861B12E49091FF5
:10144000096841B12C490839096821B12A490C3988
:10145000096800293CD12849096819B90121274A9E
:10146000117016E02449091F096819B90221234A9D
:1014700011700EE020490839096819B903211F4A83
:10148000117006E01C490C39096811B904211B4A86
:1014900011701A4909781A4A1278914210D11949E3
:1014A0000988491C174A118014490978164A117095
:1014B000E8B914490988012919DD0021117016E0E5
:1014C0000021104A11800D4909780D4A11700EE073
:1014D0000C490988022903DD08490978054A117079
:1014E0000021074A1170074A1180074A117070479E
:1014F0000014024027000020248242422A000020DB
:101500002B000020280000202600002030B58BB0E2
:1015100004460D460121102000F0DCFF02208DF86A
:10152000080000208DF80A004FF4007001900020A0
:101530008DF80B0003208DF8090001A91D4800F06B
:1015400047FA012209211B4800F0CDFA0121084683
:1015500001F01AF8681E80B2ADF820000020ADF846
:101560002200601E09900020ADF8280008A912484A
:1015700001F0DBFB6020ADF80C000120ADF80E009F
:101580000020ADF81800059003A90B4801F062FC9B
:101590000821094801F0EBFD0121074801F030FC6A
:1015A0000121054801F04AFC0121034802F037F807
:1015B0000BB030BD00100240000001401CB50121FD
:1015C000082000F087FF4FF44050009001208DF874
:1015D000040000208DF8060003208DF8050002208D
:1015E0008DF807006946044800F0F2F94FF4805185
:1015F000014800F06BFA1CBD000C024010B588B029
:1016000004460121084600F065FF0121102000F08A
:10161000BBFF072209216C4800F065FA07220A2166
:10162000694800F060FA4FF4C060069002208DF81F
:101630001C008DF81D0000208DF81E0001208DF883
:101640001F0006A9604800F0C3F902940020ADF81D
:101650000C00ADF80E00ADF81000ADF814000C2031
:10166000ADF8120002A9594801F0EFF801215748DE
:1016700001F073F94021554801F057FA012240F278
:101680002551524801F01FFA25208DF8040003204F
:101690008DF805008DF8060001208DF8070001A8DF
:1016A00000F0A5F808B010BD00BF4849098801F056
:1016B00040010029F9D045498880704770B504463B
:1016C0000D46E0B2FFF7F0FF00BF40213F4801F0B8
:1016D0001FFA0028F9D0204670BD30B502460B46EF
:1016E00000240EE0581EA04205DD105C115D084488
:1016F000C1B2581E11542146651CECB2505CFFF774
:10170000D3FF9C42EEDB30BD10B503460C460022F1
:1017100000BF985CFFF7C8FF501C82B2A242F8DB02
:1017200010BD10B540F22551284801F007FA0028F5
:1017300048D0002026490860244801F03DF9C1B294
:10174000244802780078401C224B187022488154AB
:1017500000785A2802D00020194608701D480078E9
:10176000022806D11C4840785A2802D00020194986
:10177000087018480078032824DD1748C078401DF9
:1017800014490978884200D010BD13488078152884
:1017900012D0352811D0452810D11048007850B902
:1017A0000F480D490A6802604A684260097A01726E
:1017B00001200A49087001E000E000BF00BF0020DE
:1017C0000449087000BFDFE700000240001001403C
:1017D0009002424235000020C80000203400002062
:1017E000B400002032490143324A1160704770B59D
:1017F000002100230F22C4781CB32E4C246804F46B
:10180000E064C4F5E064C4F30721C1F10404E3B269
:101810000A4144789C40E1B28478144021430C078B
:10182000210E254C05786155047804F01F0501242C
:10183000AC4005786D11AD0005F1E025C5F800411B
:1018400009E0047804F01F050124AC401B4D067824
:10185000761145F8264070BD194A0A400243154BDF
:101860001B1F1A60704739B1124A121D12680243D9
:10187000104B1B1D1A6006E00E4A121D12688243AF
:101880000C4B1B1D1A607047042808D14FF0E02153
:10189000096941F004014FF0E022116107E04FF0C7
:1018A000E021096921F004014FF0E0221161704745
:1018B0000000FA050CED00E000E400E080E100E04B
:1018C00080FFFF1F10B504469848844208D10121CB
:1018D000084600F06AFE0021012000F066FE76E076
:1018E0009348844208D10121022000F05EFE0021CD
:1018F000022000F05AFE6AE08E48844208D101219D
:10190000042000F052FE0021042000F04EFE5EE0B4
:101910008948844208D10121082000F046FE0021B8
:10192000082000F042FE52E08448844208D10121A0
:10193000102000F03AFE0021102000F036FE46E0B4
:101940007F48844208D10121202000F02EFE002192
:10195000202000F02AFE3AE07A48844208D1012192
:10196000402000F022FE0021402000F01EFE2EE06C
:101970007548844208D10121802000F016FE002124
:10198000802000F012FE22E07048844208D101213C
:10199000801500F00AFE0021A01500F006FE16E0FA
:1019A0006B48844208D10121401500F0FEFD002162
:1019B000601500F0FAFD0AE06648844207D1012173
:1019C000001500F0F2FD0021201500F0EEFD10BD25
:1019D000F0B50A4600210023002400BF3DE00125A8
:1019E00005FA01F3156805EA03049C4234D1056841
:1019F0004F000326BE40B543056015794E00B54043
:101A00000668354305601579012D02D01579022D40
:101A100016D185684F000326BE40B54385605579D1
:101A20004E00B540866835438560456801268E4086
:101A3000B5434560456896798E40B6B235434560FA
:101A4000C5684F000326BE40B543C560D5794E003A
:101A5000B540C6683543C560491C1029BFD3F0BDE9
:101A60004FF6FF7101600021017141718171C171F7
:101A7000704708B54FF480320092009A0A430092F2
:101A8000009AC261C161009AC261C2690092C269D2
:101A9000009208BD0246002013690B400BB10120E3
:101AA00000E0002070470146086980B27047024696
:101AB000002053690B400BB1012000E0002070476B
:101AC0000146486980B2704701837047418370477F
:101AD0000AB1018300E04183704741617047426968
:101AE0004A4042617047F0B5002300244D07ED0ED7
:101AF00002FA05F3CE1000F1200555F826504E07E6
:101B0000F70E0F26BE40B543CF1000F1200646F871
:101B10002750CE1000F1200555F8265045EA030461
:101B2000CE1000F1200545F82640F0BD000002402F
:101B30000004024000080240000C02400010024075
:101B40000014024000180240001C02400020024025
:101B5000002402400028024030B943F2DB02810039
:101B6000A1F1C0410A6005E043F2D2028100A1F177
:101B7000C0410A606FF07042411C8900A1F1C04170
:101B80000A608100A1F1C041C1F804217047D0E989
:101B900001121143C26811430269114342691143A2
:101BA00082691143C2691143026A1143426A1143B7
:101BB000826A1143C26A1143026B114302689200A8
:101BC000A2F1C0421160816808290BD10168890027
:101BD000A1F1C041096841F0400201688900A1F10A
:101BE000C0410A60416B0968426B526841EA0211C8
:101BF000426B926841EA0221426B928941EA0241BA
:101C0000426B128A41EA0251426B127D41EA026143
:101C1000426B926911430268521C9200A2F1C042C9
:101C20001160C16AB1F5804F1BD1816B0968826B6D
:101C3000526841EA0211826B926841EA0221826B8A
:101C4000128A41EA0251826B127D41EA0261826B83
:101C50009269114302689200A2F1C042C2F80411D5
:101C600007E06FF0704201688900A1F1C041C1F83E
:101C70000421704700210160022141600021816040
:101C8000C160016141618161C16101624FF48051B4
:101C90004162490081620021C1620163F8494163E8
:101CA0008163704751B18200A2F1C042126842F0D4
:101CB00001038200A2F1C042136009E08200A2F198
:101CC000C0421268EF4B1A408300A3F1C0431A6070
:101CD000704710280AD118214FF020421166402188
:101CE00051664FF0FC319166D16610E01821E64A4A
:101CF000116040214FF02042C2F884104FF0FC31B7
:101D0000E14A083211604FF02042C2F88C1070474F
:101D100030B5002100220023446844F0080485689F
:101D20002C43C5682C4305692C43456944EA452486
:101D3000856944EA4531C4692468C5696D6844EA27
:101D40000524C5692D8944EA0544C5692D7B44EA0B
:101D50000562046A2468056A6D6844EA0524056A18
:101D60002D8944EA0544056A2D7B44EA056304682D
:101D7000102C05D14FF020442166A266E36608E0EE
:101D8000C14C21604FF02044C4F88820BE4C0C3474
:101D9000236030BD10210160002141608160C1607D
:101DA000016141618161FC21C2691160C2695160B8
:101DB000C2699160C269D160026A1160026A5160B1
:101DC000026A9160026AD160704799B1102808D107
:101DD0004FF02042126E42F004024FF020431A6688
:101DE0001DE0A94A126842F004024FF02043C3F8F4
:101DF000802014E0102809D14FF02042126EA14B30
:101E0000DB1E1A404FF020431A6608E09E4A126813
:101E10009C4BDB1E1A404FF02043C3F880207047D4
:101E200099B1102808D14FF02042126E42F04002C2
:101E30004FF020431A661DE0934A126842F04002B8
:101E40004FF02043C3F8802014E0102809D14FF050
:101E50002042126E8B4B3F3B1A404FF020431A66D4
:101E600008E0894A1268874B3F3B1A404FF02043F5
:101E7000C3F88020704701460020102903D14FF09D
:101E80002042506F02E0804A1432106870471820D8
:101E90007D492031086000200906C1F8A4004FF0F8
:101EA000FC30794928310860091D0860091D086067
:101EB0007047016841F01001426841EA422182689E
:101EC00041EA4231704A20321160C1680968C26833
:101ED000526841EA0221C268128941EA0241C2689D
:101EE000127B41EA0261684A28321160016909687F
:101EF0000269526841EA02210269128941EA0241FB
:101F00000269127B41EA02615F4A2C321160416929
:101F100009684269526841EA02214269128941EA2C
:101F200002414269127B41EA02614FF02042C2F84D
:101F3000B01070470021016041608160FC21C268DF
:101F40001160C2685160C2689160C268D160026964
:101F5000116002695160026991600269D160426951
:101F6000116042695160426991604269D160704775
:101F700048B145492031096841F004014FF0204241
:101F8000C2F8A01009E04049203109683D4AD21E3C
:101F900011404FF02042C2F8A010704710B5F2B1C6
:101FA000102807D14FF020435B6E0B434FF02044C5
:101FB000636632E0B0F5807F08D1334B1B1D1B6890
:101FC0000B434FF02044C4F8843026E02E4B2433DA
:101FD0001B680B434FF02044C4F8A4301DE01028C8
:101FE00007D14FF020435B6E8B434FF02044636674
:101FF00013E0B0F5807F08D1234B1B1D1B688B437A
:102000004FF02044C4F8843007E01F4B24331B6892
:102010008B434FF02044C4F8A43010BD10B50246E5
:1020200000200023102A03D14FF02044636E09E002
:10203000B2F5807F03D1144C241D236802E0124CBA
:102040002434236803EA01040CB1012000E00020DD
:1020500010BD102807D14FF02042526E8A434FF036
:1020600020435A6619E0B0F5807F0FD1064A121D51
:1020700012688A434FF02043C3F884200DE000002B
:1020800040660008FEFF0F00800000A0234A12688F
:102090008A434FF02043C3F8A420704770B502462E
:1020A0000020002300240025102A03D14FF02046F1
:1020B000736E08E0B2F5807F03D1184E203E33687E
:1020C00001E0164E336803EA010403EAD10514B1B6
:1020D0000DB1012000E0002070BD102808D14FF0A4
:1020E0002042526E22EAD1024FF020435A6614E099
:1020F000B0F5807F09D1094A203A126822EAD1025C
:102100004FF02043C3F8842007E0044A126822EA13
:10211000D1024FF02043C3F8A4207047A40000A0D0
:10212000F948006840F00100F74908600020F649CE
:1021300008310860F4480068F4490840F249086032
:10214000F348091D0860F348EF4984310860F048FE
:102150001038091D0860EC48006820F48020EA4926
:1021600008600020E8490C310860E7498C310860BC
:1021700070470021E44A921C1170114608707047A4
:1021800010B501460022002300204A11012A02D185
:10219000DD4C236808E0022A03D1DB4C703423684D
:1021A00002E0D94C7434236801F01F0201249440EA
:1021B0001C400CB1012000E0002010BD38B500200B
:1021C00000900024002500BF3120FFF7D9FF05460D
:1021D0000098401C00900098B0F5A04F01D0002D51
:1021E000F2D03120FFF7CCFF08B1012400E0002439
:1021F000204638BD01460020C34A106820F0F80090
:1022000040EAC10010607047C34908607047002170
:10221000BD4A703211701170012802D004280AD111
:1022200004E00121B84A7032117005E00521B64A78
:102230007032117000E000BF00BF7047B7490860FE
:10224000704770B5049C41EA82150126C6EB53061F
:1022500045EA0645054345EA0465AB4E361D356043
:1022600070BDAD4908667047820142EA0172A64B13
:1022700084331A607047A8498866704710B5830197
:1022800043EA016343EA02739F4C8834236010BD24
:10229000A14908677047A049C864704702460020FA
:1022A000994B0833186820F0EC6042EA01031843A8
:1022B000954B08331860704702460020924B083354
:1022C000186820F0784042EA010318438E4B083327
:1022D00018607047014600208B4A0832106820F0D1
:1022E000030008431060704787480830006800F01A
:1022F0000C00704701460020834A0832106820F025
:10230000F000084310607047014600207E4A083202
:10231000106820F4E0500843106070470146002028
:10232000794A0832106820F4604040EAC100106029
:102330007047F0B500210022002402250026022368
:10234000714F08373F6807F00C0121B1042905D00F
:10235000082937D105E0724F076036E0714F0760FA
:1023600033E0694F3F1D3F68C7F38056664F3F1DFE
:102370003F6807F03F036EB16A4FB7FBF3F7DFF832
:1023800088C10CF1040CDCF800C0CCF3881C07FBFE
:102390000CF40CE0624FB7FBF3F7DFF86CC10CF103
:1023A000040CDCF800C0CCF3881C07FB0CF4564F7F
:1023B0003F1D3F68C7F301477F1C7D00B4FBF5F765
:1023C000076002E0564F076000BF00BF4E4F08375E
:1023D0003F6807F0F0010909534F7A5C0768D7405E
:1023E0004760494F08373F6807F4E051890A4E4F6C
:1023F0007A5C4768D7408760434F08373F6807F4E7
:102400006041490B484F7A5C4768D740C760F0BDD0
:10241000002100F44072B2F5407F0AD13A4A0832F6
:10242000116821F4F811414A02401143364A08323A
:102430001160354A70321268C0F30B031A43324BF5
:1024400070331A6070473549443908607047334922
:1024500040390860704736490860704701460020DF
:10246000294A8C32106820F01F004A1E1043264A69
:102470008C321060704701460020234A8C3210686D
:1024800020F4F8504A1E40EA02201F4A8C321060A5
:102490007047014600201C4A8C32106820F440101E
:1024A00008431060704701460020174A8C321068BC
:1024B00020F4400008431060704701460020124A93
:1024C0008C32106820F4403008431060704719497E
:1024D0000860704739B10C4A3032126802430A4B27
:1024E00030331A6006E0084A303212688243064BE5
:1024F00030331A607047F9B1034A3432126802432C
:10250000014B34331A601CE000380240FFFFF6EA4A
:10251000103000240030002000004742800E474267
:102520000024F40000127A0036000020FFFCFF0FA8
:102530005C014742E01147428F4A126882438E4B4A
:102540001A60704739B18C4A121D126802438A4BD7
:102550001B1D1A6006E0884A121D12688243864BD2
:102560001B1D1A60704739B1834A0C32126802434E
:10257000814B0C331A6006E07F4A0C3212688243AA
:102580007D4B0C331A60704739B17B4A10321268A8
:102590000243794B10331A6006E0774A1032126812
:1025A0008243754B10331A60704739B1724A243A2E
:1025B00012680243704B243B1A6006E06E4A243ACC
:1025C000126882436C4B243B1A60704739B16A4AE7
:1025D000203A12680243684B203B1A6006E0664AC4
:1025E000203A12688243644B203B1A60704739B12D
:1025F000614A1C3A126802435F4B1C3B1A6006E0BA
:102600005D4A1C3A126882435B4B1C3B1A60704760
:1026100039B1594A143A12680243574B143B1A60B5
:1026200006E0554A143A12688243534B143B1A6031
:10263000704739B1504A103A126802434E4B103B72
:102640001A6006E04C4A103A126882434A4B103B2B
:102650001A60704739B1484A1C3212680243464B2F
:102660001C331A6006E0444A1C3212688243424B13
:102670001C331A60704739B13F4A20321268024356
:102680003D4B20331A6006E03B4A203212688243F9
:10269000394B20331A60704739B1374A24321268F7
:1026A0000243354B24331A6006E0334A2432126861
:1026B0008243314B24331A60704739B12E4A2C3291
:1026C000126802432C4B2C331A6006E02A4A2C3243
:1026D00012688243284B2C331A60704739B1264A5E
:1026E000303212680243244B30331A6006E0224A2B
:1026F000303212688243204B30331A607047012811
:1027000008D11D493C31096841F008011A4A3C32A0
:10271000116007E018493C31096821F00801164AA8
:102720003C321160704739B1134A273A127802439C
:10273000114B273B1A7006E00F4A273A1278824362
:102740000D4B273B1A7070470B484030006840F033
:102750008070094940310860704701460020064AF0
:10276000283A12680A400AB1012000E000207047B0
:1027700001492639087070473438024010B50446C4
:10278000FA48844208D101211020FFF752FF0021AE
:102790001020FFF74EFF57E0F548844209D1012190
:1027A0004804FFF735FF00214FF40030FFF730FFFA
:1027B0004AE0F048844209D101218804FFF728FF4C
:1027C00000214FF48020FFF723FF3DE0EA488442D8
:1027D00009D10121C804FFF71BFF00214FF400209D
:1027E000FFF716FF30E0E548844209D101210805D2
:1027F000FFF70EFF00214FF48010FFF709FF23E0E1
:10280000DF48844208D101212020FFF712FF002178
:102810002020FFF70EFF17E0DA48844209D101219A
:102820008807FFF7F5FE00214FF08040FFF7F0FE2C
:102830000AE0D548844207D101214005FFF7E8FEB0
:1028400000216005FFF7E4FE10BD2DE9FF470546B6
:102850000E460024A14600BFA046B08900B100BFCB
:102860002C8A24F44054F08804432C82AC8941F231
:102870000C608443B088318908437189084304435C
:10288000AC81AC8A24F44074B0890443AC826846BD
:10289000FFF74FFDB548854202D0B948854202D1C5
:1028A000DDF80C9001E0DDF80890A88900F4004004
:1028B00040B109EBC90000EB091031684900B0FBD9
:1028C000F1F707E009EBC90000EB09103168890056
:1028D000B0FBF1F76420B7FBF0F00401200964219C
:1028E00001FB1078A88900F4004040B1322000EBD1
:1028F000C800B0FBF1F000F00700044308E032200C
:1029000000EB08106421B0FBF1F000F00F0004436D
:102910002C81BDE8FF874FF41651016000218180B2
:10292000C18001810C21418100218181704710B556
:1029300002460020108A20F470600B884C882343E4
:102940008C882343CC8823431843108210BD002178
:10295000018041808180C180704721B1828942F429
:102960000052828104E082894DF6FF731A40828111
:102970007047028B02F47F420283028B0A43028378
:10298000704721B1828942F40042828103E082894A
:10299000C2F30E028281704721B1828A42F4006242
:1029A000828204E0828A4FF2FF731A40828270476B
:1029B000C1F308028280704701468888C0F308008E
:1029C0007047028A4FF6F0731A400282028A0A4365
:1029D0000282704721B1828942F00202828104E0C2
:1029E00082894FF6FD731A408281704782894FF2C7
:1029F000FF731A40828182890A4382817047028A6A
:102A00004FF6DF731A400282028A0A43028270473D
:102A100021B1028A42F48042028204E0028A4BF62B
:102A2000FF731A4002827047818941F00101818160
:102A3000704721B1828A42F00802828204E0828AD1
:102A40004FF6F7731A4082827047028BD2B202832C
:102A5000028B42EA01220283704721B1828A42F04E
:102A60002002828204E0828A4FF6DF731A4082825B
:102A7000704721B1828A42F01002828204E0828A89
:102A80004FF6EF731A4082827047828A4FF6FB73CB
:102A90001A408282828A0A438282704721B1828AE6
:102AA00042F00202828204E0828A4FF6FD731A40ED
:102AB000828270471AB1838A0B43838202E0838A41
:102AC0008B4383827047F0B503460024002600251F
:102AD000002040F66A17B94200D100BF1846C1F382
:102AE000421401F01F06012707FA06F5012C01D157
:102AF0000C3004E0022C01D1103000E014301AB187
:102B000007682F43076002E00768AF430760F0BD26
:102B100002460020B1F5007F00D100BF13880B40B2
:102B20000BB1012000E00020704701F40072B2F503
:102B3000007F00D100BFCA430280704770B50246D3
:102B4000002400230025002040F66A16B14200D17F
:102B500000BFC1F3421501F01F03012606FA03F37B
:102B6000012D13D19689334017E000000010014079
:102B70000044004000480040004C0040005000402D
:102B80000014014000780040007C0040022D02D17A
:102B9000168A334001E0968A33400C12012606FA69
:102BA00004F41688344013B10CB1012000E0002079
:102BB00070BD10B50022002340F66A14A14200D176
:102BC00000BF0A1201249440A3B2DC43048010BD6C
:102BD00010B50446FE48844208D101210846FFF79B
:102BE00028FD00210120FFF724FD9DE0B4F1804F76
:102BF00008D101210846FFF70BFD00210120FFF756
:102C000007FD91E0F348844208D101210220FFF73B
:102C1000FFFC00210220FFF7FBFC85E0EE48844228
:102C200008D101210420FFF7F3FC00210420FFF765
:102C3000EFFC79E0E948844208D101210820FFF740
:102C4000E7FC00210820FFF7E3FC6DE0E448844244
:102C500008D101211020FFF7DBFC00211020FFF735
:102C6000D7FC61E0DF48844208D101212020FFF732
:102C7000CFFC00212020FFF7CBFC55E0DA4884424E
:102C800008D101210220FFF7D4FC00210220FFF728
:102C9000D0FC49E0D548844209D101210804FFF75E
:102CA000C8FC00214FF48030FFF7C3FC3CE0D04863
:102CB000844209D101214804FFF7BBFC00214FF4F5
:102CC0000030FFF7B6FC2FE0CA48844209D1012149
:102CD0008804FFF7AEFC00214FF48020FFF7A9FC29
:102CE00022E0C548844208D101214020FFF790FC32
:102CF00000214020FFF78CFC16E0C048844208D138
:102D000001218020FFF784FC00218020FFF780FC58
:102D10000AE0BB48844207D101218015FFF778FC07
:102D20000021A015FFF774FC10BD00220288A84BFB
:102D300098420ED0AC4B98420BD0B0F1804F08D0E7
:102D4000A44B984205D0A44B984202D0A34B984282
:102D500004D14FF68F731A404B881A43A04B984208
:102D600007D0A04B984204D04FF6FF431A400B897E
:102D70001A4302804B68C3620B880385944B9842C8
:102D800002D0994B984201D18B7A0386012383822A
:102D900070474FF0FF314160002101800181418087
:102DA000817270470185828270470A46002101883E
:102DB0004FF68F731940114301807047416270478D
:102DC000C16270470146486A70470146088D7047E6
:102DD00021B1028842F00202028004E002884FF62C
:102DE000FD731A400280704721B1028842F004024C
:102DF000028004E002884FF6FB731A40028070479D
:102E000021B1028842F08002028004E002884FF67D
:102E10007F731A400280704702884FF6F7731A409A
:102E2000028002880A430280704702884FF6FF43FF
:102E30001A40028002880A430280704721B102884A
:102E400042F00102028004E002884FF6FE731A404D
:102E50000280704770B5002400220023058C4FF6D5
:102E6000FE7635400584028C8388048B4FF68F757F
:102E70002C40B51E2C400D882C43751E2A408D8990
:102E80002A434D882A43524DA84202D0564DA842AB
:102E900013D14FF6F7752A40CD892A434FF6FB75BB
:102EA0002A408D882A434FF6FF652B404FF6FF5589
:102EB0002B400D8A2B434D8A2B43838004838D68DE
:102EC0004563028470BD70B5002400220023058C88
:102ED0004FF6EF7635400584028C8388048B48F6E4
:102EE000FF752C404FF6FF452C400D884FF6FF76BE
:102EF00006EA05252C434FF6DF752A408D8906EA40
:102F000005152A434D8806EA05152A43304DA84287
:102F100002D0354DA8421DD14FF67F752A40CD898C
:102F20004FF6FF7606EA05152A434FF6BF752A408D
:102F30008D8806EA05152A434FF6FF352B404FF2E0
:102F4000FF752B400D8A06EA85052B434D8A06EA5C
:102F500085052B43838004838D688563028470BD5F
:102F600070B5002400220023058C4FF6FF66354023
:102F70000584028C8388848B4FF68F752C404FF626
:102F8000FC752C400D882C434FF6FF552A408D8947
:102F90004FF6FF7606EA05252A434D8806EA052501
:102FA0002A430B4DA84202D00F4DA84238D14FF210
:102FB000FF752A40CD894FF6FF7606EA05252A439C
:102FC0004FF6FF352A408D8806EA05252A4319E089
:102FD000000001400004004000080040000C0040D8
:102FE0000010004000140040000401400040014077
:102FF000004401400048014000180040001C00400F
:10300000002000404EF6FF752B404DF6FF752B401B
:103010000D8A06EA05152B434D8A06EA05152B4352
:10302000838084838D68C563028470BD70B500227F
:1030300000230024058C4EF6FF7635400584038C72
:103040008488828B48F6FF752A404FF6FF452A4058
:103050000D884FF6FF7606EA05252A434DF6FF75E3
:103060002B408D8906EA05352B434D8806EA053548
:103070002B43FE4DA84202D0FD4DA84208D14BF68D
:10308000FF752C400D8A4FF6FF7606EA85152C4316
:10309000848082838D680564038470BD0021018073
:1030A0004180818081608181C1810182418270473C
:1030B00070B50346002000241846183001258D40C5
:1030C000ACB21D8CA5431D8409B108290AD100EBBF
:1030D000610005684FF68F76354005600568154339
:1030E00005600FE00D1FC5F34E052844056848F63E
:1030F000FF763540056005684FF6FF7606EA022642
:103100003543056070BD4163704781637047C1639B
:103110007047016470470A460021018B4FF68F7398
:1031200019401143018370470A460021018B48F67C
:10313000FF7319404FF6FF7303EA0223194301831B
:1031400070470A460021818B4FF68F731940114357
:10315000818370470A460021818B48F6FF7319402E
:103160004FF6FF7303EA02231943818370470A462F
:103170000021018B4FF6F77319401143018370470B
:103180000A460021018B4FF2FF7319404FF6FF737F
:1031900003EA02231943018370470A460021818B09
:1031A0004FF6F77319401143818370470A46002197
:1031B000818B4FF2FF7319404FF6FF7303EA02232E
:1031C0001943818370470A460021018B4FF6FB7338
:1031D00019401143018370470A460021018B4FF6C5
:1031E000FF3319404FF6FF7303EA022319430183AB
:1031F00070470A460021818B4FF6FB73194011433B
:10320000818370470A460021818B4FF6FF331940B6
:103210004FF6FF7303EA02231943818370470A467E
:103220000021018B4FF67F731940114301837047D2
:103230000A460021018BC1F30E014FF6FF7303EA2A
:1032400002231943018370470A460021818B4FF600
:103250007F7319401143818370470A460021818B97
:10326000C1F30E014FF6FF7303EA02231943818372
:1032700070470A460021018C4FF6FD731940114337
:10328000018470470A460021018C4FF6F7731940FC
:103290001143018470470A460021018C4FF6DF7309
:1032A00019404FF6FF7303EA021319430184704774
:1032B0000A460021018C4FF67F7319404FF6FF73C9
:1032C00003EA02131943018470470A460021018C66
:1032D0004FF6FF5319404FF6FF7303EA02231943D9
:1032E000018470470A460021018C4FF2FF73194098
:1032F0004FF6FF7303EA02231943018470470A461D
:103300000021018C4DF6FF7319404FF6FF7303EA5D
:10331000023319430184704730B5002301248C40E7
:10332000A3B2048C9C430484048C02FA01F5ADB270
:103330002C43048430BD30B5002304248C40A3B258
:10334000048C9C430484048C02FA01F5ADB22C4336
:10335000048430BD828B4FF2FF331A408283828B0C
:103360004FF6FF7303EA01231A4382837047F0B5D7
:103370000C461546002100220026078C4EF6FF7CE5
:1033800007EA0C070784818B028C4FF6FF7707EA68
:10339000043640F6FF4739404FF6FF7707EA052726
:1033A00039434FF6FF7707EA0337394345F6FF778E
:1033B0003A4046F480573A4381830284F0BD828BC1
:1033C0004FF6F3731A408283828B0A4382837047DD
:1033D000F0B50C461546002100220026078C4FF65A
:1033E000FF6C07EA0C070784818B028C4FF6FF778E
:1033F00007EA04264FF60C7739404FF6FF7707EAC5
:1034000003172F4339434FF2FF573A4046F4807772
:103410003A4381830284F0BD028B4FF2FF331A409E
:103420000283028B4FF6FF7303EA01231A430283E0
:103430007047F0B50C461546002100220026078C87
:103440004FF6EF7C07EA0C070784018B028C4FF6DE
:10345000FF7707EA041640F6FF4739404FF6FF773B
:1034600007EA033739434FF6FF7703E000000140D6
:103470000004014007EA052739434FF65F773A40D9
:1034800046F010073A4301830284F0BD028B4FF6E9
:10349000F3731A400283028B0A4302837047F0B52C
:1034A0000C46154600210022068C4FF6FE773E4062
:1034B0000684018B028C4FF60C7631407E1C06EAA6
:1034C00003162E4331434FF6F576324044F00106A1
:1034D000324301830284F0BD70B505460C46208856
:1034E00050B92389A28861882846FFF7D8FFE18870
:1034F0002846FFF7CBFF25E0208804280AD123893E
:10350000A28861882846FFF794FFE1882846FFF7E4
:1035100083FF17E0208808280AD12389A2886188C0
:103520002846FFF755FFE1882846FFF748FF09E0E6
:103530002389A28861882846FFF719FFE188284679
:10354000FFF708FF70BD00210180418001218180CB
:103550000021C180018170472DE9F04105460C46EC
:1035600000260127608808B9022600E00026A0880E
:10357000012801D1022700E001272088A0B9238972
:10358000A28861882846FFF78AFFE1882846FFF76E
:103590007DFF23893A4631462846FFF74AFFE188F6
:1035A0002846FFF739FF13E02389A288618828465F
:1035B000FFF73FFFE1882846FFF72EFF23893A46B1
:1035C00031462846FFF76BFFE1882846FFF75EFF8C
:1035D000BDE8F0810146486B70470146886B704733
:1035E0000146C86B70470146086C70470A884B88D3
:1035F0001A438B881A43CB881A430B891A434B8989
:103600001A438B891A43A0F8442070470021018097
:1036100041808180C180018141818181704731B1C8
:10362000B0F8442042F40042A0F8442005E0B0F88D
:103630004420C2F30E02A0F84420704721B18288D2
:1036400042F00402828004E082884FF6FB731A4045
:103650008280704721B1828842F00102828004E0BA
:1036600082884FF6FE731A40828070471AB18389B0
:103670000B43838102E083898B438381704781827E
:10368000704702460020138A0B400BB1012000E076
:1036900000207047CA430282704730B502460020BE
:1036A00000230024158A05EA0103958905EA01042F
:1036B00013B10CB1012000E0002030BDCA430282EA
:1036C000704741EA0203A0F8483070471AB1838975
:1036D0000B43838102E083898B438381704721B14F
:1036E000828842F00802828004E082884FF6F773F5
:1036F0001A408280704701894FF6F87211400181AB
:1037000070470A46002101894FF68F731940114313
:103710000181704730B504460D4629462046FFF723
:10372000F0FF208940F00700208130BD2DE9F041F5
:1037300004460D4616461F46602D06D13B46012223
:1037400031462046FFF775FE05E03B460122314633
:103750002046FFF7A4FE29462046FFF7D2FF208926
:1037600040F007002081BDE8F08130B50C46002113
:103770000189C9B24FF6FF7505EA032515432543B4
:103780002943018130BD2DE9F04105460E4617461B
:103790009846002443463A4631462846FFF7E5FF5F
:1037A0002C894FF6F870044044F007044FF68F70F0
:1037B000044044F070042C81BDE8F081F0B504466B
:1037C0000D4616461F463B46324629462046FFF721
:1037D000CCFF208940F480402081F0BD82884FF6E4
:1037E0008F731A40828082880A43828070470289E0
:1037F0004FF6F8731A40028102890A43028170472A
:1038000002894FF67F731A40028102890A430281BE
:103810007047F0B50C4615461E46002100220023D5
:103820000189028B038C4FF6F877394021434FF61C
:10383000FC473A4040F201173A434FF6DD773B40F0
:103840004FF6FF7707EA06172F433B4301810283B8
:103850000384F0BD21B1828842F08002828004E0BE
:1038600082884FF67F731A4082807047A0F850100C
:10387000704700000A460021DBE0D30B002B75D017
:10388000102971D2DFE801F0080F161D242B323900
:1038900040464C52585E646A038823F4004303F5A3
:1038A0000043038060E0038823F4804303F58043F2
:1038B000038059E0038823F4005303F50053038089
:1038C00052E0038823F4805303F5805303804BE0D8
:1038D000038823F4006303F50063038044E0038856
:1038E00023F4806303F5806303803DE0038823F4C1
:1038F000007303F50073038036E0038823F48073BC
:1039000003F5807303802FE0038823F08003803366
:10391000038029E0038823F040034033038023E041
:10392000038823F02003203303801DE0038823F065
:1039300010031033038017E0038823F008030833D3
:10394000038011E0038823F004031B1D03800BE0B8
:10395000038823F002039B1C038005E0038823F007
:1039600001035B1C038000BF5DE0FFE7102959D213
:10397000DFE801F0080D12171C21262B30353A3FE5
:1039800044494E53038823F4004303804AE00388EC
:1039900023F48043038045E0038823F4005303802D
:1039A00040E0038823F4805303803BE0038823F442
:1039B0000063038036E0038823F48063038031E0F2
:1039C000038823F4007303802CE0038823F48073BE
:1039D000038027E0038823F08003038022E003882C
:1039E00023F0400303801DE0038823F020030380BD
:1039F00018E0038823F01003038013E0038823F00A
:103A0000080303800EE0038823F00403038009E029
:103A1000038823F00203038004E0038823F00103FA
:103A2000038000BF00BF4FF6FF7303EA42024B1C46
:103A3000D9B21029FFF621AF7047F0B51C46002619
:103A400000250123C1F11007974202DAC1F11007E6
:103A5000FAB20E46002E0CDD05E0EF18BDB24FF6AF
:103A6000FF7707EA4303371EA6F1010C0CF0FF06AF
:103A7000F3D1D0F814C04FF6FF7797408F402F4313
:103A80000CEA070CC0F814C0476904FA01FC47EAC5
:103A90000C074761F0BD10B56FF00400FDF7F4FEB0
:103AA0001520394908700846007800EB4001C1EB49
:103AB000C0104FF6FF7101EAC0003449088010BD04
:103AC0000146314A12784A434FF0E0235A610022FE
:103AD0009A611A46126942F001021A6100BF4FF062
:103AE000E022106900F001021AB100F48032002ACD
:103AF000F5D04FF0E022126922F001024FF0E023EE
:103B00001A6100229A6170470146204A12884A438E
:103B10004FF0E0235A6100229A611A46126942F07E
:103B200001021A6100BF4FF0E022106900F00102AB
:103B30001AB100F48032002AF5D04FF0E022126969
:103B400022F001024FF0E0231A6100229A617047CF
:103B500070B504464FF4077094FBF0F0C6B24FF412
:103B6000077094FBF0F100FB114085B205E04FF4C3
:103B70000770FFF7C9FF701EC6B2002EF7D115B14E
:103B80002846FFF7C1FF70BD460000204800002016
:103B9000D2B201E000F8012B491EFBD2704700228F
:103BA000F6E710B513460A4604461946FFF7F0FF3C
:103BB000204610BD00F0004230F000400AD0C10D98
:103BC00001F56071C0F3160042EA0151C2084007D6
:103BD0001143704700200146704730B50B4601463F
:103BE00000202022012409E021FA02F59D4205D39C
:103BF00003FA02F5491B04FA02F52844151EA2F146
:103C00000102F1DC30BD2DE9F05F0546002092464F
:103C10009B4688460646814640241BE0284641468E
:103C20004746224600F0F9F953465A46C01A9141D8
:103C300010D311461846224600F0E0F92D1A67EB22
:103C400001084F4622460120002100F0D7F917EB6A
:103C500000094E41201EA4F10104DFDC4846314634
:103C60002A464346BDE8F09F2DE9FE4F804681EA93
:103C70000300C00F0C46009021F0004123F00045E6
:103C8000B8EB0200A94105D24046214690461C46A9
:103C90000B46024623F00040104347D0270DC7F3E0
:103CA0000A00C3F30A510290401A019040286BDACF
:103CB000C3F3130040F4801B0098924620B1002308
:103CC000D2EB030A63EB0B0B01985946C0F140029B
:103CD000504600F093F906460D4650465946019A63
:103CE00000F0ABF910EB08006141002487EA1152A3
:103CF00084EAE7731A4340D0009A62B3019A012A1A
:103D00004FEA075215DC001B61EB02014FF0004245
:103D100002EA0752CDE90042001C41F5801132460B
:103D20002B4600F0ABF903B0BDE8F08F40462146CA
:103D3000F9E7001B61EB0201001C41F5801300183C
:103D40005B412018A2F5001747EB030140EAD5704C
:103D5000B6196D4111E06D084FEA360645EAC075A7
:103D60004FEA0752001B61EB0201001C41F5801174
:103D700049084FEA30000019514132462B4603B042
:103D8000BDE8F04F00F06BB900980122400000231D
:103D9000D0EB020263EBE073009821464FEAE07437
:103DA000B8EB000061EB0401E9E783F000435BE757
:103DB00081F0004158E72DE9FE4F81EA030404F049
:103DC000004421F0004100944FF0000B23F0004329
:103DD00050EA01045ED052EA03045BD0C3F30A54F4
:103DE000C1F30A552C44A4F2F3340194A0FB02540D
:103DF000C1F3130141F48011C3F3130343F480139F
:103E000001FB024400FB034E840A970A44EA8154F2
:103E100047EA8357A4FB076802958D0A05FB0785CF
:103E20004FEA932C04FB0C542705029D4FEA0658D9
:103E300047EA1637B5EB08056EEB070C870E920EB6
:103E400047EA811742EA8312A7FB0201B6EB0B0196
:103E500064EB00042B0D43EA0C335E1844EB1C505A
:103E6000DA465146E7FB0201C5F313044FEA0B3370
:103E700043EA14534FEA0432019C43EA0603A4F1D7
:103E80000C040294009CCDE900B400F0F7F803B0F4
:103E9000BDE8F08F00200146F9E72DE9F04D81EAF9
:103EA000030404F0004B21F0004514464FF0000AD3
:103EB00023F0004150EA050220D054EA01021DD04F
:103EC000C5F30A570246C5F31303C1F31300C1F348
:103ED0000A5640F4801543F48013A7EB0608101B24
:103EE000D64608F2FD3873EB050002D308F101084D
:103EF00001E092185B41B8F1000F03DA002001469F
:103F0000BDE8F08D00204FF48011064684460EE097
:103F1000171B73EB050705D3121B63EB0503064361
:103F20004CEA010C49084FEA300092185B4150EA14
:103F30000107EDD152EA030012D082EA040083EABD
:103F40000501084305D0101BAB4106D20122002316
:103F500006E000224FF0004302E06FF00102531030
:103F60001AEB06004CEB085110EB0A0041EB0B0179
:103F7000BDE8F04D00F073B8C1F30A52C1F313016C
:103F800040F2FF3341F480119A4202DA00200146E8
:103F9000704740F233439A42A2F2334202DC52426B
:103FA00000F03BB800F02AB830B5041E71F10004EF
:103FB00004DB4FF00044404264EB0101141E73F136
:103FC000000405DB1C464FF00043524263EB040340
:103FD000994208BF904230BD064C074D06E0E068AC
:103FE00040F0010394E8070098471034AC42F6D340
:103FF000FCF7CEF85C6600087C660008202A04DB2B
:10400000203A00FA02F1002070479140C2F12003EB
:1040100020FA03F3194390407047202A04DB203A2A
:1040200021FA02F00021704721FA02F3D040C2F1D8
:1040300020029140084319467047202A06DBCB171F
:10404000203A41FA02F043EAE07306E041FA02F353
:10405000D040C2F12002914008431946704710B584
:10406000141E73F1000408DA401C41F1000192189B
:104070005B411A4301D120F0010010BD2DE9F04D44
:1040800092469B4611B1B1FA81F202E0B0FA80F299
:1040900020329046FFF7B2FF04460F4640EA0A007E
:1040A00041EA0B0153465A46084313D0114653EADE
:1040B000010019D0C8F140025046FFF7AEFF054697
:1040C0000E46504659464246FFF798FF084305D032
:1040D000012004E020463946BDE8F08D002005436C
:1040E00046EAE0762C4337430A986305E40AA0EBDE
:1040F00008000022FD0A44EA47540A3002D5002095
:104100000146E9E7010510196941DDE90845001993
:104110006941BDE8F04DA2E70FB4054B10B503A906
:10412000044A029800F0DAF810BC5DF814FB0000B5
:10413000BD1600084C00002002E008C8121F08C18C
:10414000002AFAD170477047002001E001C1121F18
:10415000002AFBD1704700002DE9FF5F82B00021EB
:10416000DDE90430020DDDF840B0034318D044F619
:104170001050A2F2FF3242431514119801281FD0AB
:10418000A5EB0B00401C5FEA000A4FF000064E4F03
:10419000DFF83891B046504615D5CAF1000413E057
:1041A000119801244AA3012801D16FEA0B0102985A
:1041B000119AC0E90031C0E9024206B0BDE8F09FA3
:1041C000CBF10000DFE704460021404A491842EBEA
:1041D0000450CDE9001012E0E00707D032463B461C
:1041E00040464946FFF7E7FD8046894632463B4652
:1041F00010461946FFF7DFFD06460F466410002CF7
:10420000EAD1DDE90401DDE90023BAF1000F06DAA5
:10421000FFF7D1FD42464B46FFF7CDFD05E0FFF726
:104220003CFE42464B46FFF738FE04460E4600224F
:10423000284BFFF7B9FE03D84FF0FF30014607E0E7
:104240000022254B20463146FFF70EFDFFF794FE76
:10425000102409E0002C0ADB0A220023FFF7D3FC1C
:10426000039B30321A55641E50EA0102F2D1641CDD
:10427000039AC4F111031444119A012A03D00122B4
:1042800008430DD10AE0084304D000204FF0110B81
:10429000119072E7A3EB0B056D1E0DE05B4504DD8D
:1042A0004FF0000205F1010504E003DA4FF00002CF
:1042B000A5F10105002AECD002981199C0E902315C
:1042C000C0E9004579E70000000014400000F03F1D
:1042D000300000000000F0430000E03F2DE9FF4FF8
:1042E00095B09B468946064600250FE2252877D1E2
:1042F00000242746F84A0121059400E0044316F8FB
:10430000013F203B01FA03F01042F7D130782A2810
:1043100011D06FF02F033078A0F13002092A16D89F
:10432000059A44F0020402EB820203EB42021044BD
:10433000761C0590EFE759F8042B0592002A03DA62
:10434000504244F40054059044F00204761C307846
:104350002E2816D116F8010F44F004042A280DD097
:104360006FF02F023078A0F13003092B09D807EB4A
:10437000870302EB4303C718761CF3E759F8047B65
:10438000761C30786C280FD006DC4C2817D06828B3
:104390000DD06A2814D104E0742810D07A280FD1E7
:1043A0000DE044F400140AE044F4801401E044F405
:1043B00040147278824202D104F58014761C761C77
:1043C000307866280BD013DC582877D009DC002819
:1043D00075D04528F6D04628F4D047281AD19DE15B
:1043E00018E0632835D0642879D0652812D195E18A
:1043F000702873D008DC6728F1D069286FD06E2848
:104400000DD06F2806D1B5E073282CD0752875D053
:10441000782874D05A46179990476D1C75E1C4F3FB
:104420000250022809D003280DD0D9F80010042822
:104430000DD00D6009F1040967E1D9F80010EA1701
:10444000C1E90052F6E7D9F800100D80F2E70D70CF
:10445000F0E719F8041B8DF8001000208DF801001A
:10446000EA46012003E059F804AB4FF0FF30610742
:104470004FF0000102D40DE008F101018846B94275
:104480000FDA8045F8DB1AF808100029F4D108E0AB
:1044900008F1010188468142FADB1AF80810002968
:1044A000F6D105985B46A0EB080721463846179AD7
:1044B00000F094FA284400EB080507E04DE029E1FC
:1044C0000DE01AF8010B5A4617999047B8F1010808
:1044D000F7D25B4621463846179A13E142E00A229A
:1044E0000092C4F302524FF0000A022A08D059F891
:1044F00004CB032A4FEAEC710AD00DE029E02AE050
:1045000009F1070121F00702F2E802C1914609E032
:104510000FFA8CFC4FEAEC71042A03D14FFA8CFCA1
:104520004FEAEC71002907DA0A460021DCF1000CA1
:1045300061EB02012D2202E0220504D52B228DF829
:104540000420012203E0E20701D02022F7E7904691
:1045500059E00A2102E010220DE010214FF0000A7C
:1045600000910BE010224FF0000A44F004040827E9
:10457000009203E008224FF0000A0092C4F30252B6
:10458000022A05D059F804CB0021032A08D009E0FB
:1045900009F1070121F00702F2E802C1914605E0A6
:1045A0001FFA8CFC042A01D10CF0FF0C4FF000081C
:1045B000220728D5702806D0009B83F0100353EA09
:1045C0000A0305D00EE040228DF80420012208E005
:1045D0005CEA010206D030228DF804208DF8050037
:1045E00002229046009B83F0080353EA0A030AD193
:1045F0005CEA010201D1620705D530228DF8042062
:104600004FF001087F1E582804D034A003900EA854
:1046100002900DE036A0F9E753466046009AFFF796
:10462000F2FA84460398825C0298401E029002705F
:104630005CEA0100F0D1029806A9081A00F1200AEC
:10464000600702D524F4803400E00127574502DDDD
:10465000A7EB0A0000E0002000EB0A01009005989B
:104660004144401A0590E00306D45B462146179A60
:10467000059800F0B3F90544002706E001A85A4662
:10468000C05D179990476D1C7F1C4745F6DBE00322
:104690000CD55B462146179A059800F09FF9054412
:1046A00004E030205A46179990476D1C0099481E27
:1046B00000900029F5DC08E0029802995A4600783B
:1046C000491C0291179990476D1CBAF10001AAF19B
:1046D000010AF1DC65E100000928010030313233C4
:1046E000343536373839616263646566000000002E
:1046F0003031323334353637383941424344454618
:104700000000000000F058F90544761C30780028BD
:104710007FF4ECAD19B02846BDE8F08F620700D4F5
:10472000062709F1070222F0070CFCE80223E14604
:1047300003F000485FEA080C02D00FF2702C0DE085
:104740005FEA045C02D50FF2682C07E05FEAC47CE4
:1047500002D00FF2602C01E0AFF2700C4FF0FF3886
:1047600023F00043CDF850C065280CD006DC452866
:1047700009D046281DD047283DD13DE0662818D0F5
:1047800067287ED138E00021112F01DB112000E0E5
:10479000781CCDE9000106A90EA8FFF7DDFCDDE9D4
:1047A0000F010E9A03910021009207F1010A049172
:1047B0004DE04FF000400097CDE9011006A90EA88A
:1047C000FFF7CAFCDDE90F0203920E9B119900224C
:1047D000DDF80CA00093049211B9791C00EB010ADA
:1047E000B7EB0A0004D4C0F1FF3007F1010A0490CE
:1047F000AAEB0700019044E0012F00DA0127002115
:10480000112F01DD112000E03846CDE9000106A995
:104810000EA8FFF7A1FCDDE90F010E9A039100211C
:1048200004910092BA4621070CD40399514500DA4D
:104830008A46BAF1010F05DD009AAAF10101515C27
:10484000302908D0B84202DA10F1040F06DA01214B
:10485000CDE9011015E0AAF10101E9E7002805DC26
:10486000049901440491AAEB000102E0411C514566
:1048700000DD8A460499401A401C01904FF0004028
:104880000290200704D40198504501DBCDF8048044
:1048900000208DF84F0002980DF14F07B0F1004F46
:1048A00025D02B200E9002984FF0020800280CDA39
:1048B000404202902D200E9007E00A210298FFF757
:1048C0008CF93031029007F8011DB8F10001A8F110
:1048D0000108F2DC02980028EFD1791E0E980870CA
:1048E000307800F0200040F0450007F8020D12A8D3
:1048F000C01B00F107081498007800B1012000EBFC
:104900000A01019801EBE07105984144401A401EEC
:104910000590E00306D45B462146179A059800F0FF
:104920005DF805441498007818B15A4617999047D5
:104930006D1CE00324D55B462146179A059800F0CC
:104940004DF805441CE00498002807DBDDE903016D
:10495000884203DD0098405C179901E017993020E8
:104960005A469047049805F10105401C04900198AF
:10497000401E019004D12E205A46179990476D1C75
:10498000BAF10001AAF1010ADDDC05E017F8010B1C
:104990005A46179990476D1CB8F10001A8F101081B
:1049A000F4DC5B462146179A0598ABE62D00000023
:1049B0002B000000200000002DE9F04104460025F6
:1049C0001E461746880404D405E039462020B04727
:1049D0006D1C641EF9D52846BDE8F0812DE9F04133
:1049E000044600251E469046C80301D5302700E046
:1049F0002027880404D505E041463846B0476D1CA1
:104A0000641EF9D52846BDE8F081000000000000D2
:104A1000000000000000000004040404040400047A
:104A2000000000140A0A000000000000000000005E
:104A300014143F140A3F0A0A000000041E1505065C
:104A40000C14150F0400000012150D0A142C2A1264
:104A500000000000040A0A1E1515093600000002B5
:104A600002010000000000000000002010080808FB
:104A700008080810200000020408080808080804B4
:104A8000020000000004150E0E15040000000000D6
:104A90000404041F040404000000000000000000DF
:104AA00000000002020100000000001F00000000E2
:104AB00000000000000000000000000200000010E4
:104AC0000808080404020202010000000E1111117E
:104AD0001111110E00000000040604040404040E69
:104AE000000000000E1111080402011F0000000068
:104AF0000E11100C1010110E00000000080C0A0A14
:104B0000091E0818000000001F01010F1010110EEF
:104B1000000000000E09010F1111110E000000002D
:104B20001F09080404040404000000000E11110E03
:104B30001111110E000000000E1111111E10120EA5
:104B4000000000000000040000000004000000005D
:104B5000000000040000000404000020100804020B
:104B6000040810200000000000001F00001F0000CB
:104B700000000002040810201008040200000000D9
:104B80000E11110804040004000000000E11191594
:104B9000151D011E0000000004040C0A0A1E123339
:104BA000000000000F12120E1212120F000000007F
:104BB0001E1101010101110E000000000F1212125E
:104BC0001212120F000000001F120A0E0A02121F1A
:104BD000000000001F120A0E0A0202070000000077
:104BE0001C1201013911120C000000003312121EB8
:104BF00012121233000000001F0404040404041FF6
:104C0000000000003E080808080808090700000026
:104C100037120A060A0A12370000000007020202D1
:104C20000202223F000000001B1B1B1B151515155F
:104C3000000000003B1216161A1A1217000000009E
:104C40000E1111111111110E000000000F12120EA1
:104C500002020207000000000E1111111117190EB7
:104C6000180000000F12120E0A1212370000000086
:104C70001E1101060810110F000000001F1504048A
:104C80000404040E00000000331212121212120C5F
:104C9000000000003312120A0A0C04040000000095
:104CA0001515150E0A0A0A0A000000001B0A0A045C
:104CB000040A0A1B000000001B0A0A040404040E74
:104CC000000000001F0908040402121F0000001C5D
:104CD00004040404040404041C000002020204048A
:104CE000080808100000000E08080808080808084E
:104CF0000E0000040A000000000000000000000098
:104D00000000000000000000003F00040000000060
:104D100000000000000000000000000C121C123C0B
:104D2000000000000302020E1212120E000000002A
:104D30000000001C1202021C000000001810101CD1
:104D40001212123C000000000000000C121E021C97
:104D5000000000003804041E0404041E00000000CB
:104D60000000003C120C021E221C00000302020E76
:104D70001212123700000000040000060404040EA2
:104D8000000000000800000C0808080808070000E0
:104D90000302023A0A0E123700000000070404045E
:104DA0000404041F000000000000000F1515151575
:104DB000000000000000000F121212370000000077
:104DC0000000000C1212120C000000000000000F86
:104DD0001212120E020700000000001C1212121C18
:104DE000103800000000001B06020207000000004F
:104DF0000000001E020C101E000000000004040E43
:104E000004040418000000000000001B1212123CF1
:104E10000000000000000037120A0C04000000002F
:104E200000000015150E0A0A000000000000001B1B
:104E30000A040A1B0000000000000037120A0C04DC
:104E4000040300000000001E0804041E00000018F7
:104E500008080804080808081800080808080808CE
:104E600008080808080800060404040804040404E8
:104E700006000225180000000000000000000000ED
:104E80000000000000000000000000000000000022
:104E90000008080808080808000018180000004862
:104EA0006C24120000000000000000000000000060
:104EB000002424247F1212127F121212000000001C
:104EC000081C2A2A0A0C1828282A2A1C080800006C
:104ED0000022251515152A585454542200000000AC
:104EE000000C1212120A76252911916E000000069C
:104EF0000604030000000000000000000000004065
:104F000020101008080808080810102040000002AF
:104F10000408081010101010100808040200000007
:104F2000000008086B1C1C6B080800000000000053
:104F30000000080808087F080808080000000000B2
:104F4000000000000000000000000606040300004E
:104F5000000000000000FE00000000000000000053
:104F60000000000000000000000006060000000035
:104F700080404020201010080804040202000000B5
:104F800000182442424242424242241800000000DB
:104F900000080E08080808080808083E000000007D
:104FA000003C4242422020100804427E00000000E3
:104FB000003C4242201820404042221C00000000D9
:104FC00000203028242422227E20207800000000A7
:104FD000007E0202021A26404042221C000000000D
:104FE00000382402021A264242422418000000001F
:104FF000007E22221010080808080808000000009F
:10500000003C4242422418244242423C000000003C
:1050100000182442424264584040241C0000000012
:105020000000000018180000000018180000000020
:105030000000000000080000000000080804000054
:105040000040201008040204081020400000000066
:10505000000000007F0000007F0000000000000052
:105060000002040810204020100804020000000084
:10507000003C42424640201010001818000000007A
:10508000001C225A555555552D42221C0000000087
:10509000000808181414243C224242E700000000D3
:1050A000001F2222221E22424242221F0000000034
:1050B000007C4242010101010142221C000000006B
:1050C000001F2242424242424242221F0000000090
:1050D000003F4212121E12120242423F0000000024
:1050E000003F4212121E12120202020700000000CC
:1050F000003C2222010101712122221C000000003B
:1051000000E7424242427E42424242E70000000043
:10511000003E0808080808080808083E00000000CB
:10512000007C10101010101010101010110F000043
:10513000007722120A0E0A121222227700000000C3
:1051400000070202020202020202427F0000000087
:105150000077363636362A2A2A2A2A6B00000000C3
:1051600000E346464A4A525252626247000000003B
:10517000001C2241414141414141221C00000000EC
:10518000003F424242423E0202020207000000008B
:10519000001C2241414141414D53321C600000003E
:1051A000003F4242423E1212222242C7000000004B
:1051B000007C4242020418204042423E00000000AF
:1051C000007F4908080808080808081C00000000BB
:1051D00000E74242424242424242423C000000005A
:1051E00000E742422224241414180808000000009A
:1051F000006B4949494955553622222200000000DA
:1052000000E7422424181818242442E70000000074
:1052100000772222141408080808081C0000000067
:10522000007E2120101008040442423F0000007854
:105230000808080808080808080808087800000096
:105240000202040408080810102020204040001E1C
:105250001010101010101010101010101E00003838
:1052600044000000000000000000000000000000FA
:1052700000000000000000000000000000FF000629
:105280000800000000000000000000000000000016
:1052900000000000003C4278444242FC0000000054
:1052A00000030202021A26424242261A00000000AF
:1052B00000000000003844020202443800000000F0
:1052C0000060404040784442424264D80000000000
:1052D00000000000003C427E0202423C0000000050
:1052E00000F08808087E08080808083E0000000052
:1052F00000000000007C22221C023C42423C0000D4
:1053000000030202023A4642424242E70000000025
:10531000000C0C00000E08080808083E0000000001
:10532000003030000038202020202020221E0000E5
:10533000000302020272120A161222770000000015
:10534000000E0808080808080808083E00000000C9
:1053500000000000007F9292929292B7000000003D
:1053600000000000003B4642424242E700000000CD
:1053700000000000003C42424242423C000000006B
:1053800000000000001B26424242221E02070000CD
:1053900000000000007844424242447840E00000AF
:1053A0000000000000774C040404041F000000000B
:1053B00000000000007C42023C40423E0000000031
:1053C00000000008083E0808080808300000000037
:1053D0000000000000634242424262DC0000000024
:1053E0000000000000E74224241408080000000028
:1053F0000000000000EB4949555522220000000042
:1054000000000000007624181818246E0000000028
:105410000000000000E742242414180808070000D8
:1054200000000000007E22100808447E000000C03A
:10543000202020202010202020202020C00010101C
:105440001010101010101010101010101010000676
:1054500008080808081008080808080806000C32A0
:10546000C20000000000000000000000000000007A
:10547000000000000000000000000000000000002C
:10548000000000000000000000000000000000001C
:10549000000000000000000000000000000000000C
:1054A000000000000000E000E000E000E000E0009C
:1054B000400040004000400040004000000000006C
:1054C0000000E000E000E00000000000000000003C
:1054D0000000600660063003980188004400000068
:1054E00000000000000000000000000000000000BC
:1054F00000000000000000000000000000000000AC
:105500000000000000000000080208020802080273
:10551000FE07FE070802080204010401FE07FE0759
:105520000401040104010401000000000000000067
:105530000000000040004000F00158034C034C0301
:105540004C0058007000E000C001C00140034C0353
:105550004C034C034801F0004000400000000000F4
:1055600000000000000000000E030A01110191007C
:105570009100D1005100FA03AE02600450045004BF
:105580005804480488028403000000000000000062
:1055900000000000000000003800640064006400A7
:1055A0006400A4031C010C011A019200B300E30083
:1055B0006300C300A6041C030000000000000000FC
:1055C00000000C001C001000100008000600000085
:1055D00000000000000000000000000000000000CB
:1055E00000000000000000000000000000000000BB
:1055F000000000040002000180018000C000C00023
:105600006000600060006000600060006000C0003A
:10561000C0008000800100010002000400000000C2
:1056200000000200040008001800100030003000E4
:10563000600060006000600060006000600030009A
:1056400030001000180008000400020000000000F4
:10565000000000000000000000004000400040008A
:105660004E0E5C07F001F0015C074E0E400040005A
:1056700040000000000000000000000000000000EA
:10568000000000000000000000000000400040009A
:10569000400040004000FE0F40004000400040003D
:1056A00040000000000000000000000000000000BA
:1056B00000000000000000000000000000000000EA
:1056C00000000000000000000000000000000000DA
:1056D00000000C001C001000100008000600000074
:1056E00000000000000000000000000000000000BA
:1056F000000000000000FE070000000000000000A5
:105700000000000000000000000000000000000099
:105710000000000000000000000000000000000089
:105720000000000000000000000000000000000079
:1057300000001C001C001C00000000000000000015
:1057400000000004000600020003000100018000C8
:105750008000400040006000200020001000100089
:10576000080008000C000400060002000000000011
:105770000000000000000000F00098010C030C0382
:1057800006060606060606060606060606060606B9
:105790000C030C039801F000000000000000000062
:1057A0000000000000000000400060007C0060007D
:1057B00060006000600060006000600060006000E9
:1057C000600060006000FC030000000000000000BA
:1057D0000000000000000000F8008401020306033E
:1057E0000603000380018001C000200010000802B1
:1057F00004020202FE03FE0300000000000000009D
:1058000000000000000000007800C400860186014E
:1058100086018001C00070008001000100030603C2
:10582000060306038401F8000000000000000000E9
:1058300000000000000000018001C001C001A001C3
:10584000900190018801840184018201FE0780019A
:10585000800180018001E0070000000000000000DE
:105860000000000000000000FC03FC030400040032
:1058700004000400F4008C01040300030003060389
:10588000060382018401F80000000000000000000F
:105890000000000000000000E00118030C030C00F1
:1058A00004000600E60116030E06060606060606B6
:1058B00004060C021803F0000000000000000000C5
:1058C0000000000000000000F807FC070C020401C3
:1058D00004010001800080004000400040006000A2
:1058E0006000600060006000000000000000000038
:1058F0000000000000000000F8010C030606060688
:1059000006060E023C03F000CC0104030606060660
:10591000060606060C03F00100000000000000006F
:105920000000000000000000F0000C010C03060263
:1059300006060606060606078C067806000600031D
:1059400000030C018C017800000000000000000042
:105950000000000000000000000000000000000047
:10596000E000E000E0000000000000000000000097
:105970000000E000E000E000000000000000000087
:105980000000000000000000000000000000000017
:105990000000600060000000000000000000000047
:1059A00000000000600060004000200000000000D7
:1059B0000000000000000004000200018000400020
:1059C0002000100008000400080010002000400023
:1059D0008000000100020004000000000000000040
:1059E00000000000000000000000000000000000B7
:1059F0000000FE070000000000000000FE0700009D
:105A00000000000000000000000000000000000096
:105A1000000000000000040008001000200040000A
:105A2000800000010002000400020001800040002C
:105A3000200010000800040000000000000000002A
:105A4000000000000000F0010C030206020606063A
:105A500006060003800160002000200020000000F6
:105A600000007000700070000000000000000000E6
:105A70000000000000000000E00138060804CC0A25
:105A8000640B260926091609160996099605660368
:105A90000C080C041802E0010000000000000000E7
:105AA0000000000000000000600060007000D000F6
:105AB000D000C800880188018801F80104030403AC
:105AC0000403040606060F0F00000000000000009B
:105AD0000000000000000000FF008601060306032E
