:020000040800F2
:1000000028070020B5040008890200088B020008B8
:100010008F02000893020008970200080000000009
:100020000000000000000000000000009B0200082B
:100030009D020008000000009F020008A1020008C5
:10004000CF040008CF040008CF040008CF04000844
:10005000CF040008CF040008CF040008CF04000834
:10006000CF040008CF040008CF040008CF04000824
:10007000CF040008CF040008CF040008CF04000814
:10008000CF040008CF040008CF040008CF04000804
:10009000CF040008CF040008CF040008CF040008F4
:1000A000CF040008CF040008CF040008CF040008E4
:1000B000CF040008CF040008CF040008CF040008D4
:1000C000CF040008CF040008CF040008CF040008C4
:1000D000CF04000827150008CF040008CF0400084B
:1000E000CF040008CF040008CF040008CF040008A4
:1000F000CF040008CF040008CF040008CF04000894
:10010000CF040008CF040008CF040008CF04000883
:10011000CF040008CF040008CF040008CF04000873
:10012000CF040008CF040008CF040008CF04000863
:10013000CF040008CF040008CF040008CF04000853
:10014000CF040008CF040008CF040008CF04000843
:10015000CF040008CF040008CF040008CF04000833
:10016000CF040008CF040008CF040008CF04000823
:10017000CF040008CF040008CF040008CF04000813
:10018000CF040008CF04000800F002F800F03CF8AB
:100190000AA090E8000C82448344AAF10107DA45E2
:1001A00001D100F031F8AFF2090EBAE80F0013F0F8
:1001B000010F18BFFB1A43F001031847C05100009C
:1001C000E0510000103A24BF78C878C1FAD852072D
:1001D00024BF30C830C144BF04680C6070470000C1
:1001E0000023002400250026103A28BF78C1FBD840
:1001F000520728BF30C148BF0B6070471FB503F0DE
:1002000086FA1FBD10B510BD03F047FA1146FFF77F
:10021000F5FF00F009F803F065FA03B4FFF7F2FF09
:1002200003BC03F06DFA000010B54FF4A06001F0BC
:10023000ADFE03F0B2F94FF4165001F007F901F0EA
:10024000CDF800F02BFD00F055F901F0B1F94FF4B5
:1002500078400B49088001F0BEF90A48008849F24D
:100260004131884202D101F0F0F907E005480088E9
:1002700041F66311884201D101F025FA002010BD3A
:100280001A0000201E000020704700BFFEE700BFDC
:10029000FEE700BFFEE700BFFEE77047704770470C
:1002A000704700000CB5002001900090764800686F
:1002B00040F480307449086000BF7348006800F45F
:1002C000003000900198401C0190009818B90198E6
:1002D000B0F5A04FF1D16C48006800F4003010B1C7
:1002E0000120009001E0002000900098012846D1F4
:1002F00065484030006840F08050634940310860F4
:100300006248006840F44040604908605E48083038
:1003100000685D49083108600846006840F4004004
:1003200008600846006840F4A05008605848091F5B
:100330000860081F006840F08070091F086000BF57
:100340005148006800F000700028F9D040F20570B4
:10035000504908604C480830006820F003004A49C2
:10036000083108600846006840F00200086000BFDD
:1003700045480830006800F00C000828F8D10CBD92
:1003800010B54548006840F47000434908603E4895
:10039000006840F001003C49086000203A490831FB
:1003A0000860394800683D490840374908603C48C2
:1003B000091D0860081F006820F48020091F0860DC
:1003C000002031490C310860FFF76CFF4FF00060EE
:1003D00031498039086010BD70B500200022022329
:1003E00000240221284D08352D6805F00C0020B1AD
:1003F000042806D0082834D107E02A4D2A4E35605B
:1004000033E02A4D284E35602FE01F4D2D1D2D68FD
:10041000C5F380541C4D2D1D2D6805F03F0154B1CE
:10042000224DB5FBF1F5184E361D3668C6F3881619
:1004300005FB06F209E01B4DB5FBF1F5124E361D2A
:100440003668C6F3881605FB06F20F4D2D1D2D6884
:10045000C5F301456D1C6B00B2FBF3F5124E356020
:1004600003E0104D104E356000BF00BF064D08354B
:100470002D68C5F303150E4E705D0B4D2D68C540FC
:10048000094E356070BD0000003802400070004029
:1004900008544007003C024088ED00E0FFFFF6FEF4
:1004A000103000240024F4000000002000127A0024
:1004B000040000200948804709480047FEE7FEE79E
:1004C000FEE7FEE7FEE7FEE7FEE7FEE7FEE7FEE704
:1004D00004480549054A064B70470000810300089F
:1004E0008901000828010020280700202803002097
:1004F000280300201CB50121202002F0DBF84FF476
:100500007070009000208DF8040003208DF8050025
:1005100001208DF807006946314801F02DFE1CBD11
:100520000021304A11703049096861B12E49091F14
:10053000096841B12C490839096821B12A490C39A7
:10054000096800293CD12849096819B90121274ABD
:10055000117016E02449091F096819B90221234ABC
:1005600011700EE020490839096819B903211F4AA2
:10057000117006E01C490C39096811B904211B4AA5
:1005800011701A4909781A4A1278914210D1194902
:100590000988491C174A118014490978164A1170B4
:1005A000E8B914490988012919DD0021117016E004
:1005B0000021104A11800D4909780D4A11700EE092
:1005C0000C490988022903DD08490978054A117098
:1005D0000021074A1170074A1180074A11707047BD
:1005E000001402401500002024824242180000201E
:1005F000190000201600002014000020F64A108088
:10060000921C1180704710B50446F3480480042002
:1006100002F0D8FFF048801C008810BD00BF011E0A
:10062000A0F10102D0B2FAD17047EC480088EA4943
:10063000088070472920E849088070472820E6494B
:100640000880704730B58418641EA2B2CC18641EAE
:10065000A3B2E34C24786CBBE24C248841F66315CA
:10066000AC4227D1E04C2488A41A241AA0B2CC189A
:10067000641EA3B2DD4C2488D74D2C800412AD1C1F
:100680002C80C4B22C808418641EC4F30F242C80E8
:100690008418641EE4B22C80D54C2488AD1E2C80B6
:1006A0000C12AD1C2C80CCB22C801C122C80DCB225
:1006B0002C8019E0CD4C2488C74D2C800412AD1C31
:1006C0002C80C4B22C8014122C80D4B22C80C84C44
:1006D0002488AD1E2C800C12AD1C2C80CCB22C803A
:1006E0001C122C80DCB22C8030BD70B50546002475
:1006F0000026BB480078012805D1BA48008849F295
:100700004131884208D0B6480078F0B9B548008831
:1007100041F66311884218D1082D15D2DFE805F0A3
:100720000406080A0C0E101206250DE007250BE042
:10073000042509E0052507E0012505E0002503E083
:10074000032501E0022500BF00BF082D1CD2DFE811
:1007500005F00406090C0F12151800BF14E044F050
:10076000800411E044F040040EE044F0C0040BE0CB
:1007700044F0200408E044F0600405E044F0A004E4
:1007800002E044F0E00400BF00BF36269548008830
:1007900049F24131884201D144F0080421463046F3
:1007A000FFF72CFF934803888F48028800210846F2
:1007B000FFF748FF70BD10B504468CBB0020884988
:1007C00008708848008849F24131884210D12C20B5
:1007D000824908802A20854908802B208449088086
:1007E000F020814908804FF4A0708249088049E0D8
:1007F0007C48008841F66311884243D12C20774918
:1008000008802B20794908802A20794908804FF4F4
:10081000F070754908804FF448707649088031E0DF
:10082000FFE701206E4908706E48008849F24131A7
:10083000884210D12C20694908802A206B49088001
:100840002B206B4908804FF4A07067490880F02086
:100850006849088016E06348008841F663118842C1
:1008600010D12C205D4908802A20604908802B2067
:100870005F4908804FF448705B4908804FF4F0707E
:100880005C4908800020FFF730FF10BD554A1288F0
:1008900049F241339A4212D1544A12884E4B1A807F
:1008A00002129B1C1A80C2B21A80514A12889B1EE7
:1008B0001A800A129B1C1A80CAB21A8042E0494A66
:1008C000128841F663139A423CD1454A12788AB99C
:1008D000454A1288521E121A90B2444A12883E4B60
:1008E0001A8000229B1C1A801A8002121A80C2B23F
:1008F0001A8013E03D4A1288374B1A8002129B1C63
:100900001A80C2B21A80384A1288521EC2F30F22CD
:100910001A80354A1278521ED2B21A80344A12888E
:100920002D4B1A800A129B1C1A80CAB21A80314AB7
:100930001288521EC2F30F221A802E4A1278521EBB
:10094000D2B21A8070473EB504460D460020029090
:100950000190009029462046FFF798FF2E201E495F
:100960000880881C008802901E48008841F66311A8
:10097000884202D1BDF808003EBD0220FFF74EFEBE
:100980001548801C00880090BDF80800C0B2019096
:10099000BDF804004FF6FF7101EA00200190BDF898
:1009A0000800C012C002BDF80410891240EA4110CC
:1009B000BDF8001040EAE120DEE730B504460D4600
:1009C00029462046FFF762FFFFF72FFE0A480088FE
:1009D0000149891C088030BDFE1F006C26000020E4
:1009E000200000201E0000202200002028000020FF
:1009F0002A000020240000201A00002070B50546BF
:100A00000E46144631462846FFF7D7FFFE480088B9
:100A1000FE490880881C048070BDBE21FB4A1180FD
:100A20000521921C11801146088001211180FF21AF
:100A30001180002111801180704770B50446002597
:100A40000026F3480088F349098800FB01F60021DD
:100A50000846FFF71BFFFFF7E8FD00BF03E0EB4888
:100A6000801C04806D1CB542F9D370BD00B59FB0E9
:100A70000121782001F01EFE0121084601F052FEFE
:100A80004FF480601D9001208DF8780000208DF8D3
:100A90007A0002208DF8790001208DF87B001DA9D5
:100AA000DD4801F069FB4CF233701D9002208DF897
:100AB000780000208DF87A0003208DF8790001205D
:100AC0008DF87B001DA9D54801F056FB4FF68070CC
:100AD0001D9002208DF8780000208DF87A00032008
:100AE0008DF8790001208DF87B001DA9CC4801F01C
:100AF00043FB04201D9002208DF8780000208DF823
:100B00007A0003208DF8790001208DF87B001DA963
:100B1000C44801F031FB4FF480501D9002208DF845
:100B2000780000208DF87A0003208DF879000120EC
:100B30008DF87B001DA9BB4801F01EFB0C22002193
:100B4000B64801F0A4FB0C220121B44801F09FFB40
:100B50000C220421B14801F09AFB0C220521AF4878
:100B600001F095FB0C220821AC4801F090FB0C220F
:100B70000921AA4801F08BFB0C220A21A74801F0A9
:100B800086FB0C220E21A54801F081FB0C220F21CF
:100B9000A24801F07CFB0C220721A14801F077FB61
:100BA0000C2208219E4801F072FB0C2209219C486E
:100BB00001F06DFB0C220A21994801F068FB0C2220
:100BC0000B21974801F063FB0C221146944801F079
:100BD0005EFB0C220D21924801F059FB0C220E21E4
:100BE0008F4801F054FB0C220F218D4801F04FFB80
:100BF0000C2202218B4801F04AFB0C221146894845
:100C000001F045FB0F200790002008903C20099040
:100C100000200A900B900C900D900820009000206E
:100C20000190072002900020039004900590069008
:100C300006200E9000200F901090102011900020A0
:100C4000129014901390159016904FF480501790B6
:100C5000002018904FF48040199000201A9007A8A7
:100C60001B90CDF870D00EA802F0BDF8012106202F
:100C700002F044F9322002F0EDFC1FB000BDD32198
:100C8000624A1180911C0888088808884FF6FF7115
:100C900001EA0020911C09880843704710B5FFF74E
:100CA000E5FEFFF7ECFF604908800846008849F23E
:100CB0004131884223D0A12054490880881C0088F3
:100CC000594908805148801C0088088008460088DF
:100CD0004FF6FF7101EA0020534908804B48801C01
:100CE000008809880843504908800846008845F272
:100CF0006171884203D141F663104B4908804A482C
:100D0000008849F2413188421CD14848006820F0EF
:100D10000F004FF02041C1F81C010846D0F81C011B
:100D200020F47060C1F81C010846D0F81C0140F0A6
:100D30000300C1F81C010846D0F81C0140F4007003
:100D4000C1F81C013848008849F2413188426FD10E
:100D5000CF202E4908800020891C0880C1200880EF
:100D600030200880ED20891E08806420891C0880BE
:100D7000032008801220088081200880E820891E36
:100D800008808520891C0880102008807A2008802F
:100D9000CB20891E08803920891C08802C200880DF
:100DA000002008803420088002200880F720891E57
:100DB00008802020891C0880EA20891E08800020E5
:100DC000891C08800880C020891E08801B20891C7F
:100DD0000880C120891E08800120891C0880C52048
:100DE000891E08803020891C08800880C720891E41
:100DF0000880B720891C08803620891E088048207A
:100E0000891C08803A2014E026000020FE1F006C98
:100E1000220000202400002000140240000C0240A8
:100E200000100240001802401E0000201C0100A01B
:100E300082E0891E08805520891C0880B120891E07
:100E400008800020891C08801A200880B620891E8E
:100E500008800A20891C0880A2200880F220891EB0
:100E600008800020891C08802620891E0880012017
:100E7000891C0880E020891E08800F20891C0880BA
:100E80002A20088028200880082008800E2008805A
:100E90000820088054200880A9200880432008806A
:100EA0000A2008800F200880002008800880088021
:100EB0000880E120891E08800020891C08801520F8
:100EC000088017200880072008801120088006204D
:100ED00008802B200880562008803C2008800520B0
:100EE0000880102008800F2008803F20088008809C
:100EF0000F2008802B20891E08800020891C088074
:100F00000880012008803F2008802A20891E088050
:100F10000020891C088008800880EF2008801120AC
:100F2000891E0880782002F095FB2920FA49088064
:100F30000120FA49086098E0F948008841F66311F9
:100F40008842F8D1E220F44908801D20891C0880DD
:100F50000220088004200880642002F033FBE02097
:100F6000ED4908800120891C08800A2002F072FBEC
:100F7000E020E94908800320891C08800C2002F049
:100F800069FB0120E44908800A2002F063FBE620A7
:100F9000E14908802F20891C0880FF2008800880F4
:100FA000B020891E08802020891C0880002008802D
:100FB0000320088040F21F3008800120088040F2A2
:100FC000DF10088000200880B420891E08800420DB
:100FD000891C088040F21F400880002008802E20D5
:100FE000088000200880088008800880B620891EBC
:100FF00008800220891C08804FF4037008800020BC
:1010000008801720088015200880002008800880AC
:10101000F020891E08800320891C08802920891E51
:101020000880D02008800020891C0880BE20891EEE
:1010300008800520891C0880FE2008800120088087
:101040000020088008800880B820891E08800320BE
:10105000891C088001200880BA20891E0880012090
:10106000891C0880FF20FFF7D8FC0020FFF7A3FBB6
:101070004FF6FF70FFF7E1FC10BD2DE9F04F05467C
:101080000E4617469846DDF824A04FF0000B781B5B
:10109000401C1FFA80FB344614E021462846FFF727
:1010A000F5FBFFF7C2FA4FF0000907E09A48801CF1
:1010B000A0F800A009F101001FFA80F9D945F5DB7D
:1010C000601C84B24445E8DDBDE8F08F2DE9F84F9F
:1010D00007460D4690469946DDF828B0A8EB070074
:1010E000401C80B20090A9EB0500401C1FFA80FA5A
:1010F000002416E0281981B23846FFF7C7FBFFF736
:1011000094FA002608E004FB0A603BF810008249CC
:10111000891C0880701C86B200988642F3DB601C34
:1011200084B25445E6DBBDE8F88F2DE9FF4F074652
:1011300016461C46BB460C2C01D198460AE0102CE2
:1011400001D1A04606E0182C02D14FF0300801E092
:10115000BDE8FF8FA6F12000C6B2002548E00C2CA8
:1011600007D106EB46006F4901EB800010F80590AF
:1011700010E0102C05D16C4800EB061010F805901B
:1011800008E0182C06D106EB4600684901EB001078
:1011900010F805904FF0000A24E009F0010030B18A
:1011A0006348028838460199FFF728FC05E061484A
:1011B000028838460199FFF721FC4FEA6909781C3B
:1011C00087B2A7EB0B0104EBD472B1EB620F05D130
:1011D0005F460198401C80B2019006E00AF10100D0
:1011E00000F0FF0ABAF1080FD7DB00BF681CC5B2D8
:1011F0004545B4DB00BFABE7F0B506460F461546E4
:101200001C4611E022782B4639463046FFF78DFF09
:10121000284605EBD07106EB61018EB24648008886
:10122000864200DB06E0641C2078202802DB207860
:101230007E28E7DD00BFF0BD2DE9F04F04460D46E6
:1012400016461F46DDE909893948B0F800A039483B
:10125000B0F800B03648A0F800803648A0F80090FA
:101260003B46324629462046FFF7C6FF3048A0F8E5
:1012700000A03048A0F800B0BDE8F08F10B50246DD
:10128000012000E050430B1EA1F10104E1B2F9D1AD
:1012900010BD2DE9FF4F81B0074690461E460E9CBB
:1012A000C3464FF0000906E00A20BBFBF0FB09F142
:1012B000010000F0FF09BBF1000FF5D1B14508DDD9
:1012C0001EA3224638460299FFF796FF05B0BDE8F7
:1012D000F08F002553E0A6EB0900A84232DD0F98FD
:1012E00060B104EBD471491001FB057188B223464B
:1012F000302200940299FFF718FF3EE004EBD4710E
:10130000491001FB057188B22346202200940299FE
:10131000FFF70BFF31E00000FE1F006CA882424285
:101320001E000020183700088C3B00087C41000894
:101330001A0000201C000020220000204552524FBD
:1013400052000000701B401EC1B20A20FFF796FF3A
:10135000B8FBF0F00A21B0FBF1F201FB120A04EB3A
:10136000D471491001FB057188B20AF13001CAB28B
:10137000234600940299FFF7D8FE681CC5B2B54217
:10138000A9DB00BFA2E72DE9FF4F82B004460D465E
:101390001646DDE91189109F0E48B0F800A00E48EE
:1013A000B0F800B00B48A0F800800B48A0F80090FF
:1013B0000F98CDE90007324629462046059BFFF7E6
:1013C00068FF0448A0F800A00348A0F800B006B0E9
:1013D000BDE8F08F1A0000201C0000201CB5012180
:1013E000512001F067F91820009001208DF80400C9
:1013F00000208DF8060003208DF8050001208DF8EF
:10140000070069460E4800F0B7FE18210C4800F0AE
:101410002FFF4FF40070009069460A4800F0ACFEC0
:101420004FF40071074800F023FF02200090694646
:10143000054800F0A1FE0221034800F019FF1CBD81
:1014400000100240001802400000024010B588B0B1
:1014500004460121084601F02DF90121102001F078
:1014600083F9072209214E4800F011FF07220A21C3
:101470004B4800F00CFF4FF4C060069002208DF83E
:101480001C008DF81D0000208DF81E0001208DF835
:101490001F0006A9424800F06FFE02940020ADF83C
:1014A0000C00ADF80E00ADF81000ADF814000C20E3
:1014B000ADF8120002A93B4801F0B7FA0121394802
:1014C00001F03BFB4021374801F01FFC012240F2B4
:1014D0002551344801F0E7FB25208DF80400032056
:1014E0008DF805008DF8060001208DF8070001A891
:1014F00000F051FD08B010BD00BF2A49098801F075
:1015000040010029F9D027498880704710B503466B
:101510000C46002200BF985CFFF7EEFF501C82B221
:10152000A242F8DB10BD10B540F225511D4801F074
:10153000F5FB00B31B4801F02FFBC4B2532C03D1C1
:1015400001201949087029E0452C15D100201649C1
:10155000087009E000201549134A1278885412488F
:101560000078401C104908700F4800782028F1DBF3
:1015700000200D49087011E00B48007800280DDDAF
:1015800009480078642809DC07480078401E0749AC
:101590000C5405480078401C0349087010BD000039
:1015A00000000240001001402C00002064000020D8
:1015B00010B55748008849F24131884202D100F005
:1015C00043FA07E05248008841F66311884201D18E
:1015D00000F017FC10BD10B54FF6FF70FFF72DFAA5
:1015E0001F204C4908804CA3102296217820FFF739
:1015F00003FE4FF478404749088010BD2DE9F041C3
:1016000006460D46174600244248078000BF18E0F2
:10161000281981B23046FFF7D0F92A1991B2721C0D
:1016200090B2FFF7CAF92A1991B2B21C90B2FFF733
:10163000C4F92A1991B2F21C90B2FFF7BEF9601CEE
:10164000C4B2042CE4DBBDE8F08100243AE00020C1
:1016500000F08FF93248008832490988884221DA3F
:10166000314800883149098888421BDA2C480088B3
:1016700064280FDD2A4800888C280BDA2A48008865
:10168000822807DD28480088AA2803DA0020284994
:10169000086007E04FF4784223480188204800881A
:1016A000FFF7ACFF601CC4B2142094FBF0F100FB08
:1016B000114038B91F48006808B9012000E0002037
:1016C0001C490860C3E7002421E000F0DAFB1A4857
:1016D0000188144800882838814208DD17480188AD
:1016E000124800881838814201DDFFF774FF601C42
:1016F000C4B2142094FBF0F100FB114038B90D483E
:10170000006808B9012000E000200A490860DCE711
:101710001E0000201A000020436C6561720000006A
:101720003000002022000020320000202400002091
:10173000A40243428C024242480000204A0000209A
:1017400070B50446002500BF17E004F0800018B112
:101750000120ED49086002E00020EB4908606006C6
:10176000040E0020E9490860012001F02BFF012050
:10177000E749C1F89402681CC5B2082DE5DB70BDCD
:1017800070B50646002500240020E0490860E149C4
:10179000C1F88402DC49091F08603046FFF7D0FF1A
:1017A000062001F00FFF0020D949C1F89402012062
:1017B00001F008FF0120D549086001F003FF002077
:1017C000D349C1F8940200BF15E04FF6FF7000EA5C
:1017D00044040020CD490860012001F0F3FE0120FF
:1017E000CB49C1F89402C8487C38006808B1601C35
:1017F00084B2681CC5B2102DE7DB24110120C24958
:10180000091F0860204670BD2DE9FE438046002771
:10181000002406E04046FFF7B3FF2DF81400601CDB
:1018200084B2052CF6DB002416E0601C85B20FE0C4
:101830003DF814003DF81510884207DD3DF81460AE
:101840003DF815002DF814002DF81560681C85B2C0
:10185000052DEDDB601C84B2042CE6DB002701249F
:1018600005E03DF81400384487B2601C84B2042CB3
:10187000F7DB032097FBF0F086B23046BDE8FE832D
:101880002DE9F04104460D46A3480078FFF7BCFF60
:101890000646A2480078FFF7B7FF0746322E01DB65
:1018A000322F02DA0020BDE8F08126802F8001204F
:1018B000F9E77FB504460D4602A903A8FFF7E0FF4C
:1018C000064616B9002004B070BD694601A8FFF7AE
:1018D000D7FF06460EB90020F5E7BDF80400BDF8B5
:1018E0000C10884206DCBDF80C10BDF80400323044
:1018F00081420CDBBDF80C00BDF80410884236DCD8
:10190000BDF80410BDF80C00323081422FDABDF86A
:101910000000BDF80810884206DCBDF80810BDF8CC
:101920000000323081420CDBBDF80800BDF8001029
:1019300088421CDCBDF80010BDF80800323081423E
:1019400015DABDF80C10BDF80420881800EBD07132
:10195000C1F34F012180BDF80810BDF800208818A0
:1019600000EBD071C1F34F0129800120ABE70020CB
:10197000A9E710B504464FF6FF7069490880694928
:10198000088069480068002848D124B16749684840
:10199000FFF78FFF34E065496548FFF78AFF78B3AA
:1019A0006448B0F9000000EE100AB8EEC00A6248C0
:1019B00090ED001A5E48008800EE900AF8EE600A8A
:1019C00001EE200ABCEEC00A10EE100A5849088049
:1019D0005A48B0F9000000EE100AB8EEC00A5848A4
:1019E00090ED001A5148008800EE900AF8EE600A67
:1019F00001EE200ABCEEC00A10EE100A4B49088026
:101A00004B4800884F490880484800884E49088064
:101A10004E480078401C4D49087014E04B4800784F
:101A2000022807DD424800883D4908803F48008879
:101A30003C4908800020454908704FF6FF70414935
:101A400008804149088010BD1CB50121272000F005
:101A500031FE0420009000208DF804008DF806006F
:101A600003208DF8050001208DF8070069463848ED
:101A700000F082FB4FF4006000906946354800F0AA
:101A80007BFB0320009001208DF80400694630485C
:101A900000F072FB2020009069462F4800F06CFB9C
:101AA0002E480078C0B190201B490870D0201B49F7
:101AB00008709FED2B0A204880ED000A9FED290A4F
:101AC0001F4880ED000A4FF4AE701A4908806FF08D
:101AD00012001A49088016E0D0200F4908709020A3
:101AE0000E4908709FED200A134880ED000A9FED13
:101AF0001F0A134880ED000A6FF00A000D490880A4
:101B0000C01F0E4908801CBD84824042940240429E
:101B10000000404200804042380000203900002090
:101B200034000020360000202C8242424A0000206F
:101B300048000020440000203C0000204600002017
:101B40004000002030000020320000204C00002027
:101B50000004024000140240000002402000002067
:101B60006452BCBD7BF5893DDA9F883D3ABABA3DE7
:101B70001CB50121022000F09DFD022000900120F3
:101B80008DF804006946F34800F0F6FA1CBD10B564
:101B9000FFF7EEFF0120F04908601C2001F012FD64
:101BA0000020EE49C1F88402022001F00BFD012063
:101BB000EB49086010BD1CB50121032000F07AFD3F
:101BC0002020009001208DF8040000208DF80600F0
:101BD00001208DF807006946E24800F0CDFA0220A6
:101BE00000906946DB4800F0C7FAFFF7D0FF1CBD44
:101BF0001CB50121022000F05DFD022000900020B4
:101C00008DF804006946D34800F0B6FA1CBD10B543
:101C1000FFF7AEFF0120D2490860D349C1F8940212
:101C20001C2001F0CFFC0020CD490860022001F00B
:101C3000C9FC0020CC49C1F8940210BD10B50024A5
:101C4000FFF7D6FF0120C6490860C749C1F89402D2
:101C5000022001F0B7FC0221BE4800F0EFFA08B103
:101C6000012400E000240020BB490860022001F0AC
:101C7000A9FC204610BD10B50020B7490860FFF749
:101C800077FF022001F09EFC0020B449C1F88402D5
:101C9000022001F097FC0120AF490860022001F00A
:101CA00091FC0020B049C1F8940210BD10B500208D
:101CB000A9490860FFF75CFF022001F083FC0120C6
:101CC000A649C1F88402022001F07CFC0120A2494F
:101CD0000860022001F076FC0020A349C1F89402BC
:101CE00010BD70B50446FFF743FF00209A49086015
:101CF000022001F067FC002513E0E0099849086024
:101D00006006040E01209849C1F89402022001F0F7
:101D100059FC002090490860022001F053FC681C27
:101D2000C5B2082DE9DB70BD70B505460024FFF78C
:101D30005FFF1C2001F046FC002614E000208649CD
:101D40000860022001F03EFC01208749C1F894029E
:101D50006006040E02217F4800F070FA08B1601C92
:101D6000C4B2701CC6B2082EE8DB15B9FFF79EFF9F
:101D700001E0FFF780FF204670BD70B504460D46B8
:101D8000FFF745FF7020FFF7ACFFFFF757FFE0B20A
:101D9000FFF7A7FFFFF752FF2846FFF7A2FFFFF765
:101DA0004DFFFFF7F4FE70BD70B50446FFF72FFF3F
:101DB0007020FFF796FFFFF741FFE0B2FFF791FFBA
:101DC000FFF73CFFFFF723FF7120FFF78AFFFFF7C4
:101DD00035FF0020FFF7A8FF0546FFF7D8FE28468D
:101DE00070BD70B506460C46002507E0711988B233
:101DF000FFF7DAFF04F8010B681CC5B2042DF5DB10
:101E000070BD1CB50121222000F054FC4FF400608D
:101E1000009000208DF804008DF8060003208DF856
:101E2000050001208DF807006946504800F0A4F92C
:101E3000012000908DF804006946464800F09CF9A6
:101E4000FFF7B9FE00204649091F0860192001F07C
:101E500001FC01204149C1F88002322001F0FAFB67
:101E600000210846FFF789FF0121A420FFF785FF25
:101E700012218020FFF781FF0C218820FFF77DFFD2
:101E80001CBDF8B50024002539480068002851D150
:101E90000220FFF789FF374908700846067800BF1F
:101EA00045E0354931F814006946FFF79AFF334899
:101EB0000078012816D19DF801009DF8001001F06E
:101EC0000F0100EB01202E4921F814009DF80300BA
:101ED0009DF8021001F00F0100EB0120294921F8C3
:101EE000140017E09DF803009DF8021001F00F01A7
:101EF00000EB0120C0F5F070214921F814009DF895
:101F000001009DF8001001F00F0100EB01201D49B8
:101F100021F814001C4B33F814201A4B33F814101A
:101F2000174B33F81400FFF769FB601CC4B2B442CE
:101F3000B7DB0DE0002509E04FF6FF70104921F8EE
:101F40001500104921F81500681CC5B2B542F3DB35
:101F5000F8BD00000004024094024042008040426C
:101F600084824042000002400000404200140240CF
:101F70002C8242424D0000204C53000820000020DB
:101F8000480000204A00002056530008324901430F
:101F9000324A1160704770B5002100230F22C478C7
:101FA0001CB32E4C246804F4E064C4F5E064C4F36C
:101FB0000721C1F10404E3B20A4144789C40E1B234
:101FC0008478144021430C07210E254C0578615577
:101FD000047804F01F050124AC4005786D11AD00B4
:101FE00005F1E025C5F8004109E0047804F01F057B
:101FF0000124AC401B4D0678761145F8264070BD93
:10200000194A0A400243154B1B1F1A60704739B129
:10201000124A121D12680243104B1B1D1A6006E083
:102020000E4A121D126882430C4B1B1D1A6070472A
:10203000042808D14FF0E021096941F004014FF074
:10204000E022116107E04FF0E021096921F004016D
:102050004FF0E022116170470000FA050CED00E03E
:1020600000E400E080E100E080FFFF1F10B50446BF
:102070009848844208D10121084600F086FB0021DF
:10208000012000F082FB76E09348844208D10121D0
:10209000022000F07AFB0021022000F076FB6AE0CB
:1020A0008E48844208D10121042000F06EFB0021FB
:1020B000042000F06AFB5EE08948844208D10121D7
:1020C000082000F062FB0021082000F05EFB52E0D7
:1020D0008448844208D10121102000F056FB0021E1
:1020E000102000F052FB46E07F48844208D10121D5
:1020F000202000F04AFB0021202000F046FB3AE0BF
:102100007A48844208D10121402000F03EFB0021A2
:10211000402000F03AFB2EE07548844208D10121AE
:10212000802000F032FB0021802000F02EFB22E016
:102130007048844208D10121801500F026FB00215F
:10214000A01500F022FB16E06B48844208D1012163
:10215000401500F01AFB0021601500F016FB0AE0A4
:102160006648844207D10121001500F00EFB0021D2
:10217000201500F00AFB10BDF0B50A46002100232F
:10218000002400BF3DE0012505FA01F3156805EACA
:1021900003049C4234D105684F000326BE40B5437A
:1021A000056015794E00B540066835430560157920
:1021B000012D02D01579022D16D185684F00032616
:1021C000BE40B543856055794E00B54086683543BD
:1021D0008560456801268E40B5434560456896791F
:1021E0008E40B6B235434560C5684F000326BE40F9
:1021F000B543C560D5794E00B540C6683543C56066
:10220000491C1029BFD3F0BD4FF6FF7101600021BA
:10221000017141718171C171704708B54FF480320D
:102220000092009A0A430092009AC261C161009A2A
:10223000C261C2690092C269009208BD02460020D4
:1022400013690B400BB1012000E0002070470146EC
:10225000086980B270470246002053690B400BB1F9
:10226000012000E0002070470146486980B27047B5
:1022700001837047418370470AB1018300E04183C5
:1022800070474161704742694A4042617047F0B50A
:10229000002300244D07ED0E02FA05F3CE1000F1E5
:1022A000200555F826504E07F70E0F26BE40B543C1
:1022B000CF1000F1200646F82750CE1000F120057F
:1022C00055F8265045EA0304CE1000F1200545F8E4
:1022D0002640F0BD00000240000402400008024019
:1022E000000C02400010024000140240001802409E
:1022F000001C02400020024000240240002802404E
:10230000F948006840F00100F74908600020F649EC
:1023100008310860F4480068F4490840F249086050
:10232000F348091D0860F348EF4984310860F0481C
:102330001038091D0860EC48006820F48020EA4944
:1023400008600020E8490C310860E7498C310860DA
:1023500070470021E44A921C1170114608707047C2
:1023600010B501460022002300204A11012A02D1A3
:10237000DD4C236808E0022A03D1DB4C703423686B
:1023800002E0D94C7434236801F01F020124944008
:102390001C400CB1012000E0002010BD38B5002029
:1023A00000900024002500BF3120FFF7D9FF05462B
:1023B0000098401C00900098B0F5A04F01D0002D6F
:1023C000F2D03120FFF7CCFF08B1012400E0002457
:1023D000204638BD01460020C34A106820F0F800AE
:1023E00040EAC10010607047C3490860704700218F
:1023F000BD4A703211701170012802D004280AD130
:1024000004E00121B84A7032117005E00521B64A96
:102410007032117000E000BF00BF7047B74908601C
:10242000704770B5049C41EA82150126C6EB53063D
:1024300045EA0645054345EA0465AB4E361D356061
:1024400070BDAD4908667047820142EA0172A64B31
:1024500084331A607047A8498866704710B58301B5
:1024600043EA016343EA02739F4C8834236010BD42
:10247000A14908677047A049C86470470246002018
:10248000994B0833186820F0EC6042EA01031843C6
:10249000954B08331860704702460020924B083372
:1024A000186820F0784042EA010318438E4B083345
:1024B00018607047014600208B4A0832106820F0EF
:1024C000030008431060704787480830006800F038
:1024D0000C00704701460020834A0832106820F043
:1024E000F000084310607047014600207E4A083221
:1024F000106820F4E0500843106070470146002047
:10250000794A0832106820F4604040EAC100106047
:102510007047F0B500210022002402250026022386
:10252000714F08373F6807F00C0121B1042905D02D
:10253000082937D105E0724F076036E0714F076018
:1025400033E0694F3F1D3F68C7F38056664F3F1D1C
:102550003F6807F03F036EB16A4FB7FBF3F7DFF850
:1025600088C10CF1040CDCF800C0CCF3881C07FB1C
:102570000CF40CE0624FB7FBF3F7DFF86CC10CF121
:10258000040CDCF800C0CCF3881C07FB0CF4564F9D
:102590003F1D3F68C7F301477F1C7D00B4FBF5F783
:1025A000076002E0564F076000BF00BF4E4F08377C
:1025B0003F6807F0F0010909534F7A5C0768D7407C
:1025C0004760494F08373F6807F4E051890A4E4F8A
:1025D0007A5C4768D7408760434F08373F6807F405
:1025E0006041490B484F7A5C4768D740C760F0BDEF
:1025F000002100F44072B2F5407F0AD13A4A083215
:10260000116821F4F811414A02401143364A083258
:102610001160354A70321268C0F30B031A43324B13
:1026200070331A6070473549443908607047334940
:1026300040390860704736490860704701460020FD
:10264000294A8C32106820F01F004A1E1043264A87
:102650008C321060704701460020234A8C3210688B
:1026600020F4F8504A1E40EA02201F4A8C321060C3
:102670007047014600201C4A8C32106820F440103C
:1026800008431060704701460020174A8C321068DA
:1026900020F4400008431060704701460020124AB1
:1026A0008C32106820F4403008431060704719499C
:1026B0000860704739B10C4A3032126802430A4B45
:1026C00030331A6006E0084A303212688243064B03
:1026D00030331A607047F9B1034A3432126802434A
:1026E000014B34331A601CE000380240FFFFF6EA69
:1026F000103000240030002000004742800E474286
:102700000024F40000127A004E000020FFFCFF0FAE
:102710005C014742E01147428F4A126882438E4B68
:102720001A60704739B18C4A121D126802438A4BF5
:102730001B1D1A6006E0884A121D12688243864BF0
:102740001B1D1A60704739B1834A0C32126802436C
:10275000814B0C331A6006E07F4A0C3212688243C8
:102760007D4B0C331A60704739B17B4A10321268C6
:102770000243794B10331A6006E0774A1032126830
:102780008243754B10331A60704739B1724A243A4C
:1027900012680243704B243B1A6006E06E4A243AEA
:1027A000126882436C4B243B1A60704739B16A4A05
:1027B000203A12680243684B203B1A6006E0664AE2
:1027C000203A12688243644B203B1A60704739B14B
:1027D000614A1C3A126802435F4B1C3B1A6006E0D8
:1027E0005D4A1C3A126882435B4B1C3B1A6070477F
:1027F00039B1594A143A12680243574B143B1A60D4
:1028000006E0554A143A12688243534B143B1A604F
:10281000704739B1504A103A126802434E4B103B90
:102820001A6006E04C4A103A126882434A4B103B49
:102830001A60704739B1484A1C3212680243464B4D
:102840001C331A6006E0444A1C3212688243424B31
:102850001C331A60704739B13F4A20321268024374
:102860003D4B20331A6006E03B4A20321268824317
:10287000394B20331A60704739B1374A2432126815
:102880000243354B24331A6006E0334A243212687F
:102890008243314B24331A60704739B12E4A2C32AF
:1028A000126802432C4B2C331A6006E02A4A2C3261
:1028B00012688243284B2C331A60704739B1264A7C
:1028C000303212680243244B30331A6006E0224A49
:1028D000303212688243204B30331A60704701282F
:1028E00008D11D493C31096841F008011A4A3C32BF
:1028F000116007E018493C31096821F00801164AC7
:102900003C321160704739B1134A273A12780243BA
:10291000114B273B1A7006E00F4A273A1278824380
:102920000D4B273B1A7070470B484030006840F051
:102930008070094940310860704701460020064A0E
:10294000283A12680A400AB1012000E000207047CE
:1029500001492639087070473438024010B50446E2
:10296000FA48844208D101211020FFF752FF0021CC
:102970001020FFF74EFF57E0F548844209D10121AE
:102980004804FFF735FF00214FF40030FFF730FF18
:102990004AE0F048844209D101218804FFF728FF6A
:1029A00000214FF48020FFF723FF3DE0EA488442F6
:1029B00009D10121C804FFF71BFF00214FF40020BB
:1029C000FFF716FF30E0E548844209D101210805F0
:1029D000FFF70EFF00214FF48010FFF709FF23E0FF
:1029E000DF48844208D101212020FFF712FF002197
:1029F0002020FFF70EFF17E0DA48844209D10121B9
:102A00008807FFF7F5FE00214FF08040FFF7F0FE4A
:102A10000AE0D548844207D101214005FFF7E8FECE
:102A200000216005FFF7E4FE10BD2DE9FF470546D4
:102A30000E460024A14600BFA046B08900B100BFE9
:102A40002C8A24F44054F08804432C82AC8941F24F
:102A50000C608443B088318908437189084304437A
:102A6000AC81AC8A24F44074B0890443AC826846DB
:102A7000FFF74FFDB548854202D0B948854202D1E3
:102A8000DDF80C9001E0DDF80890A88900F4004022
:102A900040B109EBC90000EB091031684900B0FBF7
:102AA000F1F707E009EBC90000EB09103168890074
:102AB000B0FBF1F76420B7FBF0F0040120096421BA
:102AC00001FB1078A88900F4004040B1322000EBEF
:102AD000C800B0FBF1F000F00700044308E032202A
:102AE00000EB08106421B0FBF1F000F00F0004438C
:102AF0002C81BDE8FF874FF41651016000218180D1
:102B0000C18001810C21418100218181704710B574
:102B100002460020108A20F470600B884C88234302
:102B20008C882343CC8823431843108210BD002196
:102B3000018041808180C180704721B1828942F447
:102B40000052828104E082894DF6FF731A4082812F
:102B50007047028B02F47F420283028B0A43028396
:102B6000704721B1828942F40042828103E0828968
:102B7000C2F30E028281704721B1828A42F4006260
:102B8000828204E0828A4FF2FF731A408282704789
:102B9000C1F308028280704701468888C0F30800AC
:102BA0007047028A4FF6F0731A400282028A0A4383
:102BB0000282704721B1828942F00202828104E0E0
:102BC00082894FF6FD731A408281704782894FF2E5
:102BD000FF731A40828182890A4382817047028A88
:102BE0004FF6DF731A400282028A0A43028270475C
:102BF00021B1028A42F48042028204E0028A4BF64A
:102C0000FF731A4002827047818941F0010181817E
:102C1000704721B1828A42F00802828204E0828AEF
:102C20004FF6F7731A4082827047028BD2B202834A
:102C3000028B42EA01220283704721B1828A42F06C
:102C40002002828204E0828A4FF6DF731A40828279
:102C5000704721B1828A42F01002828204E0828AA7
:102C60004FF6EF731A4082827047828A4FF6FB73E9
:102C70001A408282828A0A438282704721B1828A04
:102C800042F00202828204E0828A4FF6FD731A400B
:102C9000828270471AB1838A0B43838202E0838A5F
:102CA0008B4383827047F0B503460024002600253D
:102CB000002040F66A17B94200D100BF1846C1F3A0
:102CC000421401F01F06012707FA06F5012C01D175
:102CD0000C3004E0022C01D1103000E014301AB1A5
:102CE00007682F43076002E00768AF430760F0BD45
:102CF00002460020B1F5007F00D100BF13880B40D1
:102D00000BB1012000E00020704701F40072B2F521
:102D1000007F00D100BFCA430280704770B50246F1
:102D2000002400230025002040F66A16B14200D19D
:102D300000BFC1F3421501F01F03012606FA03F399
:102D4000012D13D19689334017E000000010014097
:102D50000044004000480040004C0040005000404B
:102D60000014014000780040007C0040022D02D198
:102D7000168A334001E0968A33400C12012606FA87
:102D800004F41688344013B10CB1012000E0002097
:102D900070BD10B50022002340F66A14A14200D194
:102DA00000BF0A1201249440A3B2DC43048010BD8A
:102DB00030B943F2DB028100A1F1C0410A6005E0B5
:102DC00043F2D2028100A1F1C0410A606FF070426B
:102DD000411C8900A1F1C0410A608100A1F1C041FC
:102DE000C1F804217047D0E901121143C2681143B0
:102DF000026911434269114382691143C269114357
:102E0000026A1143426A1143826A1143C26A114342
:102E1000026B114302689200A2F1C0421160816806
:102E200008290BD101688900A1F1C041096841F06E
:102E3000400201688900A1F1C0410A60416B096844
:102E4000426B526841EA0211426B926841EA0221E8
:102E5000426B928941EA0241426B128A41EA025175
:102E6000426B127D41EA0261426B92691143026832
:102E7000521C9200A2F1C0421160C16AB1F5804FAC
:102E80001BD1816B0968826B526841EA0211826B27
:102E9000926841EA0221826B128A41EA0251826BF6
:102EA000127D41EA0261826B9269114302689200CD
:102EB000A2F1C042C2F8041107E06FF0704201684D
:102EC0008900A1F1C041C1F80421704700210160CF
:102ED0000221416000218160C16001614161816125
:102EE000C16101624FF48051416249008162002159
:102EF000C1620163F84941638163704751B1820047
:102F0000A2F1C042126842F001038200A2F1C04265
:102F1000136009E08200A2F1C0421268EF4B1A4030
:102F20008300A3F1C0431A60704710280AD118210A
:102F30004FF020421166402151664FF0FC319166FE
:102F4000D16610E01821E64A116040214FF020427E
:102F5000C2F884104FF0FC31E14A083211604FF0A2
:102F60002042C2F88C10704730B5002100220023A7
:102F7000446844F0080485682C43C5682C430569FF
:102F80002C43456944EA4524856944EA4531C469CE
:102F90002468C5696D6844EA0524C5692D8944EA39
:102FA0000544C5692D7B44EA0562046A2468056A04
:102FB0006D6844EA0524056A2D8944EA0544056ADA
:102FC0002D7B44EA05630468102C05D14FF02044A2
:102FD0002166A266E36608E0C14C21604FF0204400
:102FE000C4F88820BE4C0C34236030BD1021016031
:102FF000002141608160C160016141618161FC210A
:10300000C2691160C2695160C2699160C269D160D0
:10301000026A1160026A5160026A9160026AD160BC
:10302000704799B1102808D14FF02042126E42F03B
:1030300004024FF020431A661DE0A94A126842F0CC
:1030400004024FF02043C3F8802014E0102809D177
:103050004FF02042126EA14BDB1E1A404FF020436E
:103060001A6608E09E4A12689C4BDB1E1A404FF01D
:103070002043C3F88020704799B1102808D14FF041
:103080002042126E42F040024FF020431A661DE0CB
:10309000934A126842F040024FF02043C3F8802068
:1030A00014E0102809D14FF02042126E8B4B3F3BA9
:1030B0001A404FF020431A6608E0894A1268874B8D
:1030C0003F3B1A404FF02043C3F880207047014631
:1030D0000020102903D14FF02042506F02E0804AB7
:1030E00014321068704718207D4920310860002094
:1030F0000906C1F8A4004FF0FC3079492831086076
:10310000091D0860091D08607047016841F0100141
:10311000426841EA4221826841EA4231704A2032E3
:103120001160C1680968C268526841EA0221C26838
:10313000128941EA0241C268127B41EA0261684A8F
:1031400028321160016909680269526841EA022166
:103150000269128941EA02410269127B41EA026175
:103160005F4A2C321160416909684269526841EA3C
:1031700002214269128941EA02414269127B41EA15
:1031800002614FF02042C2F8B01070470021016088
:1031900041608160FC21C2681160C2685160C268F0
:1031A0009160C268D1600269116002695160026970
:1031B00091600269D160426911604269516042695F
:1031C00091604269D160704748B145492031096832
:1031D00041F004014FF02042C2F8A01009E040493C
:1031E000203109683D4AD21E11404FF02042C2F8FA
:1031F000A010704710B5F2B1102807D14FF020434E
:103200005B6E0B434FF02044636632E0B0F5807F85
:1032100008D1334B1B1D1B680B434FF02044C4F8EF
:10322000843026E02E4B24331B680B434FF02044A0
:10323000C4F8A4301DE0102807D14FF020435B6E86
:103240008B434FF02044636613E0B0F5807F08D1D4
:10325000234B1B1D1B688B434FF02044C4F8843064
:1032600007E01F4B24331B688B434FF02044C4F806
:10327000A43010BD10B5024600200023102A03D14F
:103280004FF02044636E09E0B2F5807F03D1144C07
:10329000241D236802E0124C2434236803EA01044D
:1032A0000CB1012000E0002010BD102807D14FF024
:1032B0002042526E8A434FF020435A6619E0B0F51F
:1032C000807F0FD1064A121D12688A434FF02043B7
:1032D000C3F884200DE0000060530008FEFF0F00DB
:1032E000800000A0234A12688A434FF02043C3F8AD
:1032F000A420704770B5024600200023002400255A
:10330000102A03D14FF02046736E08E0B2F5807F9B
:1033100003D1184E203E336801E0164E336803EAAD
:10332000010403EAD10514B10DB1012000E0002031
:1033300070BD102808D14FF02042526E22EAD1020F
:103340004FF020435A6614E0B0F5807F09D1094A56
:10335000203A126822EAD1024FF02043C3F88420B9
:1033600007E0044A126822EAD1024FF02043C3F872
:10337000A4207047A40000A00A460021DBE0D30B84
:10338000002B75D0102971D2DFE801F0080F161D4F
:10339000242B323940464C52585E646A038823F429
:1033A000004303F50043038060E0038823F4804377
:1033B00003F58043038059E0038823F4005303F5A9
:1033C0000053038052E0038823F4805303F58053B5
:1033D00003804BE0038823F4006303F5006303805C
:1033E00044E0038823F4806303F5806303803DE0B9
:1033F000038823F4007303F50073038036E0038829
:1034000023F4807303F5807303802FE0038823F097
:1034100080038033038029E0038823F04003403396
:10342000038023E0038823F02003203303801DE082
:10343000038823F010031033038017E0038823F080
:1034400008030833038011E0038823F004031B1DE5
:1034500003800BE0038823F002039B1C038005E03C
:10346000038823F001035B1C038000BF5DE0FFE7DE
:10347000102959D2DFE801F0080D12171C21262B64
:1034800030353A3F44494E53038823F400430380C8
:103490004AE0038823F48043038045E0038823F453
:1034A0000053038040E0038823F4805303803BE013
:1034B000038823F40063038036E0038823F48063E9
:1034C000038031E0038823F4007303802CE0038839
:1034D00023F48073038027E0038823F080030380B4
:1034E00022E0038823F0400303801DE0038823F0DB
:1034F0002003038018E0038823F01003038013E007
:10350000038823F0080303800EE0038823F00403FC
:10351000038009E0038823F00203038004E00388AA
:1035200023F00103038000BF00BF4FF6FF7303EADF
:1035300042024B1CD9B21029FFF621AF7047F0B5FB
:103540001C46002600250123C1F11007974202DA2C
:10355000C1F11007FAB20E46002E0CDD05E0EF189F
:10356000BDB24FF6FF7707EA4303371EA6F1010C01
:103570000CF0FF06F3D1D0F814C04FF6FF77974058
:103580008F402F430CEA070CC0F814C0476904FAB7
:1035900001FC47EA0C074761F0BD10B56FF004006D
:1035A000FEF746FD1520394908700846007800EB03
:1035B0004001C1EBC0104FF6FF7101EAC000344971
:1035C000088010BD0146314A12784A434FF0E0238B
:1035D0005A6100229A611A46126942F001021A6188
:1035E00000BF4FF0E022106900F001021AB100F4B0
:1035F0008032002AF5D04FF0E022126922F0010259
:103600004FF0E0231A6100229A6170470146204A78
:1036100012884A434FF0E0235A6100229A611A4609
:10362000126942F001021A6100BF4FF0E0221069F6
:1036300000F001021AB100F48032002AF5D04FF0F8
:10364000E022126922F001024FF0E0231A61002209
:103650009A61704770B504464FF4077094FBF0F020
:10366000C6B24FF4077094FBF0F100FB114085B235
:1036700005E04FF40770FFF7C9FF701EC6B2002EB9
:10368000F7D115B12846FFF7C1FF70BD5E000020DD
:1036900060000020704770477047754600F02CF8B6
:1036A000AE4605006946534620F00700854618B02F
:1036B00020B5FCF70DFFBDE820404FF000064FF0AD
:1036C00000074FF000084FF0000B21F00701AC4657
:1036D000ACE8C009ACE8C009ACE8C009ACE8C00976
:1036E0008D46704710B50446AFF300802046BDE814
:1036F0001040FCF792BD000000487047C800002051
:1037000001491820ABBEFEE72600020070474FF0CB
:103710004070E1EE100A7047000000000000000059
:10372000000000000000040404040404000400007D
:1037300000140A0A00000000000000000000141439
:103740003F140A3F0A0A000000041E1505060C1467
:10375000150F0400000012150D0A142C2A12000087
:103760000000040A0A1E15150936000000020201B5
:1037700000000000000000000020100808080808F1
:1037800008102000000204080808080808040200C5
:1037900000000004150E0E150400000000000404D3
:1037A000041F0404040000000000000000000000EA
:1037B0000002020100000000001F000000000000E5
:1037C00000000000000000000002000000100808D7
:1037D000080404020202010000000E11111111116F
:1037E000110E00000000040604040404040E00008E
:1037F00000000E1111080402011F000000000E114C
:10380000100C1010110E00000000080C0A0A091E0E
:103810000818000000001F01010F1010110E000019
:1038200000000E09010F1111110E000000001F0908
:10383000080404040404000000000E11110E11110C
:10384000110E000000000E1111111E10120E0000CA
:103850000000000004000000000400000000000060
:103860000004000000040400002010080402040802
:1038700010200000000000001F00001F00000000DA
:1038800000020408102010080402000000000E11BD
:10389000110804040004000000000E111915151D84
:1038A000011E0000000004040C0A0A1E123300006E
:1038B00000000F12120E1212120F000000001E1153
:1038C00001010101110E000000000F12121212126C
:1038D000120F000000001F120A0E0A02121F000041
:1038E00000001F120A0E0A020207000000001C124C
:1038F00001013911120C000000003312121E1212C5
:103900001233000000001F0404040404041F00001C
:1039100000003E08080808080809070000003712E0
:103920000A060A0A12370000000007020202020219
:10393000223F000000001B1B1B1B15151515000066
:1039400000003B1216161A1A1217000000000E1182
:1039500011111111110E000000000F12120E0202BF
:103960000207000000000E1111111117190E1800A6
:1039700000000F12120E0A121237000000001E1172
:1039800001060810110F000000001F1504040404B4
:10399000040E00000000331212121212120C00006A
:1039A00000003312120A0A0C04040000000015156E
:1039B000150E0A0A0A0A000000001B0A0A04040A7B
:1039C0000A1B000000001B0A0A040404040E000085
:1039D00000001F0908040402121F0000001C040458
:1039E0000404040404041C00000202020404080885
:1039F00008100000000E08080808080808080E0053
:103A000000040A00000000000000000000000000A8
:103A1000000000000000003F000400000000000063
:103A20000000000000000000000C121C123C00000E
:103A300000000302020E1212120E0000000000002D
:103A4000001C1202021C000000001810101C1212B0
:103A5000123C000000000000000C121E021C0000BE
:103A600000003804041E0404041E000000000000CE
:103A7000003C120C021E221C00000302020E121255
:103A8000123700000000040000060404040E0000C9
:103A900000000800000C08080808080700000302DE
:103AA000023A0A0E1237000000000704040404045E
:103AB000041F000000000000000F15151515000080
:103AC00000000000000F121212370000000000007A
:103AD000000C1212120C000000000000000F121265
:103AE000120E020700000000001C1212121C1038F7
:103AF00000000000001B060202070000000000009A
:103B0000001E020C101E000000000004040E04043D
:103B10000418000000000000001B1212123C0000FC
:103B2000000000000037120A0C0400000000000032
:103B30000015150E0A0A000000000000001B0A0410
:103B40000A1B0000000000000037120A0C040403E6
:103B500000000000001E0804041E000000180808F1
:103B600008040808080818000808080808080808D1
:103B700008080808000604040408040404040600F5
:103B800002251800000000000000000000000000F6
:103B9000000000000000000000000000000000081D
:103BA00008080808080800001818000000486C24DD
:103BB00012000000000000000000000000000024CF
:103BC00024247F1212127F12121200000000081C1F
:103BD0002A2A0A0C1828282A2A1C08080000002271
:103BE000251515152A585454542200000000000CC5
:103BF0001212120A76252911916E000000060604A1
:103C00000300000000000000000000000040201041
:103C100010080808080808101020400000020408D6
:103C20000810101010101008080402000000000016
:103C300008086B1C1C6B0808000000000000000056
:103C4000080808087F0808080800000000000000B5
:103C50000000000000000000060604030000000051
:103C600000000000FE000000000000000000000056
:103C70000000000000000000060600000000804078
:103C80004020201010080804040202000000001860
:103C900024424242424242422418000000000008EE
:103CA0000E08080808080808083E00000000003C4C
:103CB0004242422020100804427E00000000003CE6
:103CC0004242201820404042221C000000000020F8
:103CD0003028242422227E20207800000000007E4C
:103CE0000202021A26404042221C00000000003856
:103CF0002402021A26424242241800000000007EDC
:103D00002222101008080808080800000000003CE3
:103D10004242422418244242423C00000000001863
:103D20002442424264584040241C0000000000002D
:103D30000000181800000000181800000000000023
:103D40000000000800000000000808040000004017
:103D500020100804020408102040000000000000A9
:103D600000007F0000007F00000000000000000253
:103D70000408102040201008040200000000003C4D
:103D80004242464020101000181800000000001C9D
:103D9000225A555555552D42221C0000000000089E
:103DA00008181414243C224242E700000000001FBF
:103DB0002222221E22424242221F00000000007CDA
:103DC0004242010101010142221C00000000001FCB
:103DD0002242424242424242221F00000000003F73
:103DE0004212121E12120242423F00000000003F27
:103DF0004212121E12120202020700000000003CD2
:103E00002222010101712122221C0000000000E792
:103E1000424242427E42424242E700000000003EEF
:103E20000808080808080808083E00000000007C90
:103E300010101010101010101010110F000000774B
:103E400022120A0E0A121222227700000000000736
:103E50000202020202020202427F0000000000771A
:103E6000363636362A2A2A2A2A6B0000000000E35A
:103E700046464A4A52525262624700000000001C05
:103E80002241414141414141221C00000000003FCC
:103E9000424242423E020202020700000000001CB1
:103EA0002241414141414D53321C60000000003F1E
:103EB0004242423E1212222242C700000000007C11
:103EC0004242020418204042423E00000000007FAF
:103ED0004908080808080808081C0000000000E756
:103EE0004242424242424242423C0000000000E75D
:103EF0004242222424141418080800000000006B19
:103F0000494949495555362222220000000000E760
:103F1000422424181818242442E7000000000077E7
:103F20002222141408080808081C00000000007E63
:103F30002120101008040442423F000000780808C5
:103F400008080808080808080808780000000202A5
:103F5000040408080810102020204040001E101003
:103F6000101010101010101010101E000038440017
:103F70000000000000000000000000000000000041
:103F80000000000000000000000000FF0006080024
:103F90000000000000000000000000000000000021
:103FA0000000003C4278444242FC00000000000354
:103FB0000202021A26424242261A000000000000B5
:103FC0000000003844020202443800000000006093
:103FD000404040784442424264D800000000000063
:103FE0000000003C427E0202423C0000000000F063
:103FF0008808087E08080808083E00000000000045
:104000000000007C22221C023C42423C00000003D3
:104010000202023A4642424242E700000000000C1F
:104020000C00000E08080808083E000000000030E0
:1040300030000038202020202020221E0000000315
:1040400002020272120A1612227700000000000E0D
:104050000808080808080808083E000000000000DA
:104060000000007F9292929292B700000000000040
:104070000000003B4642424242E7000000000000D0
:104080000000003C42424242423C0000000000006E
:104090000000001B26424242221E020700000000D0
:1040A0000000007844424242447840E000000000B2
:1040B000000000774C040404041F0000000000000E
:1040C0000000007C42023C40423E00000000000034
:1040D0000008083E0808080808300000000000003A
:1040E000000000634242424262DC00000000000027
:1040F000000000E74224241408080000000000002B
:10410000000000EB49495555222200000000000044
:104110000000007624181818246E0000000000002B
:10412000000000E7422424141808080700000000DB
:104130000000007E22100808447E000000C02020FD
:1041400020202010202020202020C000101010103F
:104150001010101010101010101010100006080889
:104160000808081008080808080806000C32C200F1
:10417000000000000000000000000000000000003F
:10418000000000000000000000000000000000002F
:10419000000000000000000000000000000000001F
:1041A000000000000000000000000000000000000F
:1041B00000000000E000E000E000E000E00040005F
:1041C00040004000400040004000000000000000AF
:1041D000E000E000E000000000000000000000003F
:1041E000600660063003980188004400000000006B
:1041F00000000000000000000000000000000000BF
:1042000000000000000000000000000000000000AE
:104210000000000000000802080208020802FE0771
:10422000FE070802080204010401FE07FE0704015C
:10423000040104010401000000000000000000006F
:10424000000040004000F00158034C034C034C00B8
:1042500058007000E000C001C00140034C034C0353
:104260004C034801F0004000400000000000000046
:104270000000000000000E030A01110191009100EE
:10428000D1005100FA03AE026004500450045804F7
:1042900048048802840300000000000000000000C1
:1042A0000000000000003800640064006400640046
:1042B000A4031C010C011A019200B300E300630087
:1042C000C300A6041C030000000000000000000062
:1042D0000C001C0010001000080006000000000088
:1042E00000000000000000000000000000000000CE
:1042F00000000000000000000000000000000000BE
:1043000000040002000180018000C000C0006000C5
:10431000600060006000600060006000C000C000DD
:104320008000800100010002000400000000000085
:104330000200040008001800100030003000600087
:1043400060006000600060006000600030003000CD
:104350001000180008000400020000000000000027
:1043600000000000000000004000400040004E0E31
:104370005C07F001F0015C074E0E40004000400079
:10438000000000000000000000000000000000002D
:10439000000000000000000000004000400040005D
:1043A00040004000FE0F4000400040004000400040
:1043B00000000000000000000000000000000000FD
:1043C00000000000000000000000000000000000ED
:1043D00000000000000000000000000000000000DD
:1043E0000C001C0010001000080006000000000077
:1043F00000000000000000000000000000000000BD
:1044000000000000FE0700000000000000000000A7
:10441000000000000000000000000000000000009C
:10442000000000000000000000000000000000008C
:10443000000000000000000000000000000000007C
:104440001C001C001C000000000000000000000018
:10445000000400060002000300010001800080004B
:104460004000400060002000200010001000080004
:1044700008000C000400060002000000000000001C
:10448000000000000000F00098010C030C03060679
:1044900006060606060606060606060606060C03B9
:1044A0000C039801F0000000000000000000000074
:1044B000000000000000400060007C006000600020
:1044C00060006000600060006000600060006000EC
:1044D00060006000FC03000000000000000000001D
:1044E000000000000000F800840102030603060338
:1044F000000380018001C0002000100008020402B7
:104500000202FE03FE0300000000000000000000A5
:104510000000000000007800C400860186018601CA
:104520008001C00070008001000100030603060343
:1045300006038401F80000000000000000000000F5
:104540000000000000018001C001C001A001900135
:1045500090018801840184018201FE0780018001AD
:1045600080018001E0070000000000000000000062
:10457000000000000000FC03FC0304000400040031
:104580000400F4008C010403000300030603060387
:1045900082018401F800000000000000000000001B
:1045A000000000000000E00118030C030C000400F0
:1045B0000600E60116030E060606060606060406B3
:1045C0000C021803F00000000000000000000000D2
:1045D000000000000000F807FC070C0204010401C1
:1045E000000180008000400040004000600060004A
:1045F000600060006000000000000000000000009B
:10460000000000000000F8010C030606060606067E
:104610000E023C03F000CC01040306060606060663
:1046200006060C03F001000000000000000000007E
:10463000000000000000F0000C010C03060206065A
:104640000606060606078C06780600060003000329
:104650000C018C0178000000000000000000000048
:104660000000000000000000000000000000E0006A
:10467000E000E0000000000000000000000000007A
:10468000E000E000E000000000000000000000008A
:10469000000000000000000000000000000000001A
:1046A000600060000000000000000000000000004A
:1046B00000006000600040002000000000000000DA
:1046C0000000000000040002000180004000200003
:1046D00010000800040008001000200040008000C6
:1046E00000010002000400000000000000000000C3
:1046F00000000000000000000000000000000000BA
:10470000FE070000000000000000FE07000000009F
:104710000000000000000000000000000000000099
:10472000000000000400080010002000400080008D
:10473000000100020004000200018000400020008F
:10474000100008000400000000000000000000004D
:1047500000000000F0010C03020602060606060631
:104760000003800160002000200020000000000005
:1047700070007000700000000000000000000000E9
:10478000000000000000E00138060804CC0A640BB9
:1047900026092609160916099609960566030C08C6
:1047A0000C041802E00100000000000000000000FE
:1047B000000000000000600060007000D000D00029
:1047C000C800880188018801F80104030403040378
:1047D000040606060F0F00000000000000000000A5
:1047E000000000000000FF00860106030603060328
:1047F00006038601FE0006030602060606060606F6
:1048000006060603FF010000000000000000000093
:10481000000000000000E00718060C040C0404006F
:1048200006000600060006000600060006040C044A
:104830000C021801F0000000000000000000000061
:104840000000000000007F00860106030603060644
:1048500006060606060606060606060606060603FB
:104860000603C6017F0000000000000000000000F9
:10487000000000000000FF03060206040600060018
:1048800086008600FE0086008600060006000604FC
:1048900006040602FF030000000000000000000004
:1048A000000000000000FF030603060406040600E3
:1048B00086008600FE0086008600060006000600D0
:1048C000060006000F0000000000000000000000CD
:1048D000000000000000F00218030C020C020400AB
:1048E0000600060006000600C60F060306030C03BA
:1048F0000C031803F000000000000000000000009E
:104900000000000000000F0F060606060606060659
:1049100006060606FE07060606060606060606063E
:10492000060606060F0F0000000000000000000051
:10493000000000000000FC036000600060006000F8
:104940006000600060006000600060006000600067
:1049500060006000FC030000000000000000000098
:10496000000000000000F00F800180018001800144
:10497000800180018001800180018001800180012F
:104980008001800180018601C6007C0000000000DB
:10499000000000000000CF07060186004600460028
:1049A000260036003E006E00E600C600C601860105
:1049B000060306078F0F0000000000000000000043
:1049C0000000000000000F000600060006000600C0
:1049D00006000600060006000600060006000604A3
:1049E00006040602FF0300000000000000000000B3
:1049F0000000000000000F0F0E070E070E079A06BA
:104A00009A069A069A065A06720672067206720686
:104A100022062206270F0000000000000000000010
:104A2000000000000000070E0E040E041A041A0411
:104A3000320462046204C204C2048205020702074F
:104A4000020602060704000000000000000000004B
:104A5000000000000000F00098010C030C020606A4
:104A600006060606060606060606060606060C02E4
:104A70000C039801F000000000000000000000009E
:104A8000000000000000FF010603060606060606F9
:104A9000060606060603FE010600060006000600DE
:104AA000060006000F0000000000000000000000EB
:104AB000000000000000F00098010C030C02060644
:104AC00006060606060606060606060676064C02D4
:104AD0008C038801F0018007000300000000000043
:104AE000000000000000FF01060306060606060699
:104AF00006060603FE006600C600C60086018601A3
:104B0000060306030F0E0000000000000000000076
:104B1000000000000000F8040C070604060406006C
:104B20000E003C00F000C00300030006020602066F
:104B300006060E03F2010000000000000000000065
:104B4000000000000000FE076204610861086000C8
:104B50006000600060006000600060006000600055
:104B600060006000F0000000000000000000000095
:104B70000000000000000F0E0604060406040604F0
:104B800006040604060406040604060406040604D5
:104B900006040C02F8010000000000000000000004
:104BA0000000000000001F0F0E060C020C020C0299
:104BB0000C011801180118011801B000B000B00074
:104BC000F000600060000000000000000000000035
:104BD000000000000000EF0E660466046602660234
:104BE000E602EC02EC02DC01DC01DC01DC019C01F0
:104BF000880088008800000000000000000000001D
:104C00000000000000009E070C0318011801980026
:104C1000B000700060006000E000D000D00198019A
:104C200088010C039E070000000000000000000047
:104C30000000000000001F0F0E060C020C011801FE
:104C40001801B000B00070006000600060006000FB
:104C500060006000F801000000000000000000009B
:104C6000000000000000FC07040382038001C00173
:104C7000C000C00060006000300030001800180460
:104C80001C040C02FE0300000000000000000000F5
:104C9000E00720002000200020002000200020004D
:104CA0002000200020002000200020002000200004
:104CB0002000200020002000E0070000000000008D
:104CC00000000000040008000800080010001000A8
:104CD0002000200020004000400080008000800074
:104CE00000010001000200020002000400000000B8
:104CF000FC00800080008000800080008000800038
:104D000080008000800080008000800080008000A3
:104D10008000800080008000FC0000000000000097
:104D2000E000B001080200000000000000000000E8
:104D30000000000000000000000000000000000073
:104D40000000000000000000000000000000000063
:104D50000000000000000000000000000000000053
:104D60000000000000000000000000000000000043
:104D700000000000000000000000FF0F0000000025
:104D800018006000000000000000000000000000AB
:104D90000000000000000000000000000000000013
:104DA0000000000000000000000000000000000003
:104DB00000000000000000000000000000000000F3
:104DC000F0010C030C03E00338030C030603060395
:104DD00006038E0B7C0F00000000000000000000A6
:104DE0000000000008000E000C000C000C000C007D
:104DF000CC013C031C060C060C060C060C060C062B
:104E00000C021C03F4010000000000000000000080
:104E10000000000000000000000000000000000092
:104E2000F0008C018C0186010600060006000602D7
:104E30000C020C01F0000000000000000000000067
:104E400000000000000280030003000300030003D1
:104E500078038C030C03060306030603060306030C
:104E600004038C077801000000000000000000002F
:104E70000000000000000000000000000000000032
:104E8000E001180308060C06FC070C000C000C00DF
:104E900018043802E00100000000000000000000DB
:104EA000000000000000C003600630063000300043
:104EB000FE033000300030003000300030003000A1
:104EC00030003000FC010000000000000000000085
:104ED00000000000000000000000000000000000D2
:104EE000F00E98090C030C030C039801F8000C0059
:104EF0007C00F803060606060E07F8010000000015
:104F00000000000008000E000C000C000C000C005B
:104F1000EC011C030C030C030C030C030C030C032B
:104F20000C030C039E0700000000000000000000BE
:104F300000000000000060006000000000000000B1
:104F40007C00600060006000600060006000600045
:104F500060006000FC030000000000000000000092
:104F6000000000000000800180010000000000003F
:104F7000F0018001800180018001800180018001B9
:104F80008001800180018001CC007C0000000000D5
:104F90000000000008000E000C000C000C000C00CB
:104FA000CC038C00CC004C006C007C00DC00CC00FE
:104FB0008C018C019E070000000000000000000032
:104FC0000000000040007C006000600060006000A5
:104FD00060006000600060006000600060006000D1
:104FE00060006000FC030000000000000000000002
:104FF00000000000000000000000000000000000B1
:105000007707EE06660666066606660666066606A6
:1050100066066606EF0E00000000000000000000BB
:105020000000000000000000000000000000000080
:10503000CE013C030C030C030C030C030C030C0308
:105040000C030C039E07000000000000000000009D
:105050000000000000000000000000000000000050
:10506000F00098010C03060606060606060606066C
:105070000C030C03F0000000000000000000000022
:105080000000000000000000000000000000000020
:10509000EE011C030C060C060C060C060C060C0696
:1050A0000C031C03EC010C000C003E00000000008F
:1050B00000000000000000000000000000000000F0
:1050C00078028C030C03060306030603060306039B
:1050D00004038C03780300030003C00700000000F2
:1050E00000000000000000000000000000000000C0
:1050F0009F075806380018001800180018001800FC
:1051000018001800FF000000000000000000000070
:10511000000000000000000000000000000000008F
:10512000F00718060C040C003800F0018003040698
:1051300004060C03FC010000000000000000000059
:1051400000000000000000002000200030003000BF
:10515000FE01300030003000300030003000300000
:1051600030023002E00100000000000000000000FA
:105170000000000000000000000000000000080225
:105180008E030C030C030C030C030C030C030C0325
:105190000C039C07780100000000000000000000E4
:1051A00000000000000000000000000000000000FF
:1051B0003E0F1C0618021802300130013001E000D9
:1051C000E000E000400000000000000000000000DF
:1051D00000000000000000000000000000000000CF
:1051E000EF0DC604C604E604EC04AC039C039C0368
:1051F0009C030801080100000000000000000000FE
:10520000000000000000000000000000000000009E
:10521000BE0718019801B00070006000E000D000E7
:1052200098018803DE070000000000000000000075
:10523000000000000000000000000000000000006E
:10524000BE071C0118011801B000B000B0006000DA
:10525000600040002000200014001C00000000003E
:10526000000000000000000000000000000000003E
:10527000FC038401C401C000E00060007000300441
:1052800038041806FC0300000000000000000000C5
:10529000000380018000800080008000800080008A
:1052A0008000C0002000C0008000800080008000DE
:1052B000800080008000800100030000400040006A
:1052C00040004000400040004000400040004000DE
:1052D00040004000400040004000400040004000CE
:1052E000400040004000400040004000000000003E
:1052F0000C0018001000100010001000100010002A
:1053000010003000400030001000100010001000AD
:1053100010001000100018000C00000000001C001D
:105320002400420882040007000000000000000082
:10533000000000000000000000000000000000006D
:105340000000000000000000000000000300090051
:105350000F0015001B0000F81F000000E007E0FF31
:105360000F0000000F000000FF0000000F00000011
:105370000F0000000F000000000000009C53000818
:105380000000002064000000C40100080054000870
:1053900064000020C4060000E0010008007A030A4F
:1053A00000000000000000000102030406070809D5
:1053B0000000000000000000FFFF000000000000EF
:1053C00000000000000000000000000000000000DD
:1053D00000000000D0900000DA9F883D3ABABA3D44
:1053E000F5FFEEFF000000000000000000000102D9
:1053F000030401020304060708090000000000007E
:040000050800018965
:00000001FF
