:020000040800F2
:10000000A0060020ED020008D1020008D30200087B
:10001000D7020008DB020008DF0200080000000031
:10002000000000000000000000000000E3020008E3
:10003000E502000800000000E7020008E9020008ED
:100040000703000807030008070300080703000868
:100050000703000807030008070300080703000858
:100060000703000807030008070300080703000848
:100070000703000807030008070300080703000838
:100080000703000807030008070300080703000828
:100090000703000807030008070300080703000818
:1000A0000703000807030008070300080703000808
:1000B00007030008070300080703000807030008F8
:1000C00007030008070300080703000807030008E8
:1000D00007030008070300080703000807030008D8
:1000E00007030008070300080703000807030008C8
:1000F00007030008070300080703000807030008B8
:1001000007030008070300080703000807030008A7
:100110000703000807030008070300080703000897
:100120000703000807030008070300080703000887
:100130000703000807030008070300080703000877
:100140000703000807030008070300080703000867
:100150000703000807030008070300080703000857
:100160000703000807030008070300080703000847
:100170000703000807030008070300080703000837
:10018000070300080703000800F002F800F03CF83D
:100190000AA090E8000C82448344AAF10107DA45E2
:1001A00001D100F031F8AFF2090EBAE80F0013F0F8
:1001B000010F18BFFB1A43F001031847B0D7010025
:1001C000D0D70100103A24BF78C878C1FAD85207B6
:1001D00024BF30C830C144BF04680C6070470000C1
:1001E0000023002400250026103A28BF78C1FBD840
:1001F000520728BF30C148BF0B6070471FB502F0DF
:100200003EFD1FBD10B510BD02F0FFFC1146FFF70B
:10021000F5FF00F009F802F01DFD03B4FFF7F2FF4F
:1002200003BC02F025FD00004FF4A06001F090FB3C
:1002300002F06BFC01F0F2FA00F03BFD4FF4784065
:100240001349088013A318220A21084601F09DFAD9
:1002500015A3102228210A2001F097FA16A31822CC
:1002600050211E2001F091FA174A0021084601F0A2
:1002700054FB0BE04FF4FA7002F0A4FC1348006842
:1002800008B9012000E0002010490860F2E70000F2
:1002900014000020496C6C756D696E61746920539F
:1002A000544D333246340000417574686F723A43DE
:1002B0006C6576657200000032302E50494354550B
:1002C0005245205445535400484400088C02424291
:1002D000704700BFFEE700BFFEE700BFFEE700BFBC
:1002E000FEE7704770477047704700000948804735
:1002F00009480047FEE7FEE7FEE7FEE7FEE7FEE708
:10030000FEE7FEE7FEE7FEE704480549054A064B1F
:10031000704700000904000889010008A0000020BF
:10032000A0060020A0020020A00200200CB50020A2
:10033000019000907648006840F48030744908606D
:1003400000BF7348006800F4003000900198401C22
:100350000190009818B90198B0F5A04FF1D16C4800
:10036000006800F4003010B10120009001E000208E
:1003700000900098012846D165484030006840F060
:1003800080506349403108606248006840F4404052
:10039000604908605E48083000685D4908310860BF
:1003A0000846006840F4004008600846006840F4D1
:1003B000A05008605848091F0860081F006840F0F6
:1003C0008070091F086000BF5148006800F000708D
:1003D0000028F9D040F20570504908604C480830B8
:1003E000006820F003004A490831086008460068A8
:1003F00040F00200086000BF45480830006800F087
:100400000C000828F8D10CBD10B54548006840F430
:100410007000434908603E48006840F001003C49D4
:10042000086000203A4908310860394800683D49B1
:100430000840374908603C48091D0860081F0068EB
:1004400020F48020091F0860002031490C31086029
:10045000FFF76CFF4FF0006031498039086010BD34
:1004600070B500200022022300240221284D083507
:100470002D6805F00C0020B1042806D0082834D1DE
:1004800007E02A4D2A4E356033E02A4D284E35606C
:100490002FE01F4D2D1D2D68C5F380541C4D2D1DC3
:1004A0002D6805F03F0154B1224DB5FBF1F5184E12
:1004B000361D3668C6F3881605FB06F209E01B4DAB
:1004C000B5FBF1F5124E361D3668C6F3881605FBEE
:1004D00006F20F4D2D1D2D68C5F301456D1C6B00F7
:1004E000B2FBF3F5124E356003E0104D104E35604F
:1004F00000BF00BF064D08352D68C5F303150E4E2D
:10050000705D0B4D2D68C540094E356070BD000013
:10051000003802400070004008544007003C024090
:1005200088ED00E0FFFFF6FE103000240024F40008
:100530000000002000127A0004000020F64A10801B
:10054000921C1180704710B50446F34804800520C2
:1005500002F0F0FAF048801C008810BDEF480088D7
:10056000ED490880704700BF011EA0F10102D0B222
:10057000FAD1704730B5014601F01F04C1F34513AD
:10058000CA0AE50205EB43151544A8B230BD10B503
:1005900003460C46E248008849F24131884212D1B4
:1005A000E0480088DC4908801812891C0880D8B20D
:1005B0000880DD480088891E08802012891C088078
:1005C000E0B2088012E0D9480078012804D1D84868
:1005D0000088401EC01A83B21946D2480088FFF72F
:1005E000ADFF2146D0480088FFF7A8FF10BD3EB5FB
:1005F00004460D460020029001900090CC480088EF
:10060000844203DACB480088854201DB00203EBDEE
:1006100029462046FFF7BBFFC148008849F2413117
:10062000884203D12E20BC49088002E02220BA492A
:100630000880B948801C008808B100200290022080
:10064000FFF791FFB448801C00880290B4480088EE
:1006500049F24131884211D10220FFF784FFAE48B0
:10066000801C00880090BDF80800C0B20190BDF861
:1006700004004FF6FF7101EA00200190A8480088AD
:1006800049F22531884202D1BDF80800BFE7A448ED
:10069000008849F2413188420DD1BDF80800C012EE
:1006A000C002BDF80410891240EA4110BDF80010E4
:1006B00040EAE120ABE7BDF80800FFF75BFFA6E7E3
:1006C00000B59748008849F24131884203D129207A
:1006D0009149088004E040F273110720FFF72EFFD4
:1006E00000BD00B58E48008849F24131884203D1EF
:1006F00028208949088003E000210720FFF71EFF1A
:1007000000BD70B504460023002688480078012803
:1007100018D1082C15D2DFE804F00406080A0C0EE4
:10072000101206240DE007240BE0042409E0052440
:1007300007E0012405E0002403E0032401E0022493
:1007400000BF00BF7648008849F2413188425ED13F
:10075000082C1CD2DFE804F00406090C0F1215184F
:1007600000BF14E043F0800311E043F040030EE0CB
:1007700043F0C0030BE043F0200308E043F06003C4
:1007800005E043F0A00302E043F0E00300BF00BF38
:10079000362643F0080319463046FFF7CFFE03F034
:1007A000200068B16248008862490988884207DAF7
:1007B0005F4805885F4800885D4908805D4805807E
:1007C00058480088544908800020891C0880088007
:1007D00057480088401EC0F30F2008805448007816
:1007E000401EC0B2088050480088891E0880002042
:1007F000891C088008804F480088401EC0F30F20E5
:1008000008804C480078401EC0B2088026E0082CC2
:100810001CD2DFE804F004070A0D15180F1243F08C
:10082000300313E043F0100310E043F020030DE029
:1008300000BF0BE043F0180308E043F0080305E0B5
:1008400043F0380302E043F0280300BF00BF032653
:1008500043F4805319463046FFF770FE70BD10B563
:1008600004461CBB002031490870F0203049088044
:100870004FF4A0702F4908802948008849F241317F
:10088000884209D12C20254908802A202549088042
:100890002B20254908802CE0222020490880202098
:1008A0002049088021202049088022E001201F499A
:1008B00008704FF4A0701E490880F0201D49088080
:1008C0001748008849F24131884209D12C20134948
:1008D00008802A20134908802B201349088008E04B
:1008E00022200E49088021200E49088020200E4930
:1008F00008800020FFF705FF10BD30B504460D4607
:1009000029462046FFF743FEFFF728FE0A480088E5
:100910000149891C088030BDFE1F006C20000020AA
:100920001800002022000020240000201A000020CF
:100930001C0000201E0000201400002030B50346DB
:100940000C461546FE48008849F24131884212D1D2
:10095000FC480088FC4908801812891C0880D8B21D
:100960000880FA480088891E08802012891C0880A7
:10097000E0B2088012E0F6480078012804D1F5487A
:100980000088401EC01A83B21946EE480088FFF75F
:10099000D5FD2146ED480088FFF7D0FDEE480088E0
:1009A000E9490880881C058030BD2DE9FF4F0446C9
:1009B0000D4616461F46A019401E86B2E819401E75
:1009C00087B2DF48008849F2413188421AD1DD48B8
:1009D0000088DD4908802012891C0880E0B2088068
:1009E00030120880F0B20880D8480088891E08803C
:1009F0002812891C0880E8B2088038120880F8B2F2
:100A0000088032E0D248007801280ED1A846B946C5
:100A1000D0480088801B401E1FFA80FACD4800880D
:100A2000001B401E1FFA80FB03E0A046B146AA4609
:100A3000BB46502003905120029052200190532039
:100A4000009041460398FFF779FD49460298FFF769
:100A500075FD51460198FFF771FD59460098FFF763
:100A60006DFD29462046FFF792FDBDE8FF8F00B5DA
:100A70009FB00121782001F0E3FD0121084601F03B
:100A800017FE4FF480601D9001208DF87800002043
:100A90008DF87A0002208DF8790001208DF87B0016
:100AA0001DA9AE4801F04AF84CF233701D900220A7
:100AB0008DF8780000208DF87A0003208DF87900F9
:100AC00001208DF87B001DA9A54801F037F84FF6ED
:100AD00080701D9002208DF8780000208DF87A003B
:100AE00003208DF8790001208DF87B001DA99D4819
:100AF00001F024F804201D9002208DF878000020D9
:100B00008DF87A0003208DF8790001208DF87B00A4
:100B10001DA9954801F012F84FF480501D90022055
:100B20008DF8780000208DF87A0003208DF8790088
:100B300001208DF87B001DA98B4800F0FFFF0C22DF
:100B40000021874801F085F80C220121844801F03A
:100B500080F80C220421824801F07BF80C22052148
:100B60007F4801F076F80C2208217D4801F071F8E9
:100B70000C2209217A4801F06CF80C220A217848ED
:100B800001F067F80C220E21754801F062F80C2282
:100B90000F21734801F05DF80C220721714801F024
:100BA00058F80C2208216F4801F053F80C22092153
:100BB0006C4801F04EF80C220A216A4801F049F80D
:100BC0000C220B21674801F044F80C2211466548BD
:100BD00001F03FF80C220D21624801F03AF80C2296
:100BE0000E21604801F035F80C220F215D4801F01C
:100BF00030F80C2202215C4801F02BF80C2211463F
:100C0000594801F026F80F200790002008903C205A
:100C1000099000200A900B900C900D9009200090F4
:100C2000002001900820029000200390049005907D
:100C3000069006200E9000200F901090102011902A
:100C40000020129014901390159016904FF480503D
:100C50001790002018904FF48040199000201A90AF
:100C600007A81B90CDF870D00EA801F046F801211E
:100C7000062001F0CDF8322001F0A4FF1FB000BD26
:100C800070B5044600250026324800883749098897
:100C900000FB01F600210846FFF779FCFFF75EFC38
:100CA00000BF03E02848801C04806D1CB542F9D3C6
:100CB00070BD08B500200090FFF7D9FE012100208B
:100CC000FFF73CFC322001F07DFF0020FFF73BFCEA
:100CD0001B49088008460088FF280ADB0846008870
:100CE0004FF6FF71884204D015480088B0F5134FC5
:100CF0001DD1D32014490880881C00881049088021
:100D00001148801C008808800F48801C00880880DB
:100D1000084600884FF6FF7101EA00200849088064
:100D20000948801C00880988084305490880044850
:100D3000008849F24131884237D10D48006819E0F6
:100D40001800002022000020FE1F006C240000205C
:100D50001A0000201C000020200000200014024087
:100D6000000C024000100240001802401E0000204B
:100D70001C0100A020F00F004FF02041C1F81C0121
:100D80000846D0F81C0120F47060C1F81C01084628
:100D9000D0F81C0140F00300C1F81C010846D0F84F
:100DA0001C0140F40070C1F81C01FE48008849F2A3
:100DB000283188427ED141F28F01EC20FFF7BEFB43
:100DC00041F23421EF20FFF7B9FB4FF4807101208D
:100DD000FFF7B4FB4FF4E0610220FFF7AFFB41F2F5
:100DE00030010320FFF7AAFB00210420FFF7A6FB38
:100DF00040F202210820FFF7A1FB00210920FFF7A4
:100E00009DFB00210A20FFF799FB01210C20FFF731
:100E100095FB00210D20FFF791FB00210F20FFF72C
:100E20008DFB00211020FFF789FB07211120FFF720
:100E300085FB00211220FFF781FB00211320FFF723
:100E40007DFB01210720FFF779FB322001F0BAFE7C
:100E500041F290411020FFF771FB40F22721112051
:100E6000FFF76CFB322001F0ADFE8A211220FFF764
:100E700065FB322001F0A6FE4FF4D0511320FFF79E
:100E80005DFB06212920FFF759FB0D212B20FFF7E1
:100E900055FB322001F096FE00212020FFF74EFB8B
:100EA00000212120FFF74AFB322001F08BFE0021B8
:100EB000302000E074E0FFF741FB40F20461312094
:100EC000FFF73CFB40F205313220FFF737FB0021F2
:100ED0003520FFF733FB40F609413620FFF72EFBA4
:100EE0004FF401713720FFF729FB40F20131382020
:100EF000FFF724FB40F207713920FFF71FFB0021A9
:100F00003C20FFF71BFB40F60A213D20FFF716FBB4
:100F1000322001F057FE00215020FFF70FFBEF2198
:100F20005120FFF70BFB00215220FFF707FB40F297
:100F30003F115320FFF702FB4FF427416020FFF7DA
:100F4000FDFA01216120FFF7F9FA00216A20FFF77D
:100F5000F5FA00218020FFF7F1FA00218120FFF748
:100F6000EDFA00218220FFF7E9FA00218320FFF744
:100F7000E5FA00218420FFF7E1FA00218520FFF740
:100F8000DDFA10219020FFF7D9FA4FF4C0619220CA
:100F9000FFF7D4FA40F233110720FFF7CFFAC2E18E
:100FA0008048008849F2253188427DD147F6F0011A
:100FB000E520FFF7C3FA4FF480710120FFF7BEFA76
:100FC0004FF4E0610220FFF7B9FA41F2300103204B
:100FD000FFF7B4FA00210420FFF7B0FA40F2022133
:100FE0000820FFF7ABFA00210920FFF7A7FA00213C
:100FF0000A20FFF7A3FA00210C20FFF79FFA002137
:101000000D20FFF79BFA00210F20FFF797FA002130
:101010001020FFF793FA07211120FFF78FFA002124
:101020001220FFF78BFA00211320FFF787FA002127
:101030000720FFF783FA41F290611020FFF77EFA54
:1010400040F227211120FFF779FA9D211220FFF7A6
:1010500075FA4FF4C8511320FFF770FA25212920A3
:10106000FFF76CFA0D212B20FFF768FA07213020DB
:10107000FFF764FA40F203313120FFF75FFA0321F2
:101080003220FFF75BFA40F206213520FFF756FACF
:1010900008213620FFF752FA40F206413720FFF7C9
:1010A0004DFA4FF4417100E058E03820FFF746FA5E
:1010B00007213920FFF742FA40F202613C20FFF796
:1010C0003DFA08213D20FFF739FA00215020FFF7B3
:1010D00035FAEF215120FFF731FA00215220FFF7B6
:1010E0002DFA40F23F115320FFF728FA4FF4274121
:1010F0006020FFF723FA01216120FFF71FFA00218A
:101100006A20FFF71BFA00218020FFF717FA002161
:101110008120FFF713FA00218220FFF70FFA002148
:101120008320FFF70BFA00218420FFF707FA002144
:101130008520FFF703FA10219020FFF7FFF94FF405
:10114000C0619220FFF7FAF940F233110720FFF750
:10115000F5F922210020FFF7F1F9E4E011480088B9
:1011600049F241318842F8D1CF200F490880002050
:10117000891C0880C120088030200880ED20891E4D
:1011800008806420891C08800320088012200880C1
:1011900081200880E820891E08808520891C08801D
:1011A000102003E018000020FE1F006C08807A2049
:1011B0000880CB20891E08803920891C08802C20BB
:1011C0000880002008803420088002200880F72052
:1011D000891E08802020891C0880EA20891E08803A
:1011E0000020891C08800880C020891E08801B20E0
:1011F000891C0880C120891E08800120891C088064
:10120000C520891E08803020891C08800880C720DE
:10121000891E0880B720891C08803620891E088016
:101220004820891C08803A20891E08805520891C86
:101230000880B120891E08800020891C08801A209F
:101240000880B620891E08800A20891C0880A220F8
:101250000880F220891E08800020891C0880262032
:10126000891E08800120891C0880E020891E0880D2
:101270000F20891C08802A20088028200880082048
:1012800008800E2008800820088054200880A920AB
:101290000880432008800A2008800F200880002052
:1012A0000880088008800880E120891E08800020CE
:1012B000891C0880152008801720088007200880D6
:1012C00011200880062008802B20088056200880E6
:1012D0003C20088005200880102008800F2008800E
:1012E0003F20088008800F2008802B20891E08805E
:1012F0000020891C08800880012008803F20088089
:101300002A20891E08800020891C08800880088007
:10131000EF2008801120891E0880782001F052FCFF
:101320002920FD4908800020FFF799FA0120FB4998
:1013300008604FF6FF70FFF7A3FC08BD2DE9F04FE2
:1013400005460E4617469846DDF824A04FF0000BE0
:10135000781B401C1FFA80FB344614E021462846C7
:10136000FFF715F9FFF7FAF84FF0000907E0EA4830
:10137000801CA0F800A009F101001FFA80F9D945EE
:10138000F5DB601C84B24445E8DDBDE8F08F2DE953
:10139000F84F07460D4690469946DDF828B0A8EB71
:1013A0000700401C80B20090A9EB0500401C1FFA0A
:1013B00080FA002416E0281981B23846FFF7E7F8D2
:1013C000FFF7CCF8002608E004FB0A603BF81000A9
:1013D000D149891C0880701C86B200988642F3DBD4
:1013E000601C84B25445E6DBBDE8F88F2DE9FF4F61
:1013F00084B081468A460020039002900698A0EBB4
:1014000009050798A0EB0A06CDF80490CDF800A0D6
:10141000002D01DD012705E00DB9002702E04FF0A6
:10142000FF376D42002E02DD4FF0010806E016B9CD
:101430004FF0000802E04FF0FF387642B54201DD80
:101440002C4600E034464FF0000B21E0009A91B2A8
:10145000019A90B2FFF751FA03982844039002983A
:10146000304402900398A04205DD0398001B0390CE
:101470000198384401900298A04205DD0298001BB3
:1014800002900098404400900BF101001FFA80FB8D
:10149000601C8345DADD08B0BDE8F08FF0B5044686
:1014A0000D4616461F462B46324629462046FFF774
:1014B0009DFF3B46224629462046FFF797FF3B46C5
:1014C000324639462046FFF791FF3B4632462946D1
:1014D0003046FFF78BFFF0BD2DE9F04306460F467F
:1014E0009046002445460320A0EB48093CE07A1BC7
:1014F00091B2321990B2FFF700FA3A1B91B2721909
:1015000090B2FFF7FAF93A1991B2721990B2FFF757
:10151000F4F97A1991B2321990B2FFF7EEF97A190B
:1015200091B2321B90B2FFF7E8F93A1991B2721BEF
:1015300090B2FFF7E2F97A1B91B2321B90B2FFF73B
:10154000DCF93A1B91B2721B90B2FFF7D6F9641C1A
:10155000B9F1000F03DAA000801D814404E0601B94
:1015600080000A3081446D1EAC42C0DDBDE8F083CE
:101570002DE9F84F81460E4617461C4600960C2C66
:1015800001D198460AE0102C01D1A04606E0182CA3
:1015900002D14FF0240801E0BDE8F88FA7F1200048
:1015A000C7B2002553E00C2C07D107EB47005C497C
:1015B00001EB800010F805A012E0102C05D159486D
:1015C00000EB071010F805A00AE0182C07D107EB74
:1015D000C700554901EB800010F805A000E0DBE7EB
:1015E0004FF0000B2DE00AF0800030B14F48028828
:1015F00031464846FFF7A2F905E04D4802883146DA
:101600004846FFF79BF94FEA4A604FEA106A701CA0
:1016100086B248480088864200DBBDE70098301A51
:10162000A0420AD1009E09F101001FFA80F9424848
:101630000088814500DBAFE706E00BF1010000F018
:10164000FF0BBBF1080FCEDB00BF681CC5B24545E0
:10165000A9DB00BFA0E710B50246012000E050431F
:101660000B1EA1F10104E1B2F9D110BD2DE9FF4F2C
:1016700081B0064691461F46DDE90E4A00200090E3
:10168000002544E0781B401EC1B20A20FFF7E3FFAB
:10169000B9FBF0F00A21B0FBF1F201FB120800984F
:1016A00020BB781EA84221DDB8F1000F1CD1BAF191
:1016B000000F0CD0A34604EBDB71491001FB056160
:1016C00088B2234630220299FFF752FF0BE0A3466F
:1016D00004EBDB71491001FB056188B2234620222F
:1016E0000299FFF745FF10E001200090A34604EBAC
:1016F000DB71491001FB056188B208F13001CAB203
:1017000023460299FFF734FF00BF681CC5B2BD42F3
:10171000B8DB05B0BDE8F08FFE1F006CA882424226
:10172000882C0008FC300008EC360008140000206B
:10173000160000201E0000201C0000202DE9FF4F95
:1017400082B004460D461646DDE91189109F3048E7
:10175000B0F800A02F48B0F800B02D48A0F80080E5
:101760002C48A0F800900F98CDE900073246294692
:101770002046059BFFF77AFF2548A0F800A02548E2
:10178000A0F800B006B0BDE8F08FF0B506460F46F1
:1017900015461C4611E022782B4639463046FFF7A5
:1017A000E7FE284605EBD07106EB61018EB21A48C0
:1017B0000088864200DB06E0641C20787E2802DC7C
:1017C00020782028E7DA00BFF0BD2DE9F04F04466D
:1017D0000D4616461F46DDE909890D48B0F800A000
:1017E0000C48B0F800B00A48A0F800800948A0F8FA
:1017F00000903B46324629462046FFF7C6FF044884
:10180000A0F800A00348A0F800B0BDE8F08F0000E9
:1018100014000020160000201C0000201CB501212F
:10182000502000F00DFF1820009001208DF80400DA
:1018300000208DF8060003208DF8050001208DF8AA
:1018400007006946094800F079F91821074800F0B7
:10185000F1F94FF4007000906946054800F06EF908
:101860004FF40071024800F0E5F91CBD0010024081
:101870000018024010B502462AB111F8014B2002AF
:101880000B78184304E011F8010B0B7840EA0320B1
:1018900010BD2DE9F05F81468A4615461E46DDE9FA
:1018A0000A784FF0000B07F0030068B90020FEF73C
:1018B00028FF33462A4651464846FFF776F85146F8
:1018C0004846FEF764FE0CE00420FEF71AFF33469C
:1018D0002A4651464846FFF768F851464846FEF703
:1018E00056FEFEF73BFE05FB06FB002409E007F071
:1018F00010004146FFF7BEFF1249088008F10208B8
:10190000641C5C45F3D3104803881048028800210A
:101910000846FFF74AF8BDE8F09F2DE9FC4106466E
:101920000F4614464FF00808254604EB08002978B6
:10193000CDE90010AB886A8839463046FFF7A9FF29
:10194000BDE8FC810020006C1E0000201C0000206F
:1019500032490143324A1160704770B500210023BB
:101960000F22C4781CB32E4C246804F4E064C4F540
:10197000E064C4F30721C1F10404E3B20A414478EE
:101980009C40E1B28478144021430C07210E254C81
:1019900005786155047804F01F050124AC400578F2
:1019A0006D11AD0005F1E025C5F8004109E00478AE
:1019B00004F01F050124AC401B4D0678761145F854
:1019C000264070BD194A0A400243154B1B1F1A607E
:1019D000704739B1124A121D12680243104B1B1D89
:1019E0001A6006E00E4A121D126882430C4B1B1D42
:1019F0001A607047042808D14FF0E021096941F0CE
:101A000004014FF0E022116107E04FF0E021096985
:101A100021F004014FF0E022116170470000FA0547
:101A20000CED00E000E400E080E100E080FFFF1F3B
:101A300010B504469848844208D10121084600F0B8
:101A40006AFE0021012000F066FE76E093488442A1
:101A500008D10121022000F05EFE0021022000F0EA
:101A60005AFE6AE08E48844208D10121042000F029
:101A700052FE0021042000F04EFE5EE089488442C0
:101A800008D10121082000F046FE0021082000F0C6
:101A900042FE52E08448844208D10121102000F027
:101AA0003AFE0021102000F036FE46E07F488442D6
:101AB00008D10121202000F02EFE0021202000F07E
:101AC0002AFE3AE07A48844208D10121402000F001
:101AD00022FE0021402000F01EFE2EE075488442C8
:101AE00008D10121802000F016FE0021802000F0A6
:101AF00012FE22E07048844208D10121801500F0D6
:101B00000AFE0021A01500F006FE16E06B48844294
:101B100008D10121401500F0FEFD0021601500F004
:101B2000FAFD0AE06648844207D10121001500F061
:101B3000F2FD0021201500F0EEFD10BDF0B50A46C3
:101B400000210023002400BF3DE0012505FA01F338
:101B5000156805EA03049C4234D105684F0003264A
:101B6000BE40B543056015794E00B5400668354363
:101B700005601579012D02D01579022D16D18568E1
:101B80004F000326BE40B543856055794E00B540F1
:101B9000866835438560456801268E40B5434560BB
:101BA000456896798E40B6B235434560C5684F00AA
:101BB0000326BE40B543C560D5794E00B540C66822
:101BC0003543C560491C1029BFD3F0BD4FF6FF71E6
:101BD00001600021017141718171C171704708B5C7
:101BE0004FF480320092009A0A430092009AC26138
:101BF000C161009AC261C2690092C269009208BDC7
:101C00000246002013690B400BB1012000E00020C8
:101C100070470146086980B2704702460020536948
:101C20000B400BB1012000E00020704701464869DD
:101C300080B2704701837047418370470AB10183C6
:101C400000E0418370474161704742694A40426108
:101C50007047F0B5002300244D07ED0E02FA05F39E
:101C6000CE1000F1200555F826504E07F70E0F262E
:101C7000BE40B543CF1000F1200646F82750CE10E5
:101C800000F1200555F8265045EA0304CE1000F176
:101C9000200545F82640F0BD000002400004024047
:101CA00000080240000C02400010024000140240F4
:101CB00000180240001C02400020024000240240A4
:101CC0000028024030B943F2DB028100A1F1C0419B
:101CD0000A6005E043F2D2028100A1F1C0410A602E
:101CE0006FF07042411C8900A1F1C0410A6081007F
:101CF000A1F1C041C1F804217047D0E9011211439C
:101D0000C268114302691143426911438269114358
:101D1000C2691143026A1143426A1143826A114344
:101D2000C26A1143026B114302689200A2F1C042E1
:101D30001160816808290BD101688900A1F1C041B7
:101D4000096841F0400201688900A1F1C0410A60C0
:101D5000416B0968426B526841EA0211426B92681A
:101D600041EA0221426B928941EA0241426B128AA6
:101D700041EA0251426B127D41EA0261426B926973
:101D800011430268521C9200A2F1C0421160C16A64
:101D9000B1F5804F1BD1816B0968826B526841EAB3
:101DA0000211826B926841EA0221826B128A41EA37
:101DB0000251826B127D41EA0261826B926911438A
:101DC00002689200A2F1C042C2F8041107E06FF06D
:101DD000704201688900A1F1C041C1F80421704737
:101DE000002101600221416000218160C160016128
:101DF00041618161C16101624FF4805141624900DA
:101E000081620021C1620163F849416381637047C7
:101E100051B18200A2F1C042126842F00103820077
:101E2000A2F1C042136009E08200A2F1C042126830
:101E3000EF4B1A408300A3F1C0431A60704710288B
:101E40000AD118214FF020421166402151664FF00F
:101E5000FC319166D16610E01821E64A11604021FC
:101E60004FF02042C2F884104FF0FC31E14A0832B2
:101E700011604FF02042C2F88C10704730B500213D
:101E800000220023446844F0080485682C43C56898
:101E90002C4305692C43456944EA4524856944EA95
:101EA0004531C4692468C5696D6844EA0524C5697B
:101EB0002D8944EA0544C5692D7B44EA0562046A1C
:101EC0002468056A6D6844EA0524056A2D8944EA98
:101ED0000544056A2D7B44EA05630468102C05D18E
:101EE0004FF020442166A266E36608E0C14C216001
:101EF0004FF02044C4F88820BE4C0C34236030BD21
:101F000010210160002141608160C1600161416177
:101F10008161FC21C2691160C2695160C26991602E
:101F2000C269D160026A1160026A5160026A9160FE
:101F3000026AD160704799B1102808D14FF0204251
:101F4000126E42F004024FF020431A661DE0A94AC7
:101F5000126842F004024FF02043C3F8802014E0DE
:101F6000102809D14FF02042126EA14BDB1E1A40FF
:101F70004FF020431A6608E09E4A12689C4BDB1E15
:101F80001A404FF02043C3F88020704799B11028C1
:101F900008D14FF02042126E42F040024FF0204331
:101FA0001A661DE0934A126842F040024FF0204347
:101FB000C3F8802014E0102809D14FF02042126E9F
:101FC0008B4B3F3B1A404FF020431A6608E0894A8A
:101FD0001268874B3F3B1A404FF02043C3F88020E4
:101FE000704701460020102903D14FF02042506F66
:101FF00002E0804A14321068704718207D49203171
:10200000086000200906C1F8A4004FF0FC307949AF
:1020100028310860091D0860091D086070470168C3
:1020200041F01001426841EA4221826841EA4231AE
:10203000704A20321160C1680968C268526841EA7A
:102040000221C268128941EA0241C268127B41EA58
:102050000261684A283211600169096802695268A0
:1020600041EA02210269128941EA02410269127BB6
:1020700041EA02615F4A2C32116041690968426994
:10208000526841EA02214269128941EA02414269E9
:10209000127B41EA02614FF02042C2F8B010704753
:1020A0000021016041608160FC21C2681160C2684A
:1020B0005160C2689160C268D160026911600269B2
:1020C0005160026991600269D160426911604269A0
:1020D0005160426991604269D160704748B1454999
:1020E0002031096841F004014FF02042C2F8A010ED
:1020F00009E04049203109683D4AD21E11404FF0A5
:102100002042C2F8A010704710B5F2B1102807D1D4
:102110004FF020435B6E0B434FF02044636632E088
:10212000B0F5807F08D1334B1B1D1B680B434FF06C
:102130002044C4F8843026E02E4B24331B680B4324
:102140004FF02044C4F8A4301DE0102807D14FF010
:1021500020435B6E8B434FF02044636613E0B0F581
:10216000807F08D1234B1B1D1B688B434FF02044FD
:10217000C4F8843007E01F4B24331B688B434FF0B7
:102180002044C4F8A43010BD10B50246002000233E
:10219000102A03D14FF02044636E09E0B2F5807F2E
:1021A00003D1144C241D236802E0124C243423680C
:1021B00003EA01040CB1012000E0002010BD10284A
:1021C00007D14FF02042526E8A434FF020435A66A7
:1021D00019E0B0F5807F0FD1064A121D12688A43BC
:1021E0004FF02043C3F884200DE0000050D90108CF
:1021F000FEFF0F00800000A0234A12688A434FF0C0
:102200002043C3F8A420704770B502460020002385
:1022100000240025102A03D14FF02046736E08E0F9
:10222000B2F5807F03D1184E203E336801E0164E90
:10223000336803EA010403EAD10514B10DB10120AA
:1022400000E0002070BD102808D14FF02042526EEF
:1022500022EAD1024FF020435A6614E0B0F5807FA5
:1022600009D1094A203A126822EAD1024FF02043EC
:10227000C3F8842007E0044A126822EAD1024FF032
:102280002043C3F8A4207047A40000A0F9480068C8
:1022900040F00100F74908600020F6490831086065
:1022A000F4480068F4490840F2490860F348091D01
:1022B0000860F348EF4984310860F0481038091D80
:1022C0000860EC48006820F48020EA49086000209B
:1022D000E8490C310860E7498C31086070470021FB
:1022E000E44A921C117011460870704710B50146FF
:1022F0000022002300204A11012A02D1DD4C23686C
:1023000008E0022A03D1DB4C7034236802E0D94C88
:102310007434236801F01F02012494401C400CB166
:10232000012000E0002010BD38B5002000900024FE
:10233000002500BF3120FFF7D9FF05460098401C5B
:1023400000900098B0F5A04F01D0002DF2D03120C0
:10235000FFF7CCFF08B1012400E00024204638BD7F
:1023600001460020C34A106820F0F80040EAC1008E
:1023700010607047C349086070470021BD4A703241
:1023800011701170012802D004280AD104E0012143
:10239000B84A7032117005E00521B64A70321170EA
:1023A00000E000BF00BF7047B7490860704770B5D4
:1023B000049C41EA82150126C6EB530645EA064510
:1023C000054345EA0465AB4E361D356070BDAD4929
:1023D00008667047820142EA0172A64B84331A6094
:1023E0007047A8498866704710B5830143EA0163C6
:1023F00043EA02739F4C8834236010BDA1490867EB
:102400007047A049C864704702460020994B0833C2
:10241000186820F0EC6042EA01031843954B08333A
:102420001860704702460020924B0833186820F06D
:10243000784042EA010318438E4B08331860704716
:10244000014600208B4A0832106820F00300084340
:102450001060704787480830006800F00C00704733
:1024600001460020834A0832106820F0F00008433B
:1024700010607047014600207E4A0832106820F440
:10248000E05008431060704701460020794A083246
:10249000106820F4604040EAC10010607047F0B559
:1024A000002100220024022500260223714F083754
:1024B0003F6807F00C0121B1042905D0082937D164
:1024C00005E0724F076036E0714F076033E0694FF7
:1024D0003F1D3F68C7F38056664F3F1D3F6807F0BA
:1024E0003F036EB16A4FB7FBF3F7DFF888C10CF119
:1024F000040CDCF800C0CCF3881C07FB0CF40CE0E7
:10250000624FB7FBF3F7DFF86CC10CF1040CDCF899
:1025100000C0CCF3881C07FB0CF4564F3F1D3F68EE
:10252000C7F301477F1C7D00B4FBF5F7076002E0AD
:10253000564F076000BF00BF4E4F08373F6807F097
:10254000F0010909534F7A5C0768D7404760494F4B
:1025500008373F6807F4E051890A4E4F7A5C4768B4
:10256000D7408760434F08373F6807F46041490B05
:10257000484F7A5C4768D740C760F0BD002100F43F
:102580004072B2F5407F0AD13A4A0832116821F40C
:10259000F811414A02401143364A08321160354A67
:1025A00070321268C0F30B031A43324B70331A6057
:1025B00070473549443908607047334940390860ED
:1025C000704736490860704701460020294A8C321E
:1025D000106820F01F004A1E1043264A8C321060FB
:1025E000704701460020234A8C32106820F4F850CE
:1025F0004A1E40EA02201F4A8C3210607047014692
:1026000000201C4A8C32106820F4401008431060EF
:10261000704701460020174A8C32106820F44000B1
:1026200008431060704701460020124A8C3210683F
:1026300020F4403008431060704719490860704723
:1026400039B10C4A3032126802430A4B30331A60F7
:1026500006E0084A303212688243064B30331A6073
:102660007047F9B1034A343212680243014B3433E4
:102670001A601CE000380240FFFFF6EA1030002428
:102680000030002000004742800E47420024F40042
:1026900000127A0026000020FFFCFF0F5C01474279
:1026A000E01147428F4A126882438E4B1A6070478E
:1026B00039B18C4A121D126802438A4B1B1D1A60E5
:1026C00006E0884A121D12688243864B1B1D1A6061
:1026D000704739B1834A0C3212680243814B0C3384
:1026E0001A6006E07F4A0C32126882437D4B0C333D
:1026F0001A60704739B17B4A103212680243794B35
:1027000010331A6006E0774A103212688243754B24
:1027100010331A60704739B1724A243A1268024382
:10272000704B243B1A6006E06E4A243A12688243DA
:102730006C4B243B1A60704739B16A4A203A1268E0
:102740000243684B203B1A6006E0664A203A126852
:102750008243644B203B1A60704739B1614A1C3A8E
:10276000126802435F4B1C3B1A6006E05D4A1C3A4C
:10277000126882435B4B1C3B1A60704739B1594A5F
:10278000143A12680243574B143B1A6006E0554A4C
:10279000143A12688243534B143B1A60704739B1A4
:1027A000504A103A126802434E4B103B1A6006E042
:1027B0004C4A103A126882434A4B103B1A607047E9
:1027C00039B1484A1C3212680243464B1C331A6026
:1027D00006E0444A1C3212688243424B1C331A60A2
:1027E000704739B13F4A2032126802433D4B2033D3
:1027F0001A6006E03B4A203212688243394B20338C
:102800001A60704739B1374A243212680243354B97
:1028100024331A6006E0334A243212688243314B73
:1028200024331A60704739B12E4A2C3212680243A1
:102830002C4B2C331A6006E02A4A2C321268824351
:10284000284B2C331A60704739B1264A303212684F
:102850000243244B30331A6006E0224A30321268B9
:102860008243204B30331A607047012808D11D493C
:102870003C31096841F008011A4A3C32116007E016
:1028800018493C31096821F00801164A3C321160B0
:10289000704739B1134A273A12780243114B273B4C
:1028A0001A7006E00F4A273A127882430D4B273BF5
:1028B0001A7070470B484030006840F0807009493A
:1028C00040310860704701460020064A283A1268E5
:1028D0000A400AB1012000E0002070470149263972
:1028E00008707047343802400A460021DBE0D30B01
:1028F000002B75D0102971D2DFE801F0080F161DEA
:10290000242B323940464C52585E646A038823F4C3
:10291000004303F50043038060E0038823F4804311
:1029200003F58043038059E0038823F4005303F543
:102930000053038052E0038823F4805303F580534F
:1029400003804BE0038823F4006303F500630380F6
:1029500044E0038823F4806303F5806303803DE053
:10296000038823F4007303F50073038036E00388C3
:1029700023F4807303F5807303802FE0038823F032
:1029800080038033038029E0038823F04003403331
:10299000038023E0038823F02003203303801DE01D
:1029A000038823F010031033038017E0038823F01B
:1029B00008030833038011E0038823F004031B1D80
:1029C00003800BE0038823F002039B1C038005E0D7
:1029D000038823F001035B1C038000BF5DE0FFE779
:1029E000102959D2DFE801F0080D12171C21262BFF
:1029F00030353A3F44494E53038823F40043038063
:102A00004AE0038823F48043038045E0038823F4ED
:102A10000053038040E0038823F4805303803BE0AD
:102A2000038823F40063038036E0038823F4806383
:102A3000038031E0038823F4007303802CE00388D3
:102A400023F48073038027E0038823F0800303804E
:102A500022E0038823F0400303801DE0038823F075
:102A60002003038018E0038823F01003038013E0A1
:102A7000038823F0080303800EE0038823F0040397
:102A8000038009E0038823F00203038004E0038845
:102A900023F00103038000BF00BF4FF6FF7303EA7A
:102AA00042024B1CD9B21029FFF621AF7047F0B596
:102AB0001C46002600250123C1F11007974202DAC7
:102AC000C1F11007FAB20E46002E0CDD05E0EF183A
:102AD000BDB24FF6FF7707EA4303371EA6F1010C9C
:102AE0000CF0FF06F3D1D0F814C04FF6FF779740F3
:102AF0008F402F430CEA070CC0F814C0476904FA52
:102B000001FC47EA0C074761F0BD10B56FF0040007
:102B1000FEF770FF1520394908700846007800EB71
:102B20004001C1EBC0104FF6FF7101EAC00034490B
:102B3000088010BD0146314A12784A434FF0E02325
:102B40005A6100229A611A46126942F001021A6122
:102B500000BF4FF0E022106900F001021AB100F44A
:102B60008032002AF5D04FF0E022126922F00102F3
:102B70004FF0E0231A6100229A6170470146204A13
:102B800012884A434FF0E0235A6100229A611A46A4
:102B9000126942F001021A6100BF4FF0E022106991
:102BA00000F001021AB100F48032002AF5D04FF093
:102BB000E022126922F001024FF0E0231A610022A4
:102BC0009A61704770B504464FF4077094FBF0F0BB
:102BD000C6B24FF4077094FBF0F100FB114085B2D0
:102BE00005E04FF40770FFF7C9FF701EC6B2002E54
:102BF000F7D115B12846FFF7C1FF70BD36000020A0
:102C000038000020704770477047754600F02CF878
:102C1000AE4605006946534620F00700854618B0C9
:102C200020B5FDF771FBBDE820404FF000064FF0E6
:102C300000074FF000084FF0000B21F00701AC46F1
:102C4000ACE8C009ACE8C009ACE8C009ACE8C00910
:102C50008D46704710B50446AFF300802046BDE8AE
:102C60001040FDF7DABA0000004870473C00002031
:102C700001491820ABBEFEE72600020070474FF066
:102C80004070E1EE100A70470000000000000000F4
:102C900000000000000000003F40000000000000B5
:102CA00000003000400030004000000009000BC070
:102CB0003D000BC03D00090018C024407FE02240C9
:102CC00031800000180024C01B000D8032400180BC
:102CD00003801C4027401C8007400040100060001B
:102CE00000000000000000000000000000001F8045
:102CF000204040200000402020401F8000000000B5
:102D0000090006001F8006000900000004000400FE
:102D10003F8004000400000000100060000000007C
:102D2000000000000400040004000400040000008F
:102D3000000000400000000000000000002001C072
:102D400006003800400000001F8020402040204046
:102D50001F800000000010403FC000400000000045
:102D600018C021402240244018400000108020401C
:102D7000244024401B80000002000D0011003FC0D1
:102D8000014000003C802440244024402380000077
:102D90001F80244024403440038000003000200085
:102DA00027C03800200000001B802440244024401D
:102DB0001B8000001C0022C0224022401F80000017
:102DC00000000000084000000000000000000000BB
:102DD0000460000000000000000004000A00110070
:102DE0002080404009000900090009000900000096
:102DF00000004040208011000A000400180020005C
:102E000023402400180000001F8020402740294054
:102E10001F400000004007C039000F0001C0004003
:102E200020403FC0244024401B8000001F802040E1
:102E3000204020403080000020403FC02040204003
:102E40001F80000020403FC024402E4030C00000C2
:102E500020403FC024402E00300000000F001080B2
:102E6000204022403380020020403FC00400040084
:102E70003FC02040204020403FC020402040000074
:102E80000060202020203FC02000200020403FC0C4
:102E900024400B0030C0204020403FC02040004074
:102EA000004000C03FC03C0003C03C003FC00000E9
:102EB00020403FC00C4023003FC020001F80204026
:102EC000204020401F80000020403FC024402400BC
:102ED000180000001F802140214020E01FA00000BA
:102EE00020403FC02440260019C0004018C02440A4
:102EF0002440224031800000300020403FC020406C
:102F00003000000020003F80004000403F80200053
:102F100020003E0001C0070038002000380007C034
:102F20003C0007C038000000204039C0060039C00E
:102F3000204000002000384007C03840200000003A
:102F4000304021C02640384020C000000000000072
:102F50007FE0402040200000000070000C00038053
:102F6000004000000000402040207FE00000000002
:102F700000002000400020000000000000100010B1
:102F800000100010001000100000000040000000C1
:102F900000000000000002800540054003C0004022
:102FA00020003FC004400440038000000000038074
:102FB0000440044006400000000003800440244018
:102FC0003FC0004000000380054005400340000072
:102FD000000004401FC0244024402000000002E004
:102FE000055005500650042020403FC00440040016
:102FF00003C000400000044027C000400000000063
:1030000000100010041027E00000000020403FC026
:103010000140070004C00440204020403FC0004061
:103020000040000007C0040007C0040003C0000007
:10303000044007C00440040003C0004000000380B7
:103040000440044003800000041007F004500440D2
:1030500003800000000003800440045007F00010CB
:10306000044007C0024004000400000000000640C5
:103070000540054004C00000000004001F8004401B
:1030800000400000040007800040044007C00040EA
:103090000400070004C0018006000400060001C00F
:1030A000070001C006000000044006C0010006C081
:1030B000044000000410071004E001800600040032
:1030C0000000044005C0064004400000000000006D
:1030D00004007BE040200000000000000000FFF042
:1030E00000000000000040207BE004000000000021
:1030F0004000800040002000200040000000000050
:1031000000000000000000000000000000000000BF
:1031100000001FCC000C00000000000000000800B0
:10312000300060000800300060000000022003FC56
:103130001E20022003FC1E200220000000000E18AA
:1031400011043FFF10840C78000000000F00108471
:103150000F3800C0077818840078000000780F84CA
:1031600010C411240E9800E40084000808006800D0
:1031700070000000000000000000000000000000DF
:10318000000007E018182004400200000000400280
:103190002004181807E00000000000000240024070
:1031A00001800FF00180024002400000008000809A
:1031B00000800FF800800080008000000001000DFA
:1031C000000E000000000000000000000000008071
:1031D0000080008000800080008000800000000CE3
:1031E000000C0000000000000000000000000006CD
:1031F000001800600180060018002000000007F0A1
:10320000080810041004080807F000000000080473
:1032100008041FFC000400040000000000000E0C65
:1032200010141024104411840E0C000000000C181F
:1032300010041104110412880C700000000000E05A
:103240000320042408241FFC0024000000001F9811
:10325000108411041104108810700000000007F0A1
:1032600008881104110418880070000000001C0078
:10327000100010FC13001C001000000000000E38AD
:1032800011441084108411440E380000000007001F
:10329000088C10441044088807F00000000000006B
:1032A0000000030C030C0000000000000000000000
:1032B0000001010600000000000000000000008086
:1032C000014002200410080810040000022002201F
:1032D0000220022002200220022000000000100430
:1032E00008080410022001400080000000000E00C9
:1032F0001200100C106C10800F00000003E00C187E
:1033000013E4142417C4082807D000000004003C6C
:1033100003C41C40074000E4001C000410041FFC10
:103320001104110411040E880070000003E00C1851
:1033300010041004100410081C10000010041FFCDE
:10334000100410041004080807F0000010041FFC0B
:103350001104110417C410040818000010041FFC05
:103360001104110017C010000800000003E00C1841
:103370001004100410441C780040000010041FFCCE
:1033800010840080008010841FFC100400001004D2
:1033900010041FFC100410040000000000030001D2
:1033A000100110011FFE10001000000010041FFC8F
:1033B000110403801464181C1004000010041FFC86
:1033C0001004000400040004000C000010041FFCA2
:1033D0001F0000FC1F001FFC1004000010041FFC55
:1033E0000C04030000E010181FFC100007F0080890
:1033F000100410041004080807F0000010041FFC5B
:1034000010841080108010800F00000007F0081852
:1034100010241024101C080A07F2000010041FFCDE
:103420001104110011C011300E0C000400000E1C1C
:1034300011041084108410441C380000180010007F
:1034400010041FFC100410001800000010001FF8EA
:1034500010040004000410041FF8100010001E00E7
:1034600011E0001C007013801C0010001FC0103CF5
:1034700000E01F0000E0103C1FC000001004180C0A
:10348000163401C001C01634180C100410001C00C2
:10349000130400FC13041C00100000000804101C9E
:1034A0001064108413041C041018000000000000B5
:1034B00000007FFE40024002400200000000300099
:1034C0000C0003800060001C0003000000004002AC
:1034D000400240027FFE00000000000000000000EB
:1034E00020004000400040002000000000010001DA
:1034F0000001000100010001000100010000400086
:1035000040002000000000000000000000000098C3
:10351000012401440144014400FC000410001FFC8C
:1035200000880104010400880070000000000070A1
:1035300000880104010401040088000000000070FC
:1035400000880104010411081FFC0004000000F8B9
:10355000014401440144014400C80000000001048A
:1035600001040FFC1104110411001800000000D622
:1035700001290129012901C90106000010041FFCCD
:10358000008401000100010400FC000400000104AB
:10359000190419FC000400040000000000000003EE
:1035A00000010101190119FE0000000010041FFCB8
:1035B0000024004001B4010C0104000000001004CC
:1035C00010041FFC0004000400000000010401FCC2
:1035D0000104010001FC0104010000FC010401FCE4
:1035E000008401000100010400FC0004000000F858
:1035F000010401040104010400F80000010101FFBD
:1036000000850104010400880070000000000070C3
:10361000008801040104010501FF00010104010407
:1036200001FC00840104010001800000000000CCC6
:10363000012401240124012401980000000001005C
:10364000010007F80104010400000000010001F876
:10365000000400040004010801FC000401000180D2
:103660000170000C001001600180010001F0010CEC
:10367000003001C00030010C01F001000000010425
:10368000018C00740170018C0104000001010181B2
:103690000171000E0018016001800100000001842A
:1036A000010C013401440184010C00000000000001
:1036B0000000000001003EFC40024002000000004B
:1036C00000000000FFFF00000000000000004002BA
:1036D00040023EFC0100000000000000000060000D
:1036E000800080004000400020002000000000001A
:1036F00000000000000000000000000000000000CA
:1037000000000000000000000000000000000000B9
:103710000000000000000000000000000000000F9A
:1037200080380FFE380F80380000000000000000D5
:103730000000000000000000000001000006000082
:103740000C00003800003100000600000C000038BA
:1037500000003000000000000000000061800067F1
:10376000F807F9800061800061800061800061805D
:103770000067F807F9800061800000000000000089
:10378000000001C0E003E0F00630080418081FFF45
:10379000FE040E080787F00381E00000000000002F
:1037A00001F000060C00040408060C7001F9C000CA
:1037B0000E00003BE000EC18070808040C1800039A
:1037C000E00000000001E00007F003F818041C0806
:1037D00004170807E1D003C0E00023B0003C080054
:1037E000200800001000000000000001000031006F
:1037F000003200001C00000000000000000000007B
:1038000000000000000000000000000000000000B8
:103810000000000000000000000000007F0001FF29
:10382000C00780F00C001810000420000200000007
:103830000000002000021000040C00180780F001B6
:10384000FFC0007F0000000000000000000000003A
:10385000000000000000000042000066000066005A
:10386000003C0000180003FFC0001800003C0000EE
:10387000660000660000420000000000080000082A
:103880000000080000080000080001FFC000080058
:103890000008000008000008000008000000000008
:1038A000000100003100003200001C000000000098
:1038B0000000000000000000000000000000000008
:1038C00000000000080000080000080000080000D8
:1038D00008000008000008000008000008000008B8
:1038E0000000000000000000000000003800003868
:1038F0000000380000000000000000000000000090
:1039000000000000000000000000000000060000B1
:103910001C000070000180000E0000380000C00094
:103920000700001C00003000000000000000000044
:103930007F8001FFE0038070060018040008040087
:103940000806001803807001FFE0007F800000007F
:103950000000000000000100080100080100080349
:10396000FFF807FFF800000800000800000800004A
:103970000000000000000001C03802C05804009898
:10398000040118040218040418061C1803F818018E
:10399000E0F800000000000000000001C0E003C0EB
:1039A000F004000804080804080806180803F418BE
:1039B00001E7F00001E0000000000000000000004E
:1039C0000300000D000011000061000081080301E8
:1039D0000807FFF80FFFF8000108000108000000C9
:1039E0000000000000E007FCD006080806100806EA
:1039F0001008061008061838060FF00607C0000069
:103A000000000000000000003F8001FFE003843060
:103A100002081804100804100804100807181003FE
:103A20000FF00007C000000000000000000003C00D
:103A3000000700000600000600F80607F806180058
:103A400006E0000700000600000000000000000182
:103A5000E1E003F7F0063410041808041808040C19
:103A600008040C0806161803F3F001C1E00000007A
:103A700000000000F80003FC3003063804020804CC
:103A800002080402080404100308F001FFC0007FCC
:103A90000000000000000000000000000000000026
:103AA000000000007038007038007038000000001E
:103AB0000000000000000000000000000000000006
:103AC0000000000000000000301A00301C00000060
:103AD00000000000000000000000000000000000E6
:103AE00000000008000014000022000041000080D7
:103AF00080010040020020040010080008000000BF
:103B00000000000021000021000021000021000031
:103B100021000021000021000021000021000021DF
:103B20000000000000000000000008000804001071
:103B300002002001004000808000410000220000BF
:103B4000140000080000000000000003C00004C0D2
:103B500000040000080038080F3808083808100072
:103B60000C300007E00003C000000000000000006F
:103B70003F8000FFE0038070020F1006708804C0D1
:103B800088048308047F8802C09003012000FE405F
:103B90000000080000180001F8003E0801C20007FC
:103BA000020007E20000FE00001FC80001F800004C
:103BB0003800000804000807FFF807FFF8040808A9
:103BC00004080804080804080806180803F4180183
:103BD000E7F00001E0000000000000003F8001FF6E
:103BE000E0038070020018040008040008040008C4
:103BF0000400100600200780C00000000400080731
:103C0000FFF807FFF8040008040008040008040097
:103C10001802001003807001FFE0007F80000000A8
:103C200004000807FFF807FFF80408080408080460
:103C30000808040808043E080400080600180100EB
:103C40006000000004000807FFF807FFF8040808F8
:103C5000040800040800040800043E0006000006F2
:103C60000000018000000000000000003F8001FF14
:103C7000E00380700600180400080402080402082B
:103C80000203F00783F000020000020004000807AE
:103C9000FFF807FFF8040808000800000800000803
:103CA0000000080004080807FFF807FFF8040008F0
:103CB00000000000000004000804000804000807D9
:103CC000FFF807FFF80400080400080400080000DB
:103CD00000000000000000000006000007000001D6
:103CE00004000104000104000307FFFE07FFFC04B9
:103CF000000004000004000004000807FFF807FFAC
:103D0000F8040C08001800003E0004C7800503C832
:103D10000600F80400380400180000080400080732
:103D2000FFF807FFF8040008000008000008000082
:103D300008000008000008000018000060000000F3
:103D400004000807FFF807800807FC00007FC00098
:103D500003F80007C000780007800807FFF807FF96
:103D6000F804000804000807FFF807000803C00073
:103D700000E000003800001E000007000001C00441
:103D800000F007FFF8040000000000007F8001FF42
:103D9000E0038070060018040008040008060018FC
:103DA00003003001FFE0007F8000000004000807EE
:103DB000FFF807FFF80404080404000404000404E6
:103DC00000040400060C0003F80001F000000000ED
:103DD000000000007F8001FFE0038070060088047F
:103DE00000880400C806003C03003E01FFE6007F97
:103DF0008400000004000807FFF807FFF804080823
:103E0000040800040C00040F00040BC00610F003AB
:103E1000F03801E00800000800000001E0F803F0BD
:103E200030063010041808041808040C08040C08A4
:103E30000206180207F00781E0000000018000067A
:103E4000000004000004000004000807FFF807FF5A
:103E5000F8040008040000040000060000018000CF
:103E600004000007FFE007FFF0040018000008004E
:103E7000000800000800000800000804001007FF08
:103E8000E004000004000006000007E00007FE0058
:103E9000041FE00001F80000380001E0043E0007C4
:103EA000C00006000004000004000007E00007FF57
:103EB000C0041FF80007C007F80007FF80043FF8A0
:103EC0000007C004F8000700000400000000000420
:103ED000000806001807C07805F1C8003E00001F62
:103EE000800463E80780F80600180400080000005A
:103EF00004000006000007800007E008047C0800BA
:103F00001FF80007F800180804E008070000060082
:103F1000000400000000000100080600380400F85A
:103F20000403E8040F08047C0805F00807C008072C
:103F30000018040060000000000000000000000005
:103F4000000000000000003FFFFE200002200002F1
:103F500020000220000220000200000000000000FB
:103F6000000008000007000000C000003800000644
:103F7000000001C000003000000E00000100000041
:103F800000000000000020000220000220000220AB
:103F900000022000023FFFFE0000000000000000C1
:103FA0000000000000000000000000000008000009
:103FB0001000003000002000003000001000000859
:103FC00000000000000000000000010000010000EF
:103FD00001000001000001000001000001000001DB
:103FE00000000100000100000100000100000000CD
:103FF0000000000000200000200000100000100061
:1040000000000000000000000000000000000000B0
:104010000000000000F00019F8001B180022080042
:104020002608002408002410003FF8001FF80000B4
:104030000800001800000004000007FFF80FFFF060
:104040000018180010080020080020080030180090
:104050001FF0000FC00000000000000007C0001F9C
:10406000F0001830002008002008002008003C085C
:10407000001C1000006000000000000000000000B4
:1040800007C0001FF000381800200800200800209A
:104090000804101007FFF80FFFF0000010000000E8
:1040A0000000000000000007C0001FF000123000F8
:1040B0002218002208002208003208001E10000EFC
:1040C0002000000000000000200000200800200860
:1040D00001FFF803FFF80620080420080420080761
:1040E000200003000000000000000000000E000E91
:1040F0006E001FF30031B10020B10020B1003191FA
:10410000001F13002E1E00200E00300000000004CF
:10411000000807FFF80FFFF800100800200000203B
:1041200000002008003FF8001FF800000800000011
:104130000000000000000020080020080020080601
:104140003FF8063FF80000080000080000080000E3
:104150000000000000000000000000000300000359
:10416000002001002001002003063FFE063FFC0066
:10417000000000000000000000000004000807FF2D
:10418000F80FFFF8000188000300002FC00038F886
:104190000020380020080000080000000000000097
:1041A000000004000804000804000807FFF80FFFDF
:1041B000F8000008000008000008000000000000EF
:1041C000002008003FF8003FF80010080020000021
:1041D0003FF8003FF8001008002000003FF8003FC3
:1041E000F8000008000000002008003FF8003FF839
:1041F000001008001000002000002008003FF80018
:104200001FF80000080000000000000007C0000FB9
:10421000F0001830003008002008002008003008A6
:10422000001830000FF00007C00000000000000080
:104230002001003FFF003FFF001011002009002077
:1042400008002008003038001FF0000FC0000000F8
:104250000000000007C0001FF00038180020080010
:104260002008002009001011001FFF003FFF000080
:1042700001000000002008002008002008003FF88E
:10428000003FF80008080010080020080020000087
:104290003000003000000000000000000000000CB2
:1042A00078001E1800330800230800210800218828
:1042B0000021980030F0003860000000000000008D
:1042C000200000200000200000FFF003FFF8002085
:1042D0000800200800200800003000000000000056
:1042E000000000002000003FF0007FF800001800F0
:1042F0000008000008002010003FF8007FF00000D8
:1043000010000000000000002000003000003C0011
:10431000003F800023F00000780000700023800040
:104320003C00003000002000002000003C00003F66
:10433000E00023F80000E0002700003E00003FE01E
:104340000021F80001E0003E000020000000000015
:104350002008002008003838003E6800278000034D
:10436000C8002CF800383800201800200800000091
:10437000000000002000003003003C01003F8300EB
:1043800023EC000070002380003C0000200000208F
:104390000000000000000000000000380800203885
:1043A0000020F80023E8002F88003E0800380800AD
:1043B0002018000070000000000000000000000055
:1043C000000000000000000008000014001FF7FCBF
:1043D0003000062000020000000000000000000085
:1043E0000000000000000000000000000000FFFFCF
:1043F000FF000000000000000000000000000000BE
:104400000000000000002000023000061FF7FC0042
:104410001400000800000000000000000000000080
:1044200000000000000000180000600000400000D4
:1044300040000020000010000008000004000004FC
:1044400000000C00001000000010F000D800011B5C
:10445000BEF7BEF7BEF7BEF7BEF7BEF7BEF7BEF7B4
:10446000BEF7BEF7BEF7BEF7BEF7BEF7BEF7BEF7A4
:10447000BEF7BEF7BEF7BEF7BEF7BEF7BEF7BEF794
:10448000BEF7BEF7BEF7BEF7BEF7BEF7BEF7BEF784
:1068D000FFFFFFFFDFFFBFFFBFFF7DFF5DFF5CFF2F
:1068E0005CFF3CFF3CFF5CFF5CFF5CFF7DFFBEFF8D
:1068F000BEFFDFFFDFFFFFFFFFFFFFFFFFFFFFFF29
:10690000FFFFFFFFFFFFFFFFFFFFFFFFFFFFFFFF97
:10691000FFFFFFFFFFFFFFFFFFFFFFFFFFFFFFFF87
:10692000FFFFFFFFFFFFFFFFFFFFFFFFFFFFFFFF77
:10693000FFFFFFFFFFFFFFFFFFFFFFFFFFFFFFFF67
:10694000FFFFFFFFFFFFFFFFFFFFFFFFFFFFFFFF57
:10695000FFFFFFFFFFFFFFFFFFFFFFFFFFFFFFFF47
:10696000FFFFFFFFFFFFFFFFFFFFFFFFFFFFFFFF37
:10697000FFFFFFFFFFFFFFFFFFFFFFFFFFFFFFFF27
:10698000FFFFFFFFFFFFFFFFFFFFFFFFFFFFFFFF17
:10699000FFFFFFFFFFFFFFFFFFFFFFFFFFFFFFFF07
:1069A000FFFFFFFFFFFFFFFFFFFFFFFFFFFFFFFFF7
:1069B000FFFFFFFFFFFFFFFFFFFFFFFFFFFFFFFFE7
:1069C000FFFFFFFFFFFFFFFFFFFFFFFFFFFFFFFFD7
:1069D000FFFFFFFFFFFFFFFFFFFFFFFFFFFFFFFFC7
:1069E000FFFFFFFFFFFFFFFFFFFFFFFFFFFFFFFFB7
:1069F000FFFFFFFFFFFFFFFFFFFFFFFFFFFFFFFFA7
:106A0000FFFFFFFFFFFFFFFFFFFFFFFFFFFFFFFF96
:106A1000FFFFFFFFFFFFFFFFFFFFFFFFFFFFFFFF86
:106A2000FFFFFFFFFFFFFFFFFFFFFFFFFFFFFFFF76
:106A3000FFFFFFFFFFFFFFFFFFFFFFFFFFFFFFFF66
:106A4000FFFFFFFFFFFFFFFFFFFFFFFFFFFFFFFF56
:106A5000FFFFFFFFFFFFFFFFFFFFFFFFFFFFFFFF46
:106A6000FFFFFFFFFFFFFFFFFFFFFFFFFFFFFFFF36
:106A7000FFFFFFFFFFFFFFFFFFFFFFFFFFFFFFFF26
:106A8000FFFFFFFFFFFFFFFFFFFFFFFFFFFFFFFF16
:106A9000FFFFFFFFFFFFFFFFFFFFFFFFFFFFFFFF06
:106AA000FFFFFFFFFFFFFFFFFFFFFFFF9DFF3CFF1B
:106AB00075E570CC4CBBA9AA68AA68B248B268BA9E
:106AC00068BA68BA68BA69BA69BA48B289BA68AACB
:106AD00069AA8AAACEC391D499FE5CFFDEFFFFFFAC
:106AE000FFFFFFFFFFFFFFFFFFFFFFFFFFFFFFFFB6
:106AF000FFFFFFFFFFFFFFFFFFFFFFFFFFFFFFFFA6
:106B0000FFFFFFFFFFFFFFFFFFFFFFFFFFFFFFFF95
:106B1000FFFFFFFFFFFFFFFFFFFFFFFFFFFFFFFF85
:106B2000FFFFFFFFFFFFFFFFFFFFFFFFFFFFFFFF75
:106B3000FFFFFFFFFFFFFFFFFFFFFFFFFFFFFFFF65
:106B4000FFFFFFFFFFFFFFFFFFFFFFFFFFFFFFFF55
:106B5000FFFFFFFFFFFFFFFFFFFFFFFFFFFFFFFF45
:106B6000FFFFFFFFFFFFFFFFFFFFFFFFFFFFFFFF35
:106B7000FFFFFFFFFFFFFFFFFFFFFFFFFFFFFFFF25
:106B8000FFFFFFFFFFFFFFFFFFFFFFFFFFFFFFFF15
:106B9000FFFFFFFFFFFFFFFFFFFFFFFFFFFFFFFF05
:106BA000FFFFFFFFFFFFFFFFFFFFFFFFFFFFFFFFF5
:106BB000FFFFFFFFFFFFFFFFFFFFFFFFFFFFFFFFE5
:106BC000FFFFFFFFFFFFFFFFFFFFFFFFFFFFFFFFD5
:106BD000FFFFFFFFFFFFFFFFFFFFFFFFFFFFFFFFC5
:106BE000FFFFFFFFFFFFFFFFFFFFFFFFFFFFFFFFB5
:106BF000FFFFFFFFFFFFFFFFFFFFFFFFFFFFFFFFA5
:106C0000FFFFFFFFFFFFFFFFFFFFFFFFFFFFFFFF94
:106C1000FFFFFFFFFFFFFFFFFFFFFFFFFFFFFFFF84
:106C2000FFFFFFFFFFFFFFFFFFFFFFFFFFFFFFFF74
:106C3000FFFFFFFFFFFFFFFFFFFFFFFFFFFFFFFF64
:106C4000FFFFFFFFFFFFFFFFFFFFFFFFFFFFFFFF54
:106C5000FFFFFFFFFFFFFFFFFFFFFFFFFFFFFFFF44
:106C6000FFFFFFFFFFFFFFFFFFFFFFFFFFFFFFFF34
:106C7000FFFFFFFFFFFFFFFFFFFFFFFFFFFFFFFF24
:106C8000FFFFFFFFDEFFDAFE71CCEBB289AAA9AAF3
:106C900069AA2CB314DD96E579F65DFF9EFFBEFF71
:106CA000BEFF9EFFBEFF9DFF9DFF9EFF7DFF1CFF61
:106CB000F7ED95ED4FCCA9AA88B289B269B2ADC300
:106CC00074DD7DFFDEFFFFFFFFFFFFFFFFFFFFFF24
:106CD000FFFFFFFFFFFFFFFFFFFFFFFFFFFFFFFFC4
:106CE000FFFFFFFFFFFFFFFFFFFFFFFFFFFFFFFFB4
:106CF000FFFFFFFFFFFFFFFFFFFFFFFFFFFFFFFFA4
:106D0000FFFFFFFFFFFFFFFFFFFFFFFFFFFFFFFF93
:106D1000FFFFFFFFFFFFFFFFFFFFFFFFFFFFFFFF83
:106D2000FFFFFFFFFFFFFFFFFFFFFFFFFFFFFFFF73
:106D3000FFFFFFFFFFFFFFFFFFFFFFFFFFFFFFFF63
:106D4000FFFFFFFFFFFFFFFFFFFFFFFFFFFFFFFF53
:106D5000FFFFFFFFFFFFFFFFFFFFFFFFFFFFFFFF43
:106D6000FFFFFFFFFFFFFFFFFFFFFFFFFFFFFFFF33
:106D7000FFFFFFFFFFFFFFFFFFFFFFFFFFFFFFFF23
:106D8000FFFFFFFFFFFFFFFFFFFFFFFFFFFFFFFF13
:106D9000FFFFFFFFFFFFFFFFFFFFFFFFFFFFFFFF03
:106DA000FFFFFFFFFFFFFFFFFFFFFFFFFFFFFFFFF3
:106DB000FFFFFFFFFFFFFFFFFFFFFFFFFFFFFFFFE3
:106DC000FFFFFFFFFFFFFFFFFFFFFFFFFFFFFFFFD3
:106DD000FFFFFFFFFFFFFFFFFFFFFFFFFFFFFFFFC3
:106DE000FFFFFFFFFFFFFFFFFFFFFFFFFFFFFFFFB3
:106DF000FFFFFFFFFFFFFFFFFFFFFFFFFFFFFFFFA3
:106E0000FFFFFFFFFFFFFFFFFFFFFFFFFFFFFFFF92
:106E1000FFFFFFFFFFFFFFFFFFFFFFFFFFFFFFFF82
:106E2000FFFFFFFFFFFFFFFFFFFFFFFFFFFFFFFF72
:106E3000FFFFFFFFFFFFFFFFFFFFFFFFFFFFFFFF62
:106E4000FFFFFFFFFFFFFFFFFFFFFFFFFFFFFFFF52
:106E5000FFFFFFFFFFFFFFFFFFFFFFFFFFFFBEFF83
:106E600016EEAEC3AAB28AB2CAAAF2DCBAFE9DFF7F
:106E7000DEFF9EFF9DFF7CFFB6E534DD14DDF3DC15
:106E800091D4EFC3EFC350CCB1D413DD54E575E515
:106E9000B9F6BDFF9DFFBEFF9DFF7CFFB5DDEFC3D3
:106EA00089B289B289A254E55CFFDFFFFFFFFFFFD3
:106EB000FFFFFFFFFFFFFFFFFFFFFFFFFFFFFFFFE2
:106EC000FFFFFFFFFFFFFFFFFFFFFFFFFFFFFFFFD2
:106ED000FFFFFFFFFFFFFFFFFFFFFFFFFFFFFFFFC2
:106EE000FFFFFFFFFFFFFFFFFFFFFFFFFFFFFFFFB2
:106EF000FFFFFFFFFFFFFFFFFFFFFFFFFFFFFFFFA2
:106F0000FFFFFFFFFFFFFFFFFFFFFFFFFFFFFFFF91
:106F1000FFFFFFFFFFFFFFFFFFFFFFFFFFFFFFFF81
:106F2000FFFFFFFFFFFFFFFFFFFFFFFFFFFFFFFF71
:106F3000FFFFFFFFFFFFFFFFFFFFFFFFFFFFFFFF61
:106F4000FFFFFFFFFFFFFFFFFFFFFFFFFFFFFFFF51
:106F5000FFFFFFFFFFFFFFFFFFFFFFFFFFFFFFFF41
:106F6000FFFFFFFFFFFFFFFFFFFFFFFFFFFFFFFF31
:106F7000FFFFFFFFFFFFFFFFFFFFFFFFFFFFFFFF21
:106F8000FFFFFFFFFFFFFFFFFFFFFFFFFFFFFFFF11
:106F9000FFFFFFFFFFFFFFFFFFFFFFFFFFFFFFFF01
:106FA000FFFFFFFFFFFFFFFFFFFFFFFFFFFFFFFFF1
:106FB000FFFFFFFFFFFFFFFFFFFFFFFFFFFFFFFFE1
:106FC000FFFFFFFFFFFFFFFFFFFFFFFFFFFFFFFFD1
:106FD000FFFFFFFFFFFFFFFFFFFFFFFFFFFFFFFFC1
:106FE000FFFFFFFFFFFFFFFFFFFFFFFFFFFFFFFFB1
:106FF000FFFFFFFFFFFFFFFFFFFFFFFFFFFFFFFFA1
:10700000FFFFFFFFFFFFFFFFFFFFFFFFFFFFFFFF90
:10701000FFFFFFFFFFFFFFFFFFFFFFFFFFFFFFFF80
:10702000FFFFFFFFFFFFFFFFFFFFFFFFFFFFFFFF70
:10703000FFFFFFFFFFFFFFFFDEFFFBFE2FC489B254
:1070400068B2ADC318F69DFFDEFFBEFF59EEF3DC5C
:107050002CAB69BA28BA47C227C247C227CA27CA77
:1070600027CA27CA27CA27CA27CA47CA27CA27C280
:1070700048C227BA68BA8AB26DBBB6E51BFF9EFF4D
:107080009DFF5CFFB2D4AAB228AAEBAAD6E5BEFF48
:10709000FFFFFFFFFFFFFFFFFFFFFFFFFFFFFFFF00
:1070A000FFFFFFFFFFFFFFFFFFFFFFFFFFFFFFFFF0
:1070B000FFFFFFFFFFFFFFFFFFFFFFFFFFFFFFFFE0
:1070C000FFFFFFFFFFFFFFFFFFFFFFFFFFFFFFFFD0
:1070D000FFFFFFFFFFFFFFFFFFFFFFFFFFFFFFFFC0
:1070E000FFFFFFFFFFFFFFFFFFFFFFFFFFFFFFFFB0
:1070F000FFFFFFFFFFFFFFFFFFFFFFFFFFFFFFFFA0
:10710000FFFFFFFFFFFFFFFFFFFFFFFFFFFFFFFF8F
:10711000FFFFFFFFFFFFFFFFFFFFFFFFFFFFFFFF7F
:10712000FFFFFFFFFFFFFFFFFFFFFFFFFFFFFFFF6F
:10713000FFFFFFFFFFFFFFFFFFFFFFFFFFFFFFFF5F
:10714000FFFFFFFFFFFFFFFFFFFFFFFFFFFFFFFF4F
:10715000FFFFFFFFFFFFFFFFFFFFFFFFFFFFFFFF3F
:10716000FFFFFFFFFFFFFFFFFFFFFFFFFFFFFFFF2F
:10717000FFFFFFFFFFFFFFFFFFFFFFFFFFFFFFFF1F
:10718000FFFFFFFFFFFFFFFFFFFFFFFFFFFFFFFF0F
:10719000FFFFFFFFFFFFFFFFFFFFFFFFFFFFFFFFFF
:1071A000FFFFFFFFFFFFFFFFFFFFFFFFFFFFFFFFEF
:1071B000FFFFFFFFFFFFFFFFFFFFFFFFFFFFFFFFDF
:1071C000FFFFFFFFFFFFFFFFFFFFFFFFFFFFFFFFCF
:1071D000FFFFFFFFFFFFFFFFFFFFFFFFFFFFFFFFBF
:1071E000FFFFFFFFFFFFFFFFFFFFFFFFFFFFFFFFAF
:1071F000FFFFFFFFFFFFFFFFFFFFFFFFFFFFFFFF9F
:10720000FFFFFFFFFFFFFFFFFFFFFFFFFFFFFFFF8E
:10721000FFFFFFFFDEFF78F60BB36AAA6DBBF6ED4A
:107220007CFFDEFF1BFF13DDCAB289C248CA88B2E9
:1072300037FE8AC288C247CA27CA27CA27CA27CAAE
:1072400027CA27CA27CA47CA27CA27CA27CA27CA96
:1072500026CA26CA26CA27D227CA47C248BA89BA26
:107260002CB317F65CFFDEFF3BFF50CC69AA69AA7E
:1072700091CC3CFFFFFFFFFFFFFFFFFFFFFFFFFF82
:10728000FFFFFFFFFFFFFFFFFFFFFFFFFFFFFFFF0E
:10729000FFFFFFFFFFFFFFFFFFFFFFFFFFFFFFFFFE
:1072A000FFFFFFFFFFFFFFFFFFFFFFFFFFFFFFFFEE
:1072B000FFFFFFFFFFFFFFFFFFFFFFFFFFFFFFFFDE
:1072C000FFFFFFFFFFFFFFFFFFFFFFFFFFFFFFFFCE
:1072D000FFFFFFFFFFFFFFFFFFFFFFFFFFFFFFFFBE
:1072E000FFFFFFFFFFFFFFFFFFFFFFFFFFFFFFFFAE
:1072F000FFFFFFFFFFFFFFFFFFFFFFFFFFFFFFFF9E
:10730000FFFFFFFFFFFFFFFFFFFFFFFFFFFFFFFF8D
:10731000FFFFFFFFFFFFFFFFFFFFFFFFFFFFFFFF7D
:10732000FFFFFFFFFFFFFFFFFFFFFFFFFFFFFFFF6D
:10733000FFFFFFFFFFFFFFFFFFFFFFFFFFFFFFFF5D
:10734000FFFFFFFFFFFFFFFFFFFFFFFFFFFFFFFF4D
:10735000FFFFFFFFFFFFFFFFFFFFFFFFFFFFFFFF3D
:10736000FFFFFFFFFFFFFFFFFFFFFFFFFFFFFFFF2D
:10737000FFFFFFFFFFFFFFFFFFFFFFFFFFFFFFFF1D
:10738000FFFFFFFFFFFFFFFFFFFFFFFFFFFFFFFF0D
:10739000FFFFFFFFFFFFFFFFFFFFFFFFFFFFFFFFFD
:1073A000FFFFFFFFFFFFFFFFFFFFFFFFFFFFFFFFED
:1073B000FFFFFFFFFFFFFFFFFFFFFFFFFFFFFFFFDD
:1073C000FFFFFFFFFFFFFFFFFFFFFFFFFFFFFFFFCD
:1073D000FFFFFFFFFFFFFFFFFFFFFFFFFFFFFFFFBD
:1073E000FFFFFFFFFFFFFFFFFFFFFFFFFEFFDFFFCE
:1073F000DFFF37EEEBB249B2EEBB5CFFBEFF1CFF16
:1074000091CCA9B268BA47CA27CA27CA06CAA9B284
:107410009EFF55E5FAFE48C226CA47CA27CA27CAB0
:1074200027CA27CA27CA27CA27CA27CA27CA27CAD4
:1074300026CA47C227CA27CA27CA27CA27CAE6C9EF
:1074400046C247C268BA0BB358EE9DFF9EFFB6ED29
:10745000EAB268AAEFCB3CFFDFFFFFFFFFFFFFFFB1
:10746000FFFFFFFFFFFFFFFFFFFFFFFFFFFFFFFF2C
:10747000FFFFFFFFFFFFFFFFFFFFFFFFFFFFFFFF1C
:10748000FFFFFFFFFFFFFFFFFFFFFFFFFFFFFFFF0C
:10749000FFFFFFFFFFFFFFFFFFFFFFFFFFFFFFFFFC
:1074A000FFFFFFFFFFFFFFFFFFFFFFFFFFFFFFFFEC
:1074B000FFFFFFFFFFFFFFFFFFFFFFFFFFFFFFFFDC
:1074C000FFFFFFFFFFFFFFFFFFFFFFFFFFFFFFFFCC
:1074D000FFFFFFFFFFFFFFFFFFFFFFFFFFFFFFFFBC
:1074E000FFFFFFFFFFFFFFFFFFFFFFFFFFFFFFFFAC
:1074F000FFFFFFFFFFFFFFFFFFFFFFFFFFFFFFFF9C
:10750000FFFFFFFFFFFFFFFFFFFFFFFFFFFFFFFF8B
:10751000FFFFFFFFFFFFFFFFFFFFFFFFFFFFFFFF7B
:10752000FFFFFFFFFFFFFFFFFFFFFFFFFFFFFFFF6B
:10753000FFFFFFFFFFFFFFFFFFFFFFFFFFFFFFFF5B
:10754000FFFFFFFFFFFFFFFFFFFFFFFFFFFFFFFF4B
:10755000FFFFFFFFFFFFFFFFFFFFFFFFFFFFFFFF3B
:10756000FFFFFFFFFFFFFFFFFFFFFFFFFFFFFFFF2B
:10757000FFFFFFFFFFFFFFFFFFFFFFFFFFFFFFFF1B
:10758000FFFFFFFFFFFFFFFFFFFFFFFFFFFFFFFF0B
:10759000FFFFFFFFFFFFFFFFFFFFFFFFFFFFFFFFFB
:1075A000FFFFFFFFFFFFFFFFFFFFFFFFFFFFFFFFEB
:1075B000FFFFFFFFFFFFFFFFFFFFFFFFFFFFFFFFDB
:1075C000FFFFFFFFFFFFFFFFFFFFFFFFFFFF99F63A
:1075D000EAAA8ABA50CC5CFF9EFF78F60BB368BA71
:1075E00048C206C247CA47CA46CA46C227C2EBB209
:1075F0005CFFCFABDAFE27C227CA27CA27CA27CA31
:1076000027CA27CA27CA27CA27CA27CA27CA27CAF2
:1076100027CA27CA07D207CA47BAA8BA47BA0EE488
:1076200047C227CA46CA26CA47C228A251CC1CFF55
:10763000DEFF99F6EAB289AAF0C37DFFFFFFFFFFE4
:10764000FFFFFFFFFFFFFFFFFFFFFFFFFFFFFFFF4A
:10765000FFFFFFFFFFFFFFFFFFFFFFFFFFFFFFFF3A
:10766000FFFFFFFFFFFFFFFFFFFFFFFFFFFFFFFF2A
:10767000FFFFFFFFFFFFFFFFFFFFFFFFFFFFFFFF1A
:10768000FFFFFFFFFFFFFFFFFFFFFFFFFFFFFFFF0A
:10769000FFFFFFFFFFFFFFFFFFFFFFFFFFFFFFFFFA
:1076A000FFFFFFFFFFFFFFFFFFFFFFFFFFFFFFFFEA
:1076B000FFFFFFFFFFFFFFFFFFFFFFFFFFFFFFFFDA
:1076C000FFFFFFFFFFFFFFFFFFFFFFFFFFFFFFFFCA
:1076D000FFFFFFFFFFFFFFFFFFFFFFFFFFFFFFFFBA
:1076E000FFFFFFFFFFFFFFFFFFFFFFFFFFFFFFFFAA
:1076F000FFFFFFFFFFFFFFFFFFFFFFFFFFFFFFFF9A
:10770000FFFFFFFFFFFFFFFFFFFFFFFFFFFFFFFF89
:10771000FFFFFFFFFFFFFFFFFFFFFFFFFFFFFFFF79
:10772000FFFFFFFFFFFFFFFFFFFFFFFFFFFFFFFF69
:10773000FFFFFFFFFFFFFFFFFFFFFFFFFFFFFFFF59
:10774000FFFFFFFFFFFFFFFFFFFFFFFFFFFFFFFF49
:10775000FFFFFFFFFFFFFFFFFFFFFFFFFFFFFFFF39
:10776000FFFFFFFFFFFFFFFFFFFFFFFFFFFFFFFF29
:10777000FFFFFFFFFFFFFFFFFFFFFFFFFFFFFFFF19
:10778000FFFFFFFFFFFFFFFFFFFFFFFFFFFFFFFF09
:10779000FFFFFFFFFFFFFFFFFFFFFFFFFFFFFFFFF9
:1077A000FFFFFFFFFFFFFFFFFFFF7CFF8DBB89B2E5
:1077B000CFBB5CFFBEFF95E5A9B228CA27CA46C267
:1077C00026CA26C247CA47CA27CA48CA34F55CFF38
:1077D000BDFF17DE2FCC47C227CA27CA27CA27CA30
:1077E00027CA27CA27CA27CA27CA27CA27CA27CA11
:1077F00027CA47CA26C268BA8DB314CD31B43CFF3C
:10780000D6ED8DCB47C227CA27CA27CA27CA47BA8F
:10781000CDCB3BFFFFFF17F6CABAA9AA96E5BEFF7C
:10782000FFFFFFFFFFFFFFFFFFFFFFFFFFFFFFFF68
:10783000FFFFFFFFFFFFFFFFFFFFFFFFFFFFFFFF58
:10784000FFFFFFFFFFFFFFFFFFFFFFFFFFFFFFFF48
:10785000FFFFFFFFFFFFFFFFFFFFFFFFFFFFFFFF38
:10786000FFFFFFFFFFFFFFFFFFFFFFFFFFFFFFFF28
:10787000FFFFFFFFFFFFFFFFFFFFFFFFFFFFFFFF18
:10788000FFFFFFFFFFFFFFFFFFFFFFFFFFFFFFFF08
:10789000FFFFFFFFFFFFFFFFFFFFFFFFFFFFFFFFF8
:1078A000FFFFFFFFFFFFFFFFFFFFFFFFFFFFFFFFE8
:1078B000FFFFFFFFFFFFFFFFFFFFFFFFFFFFFFFFD8
:1078C000FFFFFFFFFFFFFFFFFFFFFFFFFFFFFFFFC8
:1078D000FFFFFFFFFFFFFFFFFFFFFFFFFFFFFFFFB8
:1078E000FFFFFFFFFFFFFFFFFFFFFFFFFFFFFFFFA8
:1078F000FFFFFFFFFFFFFFFFFFFFFFFFFFFFFFFF98
:10790000FFFFFFFFFFFFFFFFFFFFFFFFFFFFFFFF87
:10791000FFFFFFFFFFFFFFFFFFFFFFFFFFFFFFFF77
:10792000FFFFFFFFFFFFFFFFFFFFFFFFFFFFFFFF67
:10793000FFFFFFFFFFFFFFFFFFFFFFFFFFFFFFFF57
:10794000FFFFFFFFFFFFFFFFFFFFFFFFFFFFFFFF47
:10795000FFFFFFFFFFFFFFFFFFFFFFFFFFFFFFFF37
:10796000FFFFFFFFFFFFFFFFFFFFFFFFFFFFFFFF27
:10797000FFFFFFFFFFFFFFFFFFFFFFFFFFFFFFFF17
:10798000FFFFFFFFFFFFDFFF14D589B2CAA21CFF74
:10799000BEFFD6EDC9B268CA47CA26CA27CA26CAD8
:1079A00027CA27CA27CA26CA26CA47BA8EC3D2C43C
:1079B000DEFFFAFE48BA07CA27C227CA27CA27CA63
:1079C00027CA27CA27CA27CA27CA27CA27CA26CA30
:1079D00026CA8CDBD5EDD7ED3CFF14BDBEFF9AEE79
:1079E00050B40BB346C227CA27CA27CA27CA27CA18
:1079F00047C268BACEC35CFFBEFF94E589B22CB320
:107A00001CFFFFFFFFFFFFFFFFFFFFFFFFFFFFFF69
:107A1000FFFFFFFFFFFFFFFFFFFFFFFFFFFFFFFF76
:107A2000FFFFFFFFFFFFFFFFFFFFFFFFFFFFFFFF66
:107A3000FFFFFFFFFFFFFFFFFFFFFFFFFFFFFFFF56
:107A4000FFFFFFFFFFFFFFFFFFFFFFFFFFFFFFFF46
:107A5000FFFFFFFFFFFFFFFFFFFFFFFFFFFFFFFF36
:107A6000FFFFFFFFFFFFFFFFFFFFFFFFFFFFFFFF26
:107A7000FFFFFFFFFFFFFFFFFFFFFFFFFFFFFFFF16
:107A8000FFFFFFFFFFFFFFFFFFFFFFFFFFFFFFFF06
:107A9000FFFFFFFFFFFFFFFFFFFFFFFFFFFFFFFFF6
:107AA000FFFFFFFFFFFFFFFFFFFFFFFFFFFFFFFFE6
:107AB000FFFFFFFFFFFFFFFFFFFFFFFFFFFFFFFFD6
:107AC000FFFFFFFFFFFFFFFFFFFFFFFFFFFFFFFFC6
:107AD000FFFFFFFFFFFFFFFFFFFFFFFFFFFFFFFFB6
:107AE000FFFFFFFFFFFFFFFFFFFFFFFFFFFFFFFFA6
:107AF000FFFFFFFFFFFFFFFFFFFFFFFFFFFFFFFF96
:107B0000FFFFFFFFFFFFFFFFFFFFFFFFFFFFFFFF85
:107B1000FFFFFFFFFFFFFFFFFFFFFFFFFFFFFFFF75
:107B2000FFFFFFFFFFFFFFFFFFFFFFFFFFFFFFFF65
:107B3000FFFFFFFFFFFFFFFFFFFFFFFFFFFFFFFF55
:107B4000FFFFFFFFFFFFFFFFFFFFFFFFFFFFFFFF45
:107B5000FFFFFFFFFFFFFFFFFFFFFFFFFFFFFFFF35
:107B6000FFFFFFFF5CFF0BB389B2B6E59DFFDBFEB5
:107B7000EAB227CA27C227CA27CA27CA27CA27CADA
:107B800027CA27CA27CA27CA27CACECBBAFE4DABF7
:107B9000F6CD10BC07C206C227CA27CA27CA27CA01
:107BA00027CA27CA27CA27CA47CA26CA27CA47CA0E
:107BB00026C227BA6DBB96E575CD75E555D59AFEFB
:107BC000DBFE33E50FEC27CA27CA27CA27CA27CA14
:107BD00027CA27C248CA69BA91D49DFF9DFF6EBBD0
:107BE0008ABA54E5DEFFFFFFFFFFFFFFFFFFFFFF45
:107BF000FFFFFFFFFFFFFFFFFFFFFFFFFFFFFFFF95
:107C0000FFFFFFFFFFFFFFFFFFFFFFFFFFFFFFFF84
:107C1000FFFFFFFFFFFFFFFFFFFFFFFFFFFFFFFF74
:107C2000FFFFFFFFFFFFFFFFFFFFFFFFFFFFFFFF64
:107C3000FFFFFFFFFFFFFFFFFFFFFFFFFFFFFFFF54
:107C4000FFFFFFFFFFFFFFFFFFFFFFFFFFFFFFFF44
:107C5000FFFFFFFFFFFFFFFFFFFFFFFFFFFFFFFF34
:107C6000FFFFFFFFFFFFFFFFFFFFFFFFFFFFFFFF24
:107C7000FFFFFFFFFFFFFFFFFFFFFFFFFFFFFFFF14
:107C8000FFFFFFFFFFFFFFFFFFFFFFFFFFFFFFFF04
:107C9000FFFFFFFFFFFFFFFFFFFFFFFFFFFFFFFFF4
:107CA000FFFFFFFFFFFFFFFFFFFFFFFFFFFFFFFFE4
:107CB000FFFFFFFFFFFFFFFFFFFFFFFFFFFFFFFFD4
:107CC000FFFFFFFFFFFFFFFFFFFFFFFFFFFFFFFFC4
:107CD000FFFFFFFFFFFFFFFFFFFFFFFFFFFFFFFFB4
:107CE000FFFFFFFFFFFFFFFFFFFFFFFFFFFFFFFFA4
:107CF000FFFFFFFFFFFFFFFFFFFFFFFFFFFFFFFF94
:107D0000FFFFFFFFFFFFFFFFFFFFFFFFFFFFFFFF83
:107D1000FFFFFFFFFFFFFFFFFFFFFFFFFFFFFFFF73
:107D2000FFFFFFFFFFFFFFFFFFFFFFFFFFFFFFFF63
:107D3000FFFFFFFFFFFFFFFFFFFFFFFFFFFFFFFF53
:107D4000FEFF16EE68B26DBB7DFFBDFFCEC348BA25
:107D500027CA47C227CA27CA27CA27CA27CA27CA83
:107D600027CA27CA27CA27CA47CA28BA33EDADBBD4
:107D700078EE33DD2FDCA8BA27CA27CA27CA27CA5C
:107D800027CA27CA27CA27CA27CA27CA68BAA9B2D0
:107D9000D2DC57F6B6ED71CCAAB231EC69B26ABA50
:107DA00049C268C227CA26CA27CA27CA27CA27CAF9
:107DB00027CA27CA26CA06CA47C289B258FEBEFFCA
:107DC00096ED6ABA4CB37DFFFFFFFFFFFFFFFFFF99
:107DD000FFFFFFFFFFFFFFFFFFFFFFFFFFFFFFFFB3
:107DE000FFFFFFFFFFFFFFFFFFFFFFFFFFFFFFFFA3
:107DF000FFFFFFFFFFFFFFFFFFFFFFFFFFFFFFFF93
:107E0000FFFFFFFFFFFFFFFFFFFFFFFFFFFFFFFF82
:107E1000FFFFFFFFFFFFFFFFFFFFFFFFFFFFFFFF72
:107E2000FFFFFFFFFFFFFFFFFFFFFFFFFFFFFFFF62
:107E3000FFFFFFFFFFFFFFFFFFFFFFFFFFFFFFFF52
:107E4000FFFFFFFFFFFFFFFFFFFFFFFFFFFFFFFF42
:107E5000FFFFFFFFFFFFFFFFFFFFFFFFFFFFFFFF32
:107E6000FFFFFFFFFFFFFFFFFFFFFFFFFFFFFFFF22
:107E7000FFFFFFFFFFFFFFFFFFFFFFFFFFFFFFFF12
:107E8000FFFFFFFFFFFFFFFFFFFFFFFFFFFFFFFF02
:107E9000FFFFFFFFFFFFFFFFFFFFFFFFFFFFFFFFF2
:107EA000FFFFFFFFFFFFFFFFFFFFFFFFFFFFFFFFE2
:107EB000FFFFFFFFFFFFFFFFFFFFFFFFFFFFFFFFD2
:107EC000FFFFFFFFFFFFFFFFFFFFFFFFFFFFFFFFC2
:107ED000FFFFFFFFFFFFFFFFFFFFFFFFFFFFFFFFB2
:107EE000FFFFFFFFFFFFFFFFFFFFFFFFFFFFFFFFA2
:107EF000FFFFFFFFFFFFFFFFFFFFFFFFFFFFFFFF92
:107F0000FFFFFFFFFFFFFFFFFFFFFFFFFFFFFFFF81
:107F1000FFFFFFFFFFFFFFFFFFFFFFFFFFFFBEFFB2
