:020000040800F2
:10000000406E012019050008ED020008EF0200080B
:10001000F3020008F7020008FB02000800000000DD
:10002000000000000000000000000000FF020008C7
:100030000103000800000000030300080503000896
:1000400033050008330500083305000833050008B0
:1000500033050008330500083305000833050008A0
:100060003305000833050008330500083305000890
:100070003305000833050008330500083305000880
:100080003305000833050008330500083305000870
:100090003305000833050008330500083305000860
:1000A0003305000833050008330500083305000850
:1000B0003305000833050008330500083305000840
:1000C0003305000833050008330500083305000830
:1000D000330500087B3A00083305000833050008A3
:1000E0003305000833050008330500083305000810
:1000F0003305000833050008330500083305000800
:1001000033050008D537000833050008330500081B
:1001100033050008330500083305000833050008DF
:1001200033050008330500083305000833050008CF
:1001300033050008330500083305000833050008BF
:1001400033050008330500083305000833050008AF
:10015000330500083305000833050008330500089F
:10016000330500083305000833050008330500088F
:10017000330500083305000833050008330500087F
:10018000330500083305000800F002F800F03CF8E1
:100190000AA090E8000C82448344AAF10107DA45E2
:1001A00001D100F031F8AFF2090EBAE80F0013F0F8
:1001B000010F18BFFB1A43F001031847CCC600001B
:1001C000ECC60000103A24BF78C878C1FAD85207AC
:1001D00024BF30C830C144BF04680C6070470000C1
:1001E0000023002400250026103A28BF78C1FBD840
:1001F000520728BF30C148BF0B6070471FB50AF0D7
:10020000BAFA1FBD10B510BD0AF07CFA1146FFF70F
:10021000F5FF00F011F80AF09AFA03B4FFF7F2FFC5
:1002200003BC0AF0A1FA000030BF72B6704762B694
:10023000704780F3088870474FF4A06007F0F8FB20
:1002400009F0FFFB01F0FCF800F05AFD00F084F922
:1002500001F0E8F94FF4165003F0A2FB03F060FE42
:10026000002001F0F0FB4FF40C71002001F0A6FC1F
:100270000446012214A1204605F009FD01E009F021
:1002800052FD09F058FF0028F9D14FF478400F498A
:10029000088017E0002000F075F90DA31022FA2164
:1002A00064200AF060F80DA310224FF491716420CD
:1002B0000AF059F80C48008849F24131884201D1CE
:1002C00003F07BFEE6E70000303A00001A00002051
:1002D000B5E3C1C14C45443300000000CFA8C3F0D2
:1002E0004C454433000000001E000020704700BF52
:1002F000FEE700BFFEE700BFFEE700BFFEE7704776
:1003000070477047704700000CB5002001900090C6
:100310007648006840F480307449086000BF734834
:10032000006800F4003000900198401C0190009893
:1003300018B90198B0F5A04FF1D16C48006800F4ED
:10034000003010B10120009001E0002000900098E2
:10035000012846D165484030006840F0805063492C
:10036000403108606248006840F4404060490860DD
:100370005E48083000685D4908310860084600683A
:1003800040F4004008600846006840F4A05008604F
:100390005848091F0860081F006840F08070091F56
:1003A000086000BF5148006800F000700028F9D0D4
:1003B00040F20570504908604C480830006820F051
:1003C00003004A49083108600846006840F002000E
:1003D000086000BF45480830006800F00C0008289D
:1003E000F8D10CBD10B54548006840F47000434991
:1003F00008603E48006840F001003C490860002069
:100400003A4908310860394800683D490840374991
:1004100008603C48091D0860081F006820F480201F
:10042000091F0860002031490C310860FFF76CFF9C
:100430004FF0006031498039086010BD70B5002070
:100440000022022300240221284D08352D6805F0E2
:100450000C0020B1042806D0082834D107E02A4D2A
:100460002A4E356033E02A4D284E35602FE01F4D6F
:100470002D1D2D68C5F380541C4D2D1D2D6805F0D4
:100480003F0154B1224DB5FBF1F5184E361D3668CB
:10049000C6F3881605FB06F209E01B4DB5FBF1F526
:1004A000124E361D3668C6F3881605FB06F20F4D50
:1004B0002D1D2D68C5F301456D1C6B00B2FBF3F5D6
:1004C000124E356003E0104D104E356000BF00BF86
:1004D000064D08352D68C5F303150E4E705D0B4DA6
:1004E0002D68C540094E356070BD000000380240DF
:1004F0000070004008544007003C024088ED00E0D6
:10050000FFFFF6FE103000240024F400000000205D
:1005100000127A000400002009488047094800477B
:10052000FEE7FEE7FEE7FEE7FEE7FEE7FEE7FEE7A3
:10053000FEE7FEE704480549054A064B7047000000
:10054000E50300088901000840680120406E012091
:10055000406A0120406A01201CB50121202008F0DA
:10056000DFF84FF47070009000208DF80400032035
:100570008DF8050001208DF807006946314807F025
:1005800031FE1CBD0021304A11703049096861B14B
:100590002E49091F096841B12C490839096821B160
:1005A0002A490C39096800293CD12849096819B938
:1005B0000121274A117016E02449091F096819B959
:1005C0000221234A11700EE020490839096819B93F
:1005D00003211F4A117006E01C490C39096811B942
:1005E00004211B4A11701A4909781A4A127891425B
:1005F00010D119490988491C174A118014490978F2
:10060000164A1170E8B914490988012919DD002139
:10061000117016E00021104A11800D4909780D4A29
:1006200011700EE00C490988022903DD0849097898
:10063000054A11700021074A1170074A1180074AC4
:1006400011707047001402401500002024824242BD
:1006500018000020190000201600002014000020BF
:10066000F64A1080921C1180704710B50446F3487A
:100670000480042009F0FAF9F048801C008810BDBD
:1006800000BF011EA0F10102D0B2FAD17047EC48C0
:100690000088EA49088070472920E84908807047A7
:1006A0002820E6490880704730B58418641EA2B23D
:1006B000CC18641EA3B2E34C24786CBBE24C2488B3
:1006C00041F66315AC4227D1E04C2488A41A241AC1
:1006D000A0B2CC18641EA3B2DD4C2488D74D2C8068
:1006E0000412AD1C2C80C4B22C808418641EC4F388
:1006F0000F242C808418641EE4B22C80D54C2488EE
:10070000AD1E2C800C12AD1C2C80CCB22C801C1287
:100710002C80DCB22C8019E0CD4C2488C74D2C8075
:100720000412AD1C2C80C4B22C8014122C80D4B2C4
:100730002C80C84C2488AD1E2C800C12AD1C2C8043
:10074000CCB22C801C122C80DCB22C8030BD70B559
:10075000054600240026BB480078012805D1BA4888
:10076000008849F24131884208D0B6480078F0B993
:10077000B548008841F66311884218D1082D15D27A
:10078000DFE805F00406080A0C0E101206250DE03D
:1007900007250BE0042509E0052507E0012505E014
:1007A000002503E0032501E0022500BF00BF082D5E
:1007B0001CD2DFE805F00406090C0F12151800BF63
:1007C00014E044F0800411E044F040040EE044F0F2
:1007D000C0040BE044F0200408E044F0600405E0AD
:1007E00044F0A00402E044F0E00400BF00BF36265D
:1007F0009548008849F24131884201D144F008040B
:1008000021463046FFF72CFF934803888F48028823
:1008100000210846FFF748FF70BD10B504468CBBA9
:100820000020884908708848008849F24131884290
:1008300010D12C20824908802A20854908802B204D
:1008400084490880F020814908804FF4A0708249D3
:10085000088049E07C48008841F66311884243D112
:100860002C20774908802B20794908802A20794953
:1008700008804FF4F070754908804FF4487076494D
:10088000088031E0FFE701206E4908706E4800885B
:1008900049F24131884210D12C20694908802A2030
:1008A0006B4908802B206B4908804FF4A070674982
:1008B0000880F0206849088016E06348008841F607
:1008C0006311884210D12C205D4908802A2060499C
:1008D00008802B205F4908804FF448705B490880EE
:1008E0004FF4F0705C4908800020FFF730FF10BD26
:1008F000554A128849F241339A4212D1544A128819
:100900004E4B1A8002129B1C1A80C2B21A80514AA6
:1009100012889B1E1A800A129B1C1A80CAB21A8067
:1009200042E0494A128841F663139A423CD1454A53
:1009300012788AB9454A1288521E121A90B2444A55
:1009400012883E4B1A8000229B1C1A801A800212C9
:100950001A80C2B21A8013E03D4A1288374B1A80BF
:1009600002129B1C1A80C2B21A80384A1288521E88
:10097000C2F30F221A80354A1278521ED2B21A8060
:10098000344A12882D4B1A800A129B1C1A80CAB254
:100990001A80314A1288521EC2F30F221A802E4A40
:1009A0001278521ED2B21A8070473EB504460D46E8
:1009B000002002900190009029462046FFF798FF02
:1009C0002E201E490880881C008802901E4800883E
:1009D00041F66311884202D1BDF808003EBD0220F5
:1009E000FFF74EFE1548801C00880090BDF80800F7
:1009F000C0B20190BDF804004FF6FF7101EA00207B
:100A00000190BDF80800C012C002BDF804108912A0
:100A100040EA4110BDF8001040EAE120DEE730B5C1
:100A200004460D4629462046FFF762FFFFF72FFEDA
:100A30000A4800880149891C088030BDFE1F006CEF
:100A400026000020200000201E00002022000020A0
:100A5000280000202A000020240000201A00002086
:100A600070B505460E46144631462846FFF7D7FFB7
:100A7000FE480088FE490880881C048070BDBE21A5
:100A8000FB4A11800521921C11801146088001212A
:100A90001180FF211180002111801180704770B5F5
:100AA000044600250026F3480088F349098800FB26
:100AB00001F600210846FFF71BFFFFF7E8FD00BF26
:100AC00003E0EB48801C04806D1CB542F9D370BD77
:100AD00000B59FB00121782007F022FE01210846D1
:100AE00007F056FE4FF480601D9001208DF87800CD
:100AF00000208DF87A0002208DF8790001208DF811
:100B00007B001DA9DD4807F06DFB4CF233701D9092
:100B100002208DF8780000208DF87A0003208DF8EF
:100B2000790001208DF87B001DA9D54807F05AFBFC
:100B30004FF680701D9002208DF8780000208DF80F
:100B40007A0003208DF8790001208DF87B001DA923
:100B5000CC4807F047FB04201D9002208DF8780058
:100B600000208DF87A0003208DF8790001208DF89F
:100B70007B001DA9C44807F035FB4FF480501D9041
:100B800002208DF8780000208DF87A0003208DF87F
:100B9000790001208DF87B001DA9BB4807F022FBDE
:100BA0000C220021B64807F0A8FB0C220121B44812
:100BB00007F0A3FB0C220421B14807F09EFB0C2296
:100BC0000521AF4807F099FB0C220821AC4807F03B
:100BD00094FB0C220921AA4807F08FFB0C220A2162
:100BE000A74807F08AFB0C220E21A54807F085FBD9
:100BF0000C220F21A24807F080FB0C220721A148FC
:100C000007F07BFB0C2208219E4807F076FB0C22A4
:100C100009219C4807F071FB0C220A21994807F032
:100C20006CFB0C220B21974807F067FB0C22114646
:100C3000944807F062FB0C220D21924807F05DFBFF
:100C40000C220E218F4807F058FB0C220F218D48F3
:100C500007F053FB0C2202218B4807F04EFB0C22BD
:100C60001146894807F049FB0F20079000200890A3
:100C70003C20099000200A900B900C900D900820C9
:100C80000090002001900720029000200390049023
:100C90000590069006200E9000200F9010901020D6
:100CA00011900020129014901390159016904FF40C
:100CB00080501790002018904FF480401990002029
:100CC0001A9007A81B90CDF870D00EA806F03BFF35
:100CD0000121062006F0C2FF322008F00FFF1FB0EE
:100CE00000BDD321624A1180911C088808880888B9
:100CF0004FF6FF7101EA0020911C098808437047F4
:100D000010B5FFF7E5FEFFF7ECFF604908800846E5
:100D1000008849F24131884223D0A12054490880FB
:100D2000881C0088594908805148801C0088088028
:100D3000084600884FF6FF7101EA002053490880F9
:100D40004B48801C008809880843504908800846A1
:100D5000008845F26171884203D141F663104B4926
:100D600008804A48008849F2413188421CD14848ED
:100D7000006820F00F004FF02041C1F81C01084628
:100D8000D0F81C0120F47060C1F81C010846D0F8AE
:100D90001C0140F00300C1F81C010846D0F81C01FA
:100DA00040F40070C1F81C013848008849F2413114
:100DB00088426FD1CF202E4908800020891C0880EE
:100DC000C120088030200880ED20891E0880642022
:100DD000891C088003200880122008808120088058
:100DE000E820891E08808520891C08801020088042
:100DF0007A200880CB20891E08803920891C088031
:100E00002C200880002008803420088002200880E0
:100E1000F720891E08802020891C0880EA20891E6E
:100E200008800020891C08800880C020891E088056
:100E30001B20891C0880C120891E08800120891C74
:100E40000880C520891E08803020891C0880088001
:100E5000C720891E0880B720891C08803620891E7B
:100E600008804820891C08803A2014E026000020D1
:100E7000FE1F006C2200002024000020001402400D
:100E8000000C024000100240001802401E0000202A
:100E90001C0100A082E0891E08805520891C088062
:100EA000B120891E08800020891C08801A20088033
:100EB000B620891E08800A20891C0880A22008808C
:100EC000F220891E08800020891C08802620891EA7
:100ED00008800120891C0880E020891E08800F20DE
:100EE000891C08802A200880282008800820088083
:100EF0000E2008800820088054200880A92008803F
:100F0000432008800A2008800F20088000200880E5
:100F1000088008800880E120891E08800020891C44
:100F200008801520088017200880072008801120DD
:100F30000880062008802B200880562008803C204E
:100F4000088005200880102008800F2008803F209E
:100F5000088008800F2008802B20891E0880002030
:100F6000891C08800880012008803F2008802A20F2
:100F7000891E08800020891C088008800880EF20D6
:100F800008801120891E0880782008F0B7FD2920EC
:100F9000FA4908800120FA49086098E0F948008879
:100FA00041F663118842F8D1E220F44908801D20FF
:100FB000891C08800220088004200880642008F032
:100FC00055FDE020ED4908800120891C08800A2099
:100FD00008F094FDE020E94908800320891C08807E
:100FE0000C2008F08BFD0120E44908800A2008F05D
:100FF00085FDE620E14908802F20891C0880FF201C
:1010000008800880B020891E08802020891C088064
:10101000002008800320088040F21F300880012053
:10102000088040F2DF10088000200880B420891E6C
:1010300008800420891C088040F21F40088000209E
:1010400008802E2008800020088008800880088002
:10105000B620891E08800220891C08804FF4037086
:1010600008800020088017200880152008800020B4
:1010700008800880F020891E08800320891C0880D1
:101080002920891E0880D02008800020891C088023
:10109000BE20891E08800520891C0880FE2008804B
:1010A000012008800020088008800880B820891E60
:1010B00008800320891C088001200880BA20891E2E
:1010C00008800120891C0880FF20FFF7D8FC002041
:1010D000FFF7A3FB4FF6FF70FFF7E1FC10BD2DE912
:1010E000F04F05460E4617469846DDF824A04FF00F
:1010F000000B781B401C1FFA80FB344614E021468D
:101100002846FFF7F5FBFFF7C2FA4FF0000907E0AA
:101110009A48801CA0F800A009F101001FFA80F98C
:10112000D945F5DB601C84B24445E8DDBDE8F08FAD
:101130002DE9F84F07460D4690469946DDF828B050
:10114000A8EB0700401C80B20090A9EB0500401CF2
:101150001FFA80FA002416E0281981B23846FFF7FA
:10116000C7FBFFF794FA002608E004FB0A603BF88F
:1011700010008249891C0880701C86B20098864243
:10118000F3DB601C84B25445E6DBBDE8F88F2DE943
:10119000FF4F074616461C46BB460C2C01D198460D
:1011A0000AE0102C01D1A04606E0182C02D14FF025
:1011B000300801E0BDE8FF8FA6F12000C6B200258F
:1011C00048E00C2C07D106EB46006F4901EB80008C
:1011D00010F8059010E0102C05D16C4800EB0610BB
:1011E00010F8059008E0182C06D106EB4600684977
:1011F00001EB001010F805904FF0000A24E009F010
:10120000010030B16348028838460199FFF728FC95
:1012100005E06148028838460199FFF721FC4FEA52
:101220006909781C87B2A7EB0B0104EBD472B1EB10
:10123000620F05D15F460198401C80B2019006E024
:101240000AF1010000F0FF0ABAF1080FD7DB00BF76
:10125000681CC5B24545B4DB00BFABE7F0B5064638
:101260000F4615461C4611E022782B46394630467B
:10127000FFF78DFF284605EBD07106EB61018EB2BA
:1012800046480088864200DB06E0641C207820285F
:1012900002DB20787E28E7DD00BFF0BD2DE9F04FAE
:1012A00004460D4616461F46DDE909893948B0F85F
:1012B00000A03948B0F800B03648A0F800803648A1
:1012C000A0F800903B46324629462046FFF7C6FF6D
:1012D0003048A0F800A03048A0F800B0BDE8F08F7A
:1012E00010B50246012000E050430B1EA1F101049D
:1012F000E1B2F9D110BD2DE9FF4F81B0074690460C
:101300001E460E9CC3464FF0000906E00A20BBFBB8
:10131000F0FB09F1010000F0FF09BBF1000FF5D16E
:10132000B14508DD1EA3224638460299FFF796FF15
:1013300005B0BDE8F08F002553E0A6EB0900A842F8
:1013400032DD0F9860B104EBD471491001FB0571D7
:1013500088B22346302200940299FFF718FF3EE03E
:1013600004EBD471491001FB057188B22346202299
:1013700000940299FFF70BFF31E00000FE1F006CA4
:10138000A88242421E00002080A70008F4AB00089B
:10139000E4B100081A0000201C00002022000020F8
:1013A0004552524F52000000701B401EC1B20A202D
:1013B000FFF796FFB8FBF0F00A21B0FBF1F201FB5A
:1013C000120A04EBD471491001FB057188B20AF1CD
:1013D0003001CAB2234600940299FFF7D8FE681C78
:1013E000C5B2B542A9DB00BFA2E72DE9FF4F82B02D
:1013F00004460D461646DDE91189109F0E48B0F8E7
:1014000000A00E48B0F800B00B48A0F800800B48D0
:10141000A0F800900F98CDE90007324629462046F3
:10142000059BFFF768FF0448A0F800A00348A0F858
:1014300000B006B0BDE8F08F1A0000201C000020AC
:101440001CB50121512007F06BF9182000900120F4
:101450008DF8040000208DF8060003208DF80500AB
:1014600001208DF8070069460E4806F0BBFE1821E2
:101470000C4806F033FF4FF40070009069460A48AC
:1014800006F0B0FE4FF40071074806F027FF022077
:1014900000906946054806F0A5FE0221034806F0C3
:1014A0001DFF1CBD00100240001802400000024059
:1014B00070B50546002400BF0221484807F056FFDA
:1014C0000028F9D0601CC4B2C82C01DD002070BD1A
:1014D0002946424807F001FF00BF01213F4807F0BD
:1014E00045FF0028F9D0601CC4B2C82C01DD0020E3
:1014F000EDE73A4807F0EEFEC0B2E8E700B587B086
:101500000121022007F00CF90121080307F062F91C
:101510003820059002208DF8180000208DF81A0060
:1015200003208DF8190001208DF81B0005A92C4817
:1015300006F058FE05220321294806F0DEFE0522AA
:101540000421274806F0D9FE05221146244806F05A
:10155000D4FE0121080307F092F900214FF48050D6
:1015600007F08DF90020ADF800004FF48270ADF85F
:1015700002000020ADF804000220ADF806000120B2
:10158000ADF808004002ADF80A003820ADF80C00B4
:101590000020ADF80E000720ADF8100069460F4896
:1015A00007F020FD01210D4807F016FEFF20FFF790
:1015B0007FFF07B000BD10B50446084800884FF60D
:1015C000C771084005490880084600882043088004
:1015D0000121024807F000FE10BD0000003001406C
:1015E0000004024010B500240020F8490860902053
:1015F000FFF75EFF0020FFF75BFF0020FFF758FFBB
:101600000020FFF755FFFF20FFF752FF44EA0024B8
:10161000FF20FFF74DFF04430120ED49C1F8A00270
:10162000204610BD1CB50121402007F079F84FF489
:101630008070009001208DF8040000208DF80600D5
:1016400003208DF8050001208DF807006946E14868
:1016500006F0C8FD0120DD490860FFF74FFF0020BC
:10166000FFF7A9FFFFF7BEFFDB4908801CBD10B5DF
:1016700000240020D54908600520FFF719FFFF204E
:10168000FFF716FF04460120D149C1F8A002204609
:1016900010BD10B504460020CC4908600120FFF7BA
:1016A00007FF2046FFF704FF0120C949C1F8A00247
:1016B00010BD10B50020C54908600620FFF7F8FEF0
:1016C0000120C349C1F8A00210BD10B500BFFFF74B
:1016D000CEFF00F001000028F9D110BD10B50020A8
:1016E000BA4908600420FFF7E3FE0120B849C1F8B9
:1016F000A00210BD10B5FFF7DCFFFFF7E6FF0020EA
:10170000B2490860C720FFF7D3FE0120B049C1F8F5
:10171000A002FFF7DAFF10BD10B504462403FFF75F
:10172000C8FFFFF7D2FF0020A84908602020FFF77C
:10173000BFFEC4F30740FFF7BBFEC4F30720FFF76B
:10174000B7FEE0B2FFF7B4FE0120A149C1F8A00244
:10175000FFF7BBFF10BD10B500209C490860B92001
:10176000FFF7A6FE01209A49C1F8A002032008F065
:101770007DF910BD10B5002094490860AB20FFF73B
:1017800097FE01209249C1F8A002032008F06EF9EB
:1017900010BD70B505460C46164600208B49086002
:1017A0000320FFF785FEC4F30740FFF781FEC4F373
:1017B0000720FFF77DFEE0B2FFF77AFE04E0FF208E
:1017C000FFF776FE28706D1C301EA6F101018EB267
:1017D000F5D101207D49086070BD70B505460C4605
:1017E0001646FFF766FF0020784908600220FFF7E1
:1017F0005FFEC4F30740FFF75BFEC4F30720FFF76B
:1018000057FEE0B2FFF754FE03E02878FFF750FEE2
:101810006D1C301EA6F101018EB2F6D101206B497C
:101820000860FFF752FF70BD2DE9F05F07460E46D6
:1018300014464FF00008C146C2460025AB4606F0EC
:10184000FF0ACAF10000C5B22046E11704EB11619E
:10185000C1F30728E11704EB11610912A4EB012180
:1018600001F0FF09BAF1000F20D1B8F1000F05D146
:10187000224631463846FFF7B0FF64E009E04FF4F6
:10188000807231463846FFF7A8FF06F5807607F5E7
:101890008077B8F10000A8F1010101F0FF08EED156
:1018A0004A4631463846FFF798FF4CE0B8F1000F42
:1018B00018D1A94510DDA9EB050000F0FF0B2A4661
:1018C00031463846FFF789FF2E442F445A463146A9
:1018D0003846FFF782FF36E0224631463846FFF7AA
:1018E0007CFF30E0601B84B22046E11704EB1161FD
:1018F000C1F30728E11704EB11610912A4EB0121E0
:1019000001F0FF092A4631463846FFF766FF2E44AC
:101910002F4409E04FF4807231463846FFF75DFFEF
:1019200006F5807607F58077B8F10000A8F101018F
:1019300001F0FF08EED1B9F1000F04D04A4631465C
:101940003846FFF74AFFBDE8F09F2DE9F05F81467A
:101950000F4616460025DFF884B04FEA1738C7F364
:101960000B0ACAF58054A64200DC34464FE04FEA29
:1019700008314FF480525846FFF70BFF002504E072
:10198000681C85B2A54200D105E00AEB05001BF8F2
:101990000000FF28F4D000BFA54221DA4046FFF73F
:1019A000BBFE002507E019F8050005EB0A010BF85E
:1019B0000100681C85B2A542F5DB4FEA08314FF4FF
:1019C00080525846FFF730FF0FE00000A00243426C
:1019D00000004342001802402C0000209800002024
:1019E000224639464846FFF71FFFA64200D10FE0C6
:1019F00008F101084FF0000AA1442744301B86B2C9
:101A0000B6F5805F02DD4FF4805400E03446AEE767
:101A100000BFBDE8F09F000070B503460C4603E030
:101A200014F8015B03F8015B151EA2F10102F7D166
:101A300070BD30B5034601E003F8011B141EA2F18E
:101A40000102F9D130BD10B50446744951F8241093
:101A50004A00734951F824000021FFF7EAFF714959
:101A600051F82420704951F824000021FFF7E1FFCC
:101A700001206E49085510BD10B501460023002213
:101A800007E0674850F8210030F8120000B15B1CF5
:101A9000521C624850F821009042F2D8642058430A
:101AA0005E4C54F82140B0FBF4F0C0B210BD2DE9FB
:101AB000F04304460F460025A9465C48005D10B976
:101AC0002046FFF7C0FF1FB94FF0FF30BDE8F0839D
:101AD000574850F82400B7FBF0F086B2544850F84D
:101AE0002400B7FBF0F100FB117008B1701C86B246
:101AF0004A4850F82400451E22E0494850F8240086
:101B000030F8150020B909F101001FFA80F901E051
:101B10004FF00009B14512D14FF0000808E04048ED
:101B200050F8240005EB080120F8116008F10108C5
:101B3000B045F4D33E4850F824006843C6E76D1E14
:101B4000002DDADA4FF0FF30C0E7F0B504460E465C
:101B50003648005D20B92046FFF775FF0120F0BD33
:101B6000304850F82400B04217D9314850F82400CA
:101B7000B6FBF0F12A4850F8240030F81120002577
:101B800007E00020264B53F824304F1923F81700A4
:101B90006D1C9542F5DB0020E1E70220DFE770B520
:101BA00005460C4604B970BD1F4850F82500261A9A
:101BB00031462846FFF7C9FF00BFF4E770B5044679
:101BC0000E4631462046FFF772FF0546681C08B9ED
:101BD000002070BD144850F824002844F9E7F0B5FF
:101BE00004460F46164631462046FFF760FF05467D
:101BF000681C08B90020F0BD0B4951F824104819A1
:101C000032463946FFF708FF39462046FFF7C7FF3F
:101C1000054850F824002844EDE70000B4C300084C
:101C200038000020C4C3000830000020400000201D
:101C3000BCC300080020FE490860091D0860091D9A
:101C40000860091D0860FA4924310860091D086010
:101C5000091D0860F748F649383108600020091D61
:101C60000860704701460020012900D011B9F24BED
:101C7000197000E0262070470146ED4A121D1068D9
:101C800020F0FF0008431060704770B5044606E07E
:101C9000E7483430056805F0450000B100E0F7E79B
:101CA00000BF042006F058FF20B1042006F05FFFBB
:101CB000032070BD012006F04FFF20B1012006F087
:101CC00056FF0120F5E7DA4810300068A04201D045
:101CD0001020EEE740F2FF5006F049FFD4481430E0
:101CE000006808210840C0B2E3E72DE9FC4107463F
:101CF0000D46002600240020009001900820CF49C6
:101D0000086010204860402088600020C8604FF4C0
:101D100080600861084606F08CFE1020FFF7B5FFD2
:101D2000044614B12046BDE8FC81C5480088000483
:101D3000C249086037204860402088600020C860A1
:101D40004FF480600861084606F073FE3720FFF705
:101D50009CFF04460CB12046E5E74FF0FF30B9493F
:101D6000086008204860302088600220C860002099
:101D7000086101204861084606F087FE0020AF494F
:101D8000086033204860402088600020C8604FF41D
:101D900080600861084606F04CFE3320FFF775FFAF
:101DA00004460CB12046BEE70DE04FF4001006F0EB
:101DB000D3FE40B19E48803000684DF82600761C66
:101DC000022E00D307E09A483430006840F22A61BE
:101DD00008400028E9D000BF082006F0BDFE20B171
:101DE000082006F0C4FE04209DE7022006F0B4FEA1
:101DF00020B1022006F0BBFE022094E7202006F06E
:101E0000ABFE20B1202006F0B2FE06208BE74FF497
:101E1000007006F0A1FE28B14FF4007006F0A7FE96
:101E2000072080E740F2FF5006F0A1FE0098000670
:101E3000009901F47F4140EA0120009901F47F01FB
:101E400040EA1120009940EA11606860019800069C
:101E5000019901F47F4140EA0120019901F47F01D9
:101E600040EA1120019940EA1160286020465AE7B3
:101E70007CB50546002400200090019000260DB19D
:101E8000022600E000266A481430006800F0007066
:101E900008B10E207CBD6A49098888B26946FFF7FF
:101EA00024FF04460CB12046F4E7019800F480209A
:101EB00060B36348008800046049086037204860C8
:101EC000402088600020C8604FF4806008610846A8
:101ED00006F0AFFD3720FFF7D8FE04460CB12046D0
:101EE000D8E756480660062054494860402088607C
:101EF0000020C8604FF480600861084606F099FD34
:101F00000620FFF7C2FE04462046C3E72520C1E7AE
:101F100070B5044600254C480078032802D12725D7
:101F2000284670BD4848007838B1474800780128F5
:101F300003D045480078022819D1B4F5805F02D15A
:101F400027252846EDE7E0B2FFF792FF054675B971
:101F50003748001D006820F4C0503549091D08604D
:101F60000846006820430860084600680860284664
:101F7000D7E710B504463148046007202F49486070
:101F8000402088600020C8604FF4806008610846E7
:101F900006F04FFD0720FFF778FE10BDF0B50146B3
:101FA00000200022284B1B7881F85630244B1B88D8
:101FB000A1F85430254B1B681A0E93090B70C2F31D
:101FC00083034B7002F003038B70204B1B68C3F339
:101FD0000742CA701D4B1B88C3F307220A711B4BB3
:101FE0001A784A715B681A0E1301CB80174B5B6835
:101FF000C3F30742CB8843EA1213CB8002F00F03EE
:102000000B72124B9B88C3F30722D3094B72C2F3A6
:1020100080138B72C2F34013CB72C2F300130B73A5
:1020200000234B73084B1B78C3B1074B1B780FE0A1
:10203000002C0140FF07C0004C000020B0640120CC
:1020400048000020C464012044000020DC6401201A
:10205000012B03D0FE4B1B78032B4FD193071B0D95
:102060000B61FC4B1A790B6943EA82030B61F94B54
:102070009B681A0E0B6943EA92130B61C2F3C20309
:102080000B7502F007034B75F24B9B68C3F30742D5
:1020900053098B75C2F38203CB7593075B0F0B76E5
:1020A000EC4B1B89C3F307220B7E43EAD2130B765A
:1020B0000B695B1C0024C1E912340B7E9B1C0124BC
:1020C00004FA03F3DC17D1E91256A5FB037C06FBE7
:1020D00003C305FB0433C1E912730C7A0123A34047
:1020E0000B650024D1E912650B6DA6FB037C05FB93
:1020F00003C306FB0433C1E912732EE0D44B1B78F3
:10210000022B2AD1D34B1A7993069B0A0B61D14B30
:102110009B681A0E0B6943EA02230B61CD4B9B6847
:10212000C3F307420B6913430B61CA4B1B89C3F30B
:1021300007220B695B1C4FF40074A3FB04464FF4A9
:1021400080630025A4FB037C06FB03C304FB05336B
:10215000C1E912734FF400730B65C2F3801301F8E9
:10216000193F93065B0E4B70BA4B1A7A4B7843EAD1
:10217000D2134B7002F07F038B70B64BDB681A0EE4
:10218000D309CB70C2F341130B71C2F382034B71BD
:1021900093071B0F8B71AF4BDB68C3F307428B793F
:1021A00043EA92138B71C2F34013CB7100230B727D
:1021B00002F001034B72A74B9B89C3F30722D3099B
:1021C0008B72C2F38013CB72C2F340130B73C2F352
:1021D00000134B73C2F381038B7302F00303CB73C1
:1021E0009C4B1A7B53080B7401234B749A4B1B684E
:1021F0001A0ECA741939984B1B68C3F307421402AC
:10220000CC85954B1B88C3F30722CB8D1343CB851D
:10221000914B1A7814060C635B681A0E0B6B43EA39
:1022200002440C638C4B5B68C3F307420B6B43EABD
:1022300002240C63884B9B88C3F307220B6B134368
:102240000B63854B1A7934235A54834B9B681A0EBF
:1022500035235A54804B9B68C3F3074214068C63A2
:102260007D4B1B89C3F307228B6B43EA02448C63CB
:10227000794B1A7A8B6B43EA02248C63764BDB68CA
:102280001A0E8B6B13438B63734BDB68C3F30742EC
:102290003C235B5C43EA12143C235C5413071C0D83
:1022A000CC876D4B9B89C3F30722CB8F1343CB871E
:1022B000694B1A7B540840235C54012441235C542D
:1022C000F0BD70B500264FF4803505E06348046822
:1022D00004F0450000B103E0281EA5F10105F5D189
:1022E00000BF15B104F0040028B10326042006F055
:1022F0003EFC304670BD012006F02EFC18B10126D0
:10230000012006F034FC40F2FF5006F030FC30466D
:10231000F0E72DE9F04105460E464FF0000805E0D4
:102320004E48076807F0450000B100E0F8E700BF3D
:10233000042006F011FC28B1042006F018FC03204C
:10234000BDE8F081012006F007FC20B1012006F075
:102350000EFC0120F4E7414824380068A84201D06F
:102360001020EDE740F2FF5006F001FC3B4820381A
:10237000046804F4604018B9200C30804046DFE760
:1023800004F4005008B11320DAE704F4804008B1E7
:102390001020D5E704F4004008B10F20D0E74046F4
:1023A000CEE738B500240120009006F03CFB10B9C0
:1023B0002524204638BD26480078042825D0002052
:1023C0002749086002204860C02088600020C8605B
:1023D0004FF480600861084606F02BFBFFF771FFA1
:1023E00004460CB12046E5E71C48203800681A492D
:1023F00008601A481C380068486018481838006897
:102400008860164814380068C8601148007858B1D0
:102410000F480078012807D00D480078062803D01F
:102420000B480078022821D100200D4908600320C4
:102430004860402088600020C8604FF480600861D8
:10244000084606F0F6FA69460320FFF762FF09E046
:1024500044000020DC640120EC640120342C0140A5
:10246000B064012004460CB12046A3E7FE48007882
:10247000032816D1BDF800000004FC4908600320C1
:102480004860402088600020C8604FF48060086188
:10249000084606F0CEFAFFF714FF04460CB12046BA
:1024A00088E7F148007804282AD0BDF80000F049F8
:1024B0000860BDF800000004EC490860092048608D
:1024C000C02088600020C8604FF480600861084622
:1024D00006F0AFFAFFF7F5FE04460CB1204669E7B7
:1024E000E4480068E4490860E248001D006848606C
:1024F000E048083000688860DE480C300068C8603A
:10250000002057E710B506E0DA482030046804F0F0
:10251000450000B100E0F7E700BF042006F01CFB17
:1025200020B1042006F023FB032010BD40F2FF5031
:1025300006F01DFB0020F8E770B500264FF480354B
:1025400006E0CC482030046804F0450000B103E008
:10255000281EA5F10105F4D100BF15B104F0040057
:1025600028B10326042006F002FB304670BD04F0BB
:10257000400018B10026402006F0F9FA3046F5E791
:1025800070B500254FF4803404E0802006F0E4FAB2
:1025900000B103E0201EA4F10104F6D100BF0CB984
:1025A000032070BD40F2FF5006F0E1FA2846F8E73C
:1025B0002DE9F0470027002400260025A046A1466B
:1025C0007620AE4908750020086048608860C860C1
:1025D0000861084606F003FA032006F020FAA54831
:1025E0001038006840F48070A2491039086000BFBC
:1025F00012E000209D49086048608860C8604FF480
:1026000080600861084606F014FAFFF7B9FF044637
:1026100004B903E0781CC7B24A2FEADB00BF14B14B
:102620002046BDE8F0874FF4D57090490860082037
:102630004860402088600020C8604FF480600861D6
:10264000084606F0F6F9FFF777FF044624B90120A3
:10265000854908704FF08049002084490860372080
:102660004860402088600020C8604FF480600861A6
:10267000084606F0DEF93720FFF707FB0446002C7A
:102680004BD134E000207949086037204860402071
:1026900088600020C8604FF480600861084606F03A
:1026A000C8F93720FFF7F1FA04460CB12046B8E725
:1026B000734849EA00006D490860292048604020BD
:1026C00088600020C8604FF480600861084606F00A
:1026D000B0F9FFF717FF04460CB12046A1E76548A3
:1026E0000668012080EAD67080F001086D1CB8F100
:1026F000000F03D14FF6FF708542C3D34FF6FF7032
:10270000854202D31B2420468BE706F08040061E3C
:1027100032D00220544908702EE01CE05948534939
:10272000086001204860402088600020C8604FF4A5
:1027300080600861084606F07CF9FFF7E3FE044676
:102740000CB120466DE74B480668012080EAD67040
:1027500080F001086D1CB8F1000F03D14FF6FF7037
:102760008542DBD34FF6FF70854202D31B242046FF
:1027700057E703203C490870204652E73EB5002445
:1027800000250121404805F0CBFF0121C80206F0D9
:1027900021F80121C80206F072F84FF4F8500190B8
:1027A00002208DF808008DF8090000208DF80A003D
:1027B00001208DF80B0001A9344805F013FD042019
:1027C000019001A9324805F00DFD0C2208212F4887
:1027D00005F093FD0C2209212C4805F08EFD0C22FA
:1027E0000A212A4805F089FD0C220B21274805F013
:1027F00084FD0C221146254805F07FFD0C220221A4
:10280000234805F07AFD00214FF4006006F037F808
:10281000FFF710FA31208DF8000000208DF801003C
:102820008DF8020001208DF80300684605F005F9D7
:10283000FFF7BEFE044614B9FFF7B3FD04461CB90A
:102840001448FFF7ABFB044634B91249B1F85410F1
:102850000804FFF78EFB044624B94FF40060FFF72D
:1028600057FB0446E4B117E044000020B0640120A7
:1028700048000020142C0140DC64012098640120F1
:10288000000010800080FF800C0040000008024023
:10289000000C024000650120FE480078032812D198
:1028A000FD4890F8560020B1FB4890F856000128EA
:1028B00001D1022500E000252846FFF7DDF90020C0
:1028C000FFF7D0F9044620463EBD10B5002006F0C3
:1028D000A6F8002010BD70B590B004460E4615460F
:1028E00000BFEE4806F087FA0028FAD1EB4806F060
:1028F00059F94FF000600190E94802900394049563
:102900000020059006904FF48060079080000890AA
:102910008000099000200A904FF440300B90042072
:102920000C9003200D904FF400000E9080100F903B
:1029300001A9DA4806F0D8F92021D84806F024FA8F
:102940000121D64806F00AFA10B070BD01460020F9
:1029500002E04910421CD0B20129FAD170472DE99A
:10296000F84F8146174698460A9C4FF0000AD34616
:102970004D464FF0FF36B9F1000F02D12620BDE8D9
:10298000F88F0020C64954390860C24800780228F0
:1029900005D10402780A40EAC8574FEA68280020A7
:1029A000C04988604860401E0860012048610020DE
:1029B000C8600861084606F068F8B9486C380068D5
:1029C00000F0007008B10E20D9E7002C21DDB4F52D
:1029D000006F1EDC601E2040D8B92046FFF7B6FF0E
:1029E0000090B14804601020AF49486040208860E2
:1029F0000020C8604FF480600861084606F019F8AE
:102A00001020FFF742F98246BAF1000F03D050467A
:102A1000B5E72620B3E700980001A2498860084680
:102A200044604FF0FF300860012048610220C86018
:102A300000200861084606F028F89B48076011202E
:102A400099494860402088600020C8604FF4806049
:102A50000861084605F0EDFF1120FFF716F98246E0
:102A6000BAF1000F01D0504689E79048007800285D
:102A70005AD1FDF7DAFB17E04FF4004006F06CF88E
:102A800070B14FF0000B05E08548006845F82B0059
:102A90000BF1010BBBF1080FF6D32035844E03E098
:102AA0000EB904206BE7761E7D484C38006840F272
:102AB0002A6108400028DFD0082006F04DF820B138
:102AC000082006F054F8042059E7022006F044F8E4
:102AD00020B1022006F04BF8022050E7202006F03B
:102AE0003BF820B1202006F042F8062047E74FF4DB
:102AF000007006F031F828B14FF4007006F037F896
:102B000007203CE703E06648006828602D1D4FF46D
:102B1000001006F021F80028F5D1FDF788FB40F2FF
:102B2000FF5006F024F839E060480078012835D1DC
:102B30000020604908706049087060490870584872
:102B40004438006840F22A31084355494439086046
:102B500053485438006840F008005149543908601F
:102B6000002221464846FFF7B6FE00E0761E4B489D
:102B70005838006800F0006038B95048007820B933
:102B80004C48007808B9002EF0D10EB90420F6E6C2
:102B90004848007810B1474890F800A05046EEE64B
:102BA0002DE9FF5F17469846DDE90E464FF0000914
:102BB000CA464FF0FF354249009808600020384966
:102BC0005439086033480078022805D10402780A95
:102BD00040EAC8574FEA68280020324988604860B8
:102BE000401E0860012048610020C8600861084656
:102BF00005F04BFF2A486C38006800F0007018B1EF
:102C00000E2004B0BDE8F09F002C21DDB4F5006F6C
:102C10001EDC601E2040D8B92046FFF797FE834691
:102C2000214804601020204948604020886000202E
:102C3000C8604FF480600861084605F0FAFE102075
:102C4000FFF723F88146B9F1000F03D04846D8E7D3
:102C50002620D6E7012E6ED906FB04F0B0F1007FE6
:102C600001D32620CDE74FEA0B100E49886006FB02
:102C700004F048604FF0FF300860012048610220F6
:102C8000C86000200861084605F0FFFE064807609E
:102C9000122017E044000020006501205864024023
:102CA000802C0140C4640120B06401204C0000204D
:102CB000FFFF7F004E0000204D0000204F0000204D
:102CC00050000020F9494860402088600020C8601A
:102CD0004FF480600861084605F0ABFE1220FEF755
:102CE000D4FF8146B9F1000F01D0484689E7F0488A
:102CF000007800287ED1FDF798FA1EE04FF40040DE
:102D000005F02AFFA0B14FF0000A07E0E94800688B
:102D1000E949096841F82A000AF1010ABAF1080FE5
:102D2000F4D3E54800682030E3490860E34D04E04F
:102D300015B9042065E7AEE06D1EDE484C3800682A
:102D400040F22A3108400028D8D0082005F004FFBE
:102D500020B1082005F00BFF042052E7022005F007
:102D6000FBFE20B1022005F002FF022049E72020EF
:102D700005F0F2FE20B1202005F0F9FE062040E724
:102D80004FF4007005F0E8FE28B14FF4007005F034
:102D9000EEFE072035E709E0C6480068C649096825
:102DA0000860C5480068001DC34908604FF4001062
:102DB00005F0D2FE0028EFD14FF4807005F0CCFE74
:102DC00020B3BF48007838B1BD480078012803D04F
:102DD000BB480078022819D10020B44908600C20B3
:102DE0004860402088600020C8604FF4806008611F
:102DF000084600E011E005F01CFE0C20FEF745FF40
:102E00008146B9F1000F01D04846FAE6FDF70FFA06
:102E100040F2FF5005F0ABFE3DE0A54800780128E8
:102E200039D10020A74908700120A7490870002067
:102E3000A64908709F484438006840F22A31084388
:102E40009C49443908609B485438006840F00800A9
:102E500098495439086006FB04F100220098FFF7F6
:102E60003AFD00E06D1E9A48006800F0006008B965
:102E7000002DF7D10DB90420C3E600BF93480078B8
:102E800018B9904800780028F8D08E48007810B122
:102E90008C4890F800904846B3E61CB504460020E4
:102EA000019000908B4800880004804908600D2044
:102EB0004860402088600020C8604FF4806008614E
:102EC000084605F0B6FD7B484C380068009003E0EA
:102ED00078484C3800680090009800F045000028C1
:102EE000F6D0012005F038FE20B1012005F03FFEAC
:102EF00001201CBD042005F02FFE20B1042005F0A8
:102F000036FE0320F5E76B48703800680D2801D0C5
:102F10001020EEE740F2FF5005F029FE65486C38BE
:102F2000006801900198C0F3432020700020E0E782
:102F30002DE9FF5F86B017469846149D00260020B5
:102F400005900490002481460390824602900195EA
:102F5000DDF818B0DDF818B0BBF1000F03D1262062
:102F60000AB0BDE8F09F00205249543908605A4920
:102F700088604860401E0860012048610020C860E9
:102F80000861084605F081FD4A486C38006800F089
:102F9000007008B10E20E3E749480078022805D107
:102FA0000502780A40EAC8574FEA6828002D1FDD5D
:102FB000B5F5006F1CDC681E2840C8B92846FFF72D
:102FC000C5FC05903948056010203849486040200C
:102FD00088600020C8604FF480600861084605F0F2
:102FE00028FD1020FEF751FE06461EB13046B7E719
:102FF0002620B5E73748008800042C4908600D20DA
:103000004860402088600020C8604FF480600861FC
:10301000084605F00EFD0D20FEF737FE06460EB100
:1030200030469DE723486C38006803904FF0FF342A
:103030001CE0641E2748008800041C4908600D201D
:103040004860402088600020C8604FF480600861BC
:10305000084605F0EEFC0D20FEF717FE06460EB101
:1030600030467DE713486C3800680390039800F4FD
:10307000807008B9002CDCD10CB9292070E70B480E
:103080000760182009494860402088600020C86017
:103090004FF480600861084605F0CBFC1820FEF76D
:1030A000F4FD0646D6B130465AE70000B064012070
:1030B0004C000020802C014050000020FFFF7F00CA
:1030C000440000204E0000204D0000204F00002052
:1030D0000064024048000020C46401200020F84938
:1030E000087005980001F7498860084645604FF070
:1030F000FF300860012048610020C8600861084670
:1031000005F0C3FC4FF0FF34EF48007800287CD175
:10311000FDF78BF843E04FF4804005F01DFDC8B388
:103120000198A0EB0900202821D20198A0EB09000A
:1031300000F0030020B90198A0EB0900800804E02A
:103140000198A0EB09008008401C02904FF0000A93
:1031500009E0DE49DBF8000008600AF1010A0BF122
:10316000040B09F1040902988245F2D30FE04FF0F5
:10317000000A05E05BF82A00D44908600AF1010A58
:10318000BAF1080FF6D30BF1200B09F120096FF00B
:10319000404404E0FFE70CB90420E1E6641ECB489C
:1031A0004C38006840F21A6108400028B3D008206B
:1031B00005F0D2FC20B1082005F0D9FC0420CFE6B0
:1031C000022005F0C9FC20B1022005F0D0FC02204D
:1031D000C6E6102005F0C0FC20B1102005F0C7FCA9
:1031E0000520BDE64FF4007005F0B6FC30B14FF499
:1031F000007005F0BCFC0720B2E606E0FDF717F80A
:1032000040F2FF5005F0B3FC43E0AF4800780128DE
:103210003FD10020AE490870A9490870AD49087037
:10322000AA484438006840F21A310843A749443993
:103230000860402229460698FFF74DFBA348543802
:10324000006840F00800A1495439086000E0641E9D
:10325000A148006800F0006008B9002CF7D11CB943
:10326000FFF78CFA04207BE64FF0FF3400E0641E89
:103270009848007820B99648007808B9002CF6D113
:103280000CB904206CE69248007810B190480078A0
:1032900066E640F2FF5005F06AFC04A8FFF7FDFD6A
:1032A000064603E004A8FFF7F8FD06463EB99DF880
:1032B00010000728F6D09DF810000628F2D03046FE
:1032C0004EE62DE9FF5F84B0DDE9124700260020BD
:1032D00003900290002580468146019007FB04FB85
:1032E000DDF810A0DDF810A0BAF1000F03D1262000
:1032F00008B0BDE8F09F0020744954390860714956
:1033000088604860401E0860012048610020C86055
:103310000861084605F0B9FB6C486C38006800F09D
:10332000007008B10E20E3E76C480078022808D14D
:103330000402DDE90601400A40EAC1504912CDE924
:103340000601002C1FDDB4F5006F1CDC601E204060
:10335000C8B92046FFF7FAFA0390614804601020CC
:103360005F494860402088600020C8604FF480605A
:103370000861084605F05DFB1020FEF786FC064656
:103380001EB13046B4E72620B2E7012F6FD907FB04
:1033900004F0B0F1007F01D32620A9E74F48007860
:1033A00038B14E480078012803D04C4800780228F4
:1033B0002DD14C48008800044949086037204860F6
:1033C000402088600020C8604FF480600861084693
:1033D00005F02FFB3720FEF758FC06460EB13046AD
:1033E00086E73F48076017203D49486040208860D5
:1033F0000020C8604FF480600861084605F019FBA2
:103400001720FEF742FC06460EB1304670E73449FD
:103410000698086019204860402088600020C86035
:103420004FF480600861084605F003FB1920FEF7A1
:103430002CFC06460EB130465AE70398000121499C
:10344000886007FB04F048604FF0FF3008600120FF
:1034500048610020C8600861084605F016FB1A485C
:103460000078002872D1451EFCF7DFFE54E0F8E03A
:103470004FF4804005F070FBB0B3ABEB08002028A0
:1034800033D2ABEB080000F0030018B9ABEB080037
:10349000800803E0ABEB08008008401C01904FF06F
:1034A000000909E00949DAF80000086009F101099A
:1034B0000AF1040A08F1040801988145F2D324E0D6
:1034C0004D000020C46401204C000020802C0140ED
:1034D0004E0000204F000020006402404400002005
:1034E000B06401204800002012E04FF0000905E020
:1034F0005AF82900F849086009F10109B9F1080FE3
:10350000F6D30AF1200A08F120086FF0404503E0E5
:103510000DB90420ECE66D1EEF484C38006840F20F
:103520001A3108400028A3D0082005F015FB20B16F
:10353000082005F01CFB0420DAE6022005F00CFB55
:1035400028B1022005F013FB0220D1E640E0102054
:1035500005F002FB20B1102005F009FB0520C7E6AD
:103560004FF4007005F0F8FA28B14FF4007005F040
:10357000FEFA0720BCE64FF4807005F0EDFA00B3C8
:10358000D648007838B1D5480078012803D0D34810
:103590000078022815D10020D14908600C2048602D
:1035A000402088600020C8604FF4806008610846B1
:1035B00005F03FFA0C20FEF768FB06460EB13046D8
:1035C00096E6FCF734FE40F2FF5005F0D0FA48E0F2
:1035D000C4480078012844D10020C3490870012064
:1035E000C24908700020C2490870BB4844380068CE
:1035F00040F21A310843B8494439086007FB04F126
:1036000040220498FFF767F9B3485438006840F047
:103610000800B149543908604FF0FF3500E06D1ED5
:10362000B448006800F0006008B9002DF7D11DB95A
:10363000FFF7A4F804205BE64FF0FF3500E06D1EB5
:10364000AB48007820B9A848007808B9002DF6D119
:103650000DB904204CE6A448007810B1A2480078C7
:1036600046E640F2FF5005F082FA02A8FFF715FC8B
:10367000064603E002A8FFF710FC06463EB99DF897
:1036800008000728F6D09DF808000628F2D030463A
:103690002EE610B54FF4807005F05EFA88B39348BB
:1036A0000078012814D100208D4908600C20486062
:1036B000402088600020C8604FF4806008610846A0
:1036C00005F0B7F90C20FEF7E0FA8749087002E030
:1036D00000208549087080484838006840F48070B0
:1036E0007D4948390860081D00684CF23A3188432A
:1036F00079494439086001207D4908707A4800788A
:1037000010BDFFE7022005F027FA78B1022005F08E
:103710002EFA7148443800684CF23A3188436E49B9
:1037200044390860022070490870E9E7082005F074
:1037300013FA78B1082005F01AFA6748443800688F
:103740004CF23A31884364494439086004206649A0
:103750000870D5E7202005F0FFF978B1202005F0AA
:1037600006FA5D48443800684CF23A3188435A49B9
:103770004439086006205C490870C1E7102005F054
:10378000EBF978B1102005F0F2F95348443800689D
:103790004CF23A3188435049443908600520524977
:1037A0000870ADE74FF4007005F0D6F980B14FF422
:1037B000007005F0DCF94848443800684CF23A31B2
:1037C000884345494439086007204749087097E70E
:1037D000002095E710B5FFF75CFF10BD70B50446FB
:1037E000002514B92625284670BD434800880004EA
:1037F0003B4908600D204860402088600020C86078
:103800004FF480600861084605F013F90D20FEF7BB
:103810003CFA05460DB12846E6E72F486C380068AB
:1038200020602846E0E708B5002000906846FFF7D2
:10383000D5FF08B1FF2008BD0098C0F34320FAE788
:103840002DE9FE4F83460E4691460020029000254A
:1038500034462248007818B1680240EAD455640220
:103860000BF00300F0B14FF0000A18E04FF40070C5
:1038700000904FEA4A20071945EBE0733A461F488B
:10388000FFF76DF802904FF400721C49584606F09D
:1038900048FE0BF5007B0AF1010000F0FF0ACA4563
:1038A000E4DB16E0B9F1010F09D14FF400702246B4
:1038B0002B4600905846FFF752F8029009E04FF46B
:1038C000007022462B46CDE900095846FFF768F9FB
:1038D00002900298BDE8FE8F802C01404400002039
:1038E000B06401204C0000204E0000204D0000205C
:1038F0004F0000200064024048000020586501206D
:103900002DE9FE4F0646894692460020029000258A
:103910004C462148007818B1680240EAD455640248
:1039200006F00300F0B14FF0000B18E04FF4007206
:1039300031461A4806F0F5FD4FF4007000904FEA4A
:103940004B20071945EBE0733A461448FFF7F0FAAD
:10395000029006F500760BF1010000F0FF0BD34555
:10396000E4DB16E0BAF1010F09D14FF400702246F2
:103970002B4600903046FFF7DBFA029009E04FF447
:10398000007022462B46CDE9000A3046FFF799FC2D
:1039900002900298BDE8FE8F440000205865012087
:1039A00010B588B004460121084604F0B9FE012193
:1039B000102004F00FFF072209214E4804F09DFC5F
:1039C00007220A214B4804F098FC4FF4C06006908F
:1039D00002208DF81C008DF81D0000208DF81E00BF
:1039E00001208DF81F0006A9424804F0FBFB029459
:1039F0000020ADF80C00ADF80E00ADF81000ADF8E9
:103A000014000C20ADF8120002A93B4805F045FD5A
:103A10000121394805F0C9FD4021374805F0ADFEC8
:103A2000012240F22551344805F075FE25208DF81D
:103A3000040003208DF805008DF8060001208DF8A4
:103A4000070001A803F0F9FF08B010BD00BF2A4924
:103A5000098801F040010029F9D027498880704782
:103A600010B503460C46002200BF985CFFF7EEFF3E
:103A7000501C82B2A242F8DB10BD10B540F22551B5
:103A80001D4805F083FE00B31B4805F0BDFDC4B220
:103A9000532C03D101201949087029E0452C15D178
:103AA00000201649087009E000201549134A1278D1
:103AB000885412480078401C104908700F4800785C
:103AC0002028F1DB00200D49087011E00B48007838
:103AD00000280DDD09480078642809DC07480078D3
:103AE000401E07490C5405480078401C03490870E3
:103AF00010BD0000000002400010014054000020F2
:103B0000586701201CB50121022004F009FE0220A3
:103B1000009001208DF804006946F34804F062FB30
:103B20001CBD10B5FFF7EEFF0120F04908601C2016
:103B300005F09CFF0020EE49C1F88402022005F048
:103B400095FF0120EB49086010BD1CB50121032041
:103B500004F0E6FD2020009001208DF804000020F4
:103B60008DF8060001208DF807006946E24804F050
:103B700039FB022000906946DB4804F033FBFFF775
:103B8000D0FF1CBD1CB50121022004F0C9FD02209C
:103B9000009000208DF804006946D34804F022FB11
:103BA0001CBD10B5FFF7AEFF0120D2490860D34914
:103BB000C1F894021C2005F059FF0020CD4908608F
:103BC000022005F053FF0020CC49C1F8940210BD3B
:103BD00010B50024FFF7D6FF0120C6490860C74989
:103BE000C1F89402022005F041FF0221BE4804F012
:103BF0005BFB08B1012400E000240020BB49086001
:103C0000022005F033FF204610BD10B50020B74953
:103C10000860FFF777FF022005F028FF0020B44975
:103C2000C1F88402022005F021FF0120AF4908609D
:103C3000022005F01BFF0020B049C1F8940210BD1E
:103C400010B50020A9490860FFF75CFF022005F0CD
:103C50000DFF0120A649C1F88402022005F006FFED
:103C60000120A2490860022005F000FF0020A349BE
:103C7000C1F8940210BD70B50446FFF743FF002061
:103C80009A490860022005F0F1FE002513E0E009E2
:103C9000984908606006040E01209849C1F8940212
:103CA000022005F0E3FE002090490860022005F0A4
:103CB000DDFE681CC5B2082DE9DB70BD70B5054698
:103CC0000024FFF75FFF1C2005F0D0FE002614E063
:103CD000002086490860022005F0C8FE01208749BF
:103CE000C1F894026006040E02217F4804F0DCFA59
:103CF00008B1601CC4B2701CC6B2082EE8DB15B94E
:103D0000FFF79EFF01E0FFF780FF204670BD70B512
:103D100004460D46FFF745FF7020FFF7ACFFFFF7A5
:103D200057FFE0B2FFF7A7FFFFF752FF2846FFF764
:103D3000A2FFFFF74DFFFFF7F4FE70BD70B504461C
:103D4000FFF72FFF7020FFF796FFFFF741FFE0B26C
:103D5000FFF791FFFFF73CFFFFF723FF7120FFF70D
:103D60008AFFFFF735FF0020FFF7A8FF0546FFF7A2
:103D7000D8FE284670BD70B506460C46002507E003
:103D8000711988B2FFF7DAFF04F8010B681CC5B29D
:103D9000042DF5DB70BD1CB50121222004F0C0FC10
:103DA0004FF40060009000208DF804008DF80600AC
:103DB00003208DF8050001208DF807006946504862
:103DC00004F010FA012000908DF80400694646487E
:103DD00004F008FAFFF7B9FE00204649091F086001
:103DE000192005F08BFE01204149C1F880023220E4
:103DF00005F084FE00210846FFF789FF0121A42079
:103E0000FFF785FF12218020FFF781FF0C2188201A
:103E1000FFF77DFF1CBDF8B5002400253948006878
:103E2000002851D10220FFF789FF37490870084662
:103E3000067800BF45E0354931F814006946FFF7C0
:103E40009AFF33480078012816D19DF801009DF8AB
:103E5000001001F00F0100EB01202E4921F81400A1
:103E60009DF803009DF8021001F00F0100EB012006
:103E7000294921F8140017E09DF803009DF802106D
:103E800001F00F0100EB0120C0F5F070214921F88D
:103E900014009DF801009DF8001001F00F0100EBE7
:103EA00001201D4921F814001C4B33F814201A4B33
:103EB00033F81410174B33F8140000F057F8601C57
:103EC000C4B2B442B7DB0DE0002509E04FF6FF7045
:103ED000104921F81500104921F81500681CC5B2D9
:103EE000B542F3DBF8BD00000004024094024042FA
:103EF0000080404284824042000002400000404274
:103F0000001402402C82424255000020CCC300081D
:103F1000200000207000002072000020D6C300089E
:103F200010B55E48008849F24131884202D100F064
:103F300051FA07E05948008841F66311884201D1DF
:103F4000FFF729FF10BD10B54FF6FF70FCF7A7FD76
:103F50001F205349088053A3102296217820FDF793
:103F60007DF94FF478404E49088010BD2DE9F041AD
:103F700006460D46174600244948078000BF18E052
:103F8000281981B23046FCF74AFD2A1991B2721CF9
:103F900090B2FCF744FD2A1991B2B21C90B2FCF722
:103FA0003EFD2A1991B2F21C90B2FCF738FD601C5C
:103FB000C4B2042CE4DBBDE8F081002448E000201A
:103FC00000F09DF9394800883949098888422FDA7C
:103FD0003848008838490988884229DA33480088F7
:103FE000642810DD314800888C280CDA31480088BC
:103FF000E62808DD2F480088B0F5877F03DA002027
:104000002E49086014E029480088642810DD2748FC
:1040100000888C280CDA27480088B0F5917F07DDEE
:1040200024480088B0F5A57F02DA01202349086002
:10403000601CC4B2142094FBF0F100FB114038B9AD
:104040001F48006808B9012000E000201C490860F2
:10405000B5E7002421E0FFF7DEFE1A480188144886
:1040600000882838814208DD1748018812480088F6
:104070001838814201DDFFF766FF601CC4B21420CE
:1040800094FBF0F100FB114038B90D48006808B905
:10409000012000E000200A490860DCE71E00002043
:1040A0001A000020436C6561720000005800002077
:1040B000220000205A00002024000020A4024342D5
:1040C0008C024242700000207200002070B504464D
:1040D000002500BF17E004F0800018B10120ED4971
:1040E000086002E00020EB4908606006040E002032
:1040F000E9490860012005F0B9FC0120E749C1F851
:104100009402681CC5B2082DE5DB70BD70B506468B
:10411000002500240020E0490860E149C1F884023C
:10412000DC49091F08603046FFF7D0FF062005F084
:104130009DFC0020D949C1F89402012005F096FCAD
:104140000120D549086005F091FC0020D349C1F851
:10415000940200BF15E04FF6FF7000EA440400200F
:10416000CD490860012005F081FC0120CB49C1F850
:104170009402C8487C38006808B1601C84B2681C8E
:10418000C5B2102DE7DB24110120C249091F0860C8
:10419000204670BD2DE9FE4380460027002406E03E
:1041A0004046FFF7B3FF2DF81400601C84B2052CC5
:1041B000F6DB002416E0601C85B20FE03DF8140029
:1041C0003DF81510884207DD3DF814603DF81500F4
:1041D0002DF814002DF81560681C85B2052DEDDB57
:1041E000601C84B2042CE6DB0027012405E03DF8C6
:1041F0001400384487B2601C84B2042CF7DB03201F
:1042000097FBF0F086B23046BDE8FE832DE9F04121
:1042100004460D46A3480078FFF7BCFF0646A248B7
:104220000078FFF7B7FF0746322E01DB322F02DAA4
:104230000020BDE8F08126802F800120F9E77FB5BE
:1042400004460D4602A903A8FFF7E0FF064616B98B
:10425000002004B070BD694601A8FFF7D7FF0646ED
:104260000EB90020F5E7BDF80400BDF80C10884237
:1042700006DCBDF80C10BDF80400323081420CDBC6
:10428000BDF80C00BDF80410884236DCBDF80410FF
:10429000BDF80C00323081422FDABDF80000BDF8C5
:1042A0000810884206DCBDF80810BDF80000323066
:1042B00081420CDBBDF80800BDF8001088421CDC10
:1042C000BDF80010BDF808003230814215DABDF8A3
:1042D0000C10BDF80420881800EBD071C1F34F0119
:1042E0002180BDF80810BDF80020881800EBD071BF
:1042F000C1F34F0129800120ABE70020A9E710B5E9
:1043000004464FF6FF70694908806949088069488A
:104310000068002848D124B167496848FFF78FFF3B
:1043200034E065496548FFF78AFF78B36448B0F91F
:10433000000000EE100AB8EEC00A624890ED001AC4
:104340005E48008800EE900AF8EE600A01EE200A4E
:10435000BCEEC00A10EE100A584908805A48B0F95D
:10436000000000EE100AB8EEC00A584890ED001A9E
:104370005148008800EE900AF8EE600A01EE200A2B
:10438000BCEEC00A10EE100A4B4908804B4800886A
:104390004F490880484800884E4908804E480078B8
:1043A000401C4D49087014E04B480078022807DD96
:1043B000424800883D4908803F4800883C490880C1
:1043C0000020454908704FF6FF7041490880414977
:1043D000088010BD1CB50121272004F0A1F904209C
:1043E000009000208DF804008DF8060003208DF861
:1043F000050001208DF807006946384803F0F2FEF9
:104400004FF4006000906946354803F0EBFE03204E
:10441000009001208DF804006946304803F0E2FE68
:104420002020009069462F4803F0DCFE2E480078DB
:10443000C0B190201B490870D0201B4908709FED27
:104440002B0A204880ED000A9FED290A1F4880EDC5
:10445000000A4FF4AE701A4908806FF012001A4932
:10446000088016E0D0200F49087090200E4908708F
:104470009FED200A134880ED000A9FED1F0A1348A4
:1044800080ED000A6FF00A000D490880C01F0E4938
:1044900008801CBD84824042940240420000404299
:1044A0000080404260000020610000205C0000208D
:1044B0005E0000202C82424272000020700000202A
:1044C0006C000020640000206E00002068000020C6
:1044D000580000205A000020740000200004024010
:1044E0000014024000000240200000206452BCBDC5
:1044F0007BF5893DDA9F883D3ABABA3D70B50446EE
:10450000002514B1012C0BD103E0FEF737F9054665
:1045100008E0FDF787F84FF4A0406A49088001E001
:10452000012500BF00BF0DB1012070BD0020FCE7D8
:104530000146002070472DE9F04107460E4615461A
:104540001C464FF0000814B90420BDE8F08117B1F3
:10455000012F16D106E0E2B229463046FFF770F986
:10456000804611E009E069024FF400723046FDF721
:1045700010F96D1C06F50076641E002CF3D1A046E0
:1045800002E04FF0010800BF00BFB8F1000F01D1F9
:104590000020DAE70120D8E72DE9F04107460E4672
:1045A00015461C464FF0000814B90420BDE8F08100
:1045B00017B1012F16D106E0E2B229463046FFF7C7
:1045C0009FF9804611E009E069024FF4007230461D
:1045D000FDF7BBF96D1C06F50076641E002CF3D1C7
:1045E000A04602E04FF0010800BF00BFB8F1000F85
:1045F00001D10020DAE70120D8E72DE9F04706468F
:104600008946154646BBB9F1000F09D0B9F1010F33
:1046100013D0B9F1020F05D0B9F1030F19D106E09B
:10462000002418E04FF400702860002413E02648AE
:10463000B0F85000288000240DE023484FF40072A9
:104640000023D0E91271384605F004FF28600024E9
:1046500001E0042400BF22E0012E1FD1B9F1000FB8
:1046600009D0B9F1010F11D0B9F1020F05D0B9F19C
:10467000030F10D106E000240FE04FF400702880F3
:1046800000240AE008202880002406E00D48008865
:104690002860002401E0042400BF00E0012420463B
:1046A000BDE8F0870020704710B504462146002081
:1046B000FDF784FA10BD10B5044621460020FDF731
:1046C0006EFA10BD760000200065012070B503462B
:1046D0000C4603E014F8015B03F8015B151EA2F120
:1046E0000102F7D170BD30B5034601E003F8011BAC
:1046F000141EA2F10102F9D130BDF0B503461C46EB
:104700000D46002000BF161EA2F1010207D014F8CA
:10471000017B15F801CBA7EB0C06301EF3D0F0BDE2
:10472000024600E0521C107810B110788842F9D18E
:104730001078704770B504462079F8B1E56A607862
:1047400001232A4604F13001FFF726FF08B10120BA
:1047500070BD00202071206A281AA16988420DD2FC
:10476000E67809E0A0690544607801232A4604F14F
:104770003001FFF711FF761E022EF3D20020E7E78B
:1047800070B504460D46E06AA84210D02046FFF7F7
:10479000D1FF08B1012070BD607801232A4604F1E1
:1047A0003001FFF7C8FE08B10120F4E7E562002000
:1047B000F1E770B504462046FFF7BCFF0546002D23
:1047C00059D1207803284FD1607901284CD1420279
:1047D000002104F13000FFF786FF552184F82E12E6
:1047E000AA2184F82F12522084F83000522131205F
:1047F000015561213220015541213320015572219B
:1048000084F8141284F81512412184F816126121DB
:1048100084F81712217C84F81812208A010A84F87F
:1048200019122069010C84F81A122069010E84F80B
:104830001B12217B84F81C12A089010A84F81D1226
:10484000E068010C84F81E12E068010E84F81F1263
:10485000E069401CE0626078012304F13001E26A03
:10486000FFF79AFE00206071607800221146FFF782
:10487000C4FE00B10125284670BD0246891E50695C
:10488000801E884201D8002070479378906A01FB0F
:104890000300F9E72DE9F04105460C46022C02D34E
:1048A0006869A04202D80120BDE8F081287801287B
:1048B00004D002282CD003285AD13DE0274607EB2C
:1048C0005707286A00EB57212846FFF759FF00B128
:1048D00050E0C7F3080105F1300010F801807F1C9B
:1048E000286A00EB57212846FFF74AFF00B141E054
:1048F000C7F3080105F13000405C48EA002804F0E5
:10490000010010B14FEA1810CEE7C8F30B00CBE757
:10491000286A00EB14212846FFF732FF00B129E096
:1049200040F2FF1000EA440105F130000E18307823
:10493000717840EA0120B7E7286A00EBD4112846D5
:10494000FFF71EFF00B115E040F2FF1000EA8401FE
:1049500005F130000E18F0780006B17840EA014009
:10496000717840EA01203178084320F070409BE7DD
:10497000012099E700BF4FF0FF3095E72DE9F047A0
:1049800005460E461746022E02D36869B04202D889
:104990004FF002088AE02878012804D0022841D08C
:1049A00003287DD154E0B14609EB5909286A00EB90
:1049B00059212846FFF7E4FE8046B8F1000F00D0E9
:1049C00071E0C9F3080105F130000C1806F0010090
:1049D00020B1F9B2207861F31F1000E03846207052
:1049E00009F1010901202871286A00EB59212846A4
:1049F000FFF7C6FE8046B8F1000F00D053E0C9F3C0
:104A0000080105F130000C1806F0010010B1C7F3E1
:104A1000071005E0207800F0F000C7F303210843F9
:104A2000207040E0286A00EB16212846FFF7A8FE18
:104A30008046B8F1000F00D035E040F2FF1000EAE8
:104A4000460105F130000C182770380A60702AE022
:104A5000286A00EBD6112846FFF792FE8046B8F18F
:104A6000000F00D01FE040F2FF1000EA860105F1C0
:104A700030000C18E0780006A17840EA0140617827
:104A800040EA01202178084300F070400743277076
:104A9000380A6070380CA070380EE07003E0FFE751
:104AA0004FF0020800BF00BF012028714046BDE85A
:104AB000F0872DE9F04104460E46022E02D36069CC
:104AC000B04201D8022727E0002721E031462046E6
:104AD000FFF7E0FE054605B91DE0012D01D10227D3
:104AE00019E0681C08B9012715E00022314620466C
:104AF000FFF744FF074607B10DE02069401C30B1C5
:104B00002069401C2061607940F0010060712E46F0
:104B10006069B042DAD800BF3846BDE8F0812DE9BF
:104B2000F04704468946B9F1000F06D1E76817B18E
:104B30006069B84215D8012713E049462046FFF7BF
:104B4000A9FE0646022E02D20120BDE8F087701CA5
:104B500008B93046F9E76069B04201D93046F4E758
:104B60004F463D4600BF6D1C6069A84204D802252F
:104B7000BD4201D90020E8E729462046FFF78AFE1A
:104B8000064606B909E0701C08B1012E01D1304675
:104B9000DBE7BD42E7D10020D7E700BF6FF07042EE
:104BA00029462046FFF7EAFE8046B8F1000F08D1FB
:104BB000B9F1000F05D02A4649462046FFF7DEFE30
:104BC0008046B8F1000F0BD1E5602069401C78B138
:104BD0002069401E2061607940F00100607107E0AB
:104BE000B8F1010F02D14FF0FF3000E0012005467F
:104BF0002846AAE770B503460D46586A021D680AA2
:104C00001E68B678B0FBF6F400BF02CA09B90020EE
:104C100070BD8C4200D202E0641A121DF5E700BF9D
:104C200010682044F4E72DE9F04104460E46E68082
:104C3000A568012D03D020684069A84202D802204F
:104C4000BDE8F0812DB920680078032801D12068E3
:104C5000456A45B920680089B04201D80220EFE7D3
:104C60002068476A1EE0206880784FEA001812E04A
:104C700029462068FFF70EFE0546681C08B901208A
:104C8000DEE7022D03D320684069A84201D8022044
:104C9000D6E7A6EB08064645EAD229462068FFF784
:104CA000ECFD0746E5600FB90220C9E707EB1610D7
:104CB00020612068303006F00F0100EB4110606188
:104CC0000020BDE72DE9F04104468846E088461CF7
:104CD000B0B208B1206910B90420BDE8F08106F037
:104CE0000F0000286CD12069401C2061E06828B9C1
:104CF00020680089B04263D80420EEE720688078FD
:104D0000401E00EA161000285AD1E1682068FFF71B
:104D1000C1FD0546012D01D80220DEE7681C08B957
:104D20000120DAE720684069A84243D8B8F1000FB3
:104D300001D10420D1E7E1682068FFF7F0FE0546C5
:104D40000DB90720C9E7012D01D10220C5E7681C74
:104D500008B90120C1E72068FFF7ECFC08B1012089
:104D6000BBE7216801F130004FF400720021FFF72A
:104D7000BAFC29462068FFF780FD2168C862002739
:104D80000EE00120216808712068FFF7D3FC08B10C
:104D90000120A2E72068C06A401C2168C8627F1C0D
:104DA00020688078B842ECD82068C06AC01B2168AF
:104DB000C86200BFE56029462068FFF75EFD2061FC
:104DC000E6802068303006F00F0100EB4110606192
:104DD000002082E72DE9F04104460E4600212046DE
:104DE000FFF721FF0546EDB9002700BF21692068C4
:104DF000FFF7C6FC054605B113E060690078E528B9
:104E000002D06069007820B9781C0746B04201D111
:104E100007E0002701212046FFF754FF0546002D3B
:104E2000E4D000BF042D00D107252846BDE8F0815D
:104E300010B502468C7ECB7E44EA03201378032B08
:104E400005D10C7D4B7D44EA032340EA034010BDAD
:104E500081760B0AC3760A0C02750B0E43757047F8
:104E60002DE9F04705460C46207820F04000401E12
:104E700000EB800101EBC00600274FF0010800BFE6
:104E8000FE48C05D205CFD49C95D2144497840EA87
:104E90000129B8F1000F10D0484602F0ACFD804661
:104EA000FF2E07D23146761C35F8110002F0A3FD23
:104EB000404508D00020BDE8F0874FF6FF708145DF
:104EC00001D00020F7E7781C07460D28D8D32078BA
:104ED00000F0400038B1B8F1000F04D035F81600EA
:104EE00008B10020E7E70120E5E7F0B503460878C0
:104EF00000F03F00401E00EB800707EBC0020025DA
:104F0000012600BFDD48405D085CDC4F7F5D0F443B
:104F10007F7840EA07244EB1FF2A01D30020F0BD7C
:104F200026461046521C23F8104005E04FF6FF704D
:104F3000844201D00020F2E7681C05460D28E1D329
:104F4000087800F0400030B1FF2A01D30020E6E7E6
:104F5000002023F812000120E1E7F0B504461D46C9
:104F60004D730F27CF7200270F738F76BC4681F8E1
:104F70001BC0571E07EB870C0CEBC70600273846F3
:104F80003B4600BF4FF6FF77B84203D03746761C4A
:104F900034F81700DFF8E4C21CF803C001F80C0075
:104FA0000712DFF8D8C21CF803C08C448CF80170DB
:104FB00008B94FF6FF705F1C3B460D2FE2D34FF64A
:104FC000FF77B84202D034F816700FB942F04002B1
:104FD0000A70F0BD2DE9FC4707468A4690461E46FA
:104FE0000B2251463846FFF771FB052E18D9304683
:104FF00010E038F8021B00250AE00A4660F35F0261
:105000001046491000F480320AB19D4A50406D1C90
:10501000102DF2D3B8F80020002AEAD1064600BFCE
:10502000072500BF06F00F0000F13009B9F1390F74
:1050300003DD09F1070000F0FF0928466D1E0DF899
:1050400000903609002EEDD17E200DF805000024D9
:105050000BE0385D812807DB385DFE2804DC681E24
:10506000A04200D106E0641C641CAC4202D2385D50
:105070002028EED100BF00BF082D04D228466D1CA9
:105080001DF8001000E020212046641C3954082C33
:10509000F2D3BDE8FC8730B5014600200B2200BFEB
:1050A000431003EBC01411F8015B6319D8B2531E0F
:1050B0001A1EF5D130BD2DE9F047044600212046E7
:1050C000FFF7B1FD074617B13846BDE8F0874FF04E
:1050D000FF09CA4600BF21692068FFF751FB074658
:1050E00007B154E065692E780EB904274FE0E87ADD
:1050F00000F03F08E52E05D008F0080028B1B8F10F
:105100000F0F02D04FF0FF093AE0B8F10F0F1CD19A
:10511000E069A0B306F0400030B195F80DA026F08C
:105120004006B146E08820844E450AD1687B504550
:1051300007D12946E069FFF793FE10B1A9F10100FC
:1051400000E0FF2000F0FF091AE0B9F1000F05D1DF
:105150002846FFF7A0FF504500D118E04FF0FF09A7
:105160004FF6FF702084A069C07A00F0010030B9CA
:105170000B222846A169FFF7C0FA00B907E0FFE754
:1051800000212046FFF79EFD0746002FA3D000BF59
:1051900038469AE72DE9F05F04468A464FF0FF094A
:1051A000CB4604274EE021692068FFF7E9FA07465D
:1051B00007B14AE0666935780DB9042745E0F07A11
:1051C00000F03F08E52D09D02E2D07D0B8F1080FCB
:1051D00001D1012000E00020504502D04FF0FF092E
:1051E00029E0B8F10F0F1AD105F0400030B196F860
:1051F0000DB025F04005A946E08820844D450AD130
:10520000707B584507D13146E069FFF76EFE10B15B
:10521000A9F1010000E0FF2000F0FF090BE0B9F167
:10522000000F04D13046FFF736FF584502D04FF645
:10523000FF70208409E000212046FFF743FD074668
:1052400007B102E020690028ADD100BF0FB10020F6
:1052500020613846BDE8F09F2DE9FE4F0446D4F8A2
:105260001880D4F81C900C2241466846FFF72EFAAD
:1052700000BF9DF80B0000F0010003E0E0C3000850
:105280002110010020B3002088F80B00E061012606
:105290000CE033464A4669464046FFF79BFE2046EF
:1052A000FFF709FF054605B102E0761C642EF0D336
:1052B00000BF642E02D10720BDE8FE8F042D01D06F
:1052C0002846F9E79DF80B0088F80B00C4F81C90FD
:1052D0009DF80B0000F0020060B1002600E0761C93
:1052E00039F816000028FAD106F119000D21B0FB9B
:1052F000F1F700E0012739462046FFF76BFD054630
:1053000045BB781E071E25D0E088C11B2046FFF74D
:105310008AFC0546F5B9A069FFF7BDFE824600BFCD
:1053200021692068FFF72CFA054605B111E0FAB2B1
:1053300053466169E069FFF710FE0120216808719A
:1053400000212046FFF7BEFC054615B9781E071E52
:10535000E6D100BFC5B921692068FFF711FA0546FB
:1053600095B9202200216069FFF7BDF90B22D4E92D
:105370000501FFF7ABF9A069C07A00F01800616978
:105380000873012021680871284695E770B5044626
:10539000E688208C4FF6FF72904201D1304600E043
:1053A000208C01462046FFF73EFC05460DBB00BFA2
:1053B00021692068FFF7E4F9054605B115E02022D0
:1053C00000216069FFF78FF9E5206169087001200D
:1053D00021680871E088B04200D306E00021204631
:1053E000FFF770FC0546002DE2D000BF042D00D170
:1053F0000225284670BD2DE9F04707460C4604F10A
:1054000009063869002843D07869002526E0294636
:105410006D1C10F80180B8F1200F00D11EE0B8F12A
:10542000050F01D14FF0E508092D02D12E2106F814
:10543000011BB8F1410F0EDBB8F15A0F0BDC017BF9
:10544000092D01D3102200E00822114019B108F102
:10545000200101F0FF0806F8018B00BF0B2DD6D309
:10546000C17A2172C17F0A06817F42EA0142417FEF
:1054700042EA0121027F11432160027E417E42EA1D
:105480000121A180827DC17D42EA0121E18000BF2E
:1054900000203070A06990B30025A669386958B320
:1054A000E06948B3388C4FF6FF71884224D0D7F8B2
:1054B0001CA01BE00021484602F054FA8146B9F1D5
:1054C000000F01D1002516E0B9F1FF0F04DD4FEA0E
:1054D000292228466D1C3254E069401EA84201D89A
:1054E000002508E028466D1C06F800903AF8021BDB
:1054F000B1F10009DED100BF0020705500BFBDE84A
:10550000F0872DE9F34F83B081460498006801903D
:1055100002E00198401C0190019800782F28F8D0F3
:10552000019800785C28F4D0D9F81CA000252F46FB
:1055300000BF38467F1C01990C5C202C03DB2F2C0C
:1055400001D05C2C00D132E0FF2D03D3062005B042
:10555000BDE8F08FE4B2812C13DBE0B2FE2810DC52
:1055600038467F1C01990E5C402E01DB7E2E05DD46
:10557000802E01DBFE2E01DD0620E8E706EB04208D
:1055800084B20121204602F0EDF904460CB9062050
:10559000DDE7802C06DA2146F9A0FFF7C1F808B153
:1055A0000620D4E728466D1C2AF81040C1E700BF4A
:1055B0000198C11904980160202C01DA042000E050
:1055C0000020804608E0681E3AF81040202C02D0E7
:1055D0002E2C00D002E06D1E002DF4D100BF0DB9BD
:1055E0000620B4E700202AF815000B222021D9F864
:1055F0001800FFF778F8002700E07F1C3AF8170042
:105600002028FAD03AF817002E28F6D00FB148F02B
:10561000030800E06D1E25B1681E3AF810002E2820
:10562000F8D10020064602904FF0080B00BF384624
:105630007F1C3AF8104004B963E0202C03D02E2CD4
:1056400004D1AF4202D048F00308F0E70298584571
:1056500001D2AF4214D1BBF10B0F02D148F00308C5
:105660004FE0AF4201D048F00308AF4200D948E014
:105670002F46082002904FF00B0BB006060ED6E71F
:10568000802C09DB204602F0B6F90021009002F0E0
:1056900069F9044648F00208FF2C11DDABF1010066
:1056A0000299884204D848F00308CDF808B0BEE754
:1056B0002212D9F818300298411C02911A5419E0AC
:1056C00024B12146B1A0FFF72BF818B15F2448F0B0
:1056D00003080FE0412C04DB5A2C02DC46F00206E2
:1056E00008E0612C06DB7A2C04DC46F00106A4F10C
:1056F000200084B2D9F818300298411C02911C5441
:1057000095E700BFD9F818000078E52803D10520F7
:10571000D9F818100870BBF1080F01D1B006060EB9
:1057200006F00C000C2803D006F00300032801D17A
:1057300048F0020808F0020058B906F003000128FA
:1057400001D148F0100806F00C00042801D148F0FF
:105750000808D9F8180080F80B800020F7E62DE93A
:10576000F3410446019800782F2803D0019800786F
:105770005C2802D10198401C01900020A060019893
:105780000078202807D200212046FFF74CFA054672
:105790000020606128E000BF01A92046FFF7B1FEAC
:1057A000054605B11FE02046FFF785FC0546A069C8
:1057B000C67A3DB1042D04D100BF06F0040000B943
:1057C000052510E006F0040000B10CE06769F87AE6
:1057D00000F0100008B9052505E039462068FFF7FC
:1057E00027FBA060D8E700BF2846BDE8FC8170B564
:1057F00002464FF0FF301568E5B1116800E0491C22
:105800000D78202D02D30D783A2DF8D10D783A2D50
:105810000FD1146814F8015BA5F130030A2B07D2ED
:105820008C4205D1022B03D218464D1C2946156027
:1058300070BD002000BFFBE770B504460D46002098
:105840002071401EE06229462046FEF799FF08B10C
:10585000032070BD94F82E1294F82F0241EA002024
:105860004AF65521884201D00220F2E794F86900F7
:10587000010694F8680041EA004194F8670041EAA3
:10588000002094F86610084320F07F404149884288
:1058900001D10020DDE794F88500010694F884002A
:1058A00041EA004194F8830041EA002094F8821014
:1058B000084320F07F403749884201D10020C8E7E3
:1058C0000120C6E72DE9F74F88B000210898016054
:1058D0000998FFF78CFF07900798002803DA0B2040
:1058E0000BB0BDE8F08F2C49079851F820400CB957
:1058F0000C20F5E708980460207878B16078FEF70E
:1059000017FE804608F0010040B90A9820B108F05F
:10591000040008B10A20E3E70020E1E7002020703E
:10592000079860706078FEF7E9FD804608F0010096
:1059300008B10320D4E70A9820B108F0040008B1A8
:105940000A20CDE7002739462046FFF775FF0546B8
:10595000012D01D09DB93BE0002623E004F5F7714D
:1059600001EB06100179C9B1C17A0A06817A42EACF
:105970000142417A42EA0121027A11430FE027E015
:10598000222A3A3C3E3F7C7F000000002B2C3B3D0E
:105990005B5D0000464154007800002000214DF876
:1059A0002610761C042ED9D3002606B1761E00BF21
:1059B0005DF8267027B139462046FFF73DFF00E02D
:1059C000022005461DB1701C06460428F0D300BF16
:1059D000032D01D1012083E70DB10D2080E73B208D
:1059E000015D94F83C0041EA0020B0F5007F01D051
:1059F0000D2075E74620015D94F8470041EA002933
:105A0000B9F1000F0ED194F85700010694F8560032
:105A100041EA004194F8550041EA002094F85410FE
:105A200040EA0109C4F818904020005DE070E07879
:105A3000012804D0E078022801D00D2050E7E0785A
:105A400009FB00F93D20005DA070A07818B1A07896
:105A5000411E084008B10D2042E74120015D94F845
:105A6000420041EA00202081207A00F00F0008B1B6
:105A70000D2035E74320015D94F8440041EA002BF6
:105A8000BBF1000F0ED194F85300010694F85200B8
:105A900041EA004194F8510041EA002094F8501086
:105AA00040EA010B3E20015D94F83F0041EA0020EE
:105AB0000490049808B90D2012E7049848442189FD
:105AC00000EB111006900698834501D20D2007E7E0
:105AD0000698ABEB0000A178B0FBF1FABAF1000F29
