:020000040800F2
:10000000000900205D0400084104000843040008C2
:10001000470400084B0400084F04000800000000DB
:100020000000000000000000000000005304000871
:100030005504000800000000570400085904000897
:1000400077040008770400087704000877040008A4
:100050007704000877040008770400087704000894
:100060007704000877040008770400087704000884
:100070007704000877040008770400087704000874
:100080007704000877040008770400087704000864
:100090007704000877040008770400087704000854
:1000A0007704000877040008770400087704000844
:1000B0007704000877040008770400087704000834
:1000C0007704000877040008770400087704000824
:1000D00077040008ED1700083B1A000877040008B1
:1000E0007704000877040008770400087704000804
:1000F00077040008770400087704000877040008F4
:1001000077040008770400087704000877040008E3
:1001100077040008770400087704000877040008D3
:1001200077040008770400087704000877040008C3
:1001300077040008770400087704000877040008B3
:1001400077040008770400087704000877040008A3
:100150007704000877040008770400087704000893
:100160007704000877040008770400087704000883
:100170007704000877040008770400087704000873
:10018000770400087704000800F002F800F04CF84B
:100190000AA090E8000C82448344AAF10107DA45E2
:1001A00001D100F041F8AFF2090EBAE80F0013F0E8
:1001B000010F18BFFB1A43F001031847746A0000CF
:1001C000946A0000103A24BF78C878C1FAD8520760
:1001D00024BF30C830C144BF04680C6070470000C1
:1001E0000023002400250026103A28BF78C1FBD840
:1001F000520728BF30C148BF0B607047642904F024
:100200002B81732904F08382002070471FB504F00E
:10021000DBFE9DE8030004F0C9FC04F0BBFA1FBD3F
:1002200010B504F020FB10BD04F083FB1146FFF76E
:10023000EDFF00F009F804F087FC03B4FFF7F0FFCE
:1002400003BC04F025FE00004FF4165001F052FAF2
:1002500004F007F801F01AF900F078FD01F04EF90A
:100260004FF4784054490880532140F2F31001F0D4
:10027000C9F901F01FFA4FF4A06001F099FE4FA3F5
:1002800018220A21084601F00FF851A31022282154
:10029000142001F009F853A3182250211E2001F068
:1002A00003F854A310226E21322000F0FDFF56A364
:1002B00010228221322000F0F7FF58A3102296214D
:1002C000322000F0F1FF75E0002001F02DF90A2046
:1002D00004F024F855480078012817D154480068E4
:1002E00008B9012000E00020514908604FF4805116
:1002F000504801F0CFFF4FF400514E4801F0CCFFC1
:100300004FF4FA7421464C4803F0E3FA474800786A
:10031000022818D14648001D006808B9012000E0F5
:1003200000204349091D08604FF48051414801F005
:10033000B1FF4FF400513F4801F0AEFFFA242146CF
:100340003D4803F0C6FA39480078032817D13B48E6
:10035000006808B9012000E00020384908604FF427
:100360000051344801F096FF4FF48051314801F0BC
:1003700093FF4FF4FA7421462F4803F0AAFA2B4852
:100380000078042816D12A48006808B9012000E046
:100390000020274908604FF40051264801F07AFFF9
:1003A0004FF48051234801F077FFFA242146224878
:1003B00003F08FFA88E7000014000020496C6C7588
:1003C0006D696E6174692053544D333246340000B8
:1003D000417574686F723A5368656E206A696E671A
:1003E000626F0000342E5446544C4344205445530D
:1003F000540000004B4559303A53637265656E20D6
:1004000054657374000000004B4559313A4E756DC8
:100410006265722054657374000000004B455932C8
:100420003A54696D652054657374000026000020FD
:100430008C024242000C024000000140A4024342F0
:10044000704700BFFEE700BFFEE700BFFEE700BF4A
:10045000FEE77047704770477047000009488047C3
:1004600009480047FEE7FEE7FEE7FEE7FEE7FEE796
:10047000FEE7FEE7FEE7FEE704480549054A064BAE
:10048000704700007905000889010008000300207A
:100490000009002000050020000500200CB5002008
:1004A000019000907648006840F4803074490860FC
:1004B00000BF7348006800F4003000900198401CB1
:1004C0000190009818B90198B0F5A04FF1D16C488F
:1004D000006800F4003010B10120009001E000201D
:1004E00000900098012846D165484030006840F0EF
:1004F00080506349403108606248006840F44040E1
:10050000604908605E48083000685D49083108604D
:100510000846006840F4004008600846006840F45F
:10052000A05008605848091F0860081F006840F084
:100530008070091F086000BF5148006800F000701B
:100540000028F9D040F20570504908604C48083046
:10055000006820F003004A49083108600846006836
:1005600040F00200086000BF45480830006800F015
:100570000C000828F8D10CBD10B54548006840F4BF
:100580007000434908603E48006840F001003C4963
:10059000086000203A4908310860394800683D4940
:1005A0000840374908603C48091D0860081F00687A
:1005B00020F48020091F0860002031490C310860B8
:1005C000FFF76CFF4FF0006031498039086010BDC3
:1005D00070B500200022022300240221284D083596
:1005E0002D6805F00C0020B1042806D0082834D16D
:1005F00007E02A4D2A4E356033E02A4D284E3560FB
:100600002FE01F4D2D1D2D68C5F380541C4D2D1D51
:100610002D6805F03F0154B1224DB5FBF1F5184EA0
:10062000361D3668C6F3881605FB06F209E01B4D39
:10063000B5FBF1F5124E361D3668C6F3881605FB7C
:1006400006F20F4D2D1D2D68C5F301456D1C6B0085
:10065000B2FBF3F5124E356003E0104D104E3560DD
:1006600000BF00BF064D08352D68C5F303150E4EBB
:10067000705D0B4D2D68C540094E356070BD0000A2
:10068000003802400070004008544007003C02401F
:1006900088ED00E0FFFFF6FE103000240024F40097
:1006A0000000002000127A0004000020F64A1080AA
:1006B000921C1180704710B50446F3480480042052
:1006C00003F0E4FDF048801C008810BD00BF011E4F
:1006D000A0F10102D0B2FAD17047EC480088EA4993
:1006E000088070472920E849088070472820E6499B
:1006F0000880704730B58418641EA2B2CC18641EFE
:10070000A3B2E34C24786CBBE24C248841F6631519
:10071000AC4227D1E04C2488A41A241AA0B2CC18E9
:10072000641EA3B2DD4C2488D74D2C800412AD1C6E
:100730002C80C4B22C808418641EC4F30F242C8037
:100740008418641EE4B22C80D54C2488AD1E2C8005
:100750000C12AD1C2C80CCB22C801C122C80DCB274
:100760002C8019E0CD4C2488C74D2C800412AD1C80
:100770002C80C4B22C8014122C80D4B22C80C84C93
:100780002488AD1E2C800C12AD1C2C80CCB22C8089
:100790001C122C80DCB22C8030BD70B505460024C4
:1007A0000026BB480078012805D1BA48008849F2E4
:1007B0004131884208D0B6480078F0B9B548008881
:1007C00041F66311884218D1082D15D2DFE805F0F3
:1007D0000406080A0C0E101206250DE007250BE092
:1007E000042509E0052507E0012505E0002503E0D3
:1007F000032501E0022500BF00BF082D1CD2DFE861
:1008000005F00406090C0F12151800BF14E044F09F
:10081000800411E044F040040EE044F0C0040BE01A
:1008200044F0200408E044F0600405E044F0A00433
:1008300002E044F0E00400BF00BF3626954800887F
:1008400049F24131884201D144F008042146304642
:10085000FFF72CFF934803888F4802880021084641
:10086000FFF748FF70BD10B504468CBB00208849D7
:1008700008708848008849F24131884210D12C2004
:10088000824908802A20854908802B2084490880D5
:10089000F020814908804FF4A0708249088049E027
:1008A0007C48008841F66311884243D12C20774967
:1008B00008802B20794908802A20794908804FF444
:1008C000F070754908804FF448707649088031E02F
:1008D000FFE701206E4908706E48008849F24131F7
:1008E000884210D12C20694908802A206B49088051
:1008F0002B206B4908804FF4A07067490880F020D6
:100900006849088016E06348008841F66311884210
:1009100010D12C205D4908802A20604908802B20B6
:100920005F4908804FF448705B4908804FF4F070CD
:100930005C4908800020FFF730FF10BD554A12883F
:1009400049F241339A4212D1544A12884E4B1A80CE
:1009500002129B1C1A80C2B21A80514A12889B1E36
:100960001A800A129B1C1A80CAB21A8042E0494AB5
:10097000128841F663139A423CD1454A12788AB9EB
:10098000454A1288521E121A90B2444A12883E4BAF
:100990001A8000229B1C1A801A8002121A80C2B28E
:1009A0001A8013E03D4A1288374B1A8002129B1CB2
:1009B0001A80C2B21A80384A1288521EC2F30F221D
:1009C0001A80354A1278521ED2B21A80344A1288DE
:1009D0002D4B1A800A129B1C1A80CAB21A80314A07
:1009E0001288521EC2F30F221A802E4A1278521E0B
:1009F000D2B21A8070473EB504460D4600200290E0
:100A00000190009029462046FFF798FF2E201E49AE
:100A10000880881C008802901E48008841F66311F7
:100A2000884202D1BDF808003EBD0220FFF74EFE0D
:100A30001548801C00880090BDF80800C0B20190E5
:100A4000BDF804004FF6FF7101EA00200190BDF8E7
:100A50000800C012C002BDF80410891240EA41101B
:100A6000BDF8001040EAE120DEE730B504460D464F
:100A700029462046FFF762FFFFF72FFE0A4800884D
:100A80000149891C088030BDFE1F006C2000002039
:100A90001A000020180000201C0000202200002066
:100AA000240000201E0000201400002070B5054620
:100AB0000E46144631462846FFF7D7FFFE48008809
:100AC000FE490880881C048070BDBE21FB4A11804D
:100AD0000521921C11801146088001211180FF21FF
:100AE0001180002111801180704770B504460025E7
:100AF0000026F3480088F349098800FB01F600212D
:100B00000846FFF71BFFFFF7E8FD00BF03E0EB48D7
:100B1000801C04806D1CB542F9D370BD00B59FB038
:100B20000121782002F0BCF80121084602F0F0F81B
:100B30004FF480601D9001208DF8780000208DF822
:100B40007A0002208DF8790001208DF87B001DA924
:100B5000DD4801F023FB4CF233701D9002208DF82C
:100B6000780000208DF87A0003208DF879000120AC
:100B70008DF87B001DA9D54801F010FB4FF6807061
:100B80001D9002208DF8780000208DF87A00032057
:100B90008DF8790001208DF87B001DA9CC4801F06B
:100BA000FDFA04201D9002208DF8780000208DF8B9
:100BB0007A0003208DF8790001208DF87B001DA9B3
:100BC000C44801F0EBFA4FF480501D9002208DF8DC
:100BD000780000208DF87A0003208DF8790001203C
:100BE0008DF87B001DA9BB4801F0D8FA0C2200212A
:100BF000B64801F05EFB0C220121B44801F059FB1C
:100C00000C220421B14801F054FB0C220521AF480D
:100C100001F04FFB0C220821AC4801F04AFB0C22EA
:100C20000921AA4801F045FB0C220A21A74801F03E
:100C300040FB0C220E21A54801F03BFB0C220F21AA
:100C4000A24801F036FB0C220721A14801F031FB3C
:100C50000C2208219E4801F02CFB0C2209219C4803
:100C600001F027FB0C220A21994801F022FB0C22FB
:100C70000B21974801F01DFB0C221146944801F00E
:100C800018FB0C220D21924801F013FB0C220E21BF
:100C90008F4801F00EFB0C220F218D4801F009FB5B
:100CA0000C2202218B4801F004FB0C2211468948DA
:100CB00001F0FFFA0F200790002008903C200990D7
:100CC00000200A900B900C900D90082000900020BE
:100CD0000190072002900020039004900590069058
:100CE00006200E9000200F901090102011900020F0
:100CF000129014901390159016904FF48050179006
:100D0000002018904FF48040199000201A9007A8F6
:100D10001B90CDF870D00EA801F01FFB012106201A
:100D200001F0A6FB322003F0F9FA1FB000BDD32179
:100D3000624A1180911C0888088808884FF6FF7164
:100D400001EA0020911C09880843704710B5FFF79D
:100D5000E5FEFFF7ECFF604908800846008849F28D
:100D60004131884223D0A12054490880881C008842
:100D7000594908805148801C00880880084600882E
:100D80004FF6FF7101EA0020534908804B48801C50
:100D9000008809880843504908800846008845F2C1
:100DA0006171884203D141F663104B4908804A487B
:100DB000008849F2413188421CD14848006820F03F
:100DC0000F004FF02041C1F81C010846D0F81C016B
:100DD00020F47060C1F81C010846D0F81C0140F0F6
:100DE0000300C1F81C010846D0F81C0140F4007053
:100DF000C1F81C013848008849F2413188426FD15E
:100E0000CF202E4908800020891C0880C12008803E
:100E100030200880ED20891E08806420891C08800D
:100E2000032008801220088081200880E820891E85
:100E300008808520891C0880102008807A2008807E
:100E4000CB20891E08803920891C08802C2008802E
:100E5000002008803420088002200880F720891EA6
:100E600008802020891C0880EA20891E0880002034
:100E7000891C08800880C020891E08801B20891CCE
:100E80000880C120891E08800120891C0880C52097
:100E9000891E08803020891C08800880C720891E90
:100EA0000880B720891C08803620891E08804820C9
:100EB000891C08803A2014E020000020FE1F006CEE
:100EC0001C0000201E00002000140240000C024004
:100ED0000010024000180240180000201C0100A071
:100EE00082E0891E08805520891C0880B120891E57
:100EF00008800020891C08801A200880B620891EDE
:100F000008800A20891C0880A2200880F220891EFF
:100F100008800020891C08802620891E0880012066
:100F2000891C0880E020891E08800F20891C088009
:100F30002A20088028200880082008800E200880A9
:100F40000820088054200880A920088043200880B9
:100F50000A2008800F200880002008800880088070
:100F60000880E120891E08800020891C0880152047
:100F7000088017200880072008801120088006209C
:100F800008802B200880562008803C2008800520FF
:100F90000880102008800F2008803F2008800880EB
:100FA0000F2008802B20891E08800020891C0880C3
:100FB0000880012008803F2008802A20891E0880A0
:100FC0000020891C088008800880EF2008801120FC
:100FD000891E0880782003F0A1F92920FA490880A9
:100FE0000120FA49086098E0F948008841F6631149
:100FF0008842F8D1E220F44908801D20891C08802D
:101000000220088004200880642003F03FF9E020DB
:10101000ED4908800120891C08800A2003F07EF930
:10102000E020E94908800320891C08800C2003F097
:1010300075F90120E44908800A2003F06FF9E620E1
:10104000E14908802F20891C0880FF200880088043
:10105000B020891E08802020891C0880002008807C
:101060000320088040F21F3008800120088040F2F1
:10107000DF10088000200880B420891E088004202A
:10108000891C088040F21F400880002008802E2024
:10109000088000200880088008800880B620891E0B
:1010A00008800220891C08804FF40370088000200B
:1010B00008801720088015200880002008800880FC
:1010C000F020891E08800320891C08802920891EA1
:1010D0000880D02008800020891C0880BE20891E3E
:1010E00008800520891C0880FE20088001200880D7
:1010F0000020088008800880B820891E088003200E
:10110000891C088001200880BA20891E08800120DF
:10111000891C0880FF20FFF7D8FC0020FFF7A3FB05
:101120004FF6FF70FFF7E1FC10BD2DE9F04F0546CB
:101130000E4617469846DDF824A04FF0000B781BAA
:10114000401C1FFA80FB344614E021462846FFF776
:10115000F5FBFFF7C2FA4FF0000907E09A48801C40
:10116000A0F800A009F101001FFA80F9D945F5DBCC
:10117000601C84B24445E8DDBDE8F08F2DE9F84FEE
:1011800007460D4690469946DDF828B0A8EB0700C3
:10119000401C80B20090A9EB0500401C1FFA80FAA9
:1011A000002416E0281981B23846FFF7C7FBFFF785
:1011B00094FA002608E004FB0A603BF8100082491C
:1011C000891C0880701C86B200988642F3DB601C84
:1011D00084B25445E6DBBDE8F88F2DE9FF4F0746A2
:1011E00016461C46BB460C2C01D198460AE0102C32
:1011F00001D1A04606E0182C02D14FF0300801E0E2
:10120000BDE8FF8FA6F12000C6B2002548E00C2CF7
:1012100007D106EB46006F4901EB800010F80590FE
:1012200010E0102C05D16C4800EB061010F805906A
:1012300008E0182C06D106EB4600684901EB0010C7
:1012400010F805904FF0000A24E009F0010030B1D9
:101250006348028838460199FFF728FC05E0614899
:10126000028838460199FFF721FC4FEA6909781C8A
:1012700087B2A7EB0B0104EBD472B1EB620F05D17F
:101280005F460198401C80B2019006E00AF101001F
:1012900000F0FF0ABAF1080FD7DB00BF681CC5B227
:1012A0004545B4DB00BFABE7F0B506460F46154633
:1012B0001C4611E022782B4639463046FFF78DFF59
:1012C000284605EBD07106EB61018EB246480088D6
:1012D000864200DB06E0641C2078202802DB2078B0
:1012E0007E28E7DD00BFF0BD2DE9F04F04460D4636
:1012F00016461F46DDE909893948B0F800A039488B
:10130000B0F800B03648A0F800803648A0F8009049
:101310003B46324629462046FFF7C6FF3048A0F834
:1013200000A03048A0F800B0BDE8F08F10B502462C
:10133000012000E050430B1EA1F10104E1B2F9D1FC
:1013400010BD2DE9FF4F81B0074690461E460E9C0A
:10135000C3464FF0000906E00A20BBFBF0FB09F191
:10136000010000F0FF09BBF1000FF5D1B14508DD28
:101370001EA3224638460299FFF796FF05B0BDE846
:10138000F08F002553E0A6EB0900A84232DD0F984C
:1013900060B104EBD471491001FB057188B223469A
:1013A000302200940299FFF718FF3EE004EBD4715D
:1013B000491001FB057188B223462022009402994E
:1013C000FFF70BFF31E00000FE1F006CA8824242D5
:1013D00018000020D24F000846540008365A000872
:1013E00014000020160000201C0000204552524F1F
:1013F00052000000701B401EC1B20A20FFF796FF8A
:10140000B8FBF0F00A21B0FBF1F201FB120A04EB89
:10141000D471491001FB057188B20AF13001CAB2DA
:10142000234600940299FFF7D8FE681CC5B2B54266
:10143000A9DB00BFA2E72DE9FF4F82B004460D46AD
:101440001646DDE91189109F0E48B0F800A00E483D
:10145000B0F800B00B48A0F800800B48A0F800904E
:101460000F98CDE90007324629462046059BFFF735
:1014700068FF0448A0F800A00348A0F800B006B038
:10148000BDE8F08F14000020160000201CB50121DB
:10149000512001F005FC1820009001208DF8040077
:1014A00000208DF8060003208DF8050001208DF83E
:1014B000070069460E4800F071FE18210C4800F044
:1014C000E9FE4FF40070009069460A4800F066FE9D
:1014D0004FF40071074800F0DDFE022000906946DD
:1014E000054800F05BFE0221034800F0D3FE1CBD5E
:1014F0000010024000180240000002401CB501210B
:10150000202001F0CDFB4FF47070009000208DF88A
:10151000040003208DF8050001208DF807006946BE
:10152000314800F03BFE1CBD0021304A11703049AB
:10153000096861B12E49091F096841B12C49083970
:10154000096821B12A490C39096800293CD1284988
:10155000096819B90121274A117016E02449091FA9
:10156000096819B90221234A11700EE0204908398F
:10157000096819B903211F4A117006E01C490C398A
:10158000096811B904211B4A11701A4909781A4ACD
:101590001278914210D119490988491C174A1180C3
:1015A00014490978164A1170E8B9144909880129C3
:1015B00019DD0021117016E00021104A11800D493B
:1015C00009780D4A11700EE00C490988022903DDE3
:1015D00008490978054A11700021074A1170074A25
:1015E0001180074A11707047001402402700002044
:1015F000248242422A0000202B00002028000020E4
:101600002600002030B58BB004460D460121102085
:1016100001F046FB02208DF8080000208DF80A003A
:101620004FF40070019000208DF80B0003208DF81E
:10163000090001A91D4800F0B1FD012209211B4844
:1016400000F037FE0121084601F084FB681E80B2DD
:10165000ADF820000020ADF82200601E09900020A7
:10166000ADF8280008A9124801F045FF6020ADF848
:101670000C000120ADF80E000020ADF81800059018
:1016800003A90B4801F0CCFF0821094802F055F9E5
:101690000121074801F09AFF0121054801F0B4FF3C
:1016A0000121034802F0A1FB0BB030BD0010024045
:1016B000000001401CB50121082001F0F1FA4FF4AF
:1016C0004050009001208DF8040000208DF80600A5
:1016D00003208DF8050002208DF8070069460448B4
:1016E00000F05CFD4FF48051014800F0D5FD1CBDB9
:1016F000000C024010B588B004460121084601F0F4
:10170000CFFA0121102001F025FB0722092198487A
:1017100000F0CFFD07220A21954800F0CAFD4FF4E2
:10172000C060069002208DF81C008DF81D0000207E
:101730008DF81E0001208DF81F0006A98C4800F0CE
:101740002DFD02940020ADF80C00ADF80E00ADF8B0
:101750001000ADF814000C20ADF8120002A9854865
:1017600001F059FC0121834801F0DDFC4021814852
:1017700001F0C1FD012240F225517E4801F089FDB2
:1017800025208DF8040003208DF805008DF8060053
:1017900001208DF8070001A800F00FFC08B010BD73
:1017A00000BF7449098801F040010029F9D071494E
:1017B0008880704770B504460D46E0B2FFF7F0FF31
:1017C00000BF40216B4801F089FD0028F9D0204678
:1017D00070BD10B503460C46002200BF985CFFF7B1
:1017E000DFFF501C82B2A242F8DB10BD10B540F200
:1017F0002551604801F088FD002808D05D4801F0BF
:10180000C1FCC4B2532C03D101205B490870AEE087
:10181000452C7DD159495AA002F0AEFED8B959489D
:10182000006808B9012000E00020564908604FF424
:101830008051554800F02EFD4FF40051524800F001
:101840002BFD4FF4FA705149086008460168504872
:1018500002F03FF863E049494EA002F08DFEE0B986
:101860004848001D006808B9012000E000204549F3
:10187000091D08604FF48051434800F00BFD4FF400
:101880000051414800F008FDFA2040490860084630
:1018900001683F4802F01DF841E038493EA002F0DF
:1018A0006BFED8B93D48006808B9012000E000206F
:1018B0003A4908604FF40051334800F0EBFC4FF414
:1018C0008051314800F0E8FC4FF4FA702F4908606D
:1018D000084601682E4801F0FCFF20E0274930A0AF
:1018E00002F04AFED8B92748006808B9012000E094
:1018F0000020244908604FF40051234800F0CAFC3E
:101900004FF48051204800F0C7FCFA201F4900E046
:101910001BE00860084601681D4801F0DAFF00205E
:101920001549087009E000201449134A12788854B8
:1019300011480078401C104908700F480078202892
:10194000F1DB00200C49087011E00B4800780028FA
:101950000DDD09480078642809DC07480078401E3E
:1019600006490C5404480078401C0349087010BD17
:1019700000000240001001402C00002078000020F0
:101980006B3000008C024242000C0240300000200C
:10199000000001406B3100006B320000A4024342A2
:1019A0006B33000010B588B004460121480401F0F3
:1019B000C0F90121084601F073F9042006900220C5
:1019C0008DF81D008DF81C0006A9D84800F0E6FB34
:1019D0000820069002208DF81C0006A9D34800F0CC
:1019E000DDFB26208DF8040004208DF80500002082
:1019F0008DF8060001208DF8070001A800F0DDFA3F
:101A000002940020ADF80C00ADF80E00ADF8100007
:101A1000ADF814000C20ADF8120002A9C44801F082
:101A2000FAFA012240F22551C14801F032FC0121AD
:101A3000BF4801F078FB08B010BD10B540F2255149
:101A4000BB4801F061FC10B10020BA49086010BD2C
:101A50001CB50121084601F023F910200090022056
:101A60008DF804008DF805006946B04800F096FB3B
:101A70001021AE4800F00EFC1CBD00BFAC49098827
:101A800001F040010029F9D0A949091D08807047DB
:101A900070B505460024284602F02CFD86B200BF32
:101AA000285DFFF7EAFF601C84B2B442F8DB0D202A
:101AB000FFF7E3FF0A20FFF7E0FF70BD70B50546B2
:101AC0000C4600209C490870C8219C4802F031FD5A
:101AD0002846FFF7DDFF1BE0322002F01FFC98A133
:101AE000964802F0F5FC08B1012070BD4FF47A7001
:101AF00094FBF0F100FB114038B94FF47A7094FB7D
:101B0000F0F631468FA002F029FCA4F1320084B235
:101B1000002CE1D18FA002F021FC0020E5E770B598
:101B200004460020914908604FF4FA7002F0D2FB9D
:101B300001208F49C1F890021BE0322002F0CAFB5D
:101B40008CA17E4802F0C4FC08B1012070BDA4F154
:101B5000320084B24FF47A7094FBF0F100FB114034
:101B600038B94FF47A7094FBF0F5294675A002F06D
:101B7000F5FB002CE1D181A002F0F0FB0020E5E7AD
:101B800000B5B3B0844B854A85A11AA802F0F2FBD8
:101B90008848894A89A1036801A802F0EBFBFFF796
:101BA00057FF4FF4E130FFF7FDFE00BF8A48007891
:101BB00088B98AA002F0D2FB41F28830FFF7AFFF6C
:101BC0000028F3D089A002F0C9FB83480078401CAC
:101BD00081490870EAE780480078012812D18AA07C
:101BE00002F0BCFB4FF47A6190A0FFF767FF00287A
:101BF000DCD079480078401C774908708EA002F04C
:101C0000ADFBD3E774480078022816D191A002F00A
:101C1000A5FB41F2883194A0FFF750FF0028C5D002
:101C20006D480078401C6C49087083A002F096FB58
:101C30004FF47A7002F072FBB8E767480078032827
:101C400015D1554B5C4A554989A002F087FB4FF4EA
:101C5000FA511AA8FFF732FF0028A7D05E48007893
:101C6000401C5D4908708FA002F078FB9EE75A483F
:101C70000078042812D192A002F070FB4FF4FA61B0
:101C800098A0FFF71BFF002890D053480078401C15
:101C90005149087096A002F061FB87E74E48007832
:101CA000052812D197A002F059FB41F2707101A8EA
:101CB000FFF704FF00288DD047480078401C4649B4
:101CC000087078A002F04AFB70E7434800780628C5
:101CD00012D193A002F042FB4FF47A619CA0FFF76F
:101CE000EDFE00288DD03C480078401C3A49087031
:101CF00051A002F033FB59E73748007807289BD101
:101D000097A002F02BFB4FF47A61A0A0FFF7D6FE5C
:101D1000002891D030480078401C2F4908709EA0C0
:101D200002F01CFB00BF00BF33B000BD000002404A
:101D3000004400409002424254000020DC00002099
:101D40004F4B000074696D656F75742D3E25640DF1
:101D50000A00000074696D656F75742C20747279C7
:101D600020616761696E210D0A0000009002404207
:101D70000000404272656164790000007761697417
:101D80002074696D656F75742C2074727920616799
:101D900061696E210D0A00003B0000203400002024
:101DA00041542B43574A41503D222573222C222572
:101DB00073220000440000204800002041542B43BF
:101DC000495053544152543D22544350222C222511
:101DD00073222C2564000000550000207769666995
:101DE0002072657365742E2E2E0D0A007769666960
:101DF00020726573657420737563636573736675AC
:101E00006C210D0A0000000073746570312D3E20B6
:101E1000636F6E6669672061732073746174696FA4
:101E20006E206D6F6465210D0A00000041542B4344
:101E3000574D4F44453D3100636F6E66696775725B
:101E40006174696F6E207375636365737366756C17
:101E5000210D0A0073746570322D3E207265737413
:101E6000617274210D0A000041542B52535400003A
:101E700073746570332D3E20636F6E6E65637420DE
:101E8000546F3D3E0D0A726F757465723A2025736A
:101E90003A25730D0A70617373776F72643A257314
:101EA0000D0A0000636F6E6E656374696F6E207358
:101EB00075636365737366756C210D0A000000001D
:101EC00073746570342D3E2073746172742073696D
:101ED0006E676C6520726F757465206D6F64652127
:101EE0000D0A000041542B4349504D55583D3000D8
:101EF0007374617274207375636365737366756C54
:101F0000210D0A0073746570352D3E20636F6E6E6F
:101F100065637420736572766572210D0A00000096
:101F200073746570362D3E20636F6E66696720613D
:101F300073207472616E73706172656E7420747256
:101F4000616E736D697373696F6E210D0A00000015
:101F500041542B4349504D4F44453D310000000052
:101F600073746570372D3E207374617274207472BF
:101F7000616E73706172656E74207472616E736DE0
:101F8000697373696F6E2E2E2E0D0A0041542B4318
:101F9000495053454E44000073746172742074724A
:101FA000616E736D697373696F6E210D0A000000B5
:101FB00032490143324A1160704770B50021002355
:101FC0000F22C4781CB32E4C246804F4E064C4F5DA
:101FD000E064C4F30721C1F10404E3B20A41447888
:101FE0009C40E1B28478144021430C07210E254C1B
:101FF00005786155047804F01F050124AC4005788C
:102000006D11AD0005F1E025C5F8004109E0047847
:1020100004F01F050124AC401B4D0678761145F8ED
:10202000264070BD194A0A400243154B1B1F1A6017
:10203000704739B1124A121D12680243104B1B1D22
:102040001A6006E00E4A121D126882430C4B1B1DDB
:102050001A607047042808D14FF0E021096941F067
:1020600004014FF0E022116107E04FF0E02109691F
:1020700021F004014FF0E022116170470000FA05E1
:102080000CED00E000E400E080E100E080FFFF1FD5
:1020900010B504469848844208D10121084600F052
:1020A0006AFE0021012000F066FE76E0934884423B
:1020B00008D10121022000F05EFE0021022000F084
:1020C0005AFE6AE08E48844208D10121042000F0C3
:1020D00052FE0021042000F04EFE5EE0894884425A
:1020E00008D10121082000F046FE0021082000F060
:1020F00042FE52E08448844208D10121102000F0C1
:102100003AFE0021102000F036FE46E07F4884426F
:1021100008D10121202000F02EFE0021202000F017
:102120002AFE3AE07A48844208D10121402000F09A
:1021300022FE0021402000F01EFE2EE07548844261
:1021400008D10121802000F016FE0021802000F03F
:1021500012FE22E07048844208D10121801500F06F
:102160000AFE0021A01500F006FE16E06B4884422E
:1021700008D10121401500F0FEFD0021601500F09E
:10218000FAFD0AE06648844207D10121001500F0FB
:10219000F2FD0021201500F0EEFD10BDF0B50A465D
:1021A00000210023002400BF3DE0012505FA01F3D2
:1021B000156805EA03049C4234D105684F000326E4
:1021C000BE40B543056015794E00B54006683543FD
:1021D00005601579012D02D01579022D16D185687B
:1021E0004F000326BE40B543856055794E00B5408B
:1021F000866835438560456801268E40B543456055
:10220000456896798E40B6B235434560C5684F0043
:102210000326BE40B543C560D5794E00B540C668BB
:102220003543C560491C1029BFD3F0BD4FF6FF717F
:1022300001600021017141718171C171704708B560
:102240004FF480320092009A0A430092009AC261D1
:10225000C161009AC261C2690092C269009208BD60
:102260000246002013690B400BB1012000E0002062
:1022700070470146086980B27047024600205369E2
:102280000B400BB1012000E0002070470146486977
:1022900080B2704701837047418370470AB1018360
:1022A00000E0418370474161704742694A404261A2
:1022B0007047F0B5002300244D07ED0E02FA05F338
:1022C000CE1000F1200555F826504E07F70E0F26C8
:1022D000BE40B543CF1000F1200646F82750CE107F
:1022E00000F1200555F8265045EA0304CE1000F110
:1022F000200545F82640F0BD0000024000040240E1
:1023000000080240000C024000100240001402408D
:1023100000180240001C024000200240002402403D
:102320000028024030B943F2DB028100A1F1C04134
:102330000A6005E043F2D2028100A1F1C0410A60C7
:102340006FF07042411C8900A1F1C0410A60810018
:10235000A1F1C041C1F804217047D0E90112114335
:10236000C2681143026911434269114382691143F2
:10237000C2691143026A1143426A1143826A1143DE
:10238000C26A1143026B114302689200A2F1C0427B
:102390001160816808290BD101688900A1F1C04151
:1023A000096841F0400201688900A1F1C0410A605A
:1023B000416B0968426B526841EA0211426B9268B4
:1023C00041EA0221426B928941EA0241426B128A40
:1023D00041EA0251426B127D41EA0261426B92690D
:1023E00011430268521C9200A2F1C0421160C16AFE
:1023F000B1F5804F1BD1816B0968826B526841EA4D
:102400000211826B926841EA0221826B128A41EAD0
:102410000251826B127D41EA0261826B9269114323
:1024200002689200A2F1C042C2F8041107E06FF006
:10243000704201688900A1F1C041C1F804217047D0
:10244000002101600221416000218160C1600161C1
:1024500041618161C16101624FF480514162490073
:1024600081620021C1620163F84941638163704761
:1024700051B18200A2F1C042126842F00103820011
:10248000A2F1C042136009E08200A2F1C0421268CA
:10249000EF4B1A408300A3F1C0431A607047102825
:1024A0000AD118214FF020421166402151664FF0A9
:1024B000FC319166D16610E01821E64A1160402196
:1024C0004FF02042C2F884104FF0FC31E14A08324C
:1024D00011604FF02042C2F88C10704730B50021D7
:1024E00000220023446844F0080485682C43C56832
:1024F0002C4305692C43456944EA4524856944EA2F
:102500004531C4692468C5696D6844EA0524C56914
:102510002D8944EA0544C5692D7B44EA0562046AB5
:102520002468056A6D6844EA0524056A2D8944EA31
:102530000544056A2D7B44EA05630468102C05D127
:102540004FF020442166A266E36608E0C14C21609A
:102550004FF02044C4F88820BE4C0C34236030BDBA
:1025600010210160002141608160C1600161416111
:102570008161FC21C2691160C2695160C2699160C8
:10258000C269D160026A1160026A5160026A916098
:10259000026AD160704799B1102808D14FF02042EB
:1025A000126E42F004024FF020431A661DE0A94A61
:1025B000126842F004024FF02043C3F8802014E078
:1025C000102809D14FF02042126EA14BDB1E1A4099
:1025D0004FF020431A6608E09E4A12689C4BDB1EAF
:1025E0001A404FF02043C3F88020704799B110285B
:1025F00008D14FF02042126E42F040024FF02043CB
:102600001A661DE0934A126842F040024FF02043E0
:10261000C3F8802014E0102809D14FF02042126E38
:102620008B4B3F3B1A404FF020431A6608E0894A23
:102630001268874B3F3B1A404FF02043C3F880207D
:10264000704701460020102903D14FF02042506FFF
:1026500002E0804A14321068704718207D4920310A
:10266000086000200906C1F8A4004FF0FC30794949
:1026700028310860091D0860091D0860704701685D
:1026800041F01001426841EA4221826841EA423148
:10269000704A20321160C1680968C268526841EA14
:1026A0000221C268128941EA0241C268127B41EAF2
:1026B0000261684A2832116001690968026952683A
:1026C00041EA02210269128941EA02410269127B50
:1026D00041EA02615F4A2C3211604169096842692E
:1026E000526841EA02214269128941EA0241426983
:1026F000127B41EA02614FF02042C2F8B0107047ED
:102700000021016041608160FC21C2681160C268E3
:102710005160C2689160C268D1600269116002694B
:102720005160026991600269D16042691160426939
:102730005160426991604269D160704748B1454932
:102740002031096841F004014FF02042C2F8A01086
:1027500009E04049203109683D4AD21E11404FF03E
:102760002042C2F8A010704710B5F2B1102807D16E
:102770004FF020435B6E0B434FF02044636632E022
:10278000B0F5807F08D1334B1B1D1B680B434FF006
:102790002044C4F8843026E02E4B24331B680B43BE
:1027A0004FF02044C4F8A4301DE0102807D14FF0AA
:1027B00020435B6E8B434FF02044636613E0B0F51B
:1027C000807F08D1234B1B1D1B688B434FF0204497
:1027D000C4F8843007E01F4B24331B688B434FF051
:1027E0002044C4F8A43010BD10B5024600200023D8
:1027F000102A03D14FF02044636E09E0B2F5807FC8
:1028000003D1144C241D236802E0124C24342368A5
:1028100003EA01040CB1012000E0002010BD1028E3
:1028200007D14FF02042526E8A434FF020435A6640
:1028300019E0B0F5807F0FD1064A121D12688A4355
:102840004FF02043C3F884200DE00000086C00081E
:10285000FEFF0F00800000A0234A12688A434FF059
:102860002043C3F8A420704770B50246002000231F
:1028700000240025102A03D14FF02046736E08E093
:10288000B2F5807F03D1184E203E336801E0164E2A
:10289000336803EA010403EAD10514B10DB1012044
:1028A00000E0002070BD102808D14FF02042526E89
:1028B00022EAD1024FF020435A6614E0B0F5807F3F
:1028C00009D1094A203A126822EAD1024FF0204386
:1028D000C3F8842007E0044A126822EAD1024FF0CC
:1028E0002043C3F8A4207047A40000A0F948006862
:1028F00040F00100F74908600020F64908310860FF
:10290000F4480068F4490840F2490860F348091D9A
:102910000860F348EF4984310860F0481038091D19
:102920000860EC48006820F48020EA490860002034
:10293000E8490C310860E7498C3108607047002194
:10294000E44A921C117011460870704710B5014698
:102950000022002300204A11012A02D1DD4C236805
:1029600008E0022A03D1DB4C7034236802E0D94C22
:102970007434236801F01F02012494401C400CB100
:10298000012000E0002010BD38B500200090002498
:10299000002500BF3120FFF7D9FF05460098401CF5
:1029A00000900098B0F5A04F01D0002DF2D031205A
:1029B000FFF7CCFF08B1012400E00024204638BD19
:1029C00001460020C34A106820F0F80040EAC10028
:1029D00010607047C349086070470021BD4A7032DB
:1029E00011701170012802D004280AD104E00121DD
:1029F000B84A7032117005E00521B64A7032117084
:102A000000E000BF00BF7047B7490860704770B56D
:102A1000049C41EA82150126C6EB530645EA0645A9
:102A2000054345EA0465AB4E361D356070BDAD49C2
:102A300008667047820142EA0172A64B84331A602D
:102A40007047A8498866704710B5830143EA01635F
:102A500043EA02739F4C8834236010BDA149086784
:102A60007047A049C864704702460020994B08335C
:102A7000186820F0EC6042EA01031843954B0833D4
:102A80001860704702460020924B0833186820F007
:102A9000784042EA010318438E4B083318607047B0
:102AA000014600208B4A0832106820F003000843DA
:102AB0001060704787480830006800F00C007047CD
:102AC00001460020834A0832106820F0F0000843D5
:102AD00010607047014600207E4A0832106820F4DA
:102AE000E05008431060704701460020794A0832E0
:102AF000106820F4604040EAC10010607047F0B5F3
:102B0000002100220024022500260223714F0837ED
:102B10003F6807F00C0121B1042905D0082937D1FD
:102B200005E0724F076036E0714F076033E0694F90
:102B30003F1D3F68C7F38056664F3F1D3F6807F053
:102B40003F036EB16A4FB7FBF3F7DFF888C10CF1B2
:102B5000040CDCF800C0CCF3881C07FB0CF40CE080
:102B6000624FB7FBF3F7DFF86CC10CF1040CDCF833
:102B700000C0CCF3881C07FB0CF4564F3F1D3F6888
:102B8000C7F301477F1C7D00B4FBF5F7076002E047
:102B9000564F076000BF00BF4E4F08373F6807F031
:102BA000F0010909534F7A5C0768D7404760494FE5
:102BB00008373F6807F4E051890A4E4F7A5C47684E
:102BC000D7408760434F08373F6807F46041490B9F
:102BD000484F7A5C4768D740C760F0BD002100F4D9
:102BE0004072B2F5407F0AD13A4A0832116821F4A6
:102BF000F811414A02401143364A08321160354A01
:102C000070321268C0F30B031A43324B70331A60F0
:102C10007047354944390860704733494039086086
:102C2000704736490860704701460020294A8C32B7
:102C3000106820F01F004A1E1043264A8C32106094
:102C4000704701460020234A8C32106820F4F85067
:102C50004A1E40EA02201F4A8C321060704701462B
:102C600000201C4A8C32106820F440100843106089
:102C7000704701460020174A8C32106820F440004B
:102C800008431060704701460020124A8C321068D9
:102C900020F44030084310607047194908607047BD
:102CA00039B10C4A3032126802430A4B30331A6091
:102CB00006E0084A303212688243064B30331A600D
:102CC0007047F9B1034A343212680243014B34337E
:102CD0001A601CE000380240FFFFF6EA10300024C2
:102CE0000030002000004742800E47420024F400DC
:102CF00000127A0056000020FFFCFF0F5C014742E3
:102D0000E01147428F4A126882438E4B1A60704727
:102D100039B18C4A121D126802438A4B1B1D1A607E
:102D200006E0884A121D12688243864B1B1D1A60FA
:102D3000704739B1834A0C3212680243814B0C331D
:102D40001A6006E07F4A0C32126882437D4B0C33D6
:102D50001A60704739B17B4A103212680243794BCE
:102D600010331A6006E0774A103212688243754BBE
:102D700010331A60704739B1724A243A126802431C
:102D8000704B243B1A6006E06E4A243A1268824374
:102D90006C4B243B1A60704739B16A4A203A12687A
:102DA0000243684B203B1A6006E0664A203A1268EC
:102DB0008243644B203B1A60704739B1614A1C3A28
:102DC000126802435F4B1C3B1A6006E05D4A1C3AE6
:102DD000126882435B4B1C3B1A60704739B1594AF9
:102DE000143A12680243574B143B1A6006E0554AE6
:102DF000143A12688243534B143B1A60704739B13E
:102E0000504A103A126802434E4B103B1A6006E0DB
:102E10004C4A103A126882434A4B103B1A60704782
:102E200039B1484A1C3212680243464B1C331A60BF
:102E300006E0444A1C3212688243424B1C331A603B
:102E4000704739B13F4A2032126802433D4B20336C
:102E50001A6006E03B4A203212688243394B203325
:102E60001A60704739B1374A243212680243354B31
:102E700024331A6006E0334A243212688243314B0D
:102E800024331A60704739B12E4A2C32126802433B
:102E90002C4B2C331A6006E02A4A2C3212688243EB
:102EA000284B2C331A60704739B1264A30321268E9
:102EB0000243244B30331A6006E0224A3032126853
:102EC0008243204B30331A607047012808D11D49D6
:102ED0003C31096841F008011A4A3C32116007E0B0
:102EE00018493C31096821F00801164A3C3211604A
:102EF000704739B1134A273A12780243114B273BE6
:102F00001A7006E00F4A273A127882430D4B273B8E
:102F10001A7070470B484030006840F080700949D3
:102F200040310860704701460020064A283A12687E
:102F30000A400AB1012000E000207047014926390B
:102F4000087070473438024010B50446FA4884428D
:102F500008D101211020FFF752FF00211020FFF7B8
:102F60004EFF57E0F548844209D101214804FFF79C
:102F700035FF00214FF40030FFF730FF4AE0F04802
:102F8000844209D101218804FFF728FF00214FF472
:102F90008020FFF723FF3DE0EA48844209D1012168
:102FA000C804FFF71BFF00214FF40020FFF716FFB6
:102FB00030E0E548844209D101210805FFF70EFF02
:102FC00000214FF48010FFF709FF23E0DF4884421F
:102FD00008D101212020FFF712FF00212020FFF758
:102FE0000EFF17E0DA48844209D101218807FFF774
:102FF000F5FE00214FF08040FFF7F0FE0AE0D548D3
:10300000844207D101214005FFF7E8FE0021600559
:10301000FFF7E4FE10BD2DE9FF4705460E460024EC
:10302000A14600BFA046B08900B100BF2C8A24F49D
:103030004054F08804432C82AC8941F20C608443F4
:10304000B08831890843718908430443AC81AC8A54
:1030500024F44074B0890443AC826846FFF74FFD06
:10306000B548854202D0B948854202D1DDF80C90BE
:1030700001E0DDF80890A88900F4004040B109EBB8
:10308000C90000EB091031684900B0FBF1F707E017
:1030900009EBC90000EB091031688900B0FBF1F7BA
:1030A0006420B7FBF0F004012009642101FB1078D3
:1030B000A88900F4004040B1322000EBC800B0FB0A
:1030C000F1F000F00700044308E0322000EB0810A4
:1030D0006421B0FBF1F000F00F0004432C81BDE847
:1030E000FF874FF41651016000218180C18001816A
:1030F0000C21418100218181704710B502460020DA
:10310000108A20F470600B884C8823438C882343FA
:10311000CC8823431843108210BD002101804180D8
:103120008180C180704721B1828942F4005282813E
:1031300004E082894DF6FF731A4082817047028B4A
:1031400002F47F420283028B0A430283704721B15B
:10315000828942F40042828103E08289C2F30E0236
:103160008281704721B1828A42F40062828204E047
:10317000828A4FF2FF731A4082827047C1F30802BD
:103180008280704701468888C0F308007047028A31
:103190004FF6F0731A400282028A0A430282704795
:1031A00021B1828942F00202828104E082894FF6D5
:1031B000FD731A408281704782894FF2FF731A4073
:1031C000828182890A4382817047028A4FF6DF73C7
:1031D0001A400282028A0A430282704721B1028A9F
:1031E00042F48042028204E0028A4BF6FF731A40E6
:1031F00002827047818941F001018181704721B1CC
:10320000828A42F00802828204E0828A4FF6F773D3
:103210001A4082827047028BD2B20283028B42EA4A
:1032200001220283704721B1828A42F02002828209
:1032300004E0828A4FF6DF731A408282704721B120
:10324000828A42F01002828204E0828A4FF6EF7393
:103250001A4082827047828A4FF6FB731A4082823C
:10326000828A0A438282704721B1828A42F0020236
:10327000828204E0828A4FF6FD731A408282704790
:103280001AB1838A0B43838202E0838A8B43838251
:103290007047F0B50346002400260025002040F6C4
:1032A0006A17B94200D100BF1846C1F3421401F0B9
:1032B0001F06012707FA06F5012C01D10C3004E0A6
:1032C000022C01D1103000E014301AB107682F43EE
:1032D000076002E00768AF430760F0BD02460020C8
:1032E000B1F5007F00D100BF13880B400BB1012066
:1032F00000E00020704701F40072B2F5007F00D1B9
:1033000000BFCA430280704770B502460024002304
:103310000025002040F66A16B14200D100BFC1F37B
:10332000421501F01F03012606FA03F3012D13D104
:103330009689334017E0000000100140004400402F
:1033400000480040004C0040005000400014014084
:1033500000780040007C0040022D02D1168A3340E4
:1033600001E0968A33400C12012606FA04F416880E
:10337000344013B10CB1012000E0002070BD10B545
:103380000022002340F66A14A14200D100BF0A12B5
:1033900001249440A3B2DC43048010BD10B5044660
:1033A000FE48844208D101210846FFF728FD00218C
:1033B0000120FFF724FD9DE0B4F1804F08D10121E9
:1033C0000846FFF70BFD00210120FFF707FD91E004
:1033D000F348844208D101210220FFF7FFFC0021BD
:1033E0000220FFF7FBFC85E0EE48844208D1012172
:1033F0000420FFF7F3FC00210420FFF7EFFC79E045
:10340000E948844208D101210820FFF7E7FC0021A8
:103410000820FFF7E3FC6DE0E448844208D1012175
:103420001020FFF7DBFC00211020FFF7D7FC61E044
:10343000DF48844208D101212020FFF7CFFC002182
:103440002020FFF7CBFC55E0DA48844208D1012167
:103450000220FFF7D4FC00210220FFF7D0FC49E056
:10346000D548844209D101210804FFF7C8FC002196
:103470004FF48030FFF7C3FC3CE0D048844209D1D0
:1034800001214804FFF7BBFC00214FF40030FFF797
:10349000B6FC2FE0CA48844209D101218804FFF715
:1034A000AEFC00214FF48020FFF7A9FC22E0C548C4
:1034B000844208D101214020FFF790FC00214020E8
:1034C000FFF78CFC16E0C048844208D1012180201F
:1034D000FFF784FC00218020FFF780FC0AE0BB4856
:1034E000844207D101218015FFF778FC0021A01547
:1034F000FFF774FC10BD00220288A84B98420ED042
:10350000AC4B98420BD0B0F1804F08D0A44B9842FE
:1035100005D0A44B984202D0A34B984204D14FF659
:103520008F731A404B881A43A04B984207D0A04B88
:10353000984204D04FF6FF431A400B891A43028089
:103540004B68C3620B880385944B984202D0994B19
:10355000984201D18B7A03860123838270474FF012
:10356000FF314160002101800181418081727047FB
:103570000185828270470A46002101884FF68F73C9
:10358000194011430180704741627047C162704722
:103590000146486A70470146088D704721B102888C
:1035A00042F00202028004E002884FF6FD731A40E6
:1035B0000280704721B1028842F00402028004E0D8
:1035C00002884FF6FB731A400280704721B10288CF
:1035D00042F08002028004E002884FF67F731A40B6
:1035E0000280704702884FF6F7731A400280028803
:1035F0000A430280704702884FF6FF431A40028058
:1036000002880A430280704721B1028842F0010219
:10361000028004E002884FF6FE731A400280704771
:1036200070B5002400220023058C4FF6FE7635404D
:103630000584028C8388048B4FF68F752C40B51E51
:103640002C400D882C43751E2A408D892A434D88B5
:103650002A43524DA84202D0564DA84213D14FF6EC
:10366000F7752A40CD892A434FF6FB752A408D888D
:103670002A434FF6FF652B404FF6FF552B400D8A2E
:103680002B434D8A2B43838004838D6845630284DA
:1036900070BD70B5002400220023058C4FF6EF7634
:1036A00035400584028C8388048B48F6FF752C40D6
:1036B0004FF6FF452C400D884FF6FF7606EA0525AC
:1036C0002C434FF6DF752A408D8906EA05152A43FB
:1036D0004D8806EA05152A43304DA84202D0354DE3
:1036E000A8421DD14FF67F752A40CD894FF6FF764F
:1036F00006EA05152A434FF6BF752A408D8806EA6B
:1037000005152A434FF6FF352B404FF2FF752B402E
:103710000D8A06EA85052B434D8A06EA85052B436B
:10372000838004838D688563028470BD70B5002436
:1037300000220023058C4FF6FF6635400584028C7D
:103740008388848B4FF68F752C404FF6FC752C4088
:103750000D882C434FF6FF552A408D894FF6FF7692
:1037600006EA05252A434D8806EA05252A430B4D1E
:10377000A84202D00F4DA84238D14FF2FF752A401F
:10378000CD894FF6FF7606EA05252A434FF6FF3529
:103790002A408D8806EA05252A4319E000000140E9
:1037A0000004004000080040000C004000100040F1
:1037B000001400400004014000400140004401406A
:1037C0000048014000180040001C0040002000405C
:1037D0004EF6FF752B404DF6FF752B400D8A06EA1D
:1037E00005152B434D8A06EA05152B4383808483F8
:1037F0008D68C563028470BD70B50022002300246B
:10380000058C4EF6FF7635400584038C8488828BC8
:1038100048F6FF752A404FF6FF452A400D884FF6BF
:10382000FF7606EA05252A434DF6FF752B408D8964
:1038300006EA05352B434D8806EA05352B43FE4D38
:10384000A84202D0FD4DA84208D14BF6FF752C408E
:103850000D8A4FF6FF7606EA85152C438480828315
:103860008D680564038470BD0021018041808180E2
:1038700081608181C18101824182704770B50346B8
:10388000002000241846183001258D40ACB21D8C54
:10389000A5431D8409B108290AD100EB6100056820
:1038A0004FF68F76354005600568154305600FE0DB
:1038B0000D1FC5F34E052844056848F6FF763540D0
:1038C000056005684FF6FF7606EA02263543056077
:1038D00070BD4163704781637047C1637047016485
:1038E00070470A460021018B4FF68F731940114330
:1038F000018370470A460021018B48F6FF73194087
:103900004FF6FF7303EA02231943018370470A4607
:103910000021818B4FF68F731940114381837047CB
:103920000A460021818B48F6FF7319404FF6FF735A
:1039300003EA02231943818370470A460021018B61
:103940004FF6F77319401143018370470A4600216F
:10395000018B4FF2FF7319404FF6FF7303EA022306
:103960001943018370470A460021818B4FF6F77394
:1039700019401143818370470A460021818B4FF221
:10398000FF7319404FF6FF7303EA02231943818343
:1039900070470A460021018B4FF6FB731940114313
:1039A000018370470A460021018B4FF6FF3319400F
:1039B0004FF6FF7303EA02231943018370470A4657
:1039C0000021818B4FF6FB731940114381837047AF
:1039D0000A460021818B4FF6FF3319404FF6FF73E3
:1039E00003EA02231943818370470A460021018BB1
:1039F0004FF67F7319401143018370470A46002137
:103A0000018BC1F30E014FF6FF7303EA0223194342
:103A1000018370470A460021818B4FF67F7319405E
:103A20001143818370470A460021818BC1F30E0147
:103A30004FF6FF7303EA02231943818370470A4656
:103A40000021018C4FF6FD7319401143018470472A
:103A50000A460021018C4FF6F77319401143018487
:103A600070470A460021018C4FF6DF7319404FF66C
:103A7000FF7303EA02131943018470470A460021C9
:103A8000018C4FF67F7319404FF6FF7303EA021360
:103A90001943018470470A460021018C4FF6FF53F9
:103AA00019404FF6FF7303EA02231943018470475C
:103AB0000A460021018C4FF2FF7319404FF6FF7345
:103AC00003EA02231943018470470A460021018C4E
:103AD0004DF6FF7319404FF6FF7303EA02331943A3
:103AE0000184704730B5002301248C40A3B2048CBC
:103AF0009C430484048C02FA01F5ADB22C43048487
:103B000030BD30B5002304248C40A3B2048C9C4308
:103B10000484048C02FA01F5ADB22C43048430BD58
:103B2000828B4FF2FF331A408283828B4FF6FF73F2
:103B300003EA01231A4382837047F0B50C46154609
:103B4000002100220026078C4EF6FF7C07EA0C07B6
:103B50000784818B028C4FF6FF7707EA043640F624
:103B6000FF4739404FF6FF7707EA052739434FF6FD
:103B7000FF7707EA0337394345F6FF773A4046F4C3
:103B800080573A4381830284F0BD828B4FF6F373F2
:103B90001A408283828B0A4382837047F0B50C46B9
:103BA0001546002100220026078C4FF6FF6C07EA1D
:103BB0000C070784818B028C4FF6FF7707EA0426F7
:103BC0004FF60C7739404FF6FF7707EA03172F437C
:103BD00039434FF2FF573A4046F480773A438183A6
:103BE0000284F0BD028B4FF2FF331A400283028B36
:103BF0004FF6FF7303EA01231A4302837047F0B5BF
:103C00000C461546002100220026078C4FF6EF7C5B
:103C100007EA0C070784018B028C4FF6FF7707EA4F
:103C2000041640F6FF4739404FF6FF7707EA03379F
:103C300039434FF6FF7703E00000014000040140E4
:103C400007EA052739434FF65F773A4046F01007F9
:103C50003A4301830284F0BD028B4FF6F3731A409E
:103C60000283028B0A4302837047F0B50C46154667
:103C700000210022068C4FF6FE773E400684018B21
:103C8000028C4FF60C7631407E1C06EA03162E435A
:103C900031434FF6F576324044F00106324301835A
:103CA0000284F0BD70B505460C46208850B92389C2
:103CB000A28861882846FFF7D8FFE1882846FFF7E9
:103CC000CBFF25E0208804280AD12389A2886188B7
:103CD0002846FFF794FFE1882846FFF783FF17E0A7
:103CE000208808280AD12389A28861882846FFF7FE
:103CF00055FFE1882846FFF748FF09E02389A2889D
:103D000061882846FFF719FFE1882846FFF708FF7A
:103D100070BD002101804180012181800021C1808E
:103D2000018170472DE9F04105460C460026012728
:103D3000608808B9022600E00026A088012801D189
:103D4000022700E001272088A0B92389A288618882
:103D50002846FFF78AFFE1882846FFF77DFF238981
:103D60003A4631462846FFF74AFFE1882846FFF7E2
:103D700039FF13E02389A28861882846FFF73FFFB7
:103D8000E1882846FFF72EFF23893A463146284628
:103D9000FFF76BFFE1882846FFF75EFFBDE8F08183
:103DA0000146486B70470146886B70470146C86BF7
:103DB00070470146086C70470A884B881A438B8805
:103DC0001A43CB881A430B891A434B891A438B89B0
:103DD0001A43A0F84420704700210180418081806F
:103DE000C180018141818181704731B1B0F84420A7
:103DF00042F40042A0F8442005E0B0F84420C2F3A9
:103E00000E02A0F84420704721B1828842F00402DB
:103E1000828004E082884FF6FB731A4082807047EC
:103E200021B1828842F00102828004E082884FF64C
:103E3000FE731A40828070471AB183890B438381D5
:103E400002E083898B4383817047818270470246F9
:103E50000020138A0B400BB1012000E000207047C6
:103E6000CA430282704730B5024600200023002476
:103E7000158A05EA0103958905EA010413B10CB11D
:103E8000012000E0002030BDCA430282704741EAB1
:103E90000203A0F8483070471AB183890B4383812D
:103EA00002E083898B438381704721B1828842F08D
:103EB0000802828004E082884FF6F7731A408280FD
:103EC000704701894FF6F8721140018170470A4628
:103ED000002101894FF68F7319401143018170470A
:103EE00030B504460D4629462046FFF7F0FF2089ED
:103EF00040F00700208130BD2DE9F04104460D4619
:103F000016461F46602D06D13B460122314620460B
:103F1000FFF775FE05E03B46012231462046FFF7DC
:103F2000A4FE29462046FFF7D2FF208940F0070073
:103F30002081BDE8F08130B50C4600210189C9B26D
:103F40004FF6FF7505EA03251543254329430181F3
:103F500030BD2DE9F04105460E461746984600242F
:103F600043463A4631462846FFF7E5FF2C894FF68F
:103F7000F870044044F007044FF68F70044044F09A
:103F800070042C81BDE8F081F0B504460D4616465C
:103F90001F463B46324629462046FFF7CCFF208984
:103FA00040F480402081F0BD82884FF68F731A4024
:103FB000828082880A438280704702894FF6F873B4
:103FC0001A40028102890A430281704702894FF632
:103FD0007F731A40028102890A4302817047F0B55B
:103FE0000C4615461E460021002200230189028B43
:103FF000038C4FF6F877394021434FF6FC473A409F
:1040000040F201173A434FF6DD773B404FF6FF771A
:1040100007EA06172F433B43018102830384F0BD67
:1040200021B1828842F08002828004E082884FF6CB
:104030007F731A4082807047A0F8501070470000CC
:104040000A460021DBE0D30B002B75D0102971D27A
:10405000DFE801F0080F161D242B323940464C5280
:10406000585E646A038823F4004303F50043038029
:1040700060E0038823F4804303F58043038059E024
:10408000038823F4005303F50053038052E00388B0
:1040900023F4805303F5805303804BE0038823F41B
:1040A000006303F50063038044E0038823F4806326
:1040B00003F5806303803DE0038823F4007303F578
:1040C0000073038036E0038823F4807303F5807364
:1040D00003802FE0038823F080038033038029E0EE
:1040E000038823F040034033038023E0038823F058
:1040F0002003203303801DE0038823F010031033D6
:10410000038017E0038823F008030833038011E0DD
:10411000038823F004031B1D03800BE0038823F0B6
:1041200002039B1C038005E0038823F001035B1C52
:10413000038000BF5DE0FFE7102959D2DFE801F0FE
:10414000080D12171C21262B30353A3F44494E5397
:10415000038823F4004303804AE0038823F4804368
:10416000038045E0038823F40053038040E0038884
:1041700023F4805303803BE0038823F4006303802F
:1041800036E0038823F48063038031E0038823F45E
:10419000007303802CE0038823F48073038027E0FE
:1041A000038823F08003038022E0038823F0400388
:1041B00003801DE0038823F02003038018E00388B8
:1041C00023F01003038013E0038823F00803038027
:1041D0000EE0038823F00403038009E0038823F042
:1041E0000203038004E0038823F00103038000BF7F
:1041F00000BF4FF6FF7303EA42024B1CD9B21029ED
:10420000FFF621AF7047F0B51C46002600250123BC
:10421000C1F11007974202DAC1F11007FAB20E4657
:10422000002E0CDD05E0EF18BDB24FF6FF7707EA70
:104230004303371EA6F1010C0CF0FF06F3D1D0F8B2
:1042400014C04FF6FF7797408F402F430CEA070CBE
:10425000C0F814C0476904FA01FC47EA0C0747613B
:10426000F0BD10B56FF00400FDF7F4FE15203949DC
:1042700008700846007800EB4001C1EBC0104FF613
:10428000FF7101EAC0003449088010BD0146314A7F
:1042900012784A434FF0E0235A6100229A611A468D
:1042A000126942F001021A6100BF4FF0E02210696A
:1042B00000F001021AB100F48032002AF5D04FF06C
:1042C000E022126922F001024FF0E0231A6100227D
:1042D0009A6170470146204A12884A434FF0E02312
:1042E0005A6100229A611A46126942F001021A616B
:1042F00000BF4FF0E022106900F001021AB100F493
:104300008032002AF5D04FF0E022126922F001023B
:104310004FF0E0231A6100229A61704770B504469D
:104320004FF4077094FBF0F0C6B24FF4077094FBA3
:10433000F0F100FB114085B205E04FF40770FFF784
:10434000C9FF701EC6B2002EF7D115B12846FFF77F
:10435000C1FF70BD66000020680000200FB4044952
:1043600010B503AA029800F0D7F910BC5DF814FB51
:10437000F80100200FB41CB5074B06AA7B44694620
:104380000090059800F099F90020694600F0A8F91E
:104390001CBC5DF814FB0000610300002DE9F04136
:1043A0000E460446002020622046E168884730B36C
:1043B000252805D0D4E901219047206A401CF2E766
:1043C000E168204600278847050018D0A5F1410084
:1043D000192802D820354FF4006732462946204676
:1043E0002760FBF70BFF40B1012804D0F61D26F033
:1043F00007060836D8E7361DD6E72846DAE7206AEA
:10440000BDE8F08170B50C460546012A05D0287834
:10441000800600D5EA69002302E0012305E05B1C69
:10442000934202D2E05C0028F9D1A869E618C01ACC
:10443000A861286A184428622846AFF3008004E087
:10444000D5E9012114F8010B9047B442F8D328466E
:10445000AFF3008070BD00002DE9F0410646002456
:1044600010687529314616A510D0AFF300800028DA
:1044700002DA404213A507E031688A0701D512A588
:1044800002E0490704D511A5012401E0AFF3008043
:1044900000210A2206F1240709E0B0FBF2FCB0FB80
:1044A000F2F302FB1C00303078541846491C0028F7
:1044B000F3D123462A463046BDE8F04100F09FB8CC
:1044C000000000002D0000002B0000002000000074
:1044D00030B505460B462A4613F8014B12F8010B7E
:1044E00008B1A042F8D01CB1002802D06D1CF1E741
:1044F000284630BD10B5431C02E010F8011B71B115
:104500008107FAD14FF0013202C88C1A8C4314EAA9
:10451000C211F9D0C01A0A0603D0C01E10BDC01ABD
:1045200010BD0A0401D0801E10BD0902FCD0401E3F
:1045300010BD4FF000020429C0F0128010F0030CEF
:1045400000F0FE80CCF1040CBCF1020F18BF00F8A3
:10455000012BA8BF20F8022BA1EB0C0100F0F0B852
:104560005FEAC17C24BF00F8012B00F8012B48BF93
:1045700000F8012B704700004FF0013C50F8042B6D
:1045800051F8043B9A4221D1A2EB0C03934313EA66
:10459000CC1317D150F8042B51F8043B9A4215D193
:1045A000A2EB0C03934313EACC130BD150F8042B6A
:1045B00051F8043B9A4209D1A2EB0C03934313EA4E
:1045C000CC13DBD04FF00000704700BFD01A01BA07
:1045D000B1FA81F101F0180122FA01F0CB40C1F1EA
:1045E0002001DBB2C0B2C01A2CFA01F3D11A9143F8
:1045F00011EAC311E6D170477047704770472DE943
:10460000F0470D4699469246044600F12408016899
:10461000880604D5E06921F01001216000E0012046
:10462000A84201DD471B00E00027A1697A1902EBCF
:104630000900081AA0612078C00602D42046AFF312
:104640000080002608E0D4E901211AF8060090470E
:10465000206A401C761C20624E45F4DB2078C006A0
:104660000AD52046AFF3008006E0D4E901213020CE
:104670009047206A401C2062381EA7F10107F4DC35
:1046800007E0D4E9012118F805009047206A401C92
:104690002062281EA5F10105F3DC2046AFF300805F
:1046A0002078000602D50220BDE8F0870120FBE754
:1046B00001694A1C02610878704700B58FB0CDE9E6
:1046C00001310021059105497944CDE903101146D6
:1046D0006846FFF763FE0FB000BD0000E5FFFFFF77
:1046E0000A6802F8010B0A60704710B5436913B1FC
:1046F000AFF3008001E0FFF785FE012010BD1278C6
:1047000000F124010A7000224A700122EDE71168CD
:104710004FF0FF32E9E70000074B70B50D467B44D0
:10472000FFF7CBFF0446284600F02FF810B14FF0FA
:10473000FF3070BD204670BD93D0FFFF4FF00002E8
:1047400000B5134694469646203922BFA0E80C5087
:10475000A0E80C50B1F12001BFF4F7AF090728BF62
:10476000A0E80C5048BF0CC05DF804EB890028BFDE
:1047700040F8042B08BF704748BF20F8022B11F007
:10478000804F18BF00F8012B7047007B00F08000BD
:104790007047000010B542485421FFF7CFFF414851
:1047A0005421FFF7CBFF40485421FFF7C7FF3F4993
:1047B0003B483C4A3F4B08603D490A603A49196012
:1047C000531C0365481C1065012008653B48344AAA
:1047D00039A1784400F01CF920B9384878440A38E7
:1047E00000F0BBF937482F4A35A1784400F010F9A2
:1047F00020B9344878440A3800F0AFF932482A4AE0
:104800002FA1784400F004F920B92F4878440A38E1
:1048100000F0A3F940232248DC000021224600F0EA
:10482000D4F820B125487844543800F096F91D4852
:1048300022464023002100F0C8F820B121487844E6
:10484000543800F08AF9184822461023002100F05D
:10485000BCF8002806D01C487844BDE81040563803
:1048600000F07BB910BD104870B5006D20F0010458
:104870000B4800F043F90B4800F040F90A4800F0FB
:104880003DF909E0206D20F00105204600F036F9E1
:10489000204600F073F82C46002CF3D170BD0000C8
:1048A000A4010020F80100204C0200206C00002030
:1048B0007000002074000020720000004E240000F0
:1048C000770000003A240000262400000EB5CDE950
:1048D0000001FFF70FFE029069460120ABBE0EBD3E
:1048E00008B5694600900220ABBE08BD1FB58DE833
:1048F000070069460520ABBE04B010BD1FB58DE8AA
:104900000F0069460620ABBEF6E708B56946009081
:104910000920ABBE08BD1CB5CDE9000169460A20DF
:10492000ABBE1CBD704708B5694600900C20ABBEFD
:1049300008BD754600F018F9AE46050069465346B5
:1049400020F00700854618B020B5FBF795FDBDE8BF
:1049500020404FF000064FF000074FF000084FF0E6
:10496000000B21F00701AC46ACE8C009ACE8C00977
:10497000ACE8C009ACE8C0098D46704770B5044684
:10498000051F00F0F7F80068002C14BF446870BDE4
:10499000002C18BFAC423CBF20466468F8D30168C5
:1049A0000A18AA4218BF456003D12A680546114477
:1049B000016028684119A1421CBF6C6070BD61682C
:1049C000696021680844286070BD70B5C468A50797
:1049D00013D0650211D4B2F5807F09D0B2F5007F03
:1049E00006D0B2F5806F08D1012300F1240106E062
:1049F0005D1E6FF07F46B54201D3012070BD01619D
:104A0000C361416024F470611143C160002070BD36
:104A10002DE9F0410C4607461646104600F06EF8A8
:104A20002078611C61280AD0722802D077283CD1F6
:104A300002E00125002405E00225042402E0082408
:104A400048F2020511F8010B2B2806D0622809D084
:104A500011F8010C74280AD00BE045F0030544F06E
:104A60000204EFE745F0040544F00104EAE744F0EE
:104A7000100438462146FFF729FF411C15D00021BC
:104A8000316171604FF40071F560F1617061200770
:104A900004D530460222002100F0E6F8306D40F0E7
:104AA000010030653046BDE8F0810020FBE72DE9CC
:104AB000F0410D460646104C206DC10704D0410858
:104AC00004D020F00104F7E722460EE0542000F065
:104AD0009CF807000ED0206D47F0010108435421D7
:104AE00020653846FFF72AFE3A4629463046BDE89B
:104AF000F0418DE70020D6E7A40100202DE9F04722
:104B000004464FF000094FF0FF37C568D4E904862A
:104B1000A80707D0204600F057F93046FFF7E0FE1F
:104B2000002802DA3846BDE8F087280502D540465D
:104B3000FFF724FF4C212046FFF700FE206D20F0F8
:104B4000010020654846EEE710B50446AFF300804B
:104B50002046BDE81040FBF770BB10B500F07EF9B1
:104B6000BDE8104000F074B900487047A002002072
:104B70007047000000487047A80200207047704747
:104B80007047704738B504460A4600206946AFF3BF
:104B90000080002808BF38BD02460099204600F07A
:104BA00084F9012038BD012000F0D3B9F8B5AFF386
:104BB0000080054600200C46102000BF0646A819BC
:104BC000A0420DD9324669460020AFF300800700AD
:104BD00008BF00F0BEF90098A04218BF0546C419EE
:104BE000FFF7C8FF05600746F01D20F007004619D3
:104BF000284600F053F9B44208BFF8BDA21B314665
:104C00003868BDE8F84000F050B970B50646FFF7C7
:104C1000B1FF056806F10B0020F00704B4429CBF09
:104C2000002070BD2B466A68BAB11068A04210D34C
:104C300004F1080188423CBF5068586007D35168AE
:104C4000101941601168091B016058601460101D43
:104C500070BD13465268002AE7D121462846FFF767
:104C600091FF0028DED170BD2DE9F04104461646C3
:104C70000D464769007B80072ED03846FFF745FE7A
:104C800050BB3EB3012E02D0022E25D104E02046B7
:104C900000F025F905441DE03846FFF744FEE168C1
:104CA000002841F01001E16005DA204600F058F8D4
:104CB0000120BDE8F081C9030BD56268E16A914229
:104CC00000D81146A26911442269891A814200DD87
:104CD00008460544002D01DA0220EAE7E16A60682F
:104CE000E268814206D29103E06203D522F40031EA
:104CF00041F01002A6690027AE4213DCE16A81424E
:104D000001D90B4600E0034603EB060C2369ACEB2C
:104D1000030CAC4506DD814201D98C4600E0844697
:104D20009C4505D1A760276042F02000A5620DE0F8
:104D3000AD1BE669AE1B8142A66000D90846C01AC9
:104D4000281A20605819606022F0200003490840AA
:104D5000E060002084F84870ABE70000BFCFD7FFC9
:104D6000C16821F4001141F08001C160002181601F
:104D7000016070472DE9F047814614460E464FF01A
:104D8000FF383248D5685769054209D03846A169CD
:104D9000FFF7C1FD002811DB2C48C0430540E5604A
:104DA0002B46324649463846FFF7A0FDA16920F060
:104DB0000042B21A11440028A16103D02046FFF737
:104DC000CFFF4046BDE8F08770B504460569C06A6C
:104DD0006168884200D80846E16821F42011E1604A
:104DE000C90312D5A84208D02246411B2846FFF726
:104DF000C1FF10B14FF0FF3070BD0020E562C4E983
:104E00000150E06820F48030E060002070BD10B5F3
:104E10000446C06820F02000E060A16AA0698842D2
:104E20000DD02046FFF7D0FFE06820F4405040F05E
:104E30001000E060A06AA0612069E062606044F256
:104E40004001E0688843E06010BD000010000200EF
:104E5000002801D000F01CB87047000010B50146D2
:104E600002A000F05DF8012010BD00005349475238
:104E7000545245443A2052656469726563743A201D
:104E800063616E2774206F70656E3A200000000029
:104E900001491820ABBEFEE7260002000021016098
:104EA000C0E90110704710207047034640688C46E7
:104EB000002818BF88423CBF03464068F8D31868F2
:104EC0001844884207D00CF1030020F00700001DB1
:104ED000411A521A0146081D0A60FFF74FBD10B56E
:104EE0000146C268900703D0900607D5886A0AE099
:104EF00000F03EF801210160881E10BD8B694868F2
:104F000018440B69C01A91F848301BB191F8491048
:104F1000401A10BD1103FCD50028FADD401E10BD5B
:104F200070B505460C460A2000E06D1C00F018F82C
:104F300035B128780028F8D102E0641C00F010F8A0
:104F400014B120780028F8D1BDE870400A2000F0A4
:104F500007B810B500F010F8BDE81040FFF778BFB3
:104F600008B569468DF800000320ABBE08BD0000FF
:104F700000487047A002002010B5012805D000218C
:104F800003A0FFF7CDFF012010BD09A1F8E7000045
:104F900053494752544D454D3A204F7574206F6622
:104FA0002068656170206D656D6F7279000000008A
:104FB0003A2048656170206D656D6F727920636F6E
:104FC00072727570746564004FF04070E1EE100A03
:104FD000704700000000000000000000000000001A
:104FE0000404040404040004000000140A0A00007D
:104FF000000000000000000014143F140A3F0A0AD9
:10500000000000041E1505060C14150F0400000016
:1050100012150D0A142C2A1200000000040A0A1EA0
:105020001515093600000002020100000000000012
:1050300000000020100808080808081020000002DE
:105040000408080808080804020000000004150EFF
:105050000E150400000000000404041F04040400F2
:10506000000000000000000000000002020100003B
:105070000000001F00000000000000000000000011
:1050800000000002000000100808080404020202E8
:10509000010000000E1111111111110E000000008D
:1050A000040604040404040E000000000E1111089C
:1050B0000402011F000000000E11100C1010110E50
:1050C00000000000080C0A0A091E08180000000071
:1050D0001F01010F1010110E000000000E09010F3A
:1050E0001111110E000000001F090804040404043B
:1050F000000000000E11110E1111110E0000000031
:105100000E1111111E10120E00000000000004000C
:105110000000000400000000000000040000000483
:105120000400002010080402040810200000000001
:1051300000001F00001F00000000000204081020F3
:1051400010080402000000000E11110804040004FD
:10515000000000000E111915151D011E00000000B1
:1051600004040C0A0A1E1233000000000F12120E73
:105170001212120F000000001E1101010101110E98
:10518000000000000F1212121212120F0000000095
:105190001F120A0E0A02121F000000001F120A0E40
:1051A0000A020207000000001C1201013911120C52
:1051B000000000003312121E121212330000000011
:1051C0001F0404040404041F000000003E08080833
:1051D000080808090700000037120A060A0A1237F1
:1051E00000000000070202020202223F000000004D
:1051F0001B1B1B1B15151515000000003B12161676
:105200001A1A1217000000000E1111111111110EBF
:10521000000000000F12120E020202070000000040
:105220000E1111111117190E180000000F12120E95
:105230000A121237000000001E1101060810110F9B
:10524000000000001F1504040404040E0000000008
:10525000331212121212120C000000003312120A42
:105260000A0C0404000000001515150E0A0A0A0AAB
:10527000000000001B0A0A04040A0A1B00000000C8
:105280001B0A0A040404040E000000001F0908049D
:105290000402121F0000001C04040404040404049B
:1052A0001C00000202020404080808100000000E9E
:1052B00008080808080808080E0000040A00000092
:1052C00000000000000000000000000000000000DE
:1052D000003F00040000000000000000000000008B
:1052E0000000000C121C123C000000000302020E21
:1052F0001212120E000000000000001C1202021C1C
:10530000000000001810101C1212123C00000000D7
:105310000000000C121E021C000000003804041ED5
:105320000404041E000000000000003C120C021ED9
:10533000221C00000302020E1212123700000000AD
:10534000040000060404040E000000000800000C25
:1053500008080808080700000302023A0A0E12377C
:1053600000000000070404040404041F00000000FF
:105370000000000F15151515000000000000000FBB
:1053800012121237000000000000000C1212120C62
:10539000000000000000000F1212120E02070000B1
:1053A0000000001C1212121C103800000000001B2C
:1053B00006020207000000000000001E020C101E82
:1053C000000000000004040E0404041800000000A3
:1053D0000000001B1212123C000000000000003709
:1053E000120A0C040000000000000015150E0A0A45
:1053F000000000000000001B0A040A1B000000005F
:1054000000000037120A0C04040300000000001E14
:105410000804041E0000001808080804080808080A
:1054200018000808080808080808080808080006FE
:105430000404040804040404060002251800000003
:10544000000000000000000000000000000000005C
:105450000000000000000000000808080808080814
:1054600000001818000000486C2412000000000022
:105470000000000000000000002424247F1212120B
:105480007F12121200000000081C2A2A0A0C182899
:10549000282A2A1C080800000022251515152A585C
:1054A0005454542200000000000C1212120A7625F7
:1054B0002911916E000000060604030000000000A0
:1054C0000000000000000040201010080808080834
:1054D00008101020400000020408081010101010DE
:1054E0001008080402000000000008086B1C1C6B78
:1054F00008080000000000000000080808087F08F5
:105500000808080000000000000000000000000083
:105510000000060604030000000000000000FE007A
:10552000000000000000000000000000000000007B
:1055300000000606000000008040402020101008F7
:1055400008040402020000000018244242424242C1
:10555000424224180000000000080E08080808084D
:105560000808083E00000000003C42424220201093
:105570000804427E00000000003C42422018204007
:105580004042221C00000000002030282424222257
:105590007E20207800000000007E0202021A2640D1
:1055A0004042221C0000000000382402021A264259
:1055B0004242241800000000007E22221010080839
:1055C0000808080800000000003C42424224182459
:1055D0004242423C0000000000182442424264580B
:1055E0004040241C000000000000000018180000CB
:1055F0000000181800000000000000000008000073
:105600000000000808040000004020100804020404
:105610000810204000000000000000007F00000093
:105620007F0000000000000000020408102040205D
:105630001008040200000000003C424246402010D6
:105640001000181800000000001C225A555555552E
:105650002D42221C00000000000808181414243CED
:10566000224242E700000000001F2222221E2242A6
:105670004242221F00000000007C42420101010161
:105680000142221C00000000001F2242424242420E
:105690004242221F00000000003F4212121E12125E
:1056A0000242423F00000000003F4212121E12124E
:1056B0000202020700000000003C222201010171E9
:1056C0002122221C0000000000E7424242427E42AA
:1056D000424242E700000000003E080808080808AF
:1056E0000808083E00000000007C10101010101088
:1056F00010101010110F0000007722120A0E0A126B
:1057000012222277000000000007020202020202B9
:105710000202427F000000000077363636362A2A21
:105720002A2A2A6B0000000000E346464A4A5252E9
:105730005262624700000000001C22414141414189
:105740004141221C00000000003F424242423E0212
:105750000202020700000000001C224141414141B9
:105760004D53321C60000000003F4242423E121284
:10577000222242C700000000007C4242020418209E
:105780004042423E00000000007F49080808080827
:105790000808081C0000000000E742424242424262
:1057A0004242423C0000000000E74242222424140E
:1057B0001418080800000000006B49494949555574
:1057C000362222220000000000E742242418181884
:1057D000242442E700000000007722221414080865
:1057E0000808081C00000000007E2120101008049A
:1057F0000442423F0000007808080808080808082A
:1058000008080808780000000202040408080810CC
:10581000102020204040001E1010101010101010FA
:10582000101010101E00003844000000000000009E
:105830000000000000000000000000000000000068
:105840000000000000FF000608000000000000004B
:10585000000000000000000000000000003C427852
:10586000444242FC0000000000030202021A2642E9
:105870004242261A000000000000000000384402E6
:10588000020244380000000000604040407844427A
:10589000424264D80000000000000000003C427E4C
:1058A0000202423C0000000000F08808087E080860
:1058B0000808083E0000000000000000007C2222D2
:1058C0001C023C42423C000000030202023A4642F3
:1058D000424242E700000000000C0C00000E0808E5
:1058E0000808083E0000000000303000003820208A
:1058F00020202020221E0000000302020272120A51
:105900001612227700000000000E08080808080898
:105910000808083E0000000000000000007F92928E
:10592000929292B70000000000000000003B464247
:10593000424242E70000000000000000003C4242FA
:105940004242423C0000000000000000001B2642D2
:105950004242221E0207000000000000007844427C
:105960004242447840E000000000000000774C0410
:105970000404041F0000000000000000007C42023C
:105980003C40423E0000000000000008083E0808BD
:1059900008080830000000000000000000634242D8
:1059A000424262DC000000000000000000E74224E8
:1059B00024140808000000000000000000EB494922
:1059C0005555222200000000000000000076241837
:1059D0001818246E000000000000000000E74224B8
:1059E000241418080807000000000000007E2210A0
:1059F0000808447E000000C0202020202010202025
:105A000020202020C00010101010101010101010B6
:105A100010101010101000060808080808100808D8
:105A20000808080806000C32C20000000000000050
:105A30000000000000000000000000000000000066
:105A40000000000000000000000000000000000056
:105A50000000000000000000000000000000000046
:105A60000000000000000000000000000000E00056
:105A7000E000E000E000E0004000400040004000A6
:105A800040004000000000000000E000E000E000F6
:105A90000000000000000000000060066006300307
:105AA0009801880044000000000000000000000091
:105AB00000000000000000000000000000000000E6
:105AC00000000000000000000000000000000000D6
:105AD0000802080208020802FE07FE070802080280
